{
  "_format": "hh-sol-artifact-1",
  "contractName": "AlphaOptionHandler",
  "sourceName": "contracts/AlphaOptionHandler.sol",
  "abi": [
    {
      "inputs": [
        {
          "internalType": "address",
          "name": "_authority",
          "type": "address"
        },
        {
          "internalType": "address",
          "name": "_protocol",
          "type": "address"
        },
        {
          "internalType": "address",
          "name": "_liquidityPool",
          "type": "address"
        }
      ],
      "stateMutability": "nonpayable",
      "type": "constructor"
    },
    {
      "inputs": [],
      "name": "InvalidBuyer",
      "type": "error"
    },
    {
      "inputs": [],
      "name": "InvalidOrder",
      "type": "error"
    },
    {
      "inputs": [],
      "name": "InvalidPrice",
      "type": "error"
    },
    {
      "inputs": [],
      "name": "OrderExpired",
      "type": "error"
    },
    {
      "inputs": [],
      "name": "OrderExpiryTooLong",
      "type": "error"
    },
    {
      "inputs": [
        {
          "internalType": "uint256",
          "name": "prod1",
          "type": "uint256"
        }
      ],
      "name": "PRBMath__MulDivFixedPointOverflow",
      "type": "error"
    },
    {
      "inputs": [],
      "name": "SpotMovedBeyondRange",
      "type": "error"
    },
    {
      "inputs": [],
      "name": "UNAUTHORIZED",
      "type": "error"
    },
    {
      "anonymous": false,
      "inputs": [
        {
          "indexed": false,
          "internalType": "contract IAuthority",
          "name": "authority",
          "type": "address"
        }
      ],
      "name": "AuthorityUpdated",
      "type": "event"
    },
    {
      "anonymous": false,
      "inputs": [
        {
          "indexed": false,
          "internalType": "uint256",
          "name": "feePerContract",
          "type": "uint256"
        }
      ],
      "name": "FeePerContractUpdated",
      "type": "event"
    },
    {
      "anonymous": false,
      "inputs": [
        {
          "indexed": false,
          "internalType": "address",
          "name": "feeRecipient",
          "type": "address"
        }
      ],
      "name": "FeeRecipientUpdated",
      "type": "event"
    },
    {
      "anonymous": false,
      "inputs": [
        {
          "indexed": true,
          "internalType": "address",
          "name": "series",
          "type": "address"
        },
        {
          "indexed": true,
          "internalType": "address",
          "name": "buyer",
          "type": "address"
        },
        {
          "indexed": false,
          "internalType": "uint256",
          "name": "optionAmount",
          "type": "uint256"
        },
        {
          "indexed": false,
          "internalType": "uint256",
          "name": "premium",
          "type": "uint256"
        },
        {
          "indexed": false,
          "internalType": "uint256",
          "name": "fee",
          "type": "uint256"
        }
      ],
      "name": "OptionsBought",
      "type": "event"
    },
    {
      "anonymous": false,
      "inputs": [
        {
          "indexed": true,
          "internalType": "address",
          "name": "series",
          "type": "address"
        },
        {
          "indexed": true,
          "internalType": "address",
          "name": "seller",
          "type": "address"
        },
        {
          "indexed": false,
          "internalType": "uint256",
          "name": "optionAmount",
          "type": "uint256"
        },
        {
          "indexed": false,
          "internalType": "uint256",
          "name": "premium",
          "type": "uint256"
        },
        {
          "indexed": false,
          "internalType": "uint256",
          "name": "fee",
          "type": "uint256"
        }
      ],
      "name": "OptionsSold",
      "type": "event"
    },
    {
      "anonymous": false,
      "inputs": [
        {
          "indexed": false,
          "internalType": "uint256",
          "name": "orderId",
          "type": "uint256"
        }
      ],
      "name": "OrderCreated",
      "type": "event"
    },
    {
      "anonymous": false,
      "inputs": [
        {
          "indexed": false,
          "internalType": "uint256",
          "name": "orderId",
          "type": "uint256"
        }
      ],
      "name": "OrderExecuted",
      "type": "event"
    },
    {
      "inputs": [],
      "name": "authority",
      "outputs": [
        {
          "internalType": "contract IAuthority",
          "name": "",
          "type": "address"
        }
      ],
      "stateMutability": "view",
      "type": "function"
    },
    {
      "inputs": [],
      "name": "collateralAsset",
      "outputs": [
        {
          "internalType": "address",
          "name": "",
          "type": "address"
        }
      ],
      "stateMutability": "view",
      "type": "function"
    },
    {
      "inputs": [
        {
          "components": [
            {
              "internalType": "uint64",
              "name": "expiration",
              "type": "uint64"
            },
            {
              "internalType": "uint128",
              "name": "strike",
              "type": "uint128"
            },
            {
              "internalType": "bool",
              "name": "isPut",
              "type": "bool"
            },
            {
              "internalType": "address",
              "name": "underlying",
              "type": "address"
            },
            {
              "internalType": "address",
              "name": "strikeAsset",
              "type": "address"
            },
            {
              "internalType": "address",
              "name": "collateral",
              "type": "address"
            }
          ],
          "internalType": "struct Types.OptionSeries",
          "name": "_optionSeries",
          "type": "tuple"
        },
        {
          "internalType": "uint256",
          "name": "_amount",
          "type": "uint256"
        },
        {
          "internalType": "uint256",
          "name": "_price",
          "type": "uint256"
        },
        {
          "internalType": "uint256",
          "name": "_orderExpiry",
          "type": "uint256"
        },
        {
          "internalType": "address",
          "name": "_buyerAddress",
          "type": "address"
        },
        {
          "internalType": "bool",
          "name": "_isBuyBack",
          "type": "bool"
        },
        {
          "internalType": "uint256[2]",
          "name": "_spotMovementRange",
          "type": "uint256[2]"
        }
      ],
      "name": "createOrder",
      "outputs": [
        {
          "internalType": "uint256",
          "name": "",
          "type": "uint256"
        }
      ],
      "stateMutability": "nonpayable",
      "type": "function"
    },
    {
      "inputs": [
        {
          "components": [
            {
              "internalType": "uint64",
              "name": "expiration",
              "type": "uint64"
            },
            {
              "internalType": "uint128",
              "name": "strike",
              "type": "uint128"
            },
            {
              "internalType": "bool",
              "name": "isPut",
              "type": "bool"
            },
            {
              "internalType": "address",
              "name": "underlying",
              "type": "address"
            },
            {
              "internalType": "address",
              "name": "strikeAsset",
              "type": "address"
            },
            {
              "internalType": "address",
              "name": "collateral",
              "type": "address"
            }
          ],
          "internalType": "struct Types.OptionSeries",
          "name": "_optionSeriesCall",
          "type": "tuple"
        },
        {
          "components": [
            {
              "internalType": "uint64",
              "name": "expiration",
              "type": "uint64"
            },
            {
              "internalType": "uint128",
              "name": "strike",
              "type": "uint128"
            },
            {
              "internalType": "bool",
              "name": "isPut",
              "type": "bool"
            },
            {
              "internalType": "address",
              "name": "underlying",
              "type": "address"
            },
            {
              "internalType": "address",
              "name": "strikeAsset",
              "type": "address"
            },
            {
              "internalType": "address",
              "name": "collateral",
              "type": "address"
            }
          ],
          "internalType": "struct Types.OptionSeries",
          "name": "_optionSeriesPut",
          "type": "tuple"
        },
        {
          "internalType": "uint256",
          "name": "_amountCall",
          "type": "uint256"
        },
        {
          "internalType": "uint256",
          "name": "_amountPut",
          "type": "uint256"
        },
        {
          "internalType": "uint256",
          "name": "_priceCall",
          "type": "uint256"
        },
        {
          "internalType": "uint256",
          "name": "_pricePut",
          "type": "uint256"
        },
        {
          "internalType": "uint256",
          "name": "_orderExpiry",
          "type": "uint256"
        },
        {
          "internalType": "address",
          "name": "_buyerAddress",
          "type": "address"
        },
        {
          "internalType": "uint256[2]",
          "name": "_callSpotMovementRange",
          "type": "uint256[2]"
        },
        {
          "internalType": "uint256[2]",
          "name": "_putSpotMovementRange",
          "type": "uint256[2]"
        }
      ],
      "name": "createStrangle",
      "outputs": [
        {
          "internalType": "uint256",
          "name": "",
          "type": "uint256"
        },
        {
          "internalType": "uint256",
          "name": "",
          "type": "uint256"
        }
      ],
      "stateMutability": "nonpayable",
      "type": "function"
    },
    {
      "inputs": [
        {
          "internalType": "uint256",
          "name": "_orderId",
          "type": "uint256"
        }
      ],
      "name": "executeBuyBackOrder",
      "outputs": [],
      "stateMutability": "nonpayable",
      "type": "function"
    },
    {
      "inputs": [
        {
          "internalType": "uint256",
          "name": "_orderId",
          "type": "uint256"
        }
      ],
      "name": "executeOrder",
      "outputs": [],
      "stateMutability": "nonpayable",
      "type": "function"
    },
    {
      "inputs": [
        {
          "internalType": "uint256",
          "name": "_orderId1",
          "type": "uint256"
        },
        {
          "internalType": "uint256",
          "name": "_orderId2",
          "type": "uint256"
        }
      ],
      "name": "executeStrangle",
      "outputs": [],
      "stateMutability": "nonpayable",
      "type": "function"
    },
    {
      "inputs": [],
      "name": "feePerContract",
      "outputs": [
        {
          "internalType": "uint256",
          "name": "",
          "type": "uint256"
        }
      ],
      "stateMutability": "view",
      "type": "function"
    },
    {
      "inputs": [],
      "name": "feeRecipient",
      "outputs": [
        {
          "internalType": "address",
          "name": "",
          "type": "address"
        }
      ],
      "stateMutability": "view",
      "type": "function"
    },
    {
      "inputs": [],
      "name": "liquidityPool",
      "outputs": [
        {
          "internalType": "contract ILiquidityPool",
          "name": "",
          "type": "address"
        }
      ],
      "stateMutability": "view",
      "type": "function"
    },
    {
      "inputs": [],
      "name": "orderIdCounter",
      "outputs": [
        {
          "internalType": "uint256",
          "name": "",
          "type": "uint256"
        }
      ],
      "stateMutability": "view",
      "type": "function"
    },
    {
      "inputs": [
        {
          "internalType": "uint256",
          "name": "",
          "type": "uint256"
        }
      ],
      "name": "orderStores",
      "outputs": [
        {
          "components": [
            {
              "internalType": "uint64",
              "name": "expiration",
              "type": "uint64"
            },
            {
              "internalType": "uint128",
              "name": "strike",
              "type": "uint128"
            },
            {
              "internalType": "bool",
              "name": "isPut",
              "type": "bool"
            },
            {
              "internalType": "address",
              "name": "underlying",
              "type": "address"
            },
            {
              "internalType": "address",
              "name": "strikeAsset",
              "type": "address"
            },
            {
              "internalType": "address",
              "name": "collateral",
              "type": "address"
            }
          ],
          "internalType": "struct Types.OptionSeries",
          "name": "optionSeries",
          "type": "tuple"
        },
        {
          "internalType": "uint256",
          "name": "amount",
          "type": "uint256"
        },
        {
          "internalType": "uint256",
          "name": "price",
          "type": "uint256"
        },
        {
          "internalType": "uint256",
          "name": "orderExpiry",
          "type": "uint256"
        },
        {
          "internalType": "address",
          "name": "buyer",
          "type": "address"
        },
        {
          "internalType": "address",
          "name": "seriesAddress",
          "type": "address"
        },
        {
          "internalType": "uint128",
          "name": "lowerSpotMovementRange",
          "type": "uint128"
        },
        {
          "internalType": "uint128",
          "name": "upperSpotMovementRange",
          "type": "uint128"
        },
        {
          "internalType": "bool",
          "name": "isBuyBack",
          "type": "bool"
        }
      ],
      "stateMutability": "view",
      "type": "function"
    },
    {
      "inputs": [],
      "name": "protocol",
      "outputs": [
        {
          "internalType": "contract Protocol",
          "name": "",
          "type": "address"
        }
      ],
      "stateMutability": "view",
      "type": "function"
    },
    {
      "inputs": [
        {
          "internalType": "contract IAuthority",
          "name": "_newAuthority",
          "type": "address"
        }
      ],
      "name": "setAuthority",
      "outputs": [],
      "stateMutability": "nonpayable",
      "type": "function"
    },
    {
      "inputs": [
        {
          "internalType": "uint256",
          "name": "_feePerContract",
          "type": "uint256"
        }
      ],
      "name": "setFeePerContract",
      "outputs": [],
      "stateMutability": "nonpayable",
      "type": "function"
    },
    {
      "inputs": [
        {
          "internalType": "address",
          "name": "_feeRecipient",
          "type": "address"
        }
      ],
      "name": "setFeeRecipient",
      "outputs": [],
      "stateMutability": "nonpayable",
      "type": "function"
    },
    {
      "inputs": [],
      "name": "strikeAsset",
      "outputs": [
        {
          "internalType": "address",
          "name": "",
          "type": "address"
        }
      ],
      "stateMutability": "view",
      "type": "function"
    },
    {
      "inputs": [],
      "name": "underlyingAsset",
      "outputs": [
        {
          "internalType": "address",
          "name": "",
          "type": "address"
        }
      ],
      "stateMutability": "view",
      "type": "function"
    }
  ],
  "bytecode": "0x610120604052620186a06004553480156200001957600080fd5b506040516200280b3803806200280b8339810160408190526200003c9162000288565b600080546001600160a01b0319166001600160a01b03851690811790915560405190815283907f2f658b440c35314f52658ea8a740e05b284cdc84dc9ae01e891f21b8933e7cad9060200160405180910390a150600180556001600160a01b0380831660a052811660808190526040805163555d766b60e11b8152905163aabaecd691600480820192602092909190829003018186803b158015620000e057600080fd5b505afa158015620000f5573d6000803e3d6000fd5b505050506040513d601f19601f820116820180604052508101906200011b9190620002d2565b6001600160a01b0316610100816001600160a01b0316815250506080516001600160a01b0316637158da7c6040518163ffffffff1660e01b815260040160206040518083038186803b1580156200017157600080fd5b505afa15801562000186573d6000803e3d6000fd5b505050506040513d601f19601f82011682018060405250810190620001ac9190620002d2565b6001600160a01b031660e0816001600160a01b0316815250506080516001600160a01b03166317d69bc86040518163ffffffff1660e01b815260040160206040518083038186803b1580156200020157600080fd5b505afa15801562000216573d6000803e3d6000fd5b505050506040513d601f19601f820116820180604052508101906200023c9190620002d2565b6001600160a01b0390811660c052600580546001600160a01b0319169290911691909117905550620002f79050565b80516001600160a01b03811681146200028357600080fd5b919050565b6000806000606084860312156200029e57600080fd5b620002a9846200026b565b9250620002b9602085016200026b565b9150620002c9604085016200026b565b90509250925092565b600060208284031215620002e557600080fd5b620002f0826200026b565b9392505050565b60805160a05160c05160e05161010051612427620003e4600039600081816103150152818161063f015281816108c501528181610d2d01528181610db801528181610dfb0152610fbb0152600081816102a10152818161058c0152818161086701528181610c7a01528181610f5d0152611287015260008181610115015281816105ad0152818161089601528181610c9b01528181610f8c01526112a80152600081816102db015281816116e6015281816118e701526119b101526000818161018f015281816106e30152818161074e01528181610e1d01528181610e4401526111e201526124276000f3fe608060405234801561001057600080fd5b50600436106100f65760003560e01c80638ce74426116100925780638ce74426146102d657806394f61134146102fd578063aabaecd614610310578063b342805c14610337578063be3744231461034a578063bf7e214f14610353578063d02f2b4c14610366578063dc56726f14610379578063e74b981b146103a157600080fd5b806317aecf24146100fb57806317d69bc8146101105780633a40cb231461014d57806343ddee1e146101605780634690484014610177578063665a11ca1461018a5780636ddd19af146101b15780637158da7c1461029c5780637a9e5e4b146102c3575b600080fd5b61010e610109366004611c69565b6103b4565b005b6101377f000000000000000000000000000000000000000000000000000000000000000081565b6040516101449190611c82565b60405180910390f35b61010e61015b366004611c69565b6103f8565b61016960045481565b604051908152602001610144565b600554610137906001600160a01b031681565b6101377f000000000000000000000000000000000000000000000000000000000000000081565b6102876101bf366004611c69565b600360208181526000928352604092839020835160c08101855281546001600160401b03811682526001600160801b03600160401b820481169483019490945260ff600160c01b909104811615159582019590955260018201546001600160a01b03908116606083015260028301548116608083015293820154841660a0820152600482015460058301546006840154600785015460088601546009870154600a9097015495999498939792969184169593169381831693600160801b909204909216911689565b60405161014499989796959493929190611cf2565b6101377f000000000000000000000000000000000000000000000000000000000000000081565b61010e6102d1366004611d73565b610a9b565b6101377f000000000000000000000000000000000000000000000000000000000000000081565b61010e61030b366004611c69565b610aee565b6101377f000000000000000000000000000000000000000000000000000000000000000081565b610169610345366004611f02565b611188565b61016960025481565b600054610137906001600160a01b031681565b61010e610374366004611f7e565b61156a565b61038c610387366004611fa0565b611580565b60408051928352602083019190915201610144565b61010e6103af366004611d73565b6115c5565b6103bc61162b565b60048190556040518181527f5bf9ca4bd761c1cfe3656017c057f8f5ae276f6432ce48b63af7c1a0e137c4f6906020015b60405180910390a150565b600260015414156104245760405162461bcd60e51b815260040161041b90612043565b60405180910390fd5b6002600181815560008381526003602081815260409283902083516101e08101855281546001600160401b03811661012083019081526001600160801b03600160401b8304811661014085015260ff600160c01b90930483161515610160850152978401546001600160a01b039081166101808501529884015489166101a08401529483015488166101c0830152938152600482015492810192909252600581015493820193909352600683015460608201526007830154851660808201819052600884015490951660a0820152600983015480851660c0830152600160801b900490931660e0840152600a9091015416151561010082015290331461053d576040516358ef870360e11b815260040160405180910390fd5b8060600151421115610562576040516362b439dd60e11b815260040160405180910390fd5b8061010001516105855760405163af61069360e01b815260040160405180910390fd5b60006105d17f00000000000000000000000000000000000000000000000000000000000000007f00000000000000000000000000000000000000000000000000000000000000006116e2565b9050808260c001516001600160801b031611806105fa5750808260e001516001600160801b0316105b1561061857604051633a5eb29d60e21b815260040160405180910390fd5b60006106358360400151846020015161180190919063ffffffff16565b905060006106d6827f00000000000000000000000000000000000000000000000000000000000000006001600160a01b031663313ce5676040518163ffffffff1660e01b815260040160206040518083038186803b15801561069657600080fd5b505afa1580156106aa573d6000803e3d6000fd5b505050506040513d601f19601f820116820180604052508101906106ce919061207a565b60ff1661180d565b905061074c8460a00151337f000000000000000000000000000000000000000000000000000000000000000061074788602001518960a001516001600160a01b031663313ce5676040518163ffffffff1660e01b815260040160206040518083038186803b15801561069657600080fd5b611849565b7f00000000000000000000000000000000000000000000000000000000000000006001600160a01b0316635733af2a8560000151866020015161078d6118e3565b8860a00151866000336040518863ffffffff1660e01b81526004016107b8979695949392919061209d565b602060405180830381600087803b1580156107d257600080fd5b505af11580156107e6573d6000803e3d6000fd5b505050506040513d601f19601f8201168201806040525081019061080a91906120eb565b506040805160c081019091528451516001600160401b03168152845160209081015160009291820190610847906001600160801b0316600861197b565b6001600160801b03168152602001866000015160400151151581526020017f00000000000000000000000000000000000000000000000000000000000000006001600160a01b031681526020017f00000000000000000000000000000000000000000000000000000000000000006001600160a01b031681526020017f00000000000000000000000000000000000000000000000000000000000000006001600160a01b031681525090506108fa6119ad565b6001600160a01b031663dce66fb88287602001516109179061211a565b60008960a001516040518563ffffffff1660e01b815260040161093d9493929190612137565b600060405180830381600087803b15801561095757600080fd5b505af115801561096b573d6000803e3d6000fd5b50505050336001600160a01b03168560a001516001600160a01b03167f1201e68ebf2c011f8f9dc2335621b736cee0c94274d0e4c7bc7e64bd9f00a2fd87602001518560006040516109d0939291909283526020830191909152604082015260600190565b60405180910390a36040518681527ff03ed60bf824bdd2c1387f3534cb0fd2ab10270e8ce0cb8b2daec90068eb943e9060200160405180910390a150505060009283525050600360208190526040822080546001600160c81b0319168155600180820180546001600160a01b031990811690915560028301805482169055928201805484169055600482018490556005820184905560068201849055600782018054841690556008820180549093169092556009810192909255600a909101805460ff191690558055565b610aa361162b565b600080546001600160a01b0319166001600160a01b0383161790556040517f2f658b440c35314f52658ea8a740e05b284cdc84dc9ae01e891f21b8933e7cad906103ed908390611c82565b60026001541415610b115760405162461bcd60e51b815260040161041b90612043565b6002600181815560008381526003602081815260409283902083516101e08101855281546001600160401b03811661012083019081526001600160801b03600160401b8304811661014085015260ff600160c01b90930483161515610160850152978401546001600160a01b039081166101808501529884015489166101a08401529483015488166101c0830152938152600482015492810192909252600581015493820193909352600683015460608201526007830154851660808201819052600884015490951660a0820152600983015480851660c0830152600160801b900490931660e0840152600a90910154161515610100820152903314610c2a576040516358ef870360e11b815260040160405180910390fd5b8060600151421115610c4f576040516362b439dd60e11b815260040160405180910390fd5b80610100015115610c735760405163af61069360e01b815260040160405180910390fd5b6000610cbf7f00000000000000000000000000000000000000000000000000000000000000007f00000000000000000000000000000000000000000000000000000000000000006116e2565b9050808260c001516001600160801b03161180610ce85750808260e001516001600160801b0316105b15610d0657604051633a5eb29d60e21b815260040160405180910390fd5b6000610d238360400151846020015161180190919063ffffffff16565b90506000610d84827f00000000000000000000000000000000000000000000000000000000000000006001600160a01b031663313ce5676040518163ffffffff1660e01b815260040160206040518083038186803b15801561069657600080fd5b90506000610da1856020015160045461180190919063ffffffff16565b905080600383901c1115610df657600554610de9907f00000000000000000000000000000000000000000000000000000000000000009033906001600160a01b031684611849565b610df3818361216b565b91505b610e427f0000000000000000000000000000000000000000000000000000000000000000337f000000000000000000000000000000000000000000000000000000000000000085611849565b7f00000000000000000000000000000000000000000000000000000000000000006001600160a01b031663bdb4246186600001518760a001518860200151610e886118e3565b876000336040518863ffffffff1660e01b8152600401610eae9796959493929190612182565b602060405180830381600087803b158015610ec857600080fd5b505af1158015610edc573d6000803e3d6000fd5b505050506040513d601f19601f82011682018060405250810190610f0091906120eb565b506040805160c081019091528551516001600160401b03168152855160209081015160009291820190610f3d906001600160801b0316600861197b565b6001600160801b03168152602001876000015160400151151581526020017f00000000000000000000000000000000000000000000000000000000000000006001600160a01b031681526020017f00000000000000000000000000000000000000000000000000000000000000006001600160a01b031681526020017f00000000000000000000000000000000000000000000000000000000000000006001600160a01b03168152509050610ff06119ad565b6001600160a01b031663dce66fb882886020015160008a60a001516040518563ffffffff1660e01b815260040161102a9493929190612137565b600060405180830381600087803b15801561104457600080fd5b505af1158015611058573d6000803e3d6000fd5b50505050336001600160a01b03168660a001516001600160a01b03167f484b240ef11454059ca96b3d0f11ee6e09c2d63ed81a40e300fcee0ac97f3cb0886020015186866040516110bc939291909283526020830191909152604082015260600190565b60405180910390a36040518781527ff03ed60bf824bdd2c1387f3534cb0fd2ab10270e8ce0cb8b2daec90068eb943e9060200160405180910390a150505060009384525050600360208190526040832080546001600160c81b0319168155600180820180546001600160a01b031990811690915560028301805482169055928201805484169055600482018590556005820185905560068201859055600782018054841690556008820180549093169092556009810193909355600a909201805460ff19169055508055565b6000611192611a08565b856111af5760405162bfc92160e01b815260040160405180910390fd5b6107088511156111d257604051639f2ace9560e01b815260040160405180910390fd5b60006111dc6118e3565b905060007f00000000000000000000000000000000000000000000000000000000000000006001600160a01b03166370183e0a8b6040518263ffffffff1660e01b815260040161122c91906121d3565b602060405180830381600087803b15801561124657600080fd5b505af115801561125a573d6000803e3d6000fd5b505050506040513d601f19601f8201168201806040525081019061127e91906121e1565b905060006112cc7f00000000000000000000000000000000000000000000000000000000000000007f00000000000000000000000000000000000000000000000000000000000000006116e2565b6040805161012081019182905263dac9675b60e01b909152909150600090806001600160a01b03861663dac9675b611308876101248501611c82565b60c06040518083038186803b15801561132057600080fd5b505afa158015611334573d6000803e3d6000fd5b505050506040513d601f19601f8201168201806040525081019061135891906121fe565b81526020018c81526020018b81526020018a4261137591906122a8565b81526001600160a01b038a811660208301528516604082015287516060909101906113a0908561216b565b6001600160801b0316815260200187600160200201516113c090856122a8565b6001600160801b031681526020018815158152509050600060025460016113e791906122a8565b60008181526003602081815260409283902086518051825482850151838801516001600160401b039093166001600160c01b031990921691909117600160401b6001600160801b03928316021760ff60c01b1916600160c01b921515929092029190911783556060808301516001850180546001600160a01b03199081166001600160a01b0393841617909155608080860151600288018054841691851691909117905560a09586015198870180548316998416999099179098558b87015160048701558b8901516005870155918b01516006860155958a0151600785018054831691881691909117905591890151600884018054909316951694909417905560c087015160e0880151908416600160801b9190941602929092176009830155610100860151600a909201805460ff19169215159290921790915590518281529192507f7e82078c35b6665b9d320ebeaa6c266960fad5b802c5558cf7df60c4769af95b910160405180910390a160028190559c9b505050505050505050505050565b61157382610aee565b61157c81610aee565b5050565b60008061158b611a08565b600061159d8d8c8b8a8a60008b611188565b905060006115b18d8c8b8b8b60008b611188565b9e919d50909b505050505050505050505050565b6115cd61162b565b6001600160a01b0381166115e057600080fd5b600580546001600160a01b0319166001600160a01b0383161790556040517f7a7b5a0a132f9e0581eb8527f66eae9ee89c2a3e79d4ac7e41a1f1f4d48a7fc2906103ed908390611c82565b60008054906101000a90046001600160a01b03166001600160a01b0316630c340a246040518163ffffffff1660e01b815260040160206040518083038186803b15801561167757600080fd5b505afa15801561168b573d6000803e3d6000fd5b505050506040513d601f19601f820116820180604052508101906116af91906121e1565b6001600160a01b0316336001600160a01b0316146116e05760405163075fd2b160e01b815260040160405180910390fd5b565b60007f00000000000000000000000000000000000000000000000000000000000000006001600160a01b031663741bef1a6040518163ffffffff1660e01b815260040160206040518083038186803b15801561173d57600080fd5b505afa158015611751573d6000803e3d6000fd5b505050506040513d601f19601f8201168201806040525081019061177591906121e1565b60405163051ce29b60e21b81526001600160a01b038581166004830152848116602483015291909116906314738a6c9060440160206040518083038186803b1580156117c057600080fd5b505afa1580156117d4573d6000803e3d6000fd5b505050506040513d601f19601f820116820180604052508101906117f891906120eb565b90505b92915050565b60006117f88383611b60565b6000601282111561181d57600080fd5b600061182a83601261216b565b905061183781600a6123a4565b61184190856123b0565b949350505050565b600084905060006040516323b872dd60e01b81526001600160a01b03861660048201526001600160a01b03851660248201528360448201526000806064836000875af191505061189881611c22565b6118db5760405162461bcd60e51b81526020600482015260146024820152731514905394d1915497d19493d357d1905253115160621b604482015260640161041b565b505050505050565b60007f00000000000000000000000000000000000000000000000000000000000000006001600160a01b0316633b4567b06040518163ffffffff1660e01b815260040160206040518083038186803b15801561193e57600080fd5b505afa158015611952573d6000803e3d6000fd5b505050506040513d601f19601f8201168201806040525081019061197691906121e1565b905090565b6000601282111561198b57600080fd5b61199682601261216b565b90506119a381600a6123a4565b6117f890846123d2565b60007f00000000000000000000000000000000000000000000000000000000000000006001600160a01b0316635fb480c96040518163ffffffff1660e01b815260040160206040518083038186803b15801561193e57600080fd5b60008054906101000a90046001600160a01b03166001600160a01b031663481c6a756040518163ffffffff1660e01b815260040160206040518083038186803b158015611a5457600080fd5b505afa158015611a68573d6000803e3d6000fd5b505050506040513d601f19601f82011682018060405250810190611a8c91906121e1565b6001600160a01b0316336001600160a01b031614158015611b42575060008054906101000a90046001600160a01b03166001600160a01b0316630c340a246040518163ffffffff1660e01b815260040160206040518083038186803b158015611af457600080fd5b505afa158015611b08573d6000803e3d6000fd5b505050506040513d601f19601f82011682018060405250810190611b2c91906121e1565b6001600160a01b0316336001600160a01b031614155b156116e05760405163075fd2b160e01b815260040160405180910390fd5b60008080600019848609848602925082811083820303915050670de0b6b3a76400008110611ba45760405163698d9a0160e11b81526004810182905260240161041b565b600080670de0b6b3a76400008688099150506706f05b59d3b1ffff811182611bde5780670de0b6b3a76400008504019450505050506117fb565b620400008285030493909111909103600160ee1b02919091177faccb18165bd6fe31ae1cf318dc5b51eee0e1ba569b88cd74c1773b91fac106690201905092915050565b60003d82611c3457806000803e806000fd5b8060208114611c4c578015611c5d5760009250611c62565b816000803e60005115159250611c62565b600192505b5050919050565b600060208284031215611c7b57600080fd5b5035919050565b6001600160a01b0391909116815260200190565b80516001600160401b031682526020808201516001600160801b0316908301526040808201511515908301526060808201516001600160a01b039081169184019190915260808083015182169084015260a09182015116910152565b6101c08101611d01828c611c96565b60c082019990995260e08101979097526101008701959095526001600160a01b03938416610120870152919092166101408501526001600160801b039182166101608501521661018083015215156101a090910152919050565b6001600160a01b0381168114611d7057600080fd5b50565b600060208284031215611d8557600080fd5b8135611d9081611d5b565b9392505050565b634e487b7160e01b600052604160045260246000fd5b6001600160401b0381168114611d7057600080fd5b6001600160801b0381168114611d7057600080fd5b8015158114611d7057600080fd5b600060c08284031215611df757600080fd5b60405160c081018181106001600160401b0382111715611e1957611e19611d97565b6040529050808235611e2a81611dad565b81526020830135611e3a81611dc2565b60208201526040830135611e4d81611dd7565b60408201526060830135611e6081611d5b565b60608201526080830135611e7381611d5b565b608082015260a0830135611e8681611d5b565b60a0919091015292915050565b600082601f830112611ea457600080fd5b604051604081018181106001600160401b0382111715611ec657611ec6611d97565b8060405250806040840185811115611edd57600080fd5b845b81811015611ef7578035835260209283019201611edf565b509195945050505050565b60008060008060008060006101a0888a031215611f1e57600080fd5b611f288989611de5565b965060c0880135955060e088013594506101008801359350610120880135611f4f81611d5b565b9250610140880135611f6081611dd7565b9150611f70896101608a01611e93565b905092959891949750929550565b60008060408385031215611f9157600080fd5b50508035926020909101359150565b6000806000806000806000806000806102c08b8d031215611fc057600080fd5b611fca8c8c611de5565b9950611fd98c60c08d01611de5565b98506101808b013597506101a08b013596506101c08b013595506101e08b013594506102008b013593506102208b013561201281611d5b565b92506120228c6102408d01611e93565b91506120328c6102808d01611e93565b90509295989b9194979a5092959850565b6020808252601f908201527f5265656e7472616e637947756172643a207265656e7472616e742063616c6c00604082015260600190565b60006020828403121561208c57600080fd5b815160ff81168114611d9057600080fd5b61018081016120ac828a611c96565b60c08201979097526001600160a01b0395861660e082015293851661010085015261012084019290925261014083015290911661016090910152919050565b6000602082840312156120fd57600080fd5b5051919050565b634e487b7160e01b600052601160045260246000fd5b6000600160ff1b82141561213057612130612104565b5060000390565b61012081016121468287611c96565b60c082019490945260e08101929092526001600160a01b031661010090910152919050565b60008282101561217d5761217d612104565b500390565b6101808101612191828a611c96565b6001600160a01b0397881660c083015260e082019690965293861661010085015261012084019290925261014083015290921661016090920191909152919050565b60c081016117fb8284611c96565b6000602082840312156121f357600080fd5b8151611d9081611d5b565b600060c0828403121561221057600080fd5b60405160c081018181106001600160401b038211171561223257612232611d97565b604052825161224081611dad565b8152602083015161225081611dc2565b6020820152604083015161226381611dd7565b6040820152606083015161227681611d5b565b6060820152608083015161228981611d5b565b608082015260a083015161229c81611d5b565b60a08201529392505050565b600082198211156122bb576122bb612104565b500190565b600181815b808511156122fb5781600019048211156122e1576122e1612104565b808516156122ee57918102915b93841c93908002906122c5565b509250929050565b600082612312575060016117fb565b8161231f575060006117fb565b8160018114612335576002811461233f5761235b565b60019150506117fb565b60ff84111561235057612350612104565b50506001821b6117fb565b5060208310610133831016604e8410600b841016171561237e575081810a6117fb565b61238883836122c0565b806000190482111561239c5761239c612104565b029392505050565b60006117f88383612303565b6000826123cd57634e487b7160e01b600052601260045260246000fd5b500490565b60008160001904831182151516156123ec576123ec612104565b50029056fea2646970667358221220db8a492187d1f0cafec76c5e7c2be5187f41e1ea6dce53db91a13f7698c107a264736f6c63430008090033",
  "linkReferences": {},
  "deployedLinkReferences": {}
}