{
  "_format": "hh-sol-artifact-1",
  "contractName": "Manager",
  "sourceName": "contracts/Manager.sol",
  "abi": [
    {
      "inputs": [
        {
          "internalType": "address",
          "name": "_authority",
          "type": "address"
        },
        {
          "internalType": "address",
          "name": "_liquidityPool",
          "type": "address"
        },
        {
          "internalType": "address",
          "name": "_optionHandler",
          "type": "address"
        },
        {
          "internalType": "address",
          "name": "_optionCatalogue",
          "type": "address"
        },
        {
          "internalType": "address",
          "name": "_optionExchange",
          "type": "address"
        },
        {
          "internalType": "address",
          "name": "_beyondPricer",
          "type": "address"
        }
      ],
      "stateMutability": "nonpayable",
      "type": "constructor"
    },
    {
      "inputs": [],
      "name": "ExceedsDeltaLimit",
      "type": "error"
    },
    {
      "inputs": [],
      "name": "InvalidAddress",
      "type": "error"
    },
    {
      "inputs": [],
      "name": "NotKeeper",
      "type": "error"
    },
    {
      "inputs": [],
      "name": "NotProxyManager",
      "type": "error"
    },
    {
      "inputs": [],
      "name": "PRBMathSD59x18__AbsInputTooSmall",
      "type": "error"
    },
    {
      "inputs": [],
      "name": "UNAUTHORIZED",
      "type": "error"
    },
    {
      "anonymous": false,
      "inputs": [
        {
          "indexed": false,
          "internalType": "contract IAuthority",
          "name": "authority",
          "type": "address"
        }
      ],
      "name": "AuthorityUpdated",
      "type": "event"
    },
    {
      "inputs": [],
      "name": "authority",
      "outputs": [
        {
          "internalType": "contract IAuthority",
          "name": "",
          "type": "address"
        }
      ],
      "stateMutability": "view",
      "type": "function"
    },
    {
      "inputs": [],
      "name": "beyondPricer",
      "outputs": [
        {
          "internalType": "contract BeyondPricer",
          "name": "",
          "type": "address"
        }
      ],
      "stateMutability": "view",
      "type": "function"
    },
    {
      "inputs": [
        {
          "components": [
            {
              "internalType": "uint64",
              "name": "expiration",
              "type": "uint64"
            },
            {
              "internalType": "uint128",
              "name": "strike",
              "type": "uint128"
            },
            {
              "internalType": "bool",
              "name": "isPut",
              "type": "bool"
            },
            {
              "internalType": "bool",
              "name": "isBuyable",
              "type": "bool"
            },
            {
              "internalType": "bool",
              "name": "isSellable",
              "type": "bool"
            }
          ],
          "internalType": "struct Types.Option[]",
          "name": "options",
          "type": "tuple[]"
        }
      ],
      "name": "changeOptionBuyOrSell",
      "outputs": [],
      "stateMutability": "nonpayable",
      "type": "function"
    },
    {
      "inputs": [
        {
          "components": [
            {
              "internalType": "uint64",
              "name": "expiration",
              "type": "uint64"
            },
            {
              "internalType": "uint128",
              "name": "strike",
              "type": "uint128"
            },
            {
              "internalType": "bool",
              "name": "isPut",
              "type": "bool"
            },
            {
              "internalType": "address",
              "name": "underlying",
              "type": "address"
            },
            {
              "internalType": "address",
              "name": "strikeAsset",
              "type": "address"
            },
            {
              "internalType": "address",
              "name": "collateral",
              "type": "address"
            }
          ],
          "internalType": "struct Types.OptionSeries",
          "name": "_optionSeries",
          "type": "tuple"
        },
        {
          "internalType": "uint256",
          "name": "_amount",
          "type": "uint256"
        },
        {
          "internalType": "uint256",
          "name": "_price",
          "type": "uint256"
        },
        {
          "internalType": "uint256",
          "name": "_orderExpiry",
          "type": "uint256"
        },
        {
          "internalType": "address",
          "name": "_buyerAddress",
          "type": "address"
        },
        {
          "internalType": "bool",
          "name": "_isBuyBack",
          "type": "bool"
        },
        {
          "internalType": "uint256[2]",
          "name": "_spotMovementRange",
          "type": "uint256[2]"
        }
      ],
      "name": "createOrder",
      "outputs": [
        {
          "internalType": "uint256",
          "name": "",
          "type": "uint256"
        }
      ],
      "stateMutability": "nonpayable",
      "type": "function"
    },
    {
      "inputs": [
        {
          "components": [
            {
              "internalType": "uint64",
              "name": "expiration",
              "type": "uint64"
            },
            {
              "internalType": "uint128",
              "name": "strike",
              "type": "uint128"
            },
            {
              "internalType": "bool",
              "name": "isPut",
              "type": "bool"
            },
            {
              "internalType": "address",
              "name": "underlying",
              "type": "address"
            },
            {
              "internalType": "address",
              "name": "strikeAsset",
              "type": "address"
            },
            {
              "internalType": "address",
              "name": "collateral",
              "type": "address"
            }
          ],
          "internalType": "struct Types.OptionSeries",
          "name": "_optionSeriesCall",
          "type": "tuple"
        },
        {
          "components": [
            {
              "internalType": "uint64",
              "name": "expiration",
              "type": "uint64"
            },
            {
              "internalType": "uint128",
              "name": "strike",
              "type": "uint128"
            },
            {
              "internalType": "bool",
              "name": "isPut",
              "type": "bool"
            },
            {
              "internalType": "address",
              "name": "underlying",
              "type": "address"
            },
            {
              "internalType": "address",
              "name": "strikeAsset",
              "type": "address"
            },
            {
              "internalType": "address",
              "name": "collateral",
              "type": "address"
            }
          ],
          "internalType": "struct Types.OptionSeries",
          "name": "_optionSeriesPut",
          "type": "tuple"
        },
        {
          "internalType": "uint256",
          "name": "_amountCall",
          "type": "uint256"
        },
        {
          "internalType": "uint256",
          "name": "_amountPut",
          "type": "uint256"
        },
        {
          "internalType": "uint256",
          "name": "_priceCall",
          "type": "uint256"
        },
        {
          "internalType": "uint256",
          "name": "_pricePut",
          "type": "uint256"
        },
        {
          "internalType": "uint256",
          "name": "_orderExpiry",
          "type": "uint256"
        },
        {
          "internalType": "address",
          "name": "_buyerAddress",
          "type": "address"
        },
        {
          "internalType": "uint256[2]",
          "name": "_callSpotMovementRange",
          "type": "uint256[2]"
        },
        {
          "internalType": "uint256[2]",
          "name": "_putSpotMovementRange",
          "type": "uint256[2]"
        }
      ],
      "name": "createStrangle",
      "outputs": [
        {
          "internalType": "uint256",
          "name": "",
          "type": "uint256"
        },
        {
          "internalType": "uint256",
          "name": "",
          "type": "uint256"
        }
      ],
      "stateMutability": "nonpayable",
      "type": "function"
    },
    {
      "inputs": [
        {
          "internalType": "address",
          "name": "",
          "type": "address"
        }
      ],
      "name": "deltaLimit",
      "outputs": [
        {
          "internalType": "uint256",
          "name": "",
          "type": "uint256"
        }
      ],
      "stateMutability": "view",
      "type": "function"
    },
    {
      "inputs": [
        {
          "components": [
            {
              "internalType": "uint64",
              "name": "expiration",
              "type": "uint64"
            },
            {
              "internalType": "uint128",
              "name": "strike",
              "type": "uint128"
            },
            {
              "internalType": "bool",
              "name": "isPut",
              "type": "bool"
            },
            {
              "internalType": "bool",
              "name": "isBuyable",
              "type": "bool"
            },
            {
              "internalType": "bool",
              "name": "isSellable",
              "type": "bool"
            }
          ],
          "internalType": "struct Types.Option[]",
          "name": "options",
          "type": "tuple[]"
        }
      ],
      "name": "issueNewSeries",
      "outputs": [],
      "stateMutability": "nonpayable",
      "type": "function"
    },
    {
      "inputs": [
        {
          "internalType": "address",
          "name": "",
          "type": "address"
        }
      ],
      "name": "keeper",
      "outputs": [
        {
          "internalType": "bool",
          "name": "",
          "type": "bool"
        }
      ],
      "stateMutability": "view",
      "type": "function"
    },
    {
      "inputs": [],
      "name": "liquidityPool",
      "outputs": [
        {
          "internalType": "contract LiquidityPool",
          "name": "",
          "type": "address"
        }
      ],
      "stateMutability": "view",
      "type": "function"
    },
    {
      "inputs": [],
      "name": "optionCatalogue",
      "outputs": [
        {
          "internalType": "contract OptionCatalogue",
          "name": "",
          "type": "address"
        }
      ],
      "stateMutability": "view",
      "type": "function"
    },
    {
      "inputs": [],
      "name": "optionExchange",
      "outputs": [
        {
          "internalType": "contract OptionExchange",
          "name": "",
          "type": "address"
        }
      ],
      "stateMutability": "view",
      "type": "function"
    },
    {
      "inputs": [],
      "name": "optionHandler",
      "outputs": [
        {
          "internalType": "contract IAlphaOptionHandler",
          "name": "",
          "type": "address"
        }
      ],
      "stateMutability": "view",
      "type": "function"
    },
    {
      "inputs": [],
      "name": "proxyManager",
      "outputs": [
        {
          "internalType": "address",
          "name": "",
          "type": "address"
        }
      ],
      "stateMutability": "view",
      "type": "function"
    },
    {
      "inputs": [],
      "name": "pullManager",
      "outputs": [],
      "stateMutability": "nonpayable",
      "type": "function"
    },
    {
      "inputs": [
        {
          "internalType": "int256",
          "name": "delta",
          "type": "int256"
        },
        {
          "internalType": "uint256",
          "name": "reactorIndex",
          "type": "uint256"
        }
      ],
      "name": "rebalancePortfolioDelta",
      "outputs": [],
      "stateMutability": "nonpayable",
      "type": "function"
    },
    {
      "inputs": [
        {
          "internalType": "address[]",
          "name": "_series",
          "type": "address[]"
        },
        {
          "internalType": "uint256[]",
          "name": "amountOutMinimums",
          "type": "uint256[]"
        }
      ],
      "name": "redeem",
      "outputs": [],
      "stateMutability": "nonpayable",
      "type": "function"
    },
    {
      "inputs": [
        {
          "internalType": "contract IAuthority",
          "name": "_newAuthority",
          "type": "address"
        }
      ],
      "name": "setAuthority",
      "outputs": [],
      "stateMutability": "nonpayable",
      "type": "function"
    },
    {
      "inputs": [
        {
          "internalType": "uint256",
          "name": "_collateralLendingRate",
          "type": "uint256"
        }
      ],
      "name": "setCollateralLendingRate",
      "outputs": [],
      "stateMutability": "nonpayable",
      "type": "function"
    },
    {
      "inputs": [
        {
          "internalType": "uint256",
          "name": "_deltaBandWidth",
          "type": "uint256"
        },
        {
          "internalType": "uint256[]",
          "name": "_callSlippageGradientMultipliers",
          "type": "uint256[]"
        },
        {
          "internalType": "uint256[]",
          "name": "_putSlippageGradientMultipliers",
          "type": "uint256[]"
        }
      ],
      "name": "setDeltaBandWidth",
      "outputs": [],
      "stateMutability": "nonpayable",
      "type": "function"
    },
    {
      "inputs": [
        {
          "components": [
            {
              "internalType": "int256",
              "name": "sellLong",
              "type": "int256"
            },
            {
              "internalType": "int256",
              "name": "sellShort",
              "type": "int256"
            },
            {
              "internalType": "int256",
              "name": "buyLong",
              "type": "int256"
            },
            {
              "internalType": "int256",
              "name": "buyShort",
              "type": "int256"
            }
          ],
          "internalType": "struct BeyondPricer.DeltaBorrowRates",
          "name": "_deltaBorrowRates",
          "type": "tuple"
        }
      ],
      "name": "setDeltaBorrowRates",
      "outputs": [],
      "stateMutability": "nonpayable",
      "type": "function"
    },
    {
      "inputs": [
        {
          "internalType": "uint256[]",
          "name": "_delta",
          "type": "uint256[]"
        },
        {
          "internalType": "address[]",
          "name": "_keeper",
          "type": "address[]"
        }
      ],
      "name": "setDeltaLimit",
      "outputs": [],
      "stateMutability": "nonpayable",
      "type": "function"
    },
    {
      "inputs": [
        {
          "internalType": "address",
          "name": "_keeper",
          "type": "address"
        },
        {
          "internalType": "bool",
          "name": "_auth",
          "type": "bool"
        }
      ],
      "name": "setKeeper",
      "outputs": [],
      "stateMutability": "nonpayable",
      "type": "function"
    },
    {
      "inputs": [
        {
          "internalType": "uint128",
          "name": "_newMinCallStrike",
          "type": "uint128"
        },
        {
          "internalType": "uint128",
          "name": "_newMaxCallStrike",
          "type": "uint128"
        },
        {
          "internalType": "uint128",
          "name": "_newMinPutStrike",
          "type": "uint128"
        },
        {
          "internalType": "uint128",
          "name": "_newMaxPutStrike",
          "type": "uint128"
        },
        {
          "internalType": "uint128",
          "name": "_newMinExpiry",
          "type": "uint128"
        },
        {
          "internalType": "uint128",
          "name": "_newMaxExpiry",
          "type": "uint128"
        }
      ],
      "name": "setNewOptionParams",
      "outputs": [],
      "stateMutability": "nonpayable",
      "type": "function"
    },
    {
      "inputs": [
        {
          "internalType": "address",
          "name": "_proxyManager",
          "type": "address"
        }
      ],
      "name": "setProxyManager",
      "outputs": [],
      "stateMutability": "nonpayable",
      "type": "function"
    },
    {
      "inputs": [
        {
          "internalType": "uint256",
          "name": "_slippageGradient",
          "type": "uint256"
        }
      ],
      "name": "setSlippageGradient",
      "outputs": [],
      "stateMutability": "nonpayable",
      "type": "function"
    },
    {
      "inputs": [
        {
          "internalType": "uint256[]",
          "name": "_callSlippageGradientMultipliers",
          "type": "uint256[]"
        },
        {
          "internalType": "uint256[]",
          "name": "_putSlippageGradientMultipliers",
          "type": "uint256[]"
        }
      ],
      "name": "setSlippageGradientMultipliers",
      "outputs": [],
      "stateMutability": "nonpayable",
      "type": "function"
    }
  ],
  "bytecode": "0x60806040523480156200001157600080fd5b5060405162001a7638038062001a76833981016040819052620000349162000109565b600080546001600160a01b0319166001600160a01b03881690811790915560405190815286907f2f658b440c35314f52658ea8a740e05b284cdc84dc9ae01e891f21b8933e7cad9060200160405180910390a150600380546001600160a01b03199081166001600160a01b03978816179091556002805482169587169590951790945560048054851693861693909317909255600580548416918516919091179055600680549092169216919091179055506200018a565b80516001600160a01b03811681146200010457600080fd5b919050565b60008060008060008060c087890312156200012357600080fd5b6200012e87620000ec565b95506200013e60208801620000ec565b94506200014e60408801620000ec565b93506200015e60608801620000ec565b92506200016e60808801620000ec565b91506200017e60a08801620000ec565b90509295509295509295565b6118dc806200019a6000396000f3fe608060405234801561001057600080fd5b506004361061016e5760003560e01c806396b4ca70116100ce578063d936582511610087578063d93658251461030b578063dc56726f1461031e578063e8cf860814610346578063ee5ca7ae14610379578063f56f7cee1461038c578063f58982621461039f578063fe7f3505146103b257600080fd5b806396b4ca7014610299578063b342805c146102ac578063b84137e8146102bf578063bf7e214f146102d2578063c377694f146102e5578063d1b9e853146102f857600080fd5b806353d190cf1161012b57806353d190cf146101f9578063665a11ca1461020c5780636724589e1461021f5780637a9e5e4b1461023257806381d7273e146102455780638e8135c31461027357806390b40d461461028657600080fd5b806322f96147146101735780632b3ee982146101a3578063368ffd70146101b857806345749915146101c0578063491fa4a4146101d3578063532785c7146101e6575b600080fd5b600654610186906001600160a01b031681565b6040516001600160a01b0390911681526020015b60405180910390f35b6101b66101b1366004610d62565b6103c5565b005b6101b661044d565b6101b66101ce366004610e4e565b6104b0565b6101b66101e1366004610e4e565b6104e7565b600554610186906001600160a01b031681565b6101b6610207366004610fb9565b61051e565b600354610186906001600160a01b031681565b6101b661022d36600461107a565b61058e565b6101b66102403660046110ee565b61062c565b6102656102533660046110ee565b60016020526000908152604090205481565b60405190815260200161019a565b600254610186906001600160a01b031681565b6101b6610294366004611112565b610688565b600854610186906001600160a01b031681565b6102656102ba366004611242565b6106c1565b6101b66102cd3660046112bc565b610765565b600054610186906001600160a01b031681565b6101b66102f3366004611308565b61079f565b6101b6610306366004611374565b610812565b600454610186906001600160a01b031681565b61033161032c3660046113a9565b61086c565b6040805192835260208301919091520161019a565b6103696103543660046110ee565b60076020526000908152604090205460ff1681565b604051901515815260200161019a565b6101b6610387366004611497565b61091b565b6101b661039a366004611112565b61099e565b6101b66103ad366004611502565b6109d7565b6101b66103c03660046110ee565b610a79565b6103cd610aca565b6006546040805163159f74c160e11b81528335600482015260208401356024820152908301356044820152606083013560648201526001600160a01b0390911690632b3ee982906084015b600060405180830381600087803b15801561043257600080fd5b505af1158015610446573d6000803e3d6000fd5b5050505050565b610455610b9a565b6000805460408051630368ffd760e41b815290516001600160a01b039092169263368ffd709260048084019382900301818387803b15801561049657600080fd5b505af11580156104aa573d6000803e3d6000fd5b50505050565b6104b8610aca565b60048054604051634574991560e01b81526001600160a01b039091169163457499159161041891859101611524565b6104ef610c4f565b60048054604051631247e92960e21b81526001600160a01b039091169163491fa4a49161041891859101611524565b610526610aca565b6005546040516353d190cf60e01b81526001600160a01b03909116906353d190cf9061055890859085906004016115e5565b600060405180830381600087803b15801561057257600080fd5b505af1158015610586573d6000803e3d6000fd5b505050505050565b610596610aca565b6003546040516333922c4f60e11b81526001600160801b0380891660048301528088166024830152808716604483015280861660648301528085166084830152831660a48201526001600160a01b0390911690636724589e9060c401600060405180830381600087803b15801561060c57600080fd5b505af1158015610620573d6000803e3d6000fd5b50505050505050505050565b610634610b9a565b600080546001600160a01b0319166001600160a01b0383169081179091556040519081527f2f658b440c35314f52658ea8a740e05b284cdc84dc9ae01e891f21b8933e7cad9060200160405180910390a150565b610690610aca565b60065460405163485a06a360e11b8152600481018390526001600160a01b03909116906390b40d4690602401610418565b60006106cb610aca565b600254604051632cd0a01760e21b81526001600160a01b039091169063b342805c90610707908b908b908b908b908b908b908b906004016116c4565b602060405180830381600087803b15801561072157600080fd5b505af1158015610735573d6000803e3d6000fd5b505050506040513d601f19601f82011682018060405250810190610759919061171c565b50979650505050505050565b61076d610aca565b60065460405163170826fd60e31b81526001600160a01b039091169063b84137e8906105589085908590600401611735565b6107a7610aca565b60065460405163c377694f60e01b81526001600160a01b039091169063c377694f906107db90869086908690600401611763565b600060405180830381600087803b1580156107f557600080fd5b505af1158015610809573d6000803e3d6000fd5b50505050505050565b61081a610b9a565b6001600160a01b0382166108415760405163e6c4247b60e01b815260040160405180910390fd5b6001600160a01b03919091166000908152600760205260409020805460ff1916911515919091179055565b600080610877610aca565b60025460405163dc56726f60e01b81526001600160a01b039091169063dc56726f906108b9908f908f908f908f908f908f908f908f908f908f9060040161178e565b6040805180830381600087803b1580156108d257600080fd5b505af11580156108e6573d6000803e3d6000fd5b505050506040513d601f19601f8201168201806040525081019061090a9190611807565b50509a509a98505050505050505050565b610923610aca565b60005b83811015610446578484828181106109405761094061182b565b905060200201356001600085858581811061095d5761095d61182b565b905060200201602081019061097291906110ee565b6001600160a01b031681526020810191909152604001600020558061099681611857565b915050610926565b6109a6610aca565b600654604051637ab7be7760e11b8152600481018390526001600160a01b039091169063f56f7cee90602401610418565b6109df610c4f565b60006109ea83610d22565b33600090815260016020526040902054909150811115610a1d5760405163a6f0fbc160e01b815260040160405180910390fd5b3360009081526001602052604081208054839290610a3c908490611872565b9091555050600354604051637ac4c13160e11b815260048101859052602481018490526001600160a01b039091169063f5898262906044016107db565b610a81610b9a565b6001600160a01b038116610aa85760405163e6c4247b60e01b815260040160405180910390fd5b600880546001600160a01b0319166001600160a01b0392909216919091179055565b6008546001600160a01b03163314801590610b7a575060008054906101000a90046001600160a01b03166001600160a01b0316630c340a246040518163ffffffff1660e01b815260040160206040518083038186803b158015610b2c57600080fd5b505afa158015610b40573d6000803e3d6000fd5b505050506040513d601f19601f82011682018060405250810190610b649190611889565b6001600160a01b0316336001600160a01b031614155b15610b9857604051631f28ddef60e11b815260040160405180910390fd5b565b60008054906101000a90046001600160a01b03166001600160a01b0316630c340a246040518163ffffffff1660e01b815260040160206040518083038186803b158015610be657600080fd5b505afa158015610bfa573d6000803e3d6000fd5b505050506040513d601f19601f82011682018060405250810190610c1e9190611889565b6001600160a01b0316336001600160a01b031614610b985760405163075fd2b160e01b815260040160405180910390fd5b3360009081526007602052604090205460ff16158015610d04575060008054906101000a90046001600160a01b03166001600160a01b0316630c340a246040518163ffffffff1660e01b815260040160206040518083038186803b158015610cb657600080fd5b505afa158015610cca573d6000803e3d6000fd5b505050506040513d601f19601f82011682018060405250810190610cee9190611889565b6001600160a01b0316336001600160a01b031614155b15610b9857604051631ea2564f60e31b815260040160405180910390fd5b6000600160ff1b821415610d4957604051631d0742e360e21b815260040160405180910390fd5b60008212610d575781610d5c565b816000035b92915050565b600060808284031215610d7457600080fd5b50919050565b634e487b7160e01b600052604160045260246000fd5b60405160a081016001600160401b0381118282101715610db257610db2610d7a565b60405290565b604051601f8201601f191681016001600160401b0381118282101715610de057610de0610d7a565b604052919050565b60006001600160401b03821115610e0157610e01610d7a565b5060051b60200190565b80356001600160401b0381168114610e2257600080fd5b919050565b80356001600160801b0381168114610e2257600080fd5b80358015158114610e2257600080fd5b60006020808385031215610e6157600080fd5b82356001600160401b03811115610e7757600080fd5b8301601f81018513610e8857600080fd5b8035610e9b610e9682610de8565b610db8565b81815260a09182028301840191848201919088841115610eba57600080fd5b938501935b838510156107595780858a031215610ed75760008081fd5b610edf610d90565b610ee886610e0b565b8152610ef5878701610e27565b878201526040610f06818801610e3e565b908201526060610f17878201610e3e565b908201526080610f28878201610e3e565b9082015283529384019391850191610ebf565b6001600160a01b0381168114610f5057600080fd5b50565b600082601f830112610f6457600080fd5b81356020610f74610e9683610de8565b82815260059290921b84018101918181019086841115610f9357600080fd5b8286015b84811015610fae5780358352918301918301610f97565b509695505050505050565b60008060408385031215610fcc57600080fd5b82356001600160401b0380821115610fe357600080fd5b818501915085601f830112610ff757600080fd5b81356020611007610e9683610de8565b82815260059290921b8401810191818101908984111561102657600080fd5b948201945b8386101561104d57853561103e81610f3b565b8252948201949082019061102b565b9650508601359250508082111561106357600080fd5b5061107085828601610f53565b9150509250929050565b60008060008060008060c0878903121561109357600080fd5b61109c87610e27565b95506110aa60208801610e27565b94506110b860408801610e27565b93506110c660608801610e27565b92506110d460808801610e27565b91506110e260a08801610e27565b90509295509295509295565b60006020828403121561110057600080fd5b813561110b81610f3b565b9392505050565b60006020828403121561112457600080fd5b5035919050565b600060c0828403121561113d57600080fd5b60405160c081018181106001600160401b038211171561115f5761115f610d7a565b60405290508061116e83610e0b565b815261117c60208401610e27565b602082015261118d60408401610e3e565b604082015260608301356111a081610f3b565b606082015260808301356111b381610f3b565b608082015260a08301356111c681610f3b565b60a0919091015292915050565b600082601f8301126111e457600080fd5b604051604081018181106001600160401b038211171561120657611206610d7a565b806040525080604084018581111561121d57600080fd5b845b8181101561123757803583526020928301920161121f565b509195945050505050565b60008060008060008060006101a0888a03121561125e57600080fd5b611268898961112b565b965060c0880135955060e08801359450610100880135935061012088013561128f81610f3b565b925061129e6101408901610e3e565b91506112ae896101608a016111d3565b905092959891949750929550565b600080604083850312156112cf57600080fd5b82356001600160401b03808211156112e657600080fd5b6112f286838701610f53565b9350602085013591508082111561106357600080fd5b60008060006060848603121561131d57600080fd5b8335925060208401356001600160401b038082111561133b57600080fd5b61134787838801610f53565b9350604086013591508082111561135d57600080fd5b5061136a86828701610f53565b9150509250925092565b6000806040838503121561138757600080fd5b823561139281610f3b565b91506113a060208401610e3e565b90509250929050565b6000806000806000806000806000806102c08b8d0312156113c957600080fd5b6113d38c8c61112b565b99506113e28c60c08d0161112b565b98506101808b013597506101a08b013596506101c08b013595506101e08b013594506102008b013593506102208b013561141b81610f3b565b925061142b8c6102408d016111d3565b915061143b8c6102808d016111d3565b90509295989b9194979a5092959850565b60008083601f84011261145e57600080fd5b5081356001600160401b0381111561147557600080fd5b6020830191508360208260051b850101111561149057600080fd5b9250929050565b600080600080604085870312156114ad57600080fd5b84356001600160401b03808211156114c457600080fd5b6114d08883890161144c565b909650945060208701359150808211156114e957600080fd5b506114f68782880161144c565b95989497509550505050565b6000806040838503121561151557600080fd5b50508035926020909101359150565b602080825282518282018190526000919060409081850190868401855b8281101561159d57815180516001600160401b03168552868101516001600160801b0316878601528581015115158686015260608082015115159086015260809081015115159085015260a09093019290850190600101611541565b5091979650505050505050565b600081518084526020808501945080840160005b838110156115da578151875295820195908201906001016115be565b509495945050505050565b604080825283519082018190526000906020906060840190828701845b828110156116275781516001600160a01b031684529284019290840190600101611602565b5050508381038285015261163b81866115aa565b9695505050505050565b80516001600160401b031682526020808201516001600160801b0316908301526040808201511515908301526060808201516001600160a01b039081169184019190915260808083015182169084015260a09182015116910152565b8060005b60028110156104aa5781518452602093840193909101906001016116a5565b6101a081016116d3828a611645565b60c0820188905260e0820187905261010082018690526001600160a01b0385166101208301528315156101408301526117106101608301846116a1565b98975050505050505050565b60006020828403121561172e57600080fd5b5051919050565b60408152600061174860408301856115aa565b828103602084015261175a81856115aa565b95945050505050565b83815260606020820152600061177c60608301856115aa565b828103604084015261163b81856115aa565b6102c0810161179d828d611645565b6117aa60c083018c611645565b89610180830152886101a0830152876101c0830152866101e08301528561020083015260018060a01b0385166102208301526117ea6102408301856116a1565b6117f86102808301846116a1565b9b9a5050505050505050505050565b6000806040838503121561181a57600080fd5b505080516020909101519092909150565b634e487b7160e01b600052603260045260246000fd5b634e487b7160e01b600052601160045260246000fd5b600060001982141561186b5761186b611841565b5060010190565b60008282101561188457611884611841565b500390565b60006020828403121561189b57600080fd5b815161110b81610f3b56fea2646970667358221220f9e88cb4f1ae3ed387605b37ef34f2dca7ec002126fa4c72c214eb9630fcc32464736f6c63430008090033",
  "linkReferences": {},
  "deployedLinkReferences": {}
}