{
  "_format": "hh-sol-artifact-1",
  "contractName": "UniswapV3HedgingTest",
  "sourceName": "contracts/utils/UniswapV3HedgingTest.sol",
  "abi": [
    {
      "inputs": [
        {
          "internalType": "address",
          "name": "collateralAsset",
          "type": "address"
        }
      ],
      "name": "getBalance",
      "outputs": [
        {
          "internalType": "uint256",
          "name": "",
          "type": "uint256"
        }
      ],
      "stateMutability": "view",
      "type": "function"
    },
    {
      "inputs": [],
      "name": "getDelta",
      "outputs": [
        {
          "internalType": "int256",
          "name": "delta",
          "type": "int256"
        }
      ],
      "stateMutability": "view",
      "type": "function"
    },
    {
      "inputs": [
        {
          "internalType": "int256",
          "name": "_delta",
          "type": "int256"
        }
      ],
      "name": "hedgeDelta",
      "outputs": [
        {
          "internalType": "int256",
          "name": "deltaChange",
          "type": "int256"
        }
      ],
      "stateMutability": "nonpayable",
      "type": "function"
    },
    {
      "inputs": [
        {
          "internalType": "address",
          "name": "_address",
          "type": "address"
        }
      ],
      "name": "setHedgingReactorAddress",
      "outputs": [],
      "stateMutability": "nonpayable",
      "type": "function"
    },
    {
      "inputs": [
        {
          "internalType": "address",
          "name": "_address",
          "type": "address"
        },
        {
          "internalType": "address",
          "name": "_tokenAddress",
          "type": "address"
        }
      ],
      "name": "setHedgingReactorAddressAndToken",
      "outputs": [],
      "stateMutability": "nonpayable",
      "type": "function"
    },
    {
      "inputs": [],
      "name": "uniswapV3HedgingReactor",
      "outputs": [
        {
          "internalType": "address",
          "name": "",
          "type": "address"
        }
      ],
      "stateMutability": "view",
      "type": "function"
    },
    {
      "inputs": [],
      "name": "update",
      "outputs": [
        {
          "internalType": "uint256",
          "name": "",
          "type": "uint256"
        }
      ],
      "stateMutability": "nonpayable",
      "type": "function"
    },
    {
      "inputs": [
        {
          "internalType": "uint256",
          "name": "_amount",
          "type": "uint256"
        }
      ],
      "name": "withdraw",
      "outputs": [
        {
          "internalType": "uint256",
          "name": "",
          "type": "uint256"
        }
      ],
      "stateMutability": "nonpayable",
      "type": "function"
    }
  ],
  "bytecode": "0x608060405234801561001057600080fd5b506104fc806100206000396000f3fe608060405234801561001057600080fd5b50600436106100785760003560e01c8063203df58b1461007d5780632e1a7d4d146100ad5780636cc69817146100ce578063a2e62045146100e3578063b568a9f2146100eb578063c549176e146100fe578063f8b2cb4f14610106578063fbaac11514610119575b600080fd5b600054610090906001600160a01b031681565b6040516001600160a01b0390911681526020015b60405180910390f35b6100c06100bb366004610423565b61012c565b6040519081526020016100a4565b6100e16100dc366004610458565b6101a3565b005b6100c06101e2565b6100e16100f936600461047a565b610261565b6100c061028d565b6100c0610114366004610458565b6102e1565b6100c0610127366004610423565b610328565b60008054604051632e1a7d4d60e01b8152600481018490526001600160a01b0390911690632e1a7d4d906024015b6020604051808303816000875af1158015610179573d6000803e3d6000fd5b505050506040513d601f19601f8201168201806040525081019061019d91906104ad565b92915050565b600080546001600160a01b0319166001600160a01b0383161790556101df73a0b86991c6218b36c1d19d4a2e9eb0ce3606eb488260001961035a565b50565b60008060009054906101000a90046001600160a01b03166001600160a01b031663a2e620456040518163ffffffff1660e01b81526004016020604051808303816000875af1158015610238573d6000803e3d6000fd5b505050506040513d601f19601f8201168201806040525081019061025c91906104ad565b905090565b600080546001600160a01b0319166001600160a01b038416179055610289818360001961035a565b5050565b60008060009054906101000a90046001600160a01b03166001600160a01b031663c549176e6040518163ffffffff1660e01b8152600401602060405180830381865afa158015610238573d6000803e3d6000fd5b6040516370a0823160e01b81523060048201526000906001600160a01b038316906370a0823190602401602060405180830381865afa158015610179573d6000803e3d6000fd5b6000805460405163fbaac11560e01b8152600481018490526001600160a01b039091169063fbaac1159060240161015a565b600060405163095ea7b360e01b81526001600160a01b03841660048201528260248201526000806044836000895af1915050610395816103dc565b6103d65760405162461bcd60e51b815260206004820152600e60248201526d1054141493d59157d1905253115160921b604482015260640160405180910390fd5b50505050565b60003d826103ee57806000803e806000fd5b8060208114610406578015610417576000925061041c565b816000803e6000511515925061041c565b600192505b5050919050565b60006020828403121561043557600080fd5b5035919050565b80356001600160a01b038116811461045357600080fd5b919050565b60006020828403121561046a57600080fd5b6104738261043c565b9392505050565b6000806040838503121561048d57600080fd5b6104968361043c565b91506104a46020840161043c565b90509250929050565b6000602082840312156104bf57600080fd5b505191905056fea2646970667358221220d0024c7753d70acc952b26fff56c902f22fa32e4e6fd16ed7a5a3aeb42bb71a064736f6c634300080e0033",
  "linkReferences": {},
  "deployedLinkReferences": {}
}