{
  "_format": "hh-sol-artifact-1",
  "contractName": "LiquidityPoolAdjustCollateralTest",
  "sourceName": "contracts/utils/LiquidityPoolAdjustCollateralTest.sol",
  "abi": [
    {
      "inputs": [
        {
          "internalType": "address",
          "name": "_optionRegistry",
          "type": "address"
        },
        {
          "internalType": "address",
          "name": "_usd",
          "type": "address"
        }
      ],
      "stateMutability": "nonpayable",
      "type": "constructor"
    },
    {
      "inputs": [
        {
          "internalType": "uint256",
          "name": "lpCollateralDifference",
          "type": "uint256"
        },
        {
          "internalType": "bool",
          "name": "addToLpBalance",
          "type": "bool"
        }
      ],
      "name": "adjustCollateral",
      "outputs": [],
      "stateMutability": "nonpayable",
      "type": "function"
    },
    {
      "inputs": [
        {
          "internalType": "address",
          "name": "_series",
          "type": "address"
        },
        {
          "internalType": "uint256",
          "name": "amount",
          "type": "uint256"
        }
      ],
      "name": "close",
      "outputs": [
        {
          "internalType": "bool",
          "name": "",
          "type": "bool"
        },
        {
          "internalType": "uint256",
          "name": "",
          "type": "uint256"
        }
      ],
      "stateMutability": "nonpayable",
      "type": "function"
    },
    {
      "inputs": [],
      "name": "collateralAllocated",
      "outputs": [
        {
          "internalType": "uint256",
          "name": "",
          "type": "uint256"
        }
      ],
      "stateMutability": "view",
      "type": "function"
    },
    {
      "inputs": [
        {
          "internalType": "address",
          "name": "collateralAsset",
          "type": "address"
        }
      ],
      "name": "getBalance",
      "outputs": [
        {
          "internalType": "uint256",
          "name": "",
          "type": "uint256"
        }
      ],
      "stateMutability": "view",
      "type": "function"
    },
    {
      "inputs": [
        {
          "internalType": "address",
          "name": "underlying",
          "type": "address"
        },
        {
          "internalType": "address",
          "name": "strikeAsset",
          "type": "address"
        },
        {
          "internalType": "uint64",
          "name": "expiration",
          "type": "uint64"
        },
        {
          "internalType": "bool",
          "name": "isPut",
          "type": "bool"
        },
        {
          "internalType": "uint128",
          "name": "strike",
          "type": "uint128"
        },
        {
          "internalType": "address",
          "name": "collateral",
          "type": "address"
        }
      ],
      "name": "issue",
      "outputs": [
        {
          "internalType": "address",
          "name": "",
          "type": "address"
        }
      ],
      "stateMutability": "nonpayable",
      "type": "function"
    },
    {
      "inputs": [
        {
          "internalType": "address",
          "name": "_series",
          "type": "address"
        },
        {
          "internalType": "uint256",
          "name": "amount",
          "type": "uint256"
        },
        {
          "internalType": "uint256",
          "name": "collateralAmount",
          "type": "uint256"
        }
      ],
      "name": "open",
      "outputs": [
        {
          "internalType": "bool",
          "name": "",
          "type": "bool"
        },
        {
          "internalType": "uint256",
          "name": "",
          "type": "uint256"
        }
      ],
      "stateMutability": "nonpayable",
      "type": "function"
    },
    {
      "inputs": [
        {
          "internalType": "uint256",
          "name": "amount",
          "type": "uint256"
        }
      ],
      "name": "setCollateralAllocated",
      "outputs": [],
      "stateMutability": "nonpayable",
      "type": "function"
    },
    {
      "inputs": [
        {
          "internalType": "address",
          "name": "_series",
          "type": "address"
        }
      ],
      "name": "settle",
      "outputs": [
        {
          "internalType": "bool",
          "name": "",
          "type": "bool"
        },
        {
          "internalType": "uint256",
          "name": "",
          "type": "uint256"
        },
        {
          "internalType": "uint256",
          "name": "",
          "type": "uint256"
        },
        {
          "internalType": "uint256",
          "name": "",
          "type": "uint256"
        }
      ],
      "stateMutability": "nonpayable",
      "type": "function"
    }
  ],
  "bytecode": "0x608060405234801561001057600080fd5b50604051610a42380380610a4283398101604081905261002f91610165565b600080546001600160a01b03199081166001600160a01b0385811691821790935560018054909216928416928317909155610078919060001961007f602090811b61051117901c565b5050610198565b600060405163095ea7b360e01b81526001600160a01b03841660048201528260248201526000806044836000895af191506100bb905081610102565b6100fc5760405162461bcd60e51b815260206004820152600e60248201526d1054141493d59157d1905253115160921b604482015260640160405180910390fd5b50505050565b60003d8261011457806000803e806000fd5b806020811461012c57801561013d5760009250610142565b816000803e60005115159250610142565b600192505b5050919050565b80516001600160a01b038116811461016057600080fd5b919050565b6000806040838503121561017857600080fd5b61018183610149565b915061018f60208401610149565b90509250929050565b61089b806101a76000396000f3fe608060405234801561001057600080fd5b50600436106100785760003560e01c80631e4bc5571461007d5780633a5cd4011461009257806369955d6d146100ae5780636a256b29146100ce57806389a86ad314610103578063e49280cb1461012d578063f1f32a8814610140578063f8b2cb4f14610153575b600080fd5b61009061008b3660046105eb565b610166565b005b61009b60025481565b6040519081526020015b60405180910390f35b6100c16100bc366004610630565b6101c2565b6040516100a591906106cb565b6100e16100dc3660046106df565b6102ca565b60408051941515855260208501939093529183015260608201526080016100a5565b610116610111366004610703565b610360565b6040805192151583526020830191909152016100a5565b61011661013b366004610738565b6103f9565b61009061014e366004610764565b600255565b61009b6101613660046106df565b61048a565b801561018957816002600082825461017e9190610793565b909155506101be9050565b6001546000546101a6916001600160a01b03908116911684610511565b81600260008282546101b891906107aa565b90915550505b5050565b600080546040805160c08101825267ffffffffffffffff88811682526001600160801b03878116602084019081528915158486019081526001600160a01b038e8116606087019081528e8216608088019081528b831660a089019081529851635fb708cf60e01b81529751909616600488015292519093166024860152511515604485015251811660648401529051811660848301529151821660a4820152911690635fb708cf9060c401602060405180830381600087803b15801561028757600080fd5b505af115801561029b573d6000803e3d6000fd5b505050506040513d601f19601f820116820180604052508101906102bf91906107c2565b979650505050505050565b60008054604051636a256b2960e01b81528291829182916001600160a01b031690636a256b29906102ff9088906004016106cb565b608060405180830381600087803b15801561031957600080fd5b505af115801561032d573d6000803e3d6000fd5b505050506040513d601f19601f8201168201806040525081019061035191906107df565b93509350935093509193509193565b600080546040516389a86ad360e01b81526001600160a01b0386811660048301526024820186905260448201859052839216906389a86ad3906064016040805180830381600087803b1580156103b557600080fd5b505af11580156103c9573d6000803e3d6000fd5b505050506040513d601f19601f820116820180604052508101906103ed919061081e565b91509150935093915050565b6000805460405163e49280cb60e01b81526001600160a01b038581166004830152602482018590528392169063e49280cb906044016040805180830381600087803b15801561044757600080fd5b505af115801561045b573d6000803e3d6000fd5b505050506040513d601f19601f8201168201806040525081019061047f919061081e565b915091509250929050565b6001546040516370a0823160e01b81526000916001600160a01b0316906370a08231906104bb9030906004016106cb565b60206040518083038186803b1580156104d357600080fd5b505afa1580156104e7573d6000803e3d6000fd5b505050506040513d601f19601f8201168201806040525081019061050b919061084c565b92915050565b600060405163095ea7b360e01b81526001600160a01b03841660048201528260248201526000806044836000895af191505061054c81610593565b61058d5760405162461bcd60e51b815260206004820152600e60248201526d1054141493d59157d1905253115160921b604482015260640160405180910390fd5b50505050565b60003d826105a557806000803e806000fd5b80602081146105bd5780156105ce57600092506105d3565b816000803e600051151592506105d3565b600192505b5050919050565b80151581146105e857600080fd5b50565b600080604083850312156105fe57600080fd5b823591506020830135610610816105da565b809150509250929050565b6001600160a01b03811681146105e857600080fd5b60008060008060008060c0878903121561064957600080fd5b86356106548161061b565b955060208701356106648161061b565b9450604087013567ffffffffffffffff8116811461068157600080fd5b93506060870135610691816105da565b925060808701356001600160801b03811681146106ad57600080fd5b915060a08701356106bd8161061b565b809150509295509295509295565b6001600160a01b0391909116815260200190565b6000602082840312156106f157600080fd5b81356106fc8161061b565b9392505050565b60008060006060848603121561071857600080fd5b83356107238161061b565b95602085013595506040909401359392505050565b6000806040838503121561074b57600080fd5b82356107568161061b565b946020939093013593505050565b60006020828403121561077657600080fd5b5035919050565b634e487b7160e01b600052601160045260246000fd5b6000828210156107a5576107a561077d565b500390565b600082198211156107bd576107bd61077d565b500190565b6000602082840312156107d457600080fd5b81516106fc8161061b565b600080600080608085870312156107f557600080fd5b8451610800816105da565b60208601516040870151606090970151919890975090945092505050565b6000806040838503121561083157600080fd5b825161083c816105da565b6020939093015192949293505050565b60006020828403121561085e57600080fd5b505191905056fea264697066735822122084ce657f05c11c77c2b0c17bf7309a7122db4fe66c14ccb6dbda0092a3961eff64736f6c63430008090033",
  "linkReferences": {},
  "deployedLinkReferences": {}
}