{
  "_format": "hh-sol-artifact-1",
  "contractName": "OpynInteractions",
  "sourceName": "contracts/libraries/OpynInteractions.sol",
  "abi": [
    {
      "inputs": [],
      "name": "NoShort",
      "type": "error"
    },
    {
      "inputs": [
        {
          "internalType": "address",
          "name": "oTokenFactory",
          "type": "address"
        },
        {
          "internalType": "address",
          "name": "collateral",
          "type": "address"
        },
        {
          "internalType": "address",
          "name": "underlying",
          "type": "address"
        },
        {
          "internalType": "address",
          "name": "strikeAsset",
          "type": "address"
        },
        {
          "internalType": "uint256",
          "name": "strike",
          "type": "uint256"
        },
        {
          "internalType": "uint256",
          "name": "expiration",
          "type": "uint256"
        },
        {
          "internalType": "bool",
          "name": "isPut",
          "type": "bool"
        }
      ],
      "name": "getOtoken",
      "outputs": [
        {
          "internalType": "address",
          "name": "otokenFromFactory",
          "type": "address"
        }
      ],
      "stateMutability": "view",
      "type": "function"
    }
  ],
  "bytecode": "0x611f6261003a600b82828239805160001a60731461002d57634e487b7160e01b600052600060045260246000fd5b30600052607381538281f3fe730000000000000000000000000000000000000000301460806040526004361061008d5760003560e01c80630e4e99e31461009257806315afd409146100c857806316babddd146101035780633718f975146101315780638fc4015a14610151578063ba036b4014610173578063f7b98e1b14610193578063fd5b6dd5146101a6578063fe0d9004146101c6575b600080fd5b81801561009e57600080fd5b506100b26100ad3660046117d7565b6101e6565b6040516100bf9190611860565b60405180910390f35b8180156100d457600080fd5b506100e86100e3366004611874565b61030b565b604080519384526020840192909252908201526060016100bf565b81801561010f57600080fd5b5061012361011e3660046118a0565b61063a565b6040519081526020016100bf565b81801561013d57600080fd5b5061012361014c366004611908565b6108c9565b81801561015d57600080fd5b5061017161016c366004611976565b610d66565b005b81801561017f57600080fd5b5061012361018e3660046119d1565b610e95565b6100b26101a13660046117d7565b611123565b8180156101b257600080fd5b506101716101c1366004611a22565b6111ac565b8180156101d257600080fd5b506101236101e1366004611a22565b6112cf565b6040516304551c1560e21b8152600090889082906001600160a01b03831690631154705490610223908b908b908e908c908c908c90600401611a68565b602060405180830381865afa158015610240573d6000803e3d6000fd5b505050506040513d601f19601f820116820180604052508101906102649190611aa1565b90506001600160a01b0381161561027e5791506103009050565b604051630c09746360e41b81526000906001600160a01b0384169063c0974630906102b7908c908c908f908d908d908d90600401611a68565b6020604051808303816000875af11580156102d6573d6000803e3d6000fd5b505050506040513d601f19601f820116820180604052508101906102fa9190611aa1565b93505050505b979650505050505050565b60405163d99d13f560e01b81523060048201526024810182905260009081908190859082906001600160a01b0383169063d99d13f590604401600060405180830381865afa158015610361573d6000803e3d6000fd5b505050506040513d6000823e601f3d908101601f191682016040526103899190810190611c28565b8051519091506000036103af576040516309e686f960e11b815260040160405180910390fd5b600081604001516000815181106103c8576103c8611d49565b602002602001015190506000816001600160a01b03166370a08231306040518263ffffffff1660e01b81526004016104009190611860565b602060405180830381865afa15801561041d573d6000803e3d6000fd5b505050506040513d601f19601f820116820180604052508101906104419190611d5f565b60408051600180825281830190925291925060009190816020015b61046461175e565b81526020019060019003908161045c579050506040805161010081019091529091508060078152602001306001600160a01b03168152602001306001600160a01b0316815260200160006001600160a01b031681526020018a8152602001600081526020016000815260200160405180602001604052806000815250815250816000815181106104f6576104f6611d49565b6020908102919091010152604051635b0bf86360e11b81526001600160a01b0386169063b617f0c69061052d908490600401611dc5565b600060405180830381600087803b15801561054757600080fd5b505af115801561055b573d6000803e3d6000fd5b50506040516370a0823160e01b8152600092506001600160a01b03861691506370a082319061058e903090600401611860565b602060405180830381865afa1580156105ab573d6000803e3d6000fd5b505050506040513d601f19601f820116820180604052508101906105cf9190611d5f565b90506105db8382611ebc565b985088898660a001516000815181106105f6576105f6611d49565b60200260200101516106089190611ebc565b866060015160008151811061061f5761061f611d49565b60200260200101519850985098505050505050509250925092565b6000808690506000856001600160a01b031663aabaecd66040518163ffffffff1660e01b8152600401602060405180830381865afa158015610680573d6000803e3d6000fd5b505050506040513d601f19601f820116820180604052508101906106a49190611aa1565b90506000816001600160a01b03166370a08231866040518263ffffffff1660e01b81526004016106d49190611860565b602060405180830381865afa1580156106f1573d6000803e3d6000fd5b505050506040513d601f19601f820116820180604052508101906107159190611d5f565b60408051600180825281830190925291925060009190816020015b61073861175e565b81526020019060019003908161073057905050604080516101008101909152909150806008815260200160006001600160a01b03168152602001876001600160a01b03168152602001896001600160a01b03168152602001600081526020018881526020016000815260200160405180602001604052806000815250815250816000815181106107ca576107ca611d49565b60200260200101819052506107e0888a89611695565b604051635b0bf86360e11b81526001600160a01b0385169063b617f0c69061080c908490600401611dc5565b600060405180830381600087803b15801561082657600080fd5b505af115801561083a573d6000803e3d6000fd5b50506040516370a0823160e01b8152600092506001600160a01b03861691506370a082319061086d908a90600401611860565b602060405180830381865afa15801561088a573d6000803e3d6000fd5b505050506040513d601f19601f820116820180604052508101906108ae9190611d5f565b90506108ba8382611ebc565b9b9a5050505050505050505050565b6000876108db6402540be40085611ed3565b935060008790506000816001600160a01b031663aabaecd66040518163ffffffff1660e01b8152600401602060405180830381865afa158015610922573d6000803e3d6000fd5b505050506040513d601f19601f820116820180604052508101906109469190611aa1565b905080610954818c8b611695565b60408051600280825260608201909252600091816020015b61097461175e565b81526020019060019003908161096c575050604051636553690d60e11b81529091506000906001600160a01b0387169063caa6d21a906109b8903090600401611860565b602060405180830381865afa1580156109d5573d6000803e3d6000fd5b505050506040513d601f19601f820116820180604052508101906109f99190611d5f565b610a04906001611ef5565b9050898103610be9576040805160038082526080820190925290816020015b610a2b61175e565b815260200190600190039081610a23579050506040805161010081019091529092508060008152602001306001600160a01b03168152602001306001600160a01b0316815260200160006001600160a01b031681526020018b8152602001600081526020016000815260200189604051602001610aaa91815260200190565b60405160208183030381529060405281525082600081518110610acf57610acf611d49565b60209081029190910101526040805161010081019091528060058152602001306001600160a01b03168152602001306001600160a01b03168152602001856001600160a01b031681526020018b81526020018c8152602001600081526020016040518060200160405280600081525081525082600181518110610b5457610b54611d49565b60209081029190910101526040805161010081019091528060018152602001306001600160a01b03168152602001306001600160a01b031681526020018d6001600160a01b031681526020018b81526020018a8152602001600081526020016040518060200160405280600081525081525082600281518110610bd957610bd9611d49565b6020026020010181905250610cf4565b6040805161010081019091528060058152602001306001600160a01b03168152602001306001600160a01b03168152602001856001600160a01b031681526020018b81526020018c8152602001600081526020016040518060200160405280600081525081525082600081518110610c6357610c63611d49565b60209081029190910101526040805161010081019091528060018152602001306001600160a01b03168152602001306001600160a01b031681526020018d6001600160a01b031681526020018b81526020018a8152602001600081526020016040518060200160405280600081525081525082600181518110610ce857610ce8611d49565b60200260200101819052505b604051635b0bf86360e11b81526001600160a01b0387169063b617f0c690610d20908590600401611dc5565b600060405180830381600087803b158015610d3a57600080fd5b505af1158015610d4e573d6000803e3d6000fd5b50505050889650505050505050979650505050505050565b8483610d73818786611695565b604080516001808252818301909252600091816020015b610d9261175e565b815260200190600190039081610d8a579050506040805161010081019091529091508060058152602001306001600160a01b03168152602001306001600160a01b03168152602001876001600160a01b03168152602001858152602001868152602001600081526020016040518060200160405280600081525081525081600081518110610e2257610e22611d49565b6020908102919091010152604051635b0bf86360e11b81526001600160a01b0384169063b617f0c690610e59908490600401611dc5565b600060405180830381600087803b158015610e7357600080fd5b505af1158015610e87573d6000803e3d6000fd5b505050505050505050505050565b6000808590506000846001600160a01b031663aabaecd66040518163ffffffff1660e01b8152600401602060405180830381865afa158015610edb573d6000803e3d6000fd5b505050506040513d601f19601f82011682018060405250810190610eff9190611aa1565b90506000816001600160a01b03166370a08231336040518263ffffffff1660e01b8152600401610f2f9190611860565b602060405180830381865afa158015610f4c573d6000803e3d6000fd5b505050506040513d601f19601f82011682018060405250810190610f709190611d5f565b60408051600180825281830190925291925060009190816020015b610f9361175e565b815260200190600190039081610f8b57905050604080516101008101909152909150806008815260200160006001600160a01b03168152602001336001600160a01b03168152602001886001600160a01b031681526020016000815260200187815260200160008152602001604051806020016040528060008152508152508160008151811061102557611025611d49565b602002602001018190525061103b878988611695565b604051635b0bf86360e11b81526001600160a01b0385169063b617f0c690611067908490600401611dc5565b600060405180830381600087803b15801561108157600080fd5b505af1158015611095573d6000803e3d6000fd5b50506040516370a0823160e01b8152600092506001600160a01b03861691506370a08231906110c8903390600401611860565b602060405180830381865afa1580156110e5573d6000803e3d6000fd5b505050506040513d601f19601f820116820180604052508101906111099190611d5f565b90506111158382611ebc565b9a9950505050505050505050565b6040516304551c1560e21b815260009088906001600160a01b0382169063115470549061115e908a908a908d908b908b908b90600401611a68565b602060405180830381865afa15801561117b573d6000803e3d6000fd5b505050506040513d601f19601f8201168201806040525081019061119f9190611aa1565b9998505050505050505050565b604080516001808252818301909252859160009190816020015b6111ce61175e565b8152602001906001900390816111c6579050506040805161010081019091529091508060068152602001306001600160a01b03168152602001306001600160a01b03168152602001866001600160a01b0316815260200184815260200185815260200160008152602001604051806020016040528060008152508152508160008151811061125e5761125e611d49565b6020908102919091010152604051635b0bf86360e11b81526001600160a01b0383169063b617f0c690611295908490600401611dc5565b600060405180830381600087803b1580156112af57600080fd5b505af11580156112c3573d6000803e3d6000fd5b50505050505050505050565b60008085905060008590506000816001600160a01b031663aabaecd66040518163ffffffff1660e01b8152600401602060405180830381865afa15801561131a573d6000803e3d6000fd5b505050506040513d601f19601f8201168201806040525081019061133e9190611aa1565b90506000816001600160a01b03166370a08231306040518263ffffffff1660e01b815260040161136e9190611860565b602060405180830381865afa15801561138b573d6000803e3d6000fd5b505050506040513d601f19601f820116820180604052508101906113af9190611d5f565b60405163d99d13f560e01b8152306004820152602481018890529091506000906001600160a01b0386169063d99d13f590604401600060405180830381865afa158015611400573d6000803e3d6000fd5b505050506040513d6000823e601f3d908101601f191682016040526114289190810190611c28565b6040805160028082526060820190925291925060009190816020015b61144c61175e565b815260200190600190039081611444579050506040805161010081019091529091508060028152602001306001600160a01b03168152602001306001600160a01b031681526020018b6001600160a01b031681526020018981526020018a81526020016000815260200160405180602001604052806000815250815250816000815181106114dc576114dc611d49565b60209081029190910101526040805161010081019091528060068152602001306001600160a01b03168152602001306001600160a01b03168152602001856001600160a01b03168152602001898152602001836060015160008151811061154557611545611d49565b60200260200101518b8560a0015160008151811061156557611565611d49565b60200260200101516115779190611f0d565b6115819190611ed3565b81526020016000815260200160405180602001604052806000815250815250816001815181106115b3576115b3611d49565b6020908102919091010152604051635b0bf86360e11b81526001600160a01b0387169063b617f0c6906115ea908490600401611dc5565b600060405180830381600087803b15801561160457600080fd5b505af1158015611618573d6000803e3d6000fd5b50506040516370a0823160e01b81528592506001600160a01b03871691506370a082319061164a903090600401611860565b602060405180830381865afa158015611667573d6000803e3d6000fd5b505050506040513d601f19601f8201168201806040525081019061168b9190611d5f565b6108ba9190611ebc565b600060405163095ea7b360e01b81526001600160a01b03841660048201528260248201526000806044836000895af19150506116d081611717565b6117115760405162461bcd60e51b815260206004820152600e60248201526d1054141493d59157d1905253115160921b604482015260640160405180910390fd5b50505050565b60003d8261172957806000803e806000fd5b80602081146117415780156117525760009250611757565b816000803e60005115159250611757565b600192505b5050919050565b604080516101008101909152806000815260200160006001600160a01b0316815260200160006001600160a01b0316815260200160006001600160a01b03168152602001600081526020016000815260200160008152602001606081525090565b6001600160a01b03811681146117d457600080fd5b50565b600080600080600080600060e0888a0312156117f257600080fd5b87356117fd816117bf565b9650602088013561180d816117bf565b9550604088013561181d816117bf565b9450606088013561182d816117bf565b93506080880135925060a0880135915060c0880135801515811461185057600080fd5b8091505092959891949750929550565b6001600160a01b0391909116815260200190565b6000806040838503121561188757600080fd5b8235611892816117bf565b946020939093013593505050565b600080600080600060a086880312156118b857600080fd5b85356118c3816117bf565b945060208601356118d3816117bf565b935060408601356118e3816117bf565b92506060860135915060808601356118fa816117bf565b809150509295509295909350565b600080600080600080600060e0888a03121561192357600080fd5b873561192e816117bf565b9650602088013561193e816117bf565b9550604088013561194e816117bf565b969995985095966060810135965060808101359560a0820135955060c0909101359350915050565b600080600080600060a0868803121561198e57600080fd5b8535611999816117bf565b945060208601356119a9816117bf565b935060408601356119b9816117bf565b94979396509394606081013594506080013592915050565b600080600080608085870312156119e757600080fd5b84356119f2816117bf565b93506020850135611a02816117bf565b92506040850135611a12816117bf565b9396929550929360600135925050565b60008060008060808587031215611a3857600080fd5b8435611a43816117bf565b93506020850135611a53816117bf565b93969395505050506040820135916060013590565b6001600160a01b03968716815294861660208601529290941660408401526060830152608082019290925290151560a082015260c00190565b600060208284031215611ab357600080fd5b8151611abe816117bf565b9392505050565b634e487b7160e01b600052604160045260246000fd5b60405160c0810167ffffffffffffffff81118282101715611afe57611afe611ac5565b60405290565b604051601f8201601f1916810167ffffffffffffffff81118282101715611b2d57611b2d611ac5565b604052919050565b600067ffffffffffffffff821115611b4f57611b4f611ac5565b5060051b60200190565b600082601f830112611b6a57600080fd5b81516020611b7f611b7a83611b35565b611b04565b82815260059290921b84018101918181019086841115611b9e57600080fd5b8286015b84811015611bc2578051611bb5816117bf565b8352918301918301611ba2565b509695505050505050565b600082601f830112611bde57600080fd5b81516020611bee611b7a83611b35565b82815260059290921b84018101918181019086841115611c0d57600080fd5b8286015b84811015611bc25780518352918301918301611c11565b600060208284031215611c3a57600080fd5b815167ffffffffffffffff80821115611c5257600080fd5b9083019060c08286031215611c6657600080fd5b611c6e611adb565b825182811115611c7d57600080fd5b611c8987828601611b59565b825250602083015182811115611c9e57600080fd5b611caa87828601611b59565b602083015250604083015182811115611cc257600080fd5b611cce87828601611b59565b604083015250606083015182811115611ce657600080fd5b611cf287828601611bcd565b606083015250608083015182811115611d0a57600080fd5b611d1687828601611bcd565b60808301525060a083015182811115611d2e57600080fd5b611d3a87828601611bcd565b60a08301525095945050505050565b634e487b7160e01b600052603260045260246000fd5b600060208284031215611d7157600080fd5b5051919050565b6000815180845260005b81811015611d9e57602081850181015186830182015201611d82565b81811115611db0576000602083870101525b50601f01601f19169290920160200192915050565b60006020808301818452808551808352604092508286019150828160051b8701018488016000805b84811015611e9757603f198a850301865282516101008151600b8110611e2157634e487b7160e01b85526021600452602485fd5b8652818a01516001600160a01b039081168b8801528983015181168a880152606080840151909116908701526080808301519087015260a0808301519087015260c0808301519087015260e091820151918601819052611e8381870183611d78565b978a01979550505091870191600101611ded565b50919998505050505050505050565b634e487b7160e01b600052601160045260246000fd5b600082821015611ece57611ece611ea6565b500390565b600082611ef057634e487b7160e01b600052601260045260246000fd5b500490565b60008219821115611f0857611f08611ea6565b500190565b6000816000190483118215151615611f2757611f27611ea6565b50029056fea2646970667358221220a7d9fb24c0b905e3bc1780ab652741ea10be2290de6c5085aeb6bfd818ee8d0564736f6c634300080e0033",
  "linkReferences": {},
  "deployedLinkReferences": {}
}