{
  "_format": "hh-sol-artifact-1",
  "contractName": "PriceFeed",
  "sourceName": "contracts/PriceFeed.sol",
  "abi": [
    {
      "inputs": [
        {
          "internalType": "address",
          "name": "_authority",
          "type": "address"
        },
        {
          "internalType": "address",
          "name": "_sequencerUptimeFeedAddress",
          "type": "address"
        }
      ],
      "stateMutability": "nonpayable",
      "type": "constructor"
    },
    {
      "inputs": [],
      "name": "GracePeriodNotOver",
      "type": "error"
    },
    {
      "inputs": [],
      "name": "SequencerDown",
      "type": "error"
    },
    {
      "inputs": [],
      "name": "UNAUTHORIZED",
      "type": "error"
    },
    {
      "anonymous": false,
      "inputs": [
        {
          "indexed": false,
          "internalType": "contract IAuthority",
          "name": "authority",
          "type": "address"
        }
      ],
      "name": "AuthorityUpdated",
      "type": "event"
    },
    {
      "inputs": [
        {
          "internalType": "address",
          "name": "underlying",
          "type": "address"
        },
        {
          "internalType": "address",
          "name": "strike",
          "type": "address"
        },
        {
          "internalType": "address",
          "name": "feed",
          "type": "address"
        }
      ],
      "name": "addPriceFeed",
      "outputs": [],
      "stateMutability": "nonpayable",
      "type": "function"
    },
    {
      "inputs": [],
      "name": "authority",
      "outputs": [
        {
          "internalType": "contract IAuthority",
          "name": "",
          "type": "address"
        }
      ],
      "stateMutability": "view",
      "type": "function"
    },
    {
      "inputs": [
        {
          "internalType": "address",
          "name": "underlying",
          "type": "address"
        },
        {
          "internalType": "address",
          "name": "strike",
          "type": "address"
        }
      ],
      "name": "getNormalizedRate",
      "outputs": [
        {
          "internalType": "uint256",
          "name": "",
          "type": "uint256"
        }
      ],
      "stateMutability": "view",
      "type": "function"
    },
    {
      "inputs": [
        {
          "internalType": "address",
          "name": "underlying",
          "type": "address"
        },
        {
          "internalType": "address",
          "name": "strike",
          "type": "address"
        }
      ],
      "name": "getRate",
      "outputs": [
        {
          "internalType": "uint256",
          "name": "",
          "type": "uint256"
        }
      ],
      "stateMutability": "view",
      "type": "function"
    },
    {
      "inputs": [
        {
          "internalType": "address",
          "name": "",
          "type": "address"
        },
        {
          "internalType": "address",
          "name": "",
          "type": "address"
        }
      ],
      "name": "priceFeeds",
      "outputs": [
        {
          "internalType": "address",
          "name": "",
          "type": "address"
        }
      ],
      "stateMutability": "view",
      "type": "function"
    },
    {
      "inputs": [],
      "name": "sequencerUptimeFeedAddress",
      "outputs": [
        {
          "internalType": "address",
          "name": "",
          "type": "address"
        }
      ],
      "stateMutability": "view",
      "type": "function"
    },
    {
      "inputs": [
        {
          "internalType": "contract IAuthority",
          "name": "_newAuthority",
          "type": "address"
        }
      ],
      "name": "setAuthority",
      "outputs": [],
      "stateMutability": "nonpayable",
      "type": "function"
    },
    {
      "inputs": [
        {
          "internalType": "address",
          "name": "_sequencerUptimeFeedAddress",
          "type": "address"
        }
      ],
      "name": "setSequencerUptimeFeedAddress",
      "outputs": [],
      "stateMutability": "nonpayable",
      "type": "function"
    }
  ],
  "bytecode": "0x608060405234801561001057600080fd5b50604051610c88380380610c8883398101604081905261002f916100c5565b600080546001600160a01b0319166001600160a01b03841690811790915560405190815282907f2f658b440c35314f52658ea8a740e05b284cdc84dc9ae01e891f21b8933e7cad9060200160405180910390a150600280546001600160a01b0319166001600160a01b0392909216919091179055506100f8565b80516001600160a01b03811681146100c057600080fd5b919050565b600080604083850312156100d857600080fd5b6100e1836100a9565b91506100ef602084016100a9565b90509250929050565b610b81806101076000396000f3fe608060405234801561001057600080fd5b50600436106100785760003560e01c806314738a6c1461007d5780631643b77d146100a35780631b10a949146100b8578063379b87ea146100cb5780633a8c0fc3146100de5780637a9e5e4b14610109578063bf7e214f1461011c578063f90c69061461012f575b600080fd5b61009061008b366004610791565b610163565b6040519081526020015b60405180910390f35b6100b66100b13660046107ca565b6103ca565b005b6100b66100c63660046107ee565b6103f4565b6100906100d9366004610791565b610439565b6002546100f1906001600160a01b031681565b6040516001600160a01b03909116815260200161009a565b6100b66101173660046107ca565b6105a4565b6000546100f1906001600160a01b031681565b6100f161013d366004610791565b60016020908152600092835260408084209091529082529020546001600160a01b031681565b6001600160a01b0380831660009081526001602090815260408083208585168452909152812054909116806101b35760405162461bcd60e51b81526004016101aa90610839565b60405180910390fd5b60008190506000816001600160a01b031663313ce5676040518163ffffffff1660e01b8152600401602060405180830381865afa1580156101f8573d6000803e3d6000fd5b505050506040513d601f19601f8201168201806040525081019061021c919061086c565b9050610226610600565b600080600080856001600160a01b031663feaf968c6040518163ffffffff1660e01b815260040160a060405180830381865afa15801561026a573d6000803e3d6000fd5b505050506040513d601f19601f8201168201806040525081019061028e91906108ab565b945094505093509350600083136102b75760405162461bcd60e51b81526004016101aa906108fb565b816000036102d75760405162461bcd60e51b81526004016101aa90610941565b6102e3610e1083610983565b4211156103025760405162461bcd60e51b81526004016101aa9061099b565b836001600160501b0316816001600160501b031610156103585760405162461bcd60e51b815260206004820152601160248201527014d510531157d4149250d157d493d55391607a1b60448201526064016101aa565b600060ff861660121115610397576103718660126109c0565b905061037e81600a610ac7565b6103889085610ad6565b985050505050505050506103c4565b6103a26012876109c0565b90506103af81600a610ac7565b6103b99085610af5565b985050505050505050505b92915050565b6103d26106d1565b600280546001600160a01b0319166001600160a01b0392909216919091179055565b6103fc6106d1565b6001600160a01b03928316600090815260016020908152604080832094861683529390529190912080546001600160a01b03191691909216179055565b6001600160a01b0380831660009081526001602090815260408083208585168452909152812054909116806104805760405162461bcd60e51b81526004016101aa90610839565b80610489610600565b600080600080846001600160a01b031663feaf968c6040518163ffffffff1660e01b815260040160a060405180830381865afa1580156104cd573d6000803e3d6000fd5b505050506040513d601f19601f820116820180604052508101906104f191906108ab565b9450945050935093506000831361051a5760405162461bcd60e51b81526004016101aa906108fb565b8160000361053a5760405162461bcd60e51b81526004016101aa90610941565b610546610e1083610983565b4211156105655760405162461bcd60e51b81526004016101aa9061099b565b836001600160501b0316816001600160501b031610156105975760405162461bcd60e51b81526004016101aa9061099b565b5090979650505050505050565b6105ac6106d1565b600080546001600160a01b0319166001600160a01b0383169081179091556040519081527f2f658b440c35314f52658ea8a740e05b284cdc84dc9ae01e891f21b8933e7cad9060200160405180910390a150565b60025460408051633fabe5a360e21b815290516001600160a01b03909216916000918291849163feaf968c9160048083019260a09291908290030181865afa158015610650573d6000803e3d6000fd5b505050506040513d601f19601f8201168201806040525081019061067491906108ab565b505092509250508160001461069b5760405162032b3d60e81b815260040160405180910390fd5b60006106a78242610b17565b905061070881116106cb5760405163d15f73b560e01b815260040160405180910390fd5b50505050565b60008054906101000a90046001600160a01b03166001600160a01b0316630c340a246040518163ffffffff1660e01b8152600401602060405180830381865afa158015610722573d6000803e3d6000fd5b505050506040513d601f19601f820116820180604052508101906107469190610b2e565b6001600160a01b0316336001600160a01b0316146107775760405163075fd2b160e01b815260040160405180910390fd5b565b6001600160a01b038116811461078e57600080fd5b50565b600080604083850312156107a457600080fd5b82356107af81610779565b915060208301356107bf81610779565b809150509250929050565b6000602082840312156107dc57600080fd5b81356107e781610779565b9392505050565b60008060006060848603121561080357600080fd5b833561080e81610779565b9250602084013561081e81610779565b9150604084013561082e81610779565b809150509250925092565b602080825260199082015278141c9a58d9481999595908191bd95cc81b9bdd08195e1a5cdd603a1b604082015260600190565b60006020828403121561087e57600080fd5b815160ff811681146107e757600080fd5b80516001600160501b03811681146108a657600080fd5b919050565b600080600080600060a086880312156108c357600080fd5b6108cc8661088f565b94506020860151935060408601519250606086015191506108ef6080870161088f565b90509295509295909350565b60208082526026908201527f436861696e4c696e6b5072696365723a207072696365206973206c6f7765722060408201526507468616e20360d41b606082015260800190565b602080825260129082015271524f554e445f4e4f545f434f4d504c45544560701b604082015260600190565b634e487b7160e01b600052601160045260246000fd5b600082198211156109965761099661096d565b500190565b6020808252600b908201526a5354414c455f505249434560a81b604082015260600190565b600060ff821660ff8416808210156109da576109da61096d565b90039392505050565b600181815b80851115610a1e578160001904821115610a0457610a0461096d565b80851615610a1157918102915b93841c93908002906109e8565b509250929050565b600082610a35575060016103c4565b81610a42575060006103c4565b8160018114610a585760028114610a6257610a7e565b60019150506103c4565b60ff841115610a7357610a7361096d565b50506001821b6103c4565b5060208310610133831016604e8410600b8410161715610aa1575081810a6103c4565b610aab83836109e3565b8060001904821115610abf57610abf61096d565b029392505050565b60006107e760ff841683610a26565b6000816000190483118215151615610af057610af061096d565b500290565b600082610b1257634e487b7160e01b600052601260045260246000fd5b500490565b600082821015610b2957610b2961096d565b500390565b600060208284031215610b4057600080fd5b81516107e78161077956fea26469706673582212204f19caa82de42ddd41cacaa72dc1bb1dd39cf7871232032ddffbe54f268b931e64736f6c634300080e0033",
  "linkReferences": {},
  "deployedLinkReferences": {}
}