{
  "_format": "hh-sol-artifact-1",
  "contractName": "PerpHedgingReactor",
  "sourceName": "contracts/hedging/PerpHedgingReactor.sol",
  "abi": [
    {
      "inputs": [
        {
          "internalType": "address",
          "name": "_clearingHouse",
          "type": "address"
        },
        {
          "internalType": "address",
          "name": "_collateralAsset",
          "type": "address"
        },
        {
          "internalType": "address",
          "name": "_wethAddress",
          "type": "address"
        },
        {
          "internalType": "address",
          "name": "_parentLiquidityPool",
          "type": "address"
        },
        {
          "internalType": "uint32",
          "name": "_poolId",
          "type": "uint32"
        },
        {
          "internalType": "uint32",
          "name": "_collateralId",
          "type": "uint32"
        },
        {
          "internalType": "address",
          "name": "_priceFeed",
          "type": "address"
        },
        {
          "internalType": "address",
          "name": "_authority",
          "type": "address"
        }
      ],
      "stateMutability": "nonpayable",
      "type": "constructor"
    },
    {
      "inputs": [],
      "name": "IncorrectCollateral",
      "type": "error"
    },
    {
      "inputs": [],
      "name": "IncorrectDeltaChange",
      "type": "error"
    },
    {
      "inputs": [
        {
          "internalType": "int256",
          "name": "accountMarketValue",
          "type": "int256"
        },
        {
          "internalType": "int256",
          "name": "totalRequiredMargin",
          "type": "int256"
        }
      ],
      "name": "InvalidTransactionNotEnoughMargin",
      "type": "error"
    },
    {
      "inputs": [],
      "name": "NotKeeper",
      "type": "error"
    },
    {
      "inputs": [],
      "name": "UNAUTHORIZED",
      "type": "error"
    },
    {
      "inputs": [],
      "name": "ValueFailure",
      "type": "error"
    },
    {
      "inputs": [],
      "name": "WithdrawExceedsLiquidity",
      "type": "error"
    },
    {
      "anonymous": false,
      "inputs": [
        {
          "indexed": false,
          "internalType": "contract IAuthority",
          "name": "authority",
          "type": "address"
        }
      ],
      "name": "AuthorityUpdated",
      "type": "event"
    },
    {
      "inputs": [],
      "name": "accountId",
      "outputs": [
        {
          "internalType": "uint256",
          "name": "",
          "type": "uint256"
        }
      ],
      "stateMutability": "view",
      "type": "function"
    },
    {
      "inputs": [],
      "name": "authority",
      "outputs": [
        {
          "internalType": "contract IAuthority",
          "name": "",
          "type": "address"
        }
      ],
      "stateMutability": "view",
      "type": "function"
    },
    {
      "inputs": [],
      "name": "checkVaultHealth",
      "outputs": [
        {
          "internalType": "bool",
          "name": "isBelowMin",
          "type": "bool"
        },
        {
          "internalType": "bool",
          "name": "isAboveMax",
          "type": "bool"
        },
        {
          "internalType": "uint256",
          "name": "health",
          "type": "uint256"
        },
        {
          "internalType": "uint256",
          "name": "collatToTransfer",
          "type": "uint256"
        }
      ],
      "stateMutability": "view",
      "type": "function"
    },
    {
      "inputs": [],
      "name": "clearingHouse",
      "outputs": [
        {
          "internalType": "contract IClearingHouse",
          "name": "",
          "type": "address"
        }
      ],
      "stateMutability": "view",
      "type": "function"
    },
    {
      "inputs": [],
      "name": "collateralAsset",
      "outputs": [
        {
          "internalType": "address",
          "name": "",
          "type": "address"
        }
      ],
      "stateMutability": "view",
      "type": "function"
    },
    {
      "inputs": [],
      "name": "collateralId",
      "outputs": [
        {
          "internalType": "uint32",
          "name": "",
          "type": "uint32"
        }
      ],
      "stateMutability": "view",
      "type": "function"
    },
    {
      "inputs": [],
      "name": "getDelta",
      "outputs": [
        {
          "internalType": "int256",
          "name": "delta",
          "type": "int256"
        }
      ],
      "stateMutability": "view",
      "type": "function"
    },
    {
      "inputs": [],
      "name": "getPoolDenominatedValue",
      "outputs": [
        {
          "internalType": "uint256",
          "name": "value",
          "type": "uint256"
        }
      ],
      "stateMutability": "view",
      "type": "function"
    },
    {
      "inputs": [],
      "name": "healthFactor",
      "outputs": [
        {
          "internalType": "uint256",
          "name": "",
          "type": "uint256"
        }
      ],
      "stateMutability": "view",
      "type": "function"
    },
    {
      "inputs": [
        {
          "internalType": "int256",
          "name": "_delta",
          "type": "int256"
        }
      ],
      "name": "hedgeDelta",
      "outputs": [
        {
          "internalType": "int256",
          "name": "deltaChange",
          "type": "int256"
        }
      ],
      "stateMutability": "nonpayable",
      "type": "function"
    },
    {
      "inputs": [],
      "name": "initialiseReactor",
      "outputs": [],
      "stateMutability": "nonpayable",
      "type": "function"
    },
    {
      "inputs": [],
      "name": "internalDelta",
      "outputs": [
        {
          "internalType": "int256",
          "name": "",
          "type": "int256"
        }
      ],
      "stateMutability": "view",
      "type": "function"
    },
    {
      "inputs": [
        {
          "internalType": "address",
          "name": "",
          "type": "address"
        }
      ],
      "name": "keeper",
      "outputs": [
        {
          "internalType": "bool",
          "name": "",
          "type": "bool"
        }
      ],
      "stateMutability": "view",
      "type": "function"
    },
    {
      "inputs": [],
      "name": "parentLiquidityPool",
      "outputs": [
        {
          "internalType": "address",
          "name": "",
          "type": "address"
        }
      ],
      "stateMutability": "view",
      "type": "function"
    },
    {
      "inputs": [],
      "name": "poolId",
      "outputs": [
        {
          "internalType": "uint32",
          "name": "",
          "type": "uint32"
        }
      ],
      "stateMutability": "view",
      "type": "function"
    },
    {
      "inputs": [],
      "name": "priceFeed",
      "outputs": [
        {
          "internalType": "address",
          "name": "",
          "type": "address"
        }
      ],
      "stateMutability": "view",
      "type": "function"
    },
    {
      "inputs": [
        {
          "internalType": "contract IAuthority",
          "name": "_newAuthority",
          "type": "address"
        }
      ],
      "name": "setAuthority",
      "outputs": [],
      "stateMutability": "nonpayable",
      "type": "function"
    },
    {
      "inputs": [
        {
          "internalType": "uint256",
          "name": "_healthFactor",
          "type": "uint256"
        }
      ],
      "name": "setHealthFactor",
      "outputs": [],
      "stateMutability": "nonpayable",
      "type": "function"
    },
    {
      "inputs": [
        {
          "internalType": "address",
          "name": "_keeper",
          "type": "address"
        },
        {
          "internalType": "bool",
          "name": "_auth",
          "type": "bool"
        }
      ],
      "name": "setKeeper",
      "outputs": [],
      "stateMutability": "nonpayable",
      "type": "function"
    },
    {
      "inputs": [
        {
          "internalType": "bool",
          "name": "_syncOnChange",
          "type": "bool"
        }
      ],
      "name": "setSyncOnChange",
      "outputs": [],
      "stateMutability": "nonpayable",
      "type": "function"
    },
    {
      "inputs": [],
      "name": "sync",
      "outputs": [],
      "stateMutability": "nonpayable",
      "type": "function"
    },
    {
      "inputs": [],
      "name": "syncAndUpdate",
      "outputs": [],
      "stateMutability": "nonpayable",
      "type": "function"
    },
    {
      "inputs": [],
      "name": "syncOnChange",
      "outputs": [
        {
          "internalType": "bool",
          "name": "",
          "type": "bool"
        }
      ],
      "stateMutability": "view",
      "type": "function"
    },
    {
      "inputs": [],
      "name": "update",
      "outputs": [
        {
          "internalType": "uint256",
          "name": "",
          "type": "uint256"
        }
      ],
      "stateMutability": "nonpayable",
      "type": "function"
    },
    {
      "inputs": [],
      "name": "wETH",
      "outputs": [
        {
          "internalType": "address",
          "name": "",
          "type": "address"
        }
      ],
      "stateMutability": "view",
      "type": "function"
    },
    {
      "inputs": [
        {
          "internalType": "uint256",
          "name": "_amount",
          "type": "uint256"
        }
      ],
      "name": "withdraw",
      "outputs": [
        {
          "internalType": "uint256",
          "name": "",
          "type": "uint256"
        }
      ],
      "stateMutability": "nonpayable",
      "type": "function"
    }
  ],
  "bytecode": "0x6101806040526113886003553480156200001857600080fd5b506040516200334e3803806200334e8339810160408190526200003b9162000173565b600080546001600160a01b0319166001600160a01b03831690811790915560405190815281907f2f658b440c35314f52658ea8a740e05b284cdc84dc9ae01e891f21b8933e7cad9060200160405180910390a1506001600160a01b0380891661010081905288821660c05287821660e05286821660805290831660a05263ffffffff8086166101405284166101205260408051639dca362f60e01b81529051639dca362f9160048082019260209290919082900301816000875af115801562000108573d6000803e3d6000fd5b505050506040513d601f19601f820116820180604052508101906200012e91906200021b565b6101605250620002359650505050505050565b80516001600160a01b03811681146200015957600080fd5b919050565b805163ffffffff811681146200015957600080fd5b600080600080600080600080610100898b0312156200019157600080fd5b6200019c8962000141565b9750620001ac60208a0162000141565b9650620001bc60408a0162000141565b9550620001cc60608a0162000141565b9450620001dc60808a016200015e565b9350620001ec60a08a016200015e565b9250620001fc60c08a0162000141565b91506200020c60e08a0162000141565b90509295985092959890939650565b6000602082840312156200022e57600080fd5b5051919050565b60805160a05160c05160e05161010051610120516101405161016051612e2f6200051f6000396000818161029a015281816105fb015281816106f701528181610b1f01528181610c0801528181610d2601528181610e0501528181610ede015281816111e60152818161146101528181611575015281816116a401528181611ce801528181611d6001528181612013015281816121ff015281816122ea015281816123f3015281816124b5015281816125bb01528181612676015261271101526000818161021b0152818161062601528181610d5101528181611d8b015281816120350152818161230c01526124150152600081816103b30152818161071801528181610b4001528181610c2901528181610eff015281816114820152818161159701528181611d0901528181612221015281816124d601528181612697015261273201526000818161017801528181610650015281816106d501528181610af801528181610be101528181610d8b01528181610e3f01528181610ebc015281816112200152818161143f0152818161150a01528181611548015281816116ca01528181611cc601528181611db501528181611fde015281816121d2015281816122b4015281816123be0152818161248e015281816125e10152818161265201526126ea0152600081816103da01528181610806015281816110210152611e6e0152600081816102f301528181610484015281816105190152818161054b0152818161076301528181610827015281816108a601528181610a1101528181610a9e01528181610cb001528181610f6e01528181611042015281816112a50152818161135b015281816114bc015281816114e901528181611e8f015281816121070152818161219401526127b3015260008181610257015281816107d701528181610ff20152611e3f0152600081816101b501528181610424015281816109e401528181610abf01528181610cd1015281816116200152818161199b01526120da0152612e2f6000f3fe608060405234801561001057600080fd5b506004361061016e5760003560e01c8063b7aa436d116100ce578063db95019b11610087578063db95019b1461035b578063e7df26141461036e578063e8cf86081461038b578063eec0f42e146103ae578063f2428621146103d5578063fbaac115146103fc578063fff6cae91461040f57600080fd5b8063b7aa436d14610315578063bda850071461031d578063bf7e214f14610325578063c549176e14610338578063d1b9e85314610340578063d869eb741461035357600080fd5b8063741bef1a1161012b578063741bef1a146102525780637a9e5e4b146102795780639ceb04831461028c5780639cfd7cff14610295578063a2e62045146102bc578063a7f59ac5146102c4578063aabaecd6146102ee57600080fd5b80630af96800146101735780632082d8d3146101b057806322841f01146101d75780632e1a7d4d146101ee57806331111708146102015780633e0dc34e14610216575b600080fd5b61019a7f000000000000000000000000000000000000000000000000000000000000000081565b6040516101a791906128b8565b60405180910390f35b61019a7f000000000000000000000000000000000000000000000000000000000000000081565b6101e060035481565b6040519081526020016101a7565b6101e06101fc3660046128cc565b610417565b61021461020f3660046128cc565b610577565b005b61023d7f000000000000000000000000000000000000000000000000000000000000000081565b60405163ffffffff90911681526020016101a7565b61019a7f000000000000000000000000000000000000000000000000000000000000000081565b6102146102873660046128fa565b610584565b6101e060015481565b6101e07f000000000000000000000000000000000000000000000000000000000000000081565b6101e06105e2565b6102cc610d17565b60408051941515855292151560208501529183015260608201526080016101a7565b61019a7f000000000000000000000000000000000000000000000000000000000000000081565b6101e06111d7565b6102146113e9565b60005461019a906001600160a01b031681565b6001546101e0565b61021461034e36600461292c565b6113fc565b61021461142f565b610214610369366004612961565b6115f8565b60045461037b9060ff1681565b60405190151581526020016101a7565b61037b6103993660046128fa565b60026020526000908152604090205460ff1681565b61023d7f000000000000000000000000000000000000000000000000000000000000000081565b61019a7f000000000000000000000000000000000000000000000000000000000000000081565b6101e061040a3660046128cc565b611613565b61021461168d565b6000336001600160a01b037f0000000000000000000000000000000000000000000000000000000000000000161461046a5760405162461bcd60e51b81526004016104619061297c565b60405180910390fd5b6040516370a0823160e01b81526000906001600160a01b037f000000000000000000000000000000000000000000000000000000000000000016906370a08231906104b99030906004016128b8565b602060405180830381865afa1580156104d6573d6000803e3d6000fd5b505050506040513d601f19601f820116820180604052508101906104fa919061299c565b90508060000361050d5750600092915050565b8083116105465761053f7f00000000000000000000000000000000000000000000000000000000000000003385611730565b5090919050565b6105717f00000000000000000000000000000000000000000000000000000000000000003383611730565b92915050565b61057f6117a9565b600355565b61058c6117a9565b600080546001600160a01b0319166001600160a01b0383161790556040517f2f658b440c35314f52658ea8a740e05b284cdc84dc9ae01e891f21b8933e7cad906105d79083906128b8565b60405180910390a150565b60006105ec611851565b604051633524324160e11b81527f0000000000000000000000000000000000000000000000000000000000000000600482015263ffffffff7f00000000000000000000000000000000000000000000000000000000000000001660248201526000907f00000000000000000000000000000000000000000000000000000000000000006001600160a01b031690636a48648290604401602060405180830381865afa15801561069f573d6000803e3d6000fd5b505050506040513d601f19601f820116820180604052508101906106c3919061299c565b905060008061073c6001600160a01b037f0000000000000000000000000000000000000000000000000000000000000000167f00000000000000000000000000000000000000000000000000000000000000007f00000000000000000000000000000000000000000000000000000000000000006119dc565b9150915080600003610761576040516329cf460d60e21b815260040160405180910390fd5b7f00000000000000000000000000000000000000000000000000000000000000006001600160a01b0316826001600160a01b0316146107b3576040516329cf460d60e21b815260040160405180910390fd5b8060011480156107c1575082155b156107d0576000935050505090565b600061092e7f00000000000000000000000000000000000000000000000000000000000000006001600160a01b03166314738a6c7f00000000000000000000000000000000000000000000000000000000000000007f00000000000000000000000000000000000000000000000000000000000000006040518363ffffffff1660e01b81526004016108639291906129b5565b602060405180830381865afa158015610880573d6000803e3d6000fd5b505050506040513d601f19601f820116820180604052508101906108a4919061299c565b7f00000000000000000000000000000000000000000000000000000000000000006001600160a01b031663313ce5676040518163ffffffff1660e01b8152600401602060405180830381865afa158015610902573d6000803e3d6000fd5b505050506040513d601f19601f8201168201806040525081019061092691906129cf565b60ff16611b1f565b905060008085121561098157612710600354670de0b6b3a7640000848861095490612a08565b61095e9190612a24565b6109689190612a43565b6109729190612a24565b61097c9190612a43565b6109b9565b60035461271090670de0b6b3a764000061099b8589612a24565b6109a59190612a43565b6109af9190612a24565b6109b99190612a43565b905082811115610bcf576109cd8382612a65565b60405163f8b2cb4f60e01b81526001600160a01b037f0000000000000000000000000000000000000000000000000000000000000000169063f8b2cb4f90610a39907f0000000000000000000000000000000000000000000000000000000000000000906004016128b8565b602060405180830381865afa158015610a56573d6000803e3d6000fd5b505050506040513d601f19601f82011682018060405250810190610a7a919061299c565b1015610a995760405163b84beb5d60e01b815260040160405180910390fd5b610aee7f00000000000000000000000000000000000000000000000000000000000000007f000000000000000000000000000000000000000000000000000000000000000030610ae98786612a65565b611b5b565b6001600160a01b037f000000000000000000000000000000000000000000000000000000000000000016637d2efe077f00000000000000000000000000000000000000000000000000000000000000007f0000000000000000000000000000000000000000000000000000000000000000610b698786612a65565b6040518463ffffffff1660e01b8152600401610b8793929190612a7c565b600060405180830381600087803b158015610ba157600080fd5b505af1158015610bb5573d6000803e3d6000fd5b505050508281610bc59190612a65565b9550505050505090565b82811015610d0b576001600160a01b037f000000000000000000000000000000000000000000000000000000000000000016637d2efe077f00000000000000000000000000000000000000000000000000000000000000007f0000000000000000000000000000000000000000000000000000000000000000610c528588612a65565b610c5b90612a08565b6040518463ffffffff1660e01b8152600401610c7993929190612a7c565b600060405180830381600087803b158015610c9357600080fd5b505af1158015610ca7573d6000803e3d6000fd5b50505050610d017f00000000000000000000000000000000000000000000000000000000000000007f00000000000000000000000000000000000000000000000000000000000000008386610cfc9190612a65565b611730565b610bc58184612a65565b60009550505050505090565b604051633524324160e11b81527f0000000000000000000000000000000000000000000000000000000000000000600482015263ffffffff7f000000000000000000000000000000000000000000000000000000000000000016602482015260009081908190819081906001600160a01b037f00000000000000000000000000000000000000000000000000000000000000001690636a48648290604401602060405180830381865afa158015610dd2573d6000803e3d6000fd5b505050506040513d601f19601f82011682018060405250810190610df6919061299c565b60405163e67ed1df60e01b81527f000000000000000000000000000000000000000000000000000000000000000060048201526000602482018190529192506001600160a01b037f0000000000000000000000000000000000000000000000000000000000000000169063e67ed1df906044016040805180830381865afa158015610e85573d6000803e3d6000fd5b505050506040513d601f19601f82011682018060405250810190610ea99190612a98565b509050600080610f236001600160a01b037f0000000000000000000000000000000000000000000000000000000000000000167f00000000000000000000000000000000000000000000000000000000000000007f00000000000000000000000000000000000000000000000000000000000000006119dc565b915091506000831215610f4957604051630a9bbe3760e21b815260040160405180910390fd5b826000829003610f6c576040516329cf460d60e21b815260040160405180910390fd5b7f00000000000000000000000000000000000000000000000000000000000000006001600160a01b0316836001600160a01b031614610fbe576040516329cf460d60e21b815260040160405180910390fd5b816001148015610fcc575084155b15610feb576000806003546000985098509850985050505050506111d1565b600061107e7f00000000000000000000000000000000000000000000000000000000000000006001600160a01b03166314738a6c7f00000000000000000000000000000000000000000000000000000000000000007f00000000000000000000000000000000000000000000000000000000000000006040518363ffffffff1660e01b81526004016108639291906129b5565b905060008612156110cb57670de0b6b3a76400008161109c88612a08565b6110a69190612a24565b6110b09190612a43565b6110bc61271084612a24565b6110c69190612a43565b6110fe565b670de0b6b3a76400006110de8288612a24565b6110e89190612a43565b6110f461271084612a24565b6110fe9190612a43565b975060008087121561115157612710600354670de0b6b3a7640000848a61112490612a08565b61112e9190612a24565b6111389190612a43565b6111429190612a24565b61114c9190612a43565b611189565b60035461271090670de0b6b3a764000061116b858b612a24565b6111759190612a43565b61117f9190612a24565b6111899190612a43565b9050828111156111ac5760019a50600099506111a58382612a65565b97506111c9565b828110156111c95760009a50600199506111c68184612a65565b97505b505050505050505b90919293565b60405163e67ed1df60e01b81527f000000000000000000000000000000000000000000000000000000000000000060048201526000602482018190529081906001600160a01b037f0000000000000000000000000000000000000000000000000000000000000000169063e67ed1df906044016040805180830381865afa158015611266573d6000803e3d6000fd5b505050506040513d601f19601f8201168201806040525081019061128a9190612a98565b506040516370a0823160e01b81529091506001600160a01b037f000000000000000000000000000000000000000000000000000000000000000016906370a08231906112da9030906004016128b8565b602060405180830381865afa1580156112f7573d6000803e3d6000fd5b505050506040513d601f19601f8201168201806040525081019061131b919061299c565b6113259083612abc565b9150600081121561134957604051630a9bbe3760e21b815260040160405180910390fd5b6113538183612abc565b91506113e3827f00000000000000000000000000000000000000000000000000000000000000006001600160a01b031663313ce5676040518163ffffffff1660e01b8152600401602060405180830381865afa1580156113b7573d6000803e3d6000fd5b505050506040513d601f19601f820116820180604052508101906113db91906129cf565b60ff16611bed565b91505090565b6113f161168d565b6113f96105e2565b50565b6114046117a9565b6001600160a01b03919091166000908152600260205260409020805460ff1916911515919091179055565b6000806114a66001600160a01b037f0000000000000000000000000000000000000000000000000000000000000000167f00000000000000000000000000000000000000000000000000000000000000007f00000000000000000000000000000000000000000000000000000000000000006119dc565b91509150806000146114b757600080fd5b6114e47f000000000000000000000000000000000000000000000000000000000000000033306001611b5b565b6115317f00000000000000000000000000000000000000000000000000000000000000007f0000000000000000000000000000000000000000000000000000000000000000600019611c26565b604051637d2efe0760e01b81526001600160a01b037f00000000000000000000000000000000000000000000000000000000000000001690637d2efe07906115c2907f0000000000000000000000000000000000000000000000000000000000000000907f000000000000000000000000000000000000000000000000000000000000000090600190600401612a7c565b600060405180830381600087803b1580156115dc57600080fd5b505af11580156115f0573d6000803e3d6000fd5b505050505050565b6116006117a9565b6004805460ff1916911515919091179055565b6000336001600160a01b037f0000000000000000000000000000000000000000000000000000000000000000161461165d5760405162461bcd60e51b81526004016104619061297c565b61166e61166983612a08565b611c9e565b905080600160008282546116829190612ad4565b909155509092915050565b611695611851565b6040516306f8c0f560e11b81527f000000000000000000000000000000000000000000000000000000000000000060048201527f00000000000000000000000000000000000000000000000000000000000000006001600160a01b031690630df181ea90602401600060405180830381600087803b15801561171657600080fd5b505af115801561172a573d6000803e3d6000fd5b50505050565b600060405163a9059cbb60e01b81526001600160a01b03841660048201528260248201526000806044836000895af191505061176b81612809565b61172a5760405162461bcd60e51b815260206004820152600f60248201526e1514905394d1915497d19052531151608a1b6044820152606401610461565b60008054906101000a90046001600160a01b03166001600160a01b0316630c340a246040518163ffffffff1660e01b8152600401602060405180830381865afa1580156117fa573d6000803e3d6000fd5b505050506040513d601f19601f8201168201806040525081019061181e9190612b15565b6001600160a01b0316336001600160a01b03161461184f5760405163075fd2b160e01b815260040160405180910390fd5b565b3360009081526002602052604090205460ff161580156118f7575060008054906101000a90046001600160a01b03166001600160a01b0316630c340a246040518163ffffffff1660e01b8152600401602060405180830381865afa1580156118bd573d6000803e3d6000fd5b505050506040513d601f19601f820116820180604052508101906118e19190612b15565b6001600160a01b0316336001600160a01b031614155b8015611989575060008054906101000a90046001600160a01b03166001600160a01b031663481c6a756040518163ffffffff1660e01b8152600401602060405180830381865afa15801561194f573d6000803e3d6000fd5b505050506040513d601f19601f820116820180604052508101906119739190612b15565b6001600160a01b0316336001600160a01b031614155b80156119be5750336001600160a01b037f00000000000000000000000000000000000000000000000000000000000000001614155b1561184f57604051631ea2564f60e31b815260040160405180910390fd5b604080516002808252606082018352600092839283929091602083019080368337019050509050611a15611a0f86612850565b85612863565b81600081518110611a2857611a28612b48565b602002602001018181525050611a3d84612883565b81600181518110611a5057611a50612b48565b602090810291909101015260405163dbd035ff60e01b81526001600160a01b0387169063dbd035ff90611a87908490600401612b5e565b600060405180830381865afa158015611aa4573d6000803e3d6000fd5b505050506040513d6000823e601f3d908101601f19168201604052611acc9190810190612ba2565b9050611aef81600081518110611ae457611ae4612b48565b602002602001015190565b9150611b1481600181518110611b0757611b07612b48565b6020026020010151612896565b925050935093915050565b60006012821115611b2f57600080fd5b6000611b3c836012612a65565b9050611b4981600a612d44565b611b539085612a43565b949350505050565b600084905060006040516323b872dd60e01b81526001600160a01b03861660048201526001600160a01b03851660248201528360448201526000806064836000875af1915050611baa81612809565b6115f05760405162461bcd60e51b81526020600482015260146024820152731514905394d1915497d19493d357d1905253115160621b6044820152606401610461565b60006012821115611bfd57600080fd5b611c08826012612a65565b9050611c1581600a612d44565b611c1f9084612a24565b9392505050565b600060405163095ea7b360e01b81526001600160a01b03841660048201528260248201526000806044836000895af1915050611c6181612809565b61172a5760405162461bcd60e51b815260206004820152600e60248201526d1054141493d59157d1905253115160921b6044820152606401610461565b60045460009060ff1615611cb457611cb461168d565b6000808080611d2d6001600160a01b037f0000000000000000000000000000000000000000000000000000000000000000167f00000000000000000000000000000000000000000000000000000000000000007f00000000000000000000000000000000000000000000000000000000000000006119dc565b91505080600003611d51576040516329cf460d60e21b815260040160405180910390fd5b604051633524324160e11b81527f0000000000000000000000000000000000000000000000000000000000000000600482015263ffffffff7f00000000000000000000000000000000000000000000000000000000000000001660248201526000907f00000000000000000000000000000000000000000000000000000000000000006001600160a01b031690636a48648290604401602060405180830381865afa158015611e04573d6000803e3d6000fd5b505050506040513d601f19601f82011682018060405250810190611e28919061299c565b90506000611e368883612ad4565b90506000611ecb7f00000000000000000000000000000000000000000000000000000000000000006001600160a01b03166314738a6c7f00000000000000000000000000000000000000000000000000000000000000007f00000000000000000000000000000000000000000000000000000000000000006040518363ffffffff1660e01b81526004016108639291906129b5565b9050600080831215611f1e57612710600354670de0b6b3a76400008486611ef190612a08565b611efb9190612a24565b611f059190612a43565b611f0f9190612a24565b611f199190612a43565b611f56565b60035461271090670de0b6b3a7640000611f388587612a24565b611f429190612a43565b611f4c9190612a24565b611f569190612a43565b905084811115611f7157611f6a8582612a65565b97506120bb565b84811015611f9557611f848160016128a1565b611f8e9086612a65565b96506120bb565b8481148015611fa357508915155b156120ab576040805160a0810182528b815260006020820181905281830181905260608201819052608082015290516383d778eb60e01b81527f00000000000000000000000000000000000000000000000000000000000000006001600160a01b0316906383d778eb9061205f907f0000000000000000000000000000000000000000000000000000000000000000907f0000000000000000000000000000000000000000000000000000000000000000908690600401612d50565b60408051808303816000875af115801561207d573d6000803e3d6000fd5b505050506040513d601f19601f820116820180604052508101906120a19190612a98565b5096506120bb9050565b5060009998505050505050505050565b87156123825760405163f8b2cb4f60e01b815288906001600160a01b037f0000000000000000000000000000000000000000000000000000000000000000169063f8b2cb4f9061212f907f0000000000000000000000000000000000000000000000000000000000000000906004016128b8565b602060405180830381865afa15801561214c573d6000803e3d6000fd5b505050506040513d601f19601f82011682018060405250810190612170919061299c565b101561218f5760405163b84beb5d60e01b815260040160405180910390fd5b6121bb7f000000000000000000000000000000000000000000000000000000000000000033308b611b5b565b604051637d2efe0760e01b81526001600160a01b037f00000000000000000000000000000000000000000000000000000000000000001690637d2efe079061224b907f0000000000000000000000000000000000000000000000000000000000000000907f0000000000000000000000000000000000000000000000000000000000000000908d90600401612a7c565b600060405180830381600087803b15801561226557600080fd5b505af1158015612279573d6000803e3d6000fd5b50506040805160a0810182528d815260006020820181905281830181905260608201819052608082015290516383d778eb60e01b81529092507f00000000000000000000000000000000000000000000000000000000000000006001600160a01b031691506383d778eb90612336907f0000000000000000000000000000000000000000000000000000000000000000907f0000000000000000000000000000000000000000000000000000000000000000908690600401612d50565b60408051808303816000875af1158015612354573d6000803e3d6000fd5b505050506040513d601f19601f820116820180604052508101906123789190612a98565b5096506127db9050565b86156127db576040805160a0810182528b815260006020820181905281830181905260608201819052608082015290516383d778eb60e01b81527f00000000000000000000000000000000000000000000000000000000000000006001600160a01b0316906383d778eb9061243f907f0000000000000000000000000000000000000000000000000000000000000000907f0000000000000000000000000000000000000000000000000000000000000000908690600401612d50565b60408051808303816000875af115801561245d573d6000803e3d6000fd5b505050506040513d601f19601f820116820180604052508101906124819190612a98565b5096506001600160a01b037f000000000000000000000000000000000000000000000000000000000000000016637d2efe077f00000000000000000000000000000000000000000000000000000000000000007f00000000000000000000000000000000000000000000000000000000000000006124fe8c612a08565b6040518463ffffffff1660e01b815260040161251c93929190612a7c565b600060405180830381600087803b15801561253657600080fd5b505af1925050508015612547575060015b6127ae573d808015612575576040519150601f19603f3d011682016040523d82523d6000602084013e61257a565b606091505b5063c8a3942d60e01b600061258e83612dac565b90506001600160e01b0319828116908216146125ac576125ac612de3565b6040516306f8c0f560e11b81527f000000000000000000000000000000000000000000000000000000000000000060048201527f00000000000000000000000000000000000000000000000000000000000000006001600160a01b031690630df181ea90602401600060405180830381600087803b15801561262d57600080fd5b505af1158015612641573d6000803e3d6000fd5b506126bb9250506001600160a01b037f00000000000000000000000000000000000000000000000000000000000000001690507f00000000000000000000000000000000000000000000000000000000000000007f00000000000000000000000000000000000000000000000000000000000000006119dc565b9950508a89118015906126cd57508815155b156126e0576126dd60018a612a65565b9a505b6001600160a01b037f000000000000000000000000000000000000000000000000000000000000000016637d2efe077f00000000000000000000000000000000000000000000000000000000000000007f000000000000000000000000000000000000000000000000000000000000000061275a8f612a08565b6040518463ffffffff1660e01b815260040161277893929190612a7c565b600060405180830381600087803b15801561279257600080fd5b505af11580156127a6573d6000803e3d6000fd5b505050505050505b6127d97f0000000000000000000000000000000000000000000000000000000000000000338a611730565b505b8986146127fb57604051630885289d60e01b815260040160405180910390fd5b509798975050505050505050565b60003d8261281b57806000803e806000fd5b80602081146128335780156128445760009250612849565b816000803e60005115159250612849565b600192505b5050919050565b600081815260d360205260408120610571565b6000611c1f63ffffffff8316606985015b60009182526020526040902090565b600061057163ffffffff83166065612874565b6000610571826128b0565b600081831161053f5781611c1f565b600081610571565b6001600160a01b0391909116815260200190565b6000602082840312156128de57600080fd5b5035919050565b6001600160a01b03811681146113f957600080fd5b60006020828403121561290c57600080fd5b8135611c1f816128e5565b8035801515811461292757600080fd5b919050565b6000806040838503121561293f57600080fd5b823561294a816128e5565b915061295860208401612917565b90509250929050565b60006020828403121561297357600080fd5b611c1f82612917565b602080825260069082015265085d985d5b1d60d21b604082015260600190565b6000602082840312156129ae57600080fd5b5051919050565b6001600160a01b0392831681529116602082015260400190565b6000602082840312156129e157600080fd5b815160ff81168114611c1f57600080fd5b634e487b7160e01b600052601160045260246000fd5b6000600160ff1b8201612a1d57612a1d6129f2565b5060000390565b6000816000190483118215151615612a3e57612a3e6129f2565b500290565b600082612a6057634e487b7160e01b600052601260045260246000fd5b500490565b600082821015612a7757612a776129f2565b500390565b92835263ffffffff919091166020830152604082015260600190565b60008060408385031215612aab57600080fd5b505080516020909101519092909150565b60008219821115612acf57612acf6129f2565b500190565b600080821280156001600160ff1b0384900385131615612af657612af66129f2565b600160ff1b8390038412811615612b0f57612b0f6129f2565b50500190565b600060208284031215612b2757600080fd5b8151611c1f816128e5565b634e487b7160e01b600052604160045260246000fd5b634e487b7160e01b600052603260045260246000fd5b6020808252825182820181905260009190848201906040850190845b81811015612b9657835183529284019291840191600101612b7a565b50909695505050505050565b60006020808385031215612bb557600080fd5b825167ffffffffffffffff80821115612bcd57600080fd5b818501915085601f830112612be157600080fd5b815181811115612bf357612bf3612b32565b8060051b604051601f19603f83011681018181108582111715612c1857612c18612b32565b604052918252848201925083810185019188831115612c3657600080fd5b938501935b82851015612c5457845184529385019392850192612c3b565b98975050505050505050565b600181815b80851115612c9b578160001904821115612c8157612c816129f2565b80851615612c8e57918102915b93841c9390800290612c65565b509250929050565b600082612cb257506001610571565b81612cbf57506000610571565b8160018114612cd55760028114612cdf57612cfb565b6001915050610571565b60ff841115612cf057612cf06129f2565b50506001821b610571565b5060208310610133831016604e8410600b8410161715612d1e575081810a610571565b612d288383612c60565b8060001904821115612d3c57612d3c6129f2565b029392505050565b6000611c1f8383612ca3565b600060e08201905084825263ffffffff841660208301528251604083015260018060a01b0360208401511660608301526040830151151560808301526060830151151560a08301526080830151151560c0830152949350505050565b805160208201516001600160e01b03198082169291906004831015612ddb5780818460040360031b1b83161693505b505050919050565b634e487b7160e01b600052600160045260246000fdfea26469706673582212204dbf175bb074c45e776e2626509a3b7cc3b04d77f91c97e2cadff4cd278199bb64736f6c634300080e0033",
  "linkReferences": {},
  "deployedLinkReferences": {}
}