{
  "_format": "hh-sol-artifact-1",
  "contractName": "MintableERC20",
  "sourceName": "contracts/tokens/MintableERC20.sol",
  "abi": [
    {
      "inputs": [
        {
          "internalType": "string",
          "name": "_name",
          "type": "string"
        },
        {
          "internalType": "string",
          "name": "_symbol",
          "type": "string"
        },
        {
          "internalType": "uint8",
          "name": "_decimals",
          "type": "uint8"
        }
      ],
      "stateMutability": "nonpayable",
      "type": "constructor"
    },
    {
      "anonymous": false,
      "inputs": [
        {
          "indexed": true,
          "internalType": "address",
          "name": "owner",
          "type": "address"
        },
        {
          "indexed": true,
          "internalType": "address",
          "name": "spender",
          "type": "address"
        },
        {
          "indexed": false,
          "internalType": "uint256",
          "name": "amount",
          "type": "uint256"
        }
      ],
      "name": "Approval",
      "type": "event"
    },
    {
      "anonymous": false,
      "inputs": [
        {
          "indexed": true,
          "internalType": "address",
          "name": "from",
          "type": "address"
        },
        {
          "indexed": true,
          "internalType": "address",
          "name": "to",
          "type": "address"
        },
        {
          "indexed": false,
          "internalType": "uint256",
          "name": "amount",
          "type": "uint256"
        }
      ],
      "name": "Transfer",
      "type": "event"
    },
    {
      "inputs": [],
      "name": "DOMAIN_SEPARATOR",
      "outputs": [
        {
          "internalType": "bytes32",
          "name": "",
          "type": "bytes32"
        }
      ],
      "stateMutability": "view",
      "type": "function"
    },
    {
      "inputs": [
        {
          "internalType": "address",
          "name": "",
          "type": "address"
        },
        {
          "internalType": "address",
          "name": "",
          "type": "address"
        }
      ],
      "name": "allowance",
      "outputs": [
        {
          "internalType": "uint256",
          "name": "",
          "type": "uint256"
        }
      ],
      "stateMutability": "view",
      "type": "function"
    },
    {
      "inputs": [
        {
          "internalType": "address",
          "name": "spender",
          "type": "address"
        },
        {
          "internalType": "uint256",
          "name": "amount",
          "type": "uint256"
        }
      ],
      "name": "approve",
      "outputs": [
        {
          "internalType": "bool",
          "name": "",
          "type": "bool"
        }
      ],
      "stateMutability": "nonpayable",
      "type": "function"
    },
    {
      "inputs": [
        {
          "internalType": "address",
          "name": "",
          "type": "address"
        }
      ],
      "name": "balanceOf",
      "outputs": [
        {
          "internalType": "uint256",
          "name": "",
          "type": "uint256"
        }
      ],
      "stateMutability": "view",
      "type": "function"
    },
    {
      "inputs": [],
      "name": "decimals",
      "outputs": [
        {
          "internalType": "uint8",
          "name": "",
          "type": "uint8"
        }
      ],
      "stateMutability": "view",
      "type": "function"
    },
    {
      "inputs": [
        {
          "internalType": "address",
          "name": "to",
          "type": "address"
        },
        {
          "internalType": "uint256",
          "name": "amount",
          "type": "uint256"
        }
      ],
      "name": "mint",
      "outputs": [
        {
          "internalType": "bool",
          "name": "",
          "type": "bool"
        }
      ],
      "stateMutability": "nonpayable",
      "type": "function"
    },
    {
      "inputs": [],
      "name": "name",
      "outputs": [
        {
          "internalType": "string",
          "name": "",
          "type": "string"
        }
      ],
      "stateMutability": "view",
      "type": "function"
    },
    {
      "inputs": [
        {
          "internalType": "address",
          "name": "",
          "type": "address"
        }
      ],
      "name": "nonces",
      "outputs": [
        {
          "internalType": "uint256",
          "name": "",
          "type": "uint256"
        }
      ],
      "stateMutability": "view",
      "type": "function"
    },
    {
      "inputs": [
        {
          "internalType": "address",
          "name": "owner",
          "type": "address"
        },
        {
          "internalType": "address",
          "name": "spender",
          "type": "address"
        },
        {
          "internalType": "uint256",
          "name": "value",
          "type": "uint256"
        },
        {
          "internalType": "uint256",
          "name": "deadline",
          "type": "uint256"
        },
        {
          "internalType": "uint8",
          "name": "v",
          "type": "uint8"
        },
        {
          "internalType": "bytes32",
          "name": "r",
          "type": "bytes32"
        },
        {
          "internalType": "bytes32",
          "name": "s",
          "type": "bytes32"
        }
      ],
      "name": "permit",
      "outputs": [],
      "stateMutability": "nonpayable",
      "type": "function"
    },
    {
      "inputs": [],
      "name": "symbol",
      "outputs": [
        {
          "internalType": "string",
          "name": "",
          "type": "string"
        }
      ],
      "stateMutability": "view",
      "type": "function"
    },
    {
      "inputs": [],
      "name": "totalSupply",
      "outputs": [
        {
          "internalType": "uint256",
          "name": "",
          "type": "uint256"
        }
      ],
      "stateMutability": "view",
      "type": "function"
    },
    {
      "inputs": [
        {
          "internalType": "address",
          "name": "to",
          "type": "address"
        },
        {
          "internalType": "uint256",
          "name": "amount",
          "type": "uint256"
        }
      ],
      "name": "transfer",
      "outputs": [
        {
          "internalType": "bool",
          "name": "",
          "type": "bool"
        }
      ],
      "stateMutability": "nonpayable",
      "type": "function"
    },
    {
      "inputs": [
        {
          "internalType": "address",
          "name": "from",
          "type": "address"
        },
        {
          "internalType": "address",
          "name": "to",
          "type": "address"
        },
        {
          "internalType": "uint256",
          "name": "amount",
          "type": "uint256"
        }
      ],
      "name": "transferFrom",
      "outputs": [
        {
          "internalType": "bool",
          "name": "",
          "type": "bool"
        }
      ],
      "stateMutability": "nonpayable",
      "type": "function"
    }
  ],
  "bytecode": "0x60e06040523480156200001157600080fd5b5060405162000f4a38038062000f4a833981016040819052620000349162000291565b8251620000499060009060208601906200011e565b5081516200005f9060019060208501906200011e565b5060ff81166080524660a0526200007562000082565b60c05250620003f5915050565b60007f8b73c3c69bb8fe3d512ecc4cf759cc79239f7b179b0ffacaa9a75d522b39400f6000604051620000b6919062000352565b6040805191829003822060208301939093528101919091527fc89efdaa54c0f20c7adf612882df0950f5a951637e0307cdcb4c672f298b8bc660608201524660808201523060a082015260c00160405160208183030381529060405280519060200120905090565b8280546200012c9062000316565b90600052602060002090601f0160209004810192826200015057600085556200019b565b82601f106200016b57805160ff19168380011785556200019b565b828001600101855582156200019b579182015b828111156200019b5782518255916020019190600101906200017e565b50620001a9929150620001ad565b5090565b5b80821115620001a95760008155600101620001ae565b634e487b7160e01b600052604160045260246000fd5b600082601f830112620001ec57600080fd5b81516001600160401b0380821115620002095762000209620001c4565b604051601f8301601f19908116603f01168101908282118183101715620002345762000234620001c4565b816040528381526020925086838588010111156200025157600080fd5b600091505b8382101562000275578582018301518183018401529082019062000256565b83821115620002875760008385830101525b9695505050505050565b600080600060608486031215620002a757600080fd5b83516001600160401b0380821115620002bf57600080fd5b620002cd87838801620001da565b94506020860151915080821115620002e457600080fd5b50620002f386828701620001da565b925050604084015160ff811681146200030b57600080fd5b809150509250925092565b600181811c908216806200032b57607f821691505b6020821081036200034c57634e487b7160e01b600052602260045260246000fd5b50919050565b600080835481600182811c9150808316806200036f57607f831692505b602080841082036200038f57634e487b7160e01b86526022600452602486fd5b818015620003a65760018114620003b857620003e7565b60ff19861689528489019650620003e7565b60008a81526020902060005b86811015620003df5781548b820152908501908301620003c4565b505084890196505b509498975050505050505050565b60805160a05160c051610b25620004256000396000610432015260006103fd015260006101340152610b256000f3fe608060405234801561001057600080fd5b50600436106100bf5760003560e01c806340c10f191161007c57806340c10f191461017057806370a08231146101835780637ecebe00146101a357806395d89b41146101c3578063a9059cbb146101cb578063d505accf146101de578063dd62ed3e146101f357600080fd5b806306fdde03146100c4578063095ea7b3146100e257806318160ddd1461010557806323b872dd1461011c578063313ce5671461012f5780633644e51514610168575b600080fd5b6100cc61021e565b6040516100d99190610816565b60405180910390f35b6100f56100f0366004610887565b6102ac565b60405190151581526020016100d9565b61010e60025481565b6040519081526020016100d9565b6100f561012a3660046108b1565b610319565b6101567f000000000000000000000000000000000000000000000000000000000000000081565b60405160ff90911681526020016100d9565b61010e6103f9565b6100f561017e366004610887565b610454565b61010e6101913660046108ed565b60036020526000908152604090205481565b61010e6101b13660046108ed565b60056020526000908152604090205481565b6100cc610460565b6100f56101d9366004610887565b61046d565b6101f16101ec36600461090f565b6104d3565b005b61010e610201366004610982565b600460209081526000928352604080842090915290825290205481565b6000805461022b906109b5565b80601f0160208091040260200160405190810160405280929190818152602001828054610257906109b5565b80156102a45780601f10610279576101008083540402835291602001916102a4565b820191906000526020600020905b81548152906001019060200180831161028757829003601f168201915b505050505081565b3360008181526004602090815260408083206001600160a01b038716808552925280832085905551919290917f8c5be1e5ebec7d5bd14f71427d1e84f3dd0314c0f7b2291e5b200ac8c7c3b925906103079086815260200190565b60405180910390a35060015b92915050565b6001600160a01b03831660009081526004602090815260408083203384529091528120546000198114610375576103508382610a05565b6001600160a01b03861660009081526004602090815260408083203384529091529020555b6001600160a01b0385166000908152600360205260408120805485929061039d908490610a05565b90915550506001600160a01b0380851660008181526003602052604090819020805487019055519091871690600080516020610ad0833981519152906103e69087815260200190565b60405180910390a3506001949350505050565b60007f0000000000000000000000000000000000000000000000000000000000000000461461042f5761042a610723565b905090565b507f000000000000000000000000000000000000000000000000000000000000000090565b600061031383836107bd565b6001805461022b906109b5565b3360009081526003602052604081208054839190839061048e908490610a05565b90915550506001600160a01b03831660008181526003602052604090819020805485019055513390600080516020610ad0833981519152906103079086815260200190565b428410156105225760405162461bcd60e51b815260206004820152601760248201527614115493525517d11150511312539157d1561412549151604a1b60448201526064015b60405180910390fd5b600061052c6103f9565b6001600160a01b0389811660008181526005602090815260409182902080546001810190915582517f6e71edae12b1b97f4d1f60370fef10105fa2faae0126114a169c64845d6126c98184015280840194909452938c166060840152608083018b905260a083019390935260c08083018a90528151808403909101815260e08301909152805192019190912061190160f01b6101008301526101028201929092526101228101919091526101420160408051601f198184030181528282528051602091820120600080855291840180845281905260ff88169284019290925260608301869052608083018590529092509060019060a0016020604051602081039080840390855afa158015610645573d6000803e3d6000fd5b5050604051601f1901519150506001600160a01b0381161580159061067b5750886001600160a01b0316816001600160a01b0316145b6106b85760405162461bcd60e51b815260206004820152600e60248201526d24a72b20a624a22fa9a4a3a722a960911b6044820152606401610519565b6001600160a01b0390811660009081526004602090815260408083208b8516808552908352928190208a905551898152919350918a16917f8c5be1e5ebec7d5bd14f71427d1e84f3dd0314c0f7b2291e5b200ac8c7c3b925910160405180910390a350505050505050565b60007f8b73c3c69bb8fe3d512ecc4cf759cc79239f7b179b0ffacaa9a75d522b39400f60006040516107559190610a1c565b6040805191829003822060208301939093528101919091527fc89efdaa54c0f20c7adf612882df0950f5a951637e0307cdcb4c672f298b8bc660608201524660808201523060a082015260c00160405160208183030381529060405280519060200120905090565b80600260008282546107cf9190610ab7565b90915550506001600160a01b038216600081815260036020908152604080832080548601905551848152600080516020610ad0833981519152910160405180910390a35050565b600060208083528351808285015260005b8181101561084357858101830151858201604001528201610827565b81811115610855576000604083870101525b50601f01601f1916929092016040019392505050565b80356001600160a01b038116811461088257600080fd5b919050565b6000806040838503121561089a57600080fd5b6108a38361086b565b946020939093013593505050565b6000806000606084860312156108c657600080fd5b6108cf8461086b565b92506108dd6020850161086b565b9150604084013590509250925092565b6000602082840312156108ff57600080fd5b6109088261086b565b9392505050565b600080600080600080600060e0888a03121561092a57600080fd5b6109338861086b565b96506109416020890161086b565b95506040880135945060608801359350608088013560ff8116811461096557600080fd5b9699959850939692959460a0840135945060c09093013592915050565b6000806040838503121561099557600080fd5b61099e8361086b565b91506109ac6020840161086b565b90509250929050565b600181811c908216806109c957607f821691505b6020821081036109e957634e487b7160e01b600052602260045260246000fd5b50919050565b634e487b7160e01b600052601160045260246000fd5b600082821015610a1757610a176109ef565b500390565b600080835481600182811c915080831680610a3857607f831692505b60208084108203610a5757634e487b7160e01b86526022600452602486fd5b818015610a6b5760018114610a7c57610aa9565b60ff19861689528489019650610aa9565b60008a81526020902060005b86811015610aa15781548b820152908501908301610a88565b505084890196505b509498975050505050505050565b60008219821115610aca57610aca6109ef565b50019056feddf252ad1be2c89b69c2b068fc378daa952ba7f163c4a11628f55a4df523b3efa264697066735822122005fd88fa3836bbce52625f2b5f2981af09ef0e8bdc52e57a7db1b08b8b536db164736f6c634300080e0033",
  "linkReferences": {},
  "deployedLinkReferences": {}
}