{
  "_format": "hh-sol-artifact-1",
  "contractName": "UniswapV3RangeOrderReactor",
  "sourceName": "contracts/hedging/UniswapV3RangeOrderReactor.sol",
  "abi": [
    {
      "inputs": [
        {
          "internalType": "address",
          "name": "_factory",
          "type": "address"
        },
        {
          "internalType": "address",
          "name": "_collateralAsset",
          "type": "address"
        },
        {
          "internalType": "address",
          "name": "_underlyingAsset",
          "type": "address"
        },
        {
          "internalType": "address",
          "name": "_parentLiquidityPool",
          "type": "address"
        },
        {
          "internalType": "uint24",
          "name": "_poolFee",
          "type": "uint24"
        },
        {
          "internalType": "address",
          "name": "_priceFeed",
          "type": "address"
        },
        {
          "internalType": "address",
          "name": "_authority",
          "type": "address"
        }
      ],
      "stateMutability": "nonpayable",
      "type": "constructor"
    },
    {
      "inputs": [],
      "name": "InActivePosition",
      "type": "error"
    },
    {
      "inputs": [],
      "name": "NoActivePosition",
      "type": "error"
    },
    {
      "inputs": [
        {
          "internalType": "uint256",
          "name": "x",
          "type": "uint256"
        }
      ],
      "name": "PRBMathUD60x18__SqrtOverflow",
      "type": "error"
    },
    {
      "inputs": [
        {
          "internalType": "uint256",
          "name": "prod1",
          "type": "uint256"
        }
      ],
      "name": "PRBMath__MulDivFixedPointOverflow",
      "type": "error"
    },
    {
      "inputs": [
        {
          "internalType": "uint256",
          "name": "prod1",
          "type": "uint256"
        },
        {
          "internalType": "uint256",
          "name": "denominator",
          "type": "uint256"
        }
      ],
      "name": "PRBMath__MulDivOverflow",
      "type": "error"
    },
    {
      "inputs": [],
      "name": "R",
      "type": "error"
    },
    {
      "inputs": [],
      "name": "RangeOrderNotFilled",
      "type": "error"
    },
    {
      "inputs": [],
      "name": "T",
      "type": "error"
    },
    {
      "inputs": [],
      "name": "UNAUTHORIZED",
      "type": "error"
    },
    {
      "inputs": [],
      "name": "UnauthorizedFulfill",
      "type": "error"
    },
    {
      "inputs": [],
      "name": "WithdrawExceedsLiquidity",
      "type": "error"
    },
    {
      "anonymous": false,
      "inputs": [
        {
          "indexed": false,
          "internalType": "contract IAuthority",
          "name": "authority",
          "type": "address"
        }
      ],
      "name": "AuthorityUpdated",
      "type": "event"
    },
    {
      "anonymous": false,
      "inputs": [
        {
          "indexed": false,
          "internalType": "address",
          "name": "token",
          "type": "address"
        },
        {
          "indexed": false,
          "internalType": "uint256",
          "name": "amount",
          "type": "uint256"
        },
        {
          "indexed": false,
          "internalType": "address",
          "name": "receiver",
          "type": "address"
        },
        {
          "indexed": false,
          "internalType": "address",
          "name": "caller",
          "type": "address"
        }
      ],
      "name": "RecoverERC20",
      "type": "event"
    },
    {
      "anonymous": false,
      "inputs": [
        {
          "indexed": false,
          "internalType": "uint256",
          "name": "amount",
          "type": "uint256"
        },
        {
          "indexed": false,
          "internalType": "address",
          "name": "receiver",
          "type": "address"
        },
        {
          "indexed": false,
          "internalType": "address",
          "name": "caller",
          "type": "address"
        }
      ],
      "name": "RecoverETH",
      "type": "event"
    },
    {
      "anonymous": false,
      "inputs": [
        {
          "indexed": false,
          "internalType": "bool",
          "name": "onlyAuthorizedFulfill",
          "type": "bool"
        },
        {
          "indexed": false,
          "internalType": "address",
          "name": "caller",
          "type": "address"
        }
      ],
      "name": "SetAuthorizedFulfill",
      "type": "event"
    },
    {
      "anonymous": false,
      "inputs": [
        {
          "indexed": false,
          "internalType": "uint256",
          "name": "minAmount",
          "type": "uint256"
        },
        {
          "indexed": false,
          "internalType": "address",
          "name": "caller",
          "type": "address"
        }
      ],
      "name": "SetMinAmount",
      "type": "event"
    },
    {
      "anonymous": false,
      "inputs": [
        {
          "indexed": false,
          "internalType": "uint24",
          "name": "poolFee",
          "type": "uint24"
        },
        {
          "indexed": false,
          "internalType": "address",
          "name": "caller",
          "type": "address"
        }
      ],
      "name": "SetPoolFee",
      "type": "event"
    },
    {
      "anonymous": false,
      "inputs": [
        {
          "indexed": false,
          "internalType": "address",
          "name": "priceFeed",
          "type": "address"
        },
        {
          "indexed": false,
          "internalType": "address",
          "name": "caller",
          "type": "address"
        }
      ],
      "name": "SetPriceFeed",
      "type": "event"
    },
    {
      "anonymous": false,
      "inputs": [
        {
          "indexed": false,
          "internalType": "uint256",
          "name": "amount",
          "type": "uint256"
        }
      ],
      "name": "Withdraw",
      "type": "event"
    },
    {
      "inputs": [],
      "name": "authority",
      "outputs": [
        {
          "internalType": "contract IAuthority",
          "name": "",
          "type": "address"
        }
      ],
      "stateMutability": "view",
      "type": "function"
    },
    {
      "inputs": [],
      "name": "collateralAsset",
      "outputs": [
        {
          "internalType": "address",
          "name": "",
          "type": "address"
        }
      ],
      "stateMutability": "view",
      "type": "function"
    },
    {
      "inputs": [
        {
          "components": [
            {
              "internalType": "int24",
              "name": "lowerTick",
              "type": "int24"
            },
            {
              "internalType": "int24",
              "name": "upperTick",
              "type": "int24"
            },
            {
              "internalType": "uint160",
              "name": "sqrtPriceX96",
              "type": "uint160"
            },
            {
              "internalType": "uint256",
              "name": "meanPrice",
              "type": "uint256"
            },
            {
              "internalType": "enum RangeOrderDirection",
              "name": "direction",
              "type": "uint8"
            }
          ],
          "internalType": "struct RangeOrderParams",
          "name": "params",
          "type": "tuple"
        },
        {
          "internalType": "uint256",
          "name": "amountDesired",
          "type": "uint256"
        }
      ],
      "name": "createUniswapRangeOrder",
      "outputs": [],
      "stateMutability": "nonpayable",
      "type": "function"
    },
    {
      "inputs": [],
      "name": "currentPosition",
      "outputs": [
        {
          "internalType": "int24",
          "name": "activeLowerTick",
          "type": "int24"
        },
        {
          "internalType": "int24",
          "name": "activeUpperTick",
          "type": "int24"
        },
        {
          "internalType": "bool",
          "name": "activeRangeAboveTick",
          "type": "bool"
        }
      ],
      "stateMutability": "view",
      "type": "function"
    },
    {
      "inputs": [],
      "name": "exitActiveRangeOrder",
      "outputs": [],
      "stateMutability": "nonpayable",
      "type": "function"
    },
    {
      "inputs": [],
      "name": "factory",
      "outputs": [
        {
          "internalType": "address",
          "name": "",
          "type": "address"
        }
      ],
      "stateMutability": "view",
      "type": "function"
    },
    {
      "inputs": [],
      "name": "fulfillActiveRangeOrder",
      "outputs": [],
      "stateMutability": "nonpayable",
      "type": "function"
    },
    {
      "inputs": [],
      "name": "getDelta",
      "outputs": [
        {
          "internalType": "int256",
          "name": "delta",
          "type": "int256"
        }
      ],
      "stateMutability": "view",
      "type": "function"
    },
    {
      "inputs": [],
      "name": "getPoolDenominatedValue",
      "outputs": [
        {
          "internalType": "uint256",
          "name": "value",
          "type": "uint256"
        }
      ],
      "stateMutability": "view",
      "type": "function"
    },
    {
      "inputs": [],
      "name": "getPoolPrice",
      "outputs": [
        {
          "internalType": "uint256",
          "name": "price",
          "type": "uint256"
        },
        {
          "internalType": "uint256",
          "name": "inversed",
          "type": "uint256"
        }
      ],
      "stateMutability": "view",
      "type": "function"
    },
    {
      "inputs": [],
      "name": "getPositionID",
      "outputs": [
        {
          "internalType": "bytes32",
          "name": "",
          "type": "bytes32"
        }
      ],
      "stateMutability": "view",
      "type": "function"
    },
    {
      "inputs": [],
      "name": "getUnderlyingBalances",
      "outputs": [
        {
          "internalType": "uint256",
          "name": "amount0Current",
          "type": "uint256"
        },
        {
          "internalType": "uint256",
          "name": "amount1Current",
          "type": "uint256"
        }
      ],
      "stateMutability": "view",
      "type": "function"
    },
    {
      "inputs": [
        {
          "internalType": "int256",
          "name": "_delta",
          "type": "int256"
        }
      ],
      "name": "hedgeDelta",
      "outputs": [
        {
          "internalType": "int256",
          "name": "",
          "type": "int256"
        }
      ],
      "stateMutability": "nonpayable",
      "type": "function"
    },
    {
      "inputs": [],
      "name": "minAmount",
      "outputs": [
        {
          "internalType": "uint256",
          "name": "",
          "type": "uint256"
        }
      ],
      "stateMutability": "view",
      "type": "function"
    },
    {
      "inputs": [],
      "name": "onlyAuthorizedFulfill",
      "outputs": [
        {
          "internalType": "bool",
          "name": "",
          "type": "bool"
        }
      ],
      "stateMutability": "view",
      "type": "function"
    },
    {
      "inputs": [],
      "name": "parentLiquidityPool",
      "outputs": [
        {
          "internalType": "address",
          "name": "",
          "type": "address"
        }
      ],
      "stateMutability": "view",
      "type": "function"
    },
    {
      "inputs": [],
      "name": "pool",
      "outputs": [
        {
          "internalType": "contract IUniswapV3Pool",
          "name": "",
          "type": "address"
        }
      ],
      "stateMutability": "view",
      "type": "function"
    },
    {
      "inputs": [],
      "name": "poolFee",
      "outputs": [
        {
          "internalType": "uint24",
          "name": "",
          "type": "uint24"
        }
      ],
      "stateMutability": "view",
      "type": "function"
    },
    {
      "inputs": [],
      "name": "priceFeed",
      "outputs": [
        {
          "internalType": "address",
          "name": "",
          "type": "address"
        }
      ],
      "stateMutability": "view",
      "type": "function"
    },
    {
      "inputs": [
        {
          "internalType": "address",
          "name": "tokenAddress",
          "type": "address"
        },
        {
          "internalType": "address",
          "name": "receiver",
          "type": "address"
        },
        {
          "internalType": "uint256",
          "name": "tokenAmount",
          "type": "uint256"
        }
      ],
      "name": "recoverERC20",
      "outputs": [],
      "stateMutability": "nonpayable",
      "type": "function"
    },
    {
      "inputs": [
        {
          "internalType": "address payable",
          "name": "receiver",
          "type": "address"
        },
        {
          "internalType": "uint256",
          "name": "amount",
          "type": "uint256"
        }
      ],
      "name": "recoverETH",
      "outputs": [],
      "stateMutability": "nonpayable",
      "type": "function"
    },
    {
      "inputs": [
        {
          "internalType": "contract IAuthority",
          "name": "_newAuthority",
          "type": "address"
        }
      ],
      "name": "setAuthority",
      "outputs": [],
      "stateMutability": "nonpayable",
      "type": "function"
    },
    {
      "inputs": [
        {
          "internalType": "bool",
          "name": "_onlyAuthorizedFulfill",
          "type": "bool"
        }
      ],
      "name": "setAuthorizedFulfill",
      "outputs": [],
      "stateMutability": "nonpayable",
      "type": "function"
    },
    {
      "inputs": [
        {
          "internalType": "uint256",
          "name": "_minAmount",
          "type": "uint256"
        }
      ],
      "name": "setMinAmount",
      "outputs": [],
      "stateMutability": "nonpayable",
      "type": "function"
    },
    {
      "inputs": [
        {
          "internalType": "uint24",
          "name": "_poolFee",
          "type": "uint24"
        }
      ],
      "name": "setPoolFee",
      "outputs": [],
      "stateMutability": "nonpayable",
      "type": "function"
    },
    {
      "inputs": [
        {
          "internalType": "address",
          "name": "_priceFeed",
          "type": "address"
        }
      ],
      "name": "setPriceFeed",
      "outputs": [],
      "stateMutability": "nonpayable",
      "type": "function"
    },
    {
      "inputs": [],
      "name": "token0",
      "outputs": [
        {
          "internalType": "contract ERC20",
          "name": "",
          "type": "address"
        }
      ],
      "stateMutability": "view",
      "type": "function"
    },
    {
      "inputs": [],
      "name": "token1",
      "outputs": [
        {
          "internalType": "contract ERC20",
          "name": "",
          "type": "address"
        }
      ],
      "stateMutability": "view",
      "type": "function"
    },
    {
      "inputs": [],
      "name": "underlyingAsset",
      "outputs": [
        {
          "internalType": "address",
          "name": "",
          "type": "address"
        }
      ],
      "stateMutability": "view",
      "type": "function"
    },
    {
      "inputs": [
        {
          "internalType": "uint256",
          "name": "amount0Owed",
          "type": "uint256"
        },
        {
          "internalType": "uint256",
          "name": "amount1Owed",
          "type": "uint256"
        },
        {
          "internalType": "bytes",
          "name": "",
          "type": "bytes"
        }
      ],
      "name": "uniswapV3MintCallback",
      "outputs": [],
      "stateMutability": "nonpayable",
      "type": "function"
    },
    {
      "inputs": [],
      "name": "update",
      "outputs": [
        {
          "internalType": "uint256",
          "name": "",
          "type": "uint256"
        }
      ],
      "stateMutability": "pure",
      "type": "function"
    },
    {
      "inputs": [
        {
          "internalType": "uint256",
          "name": "_amount",
          "type": "uint256"
        }
      ],
      "name": "withdraw",
      "outputs": [
        {
          "internalType": "uint256",
          "name": "",
          "type": "uint256"
        }
      ],
      "stateMutability": "nonpayable",
      "type": "function"
    }
  ],
  "bytecode": "0x610140604052662386f26fc100006003556004805460ff191690553480156200002757600080fd5b5060405162004c5638038062004c568339810160408190526200004a9162000487565b600080546001600160a01b0319166001600160a01b03831690811790915560405190815281907f2f658b440c35314f52658ea8a740e05b284cdc84dc9ae01e891f21b8933e7cad9060200160405180910390a1506001600160a01b0380871660a081905286821660c08190529189166101205260009111620000cd5785620000cf565b865b90506000866001600160a01b0316886001600160a01b031610620000f45787620000f6565b865b90506200011461012051838388620002d160201b620014af1760201c565b600280546001600160a01b0319166001600160a01b0392831617905581811661010081905290831660e0526040805163313ce56760e01b815290516012929163313ce5679160048083019260209291908290030181865afa1580156200017e573d6000803e3d6000fd5b505050506040513d601f19601f82011682018060405250810190620001a4919062000525565b60ff1611158015620002205750601260e0516001600160a01b031663313ce5676040518163ffffffff1660e01b8152600401602060405180830381865afa158015620001f4573d6000803e3d6000fd5b505050506040513d601f19601f820116820180604052508101906200021a919062000525565b60ff1611155b620002845760405162461bcd60e51b815260206004820152602960248201527f556e6973776170563352616e67654f7264657252656163746f723a20646563696044820152680dac2d8e6407c4062760bb1b60648201526084015b60405180910390fd5b5050506001600160a01b0392831660805260018054919093166001600160a01b031962ffffff909316600160a01b02929092166001600160b81b0319909116171790555062000551915050565b6000806040518060600160405280866001600160a01b03168152602001856001600160a01b031681526020018462ffffff1681525090506200031f86826200032960201b620014fc1760201c565b9695505050505050565b600081602001516001600160a01b031682600001516001600160a01b031610620003965760405162461bcd60e51b815260206004820152601f60248201527f746f6b656e30206d757374206265206c657373207468616e20746f6b656e310060448201526064016200027b565b815160208084015160408086015181516001600160a01b0395861681860152949092168482015262ffffff90911660608085019190915281518085038201815260808501909252815191909201207fff0000000000000000000000000000000000000000000000000000000000000060a08401529085901b6001600160601b03191660a183015260b58201527fe34f199b19b2b4f47f68442619d555527d244f78a3297ea89325f843f87b8b5460d582015260f50160408051601f1981840301815291905280516020909101209392505050565b80516001600160a01b03811681146200048257600080fd5b919050565b600080600080600080600060e0888a031215620004a357600080fd5b620004ae886200046a565b9650620004be602089016200046a565b9550620004ce604089016200046a565b9450620004de606089016200046a565b9350608088015162ffffff81168114620004f757600080fd5b92506200050760a089016200046a565b91506200051760c089016200046a565b905092959891949750929550565b6000602082840312156200053857600080fd5b815160ff811681146200054a57600080fd5b9392505050565b60805160a05160c05160e0516101005161012051614596620006c0600039600081816103f00152610a9301526000818161041f01528181610ad50152818161122b0152818161179e015281816119e701528181611cf801528181611d8701528181612206015261263c0152600081816101e90152818161065501528181610ab401528181610cbb01528181610d200152818161112c015281816111f1015281816112e40152818161170e0152818161194301528181611c2101528181611caf01528181612180015281816126cd015261287501526000818161030801528181610ce501528181610d4a01528181610d8701528181610ea90152818161115601526113400152600081816103a60152818161062901528181610750015281816107e50152818161084a01528181610e1901528181610ecb0152818161130e0152611361015260008181610262015281816106f901528181611274015281816130a5015261315901526145966000f3fe608060405234801561001057600080fd5b50600436106101b05760003560e01c80637a9e5e4b116100ef578063bf7e214f11610092578063bf7e214f146103d8578063c45a0155146103eb578063c549176e14610412578063d21220a71461041a578063d348799714610441578063d534d63614610454578063df28408a1461049e578063fbaac115146104a657600080fd5b80637a9e5e4b14610363578063885a08e014610376578063897b06371461037e5780639b2cb5d814610391578063a2e620451461039a578063aabaecd6146103a1578063b7aa436d146103c8578063bdef13ea146103d057600080fd5b80632e1a7d4d116101575780632e1a7d4d146102aa5780633e0c0629146102cb578063679e6b34146102de57806369dd21ea146102fb5780637158da7c14610303578063724e78da1461032a57806373dd250c1461033d578063741bef1a1461035057600080fd5b8063089fe6aa146101b55780630dfe1681146101e45780631171bda9146102185780631322d9541461022d57806316f0115b1461024a5780632082d8d31461025d578063245461ed146102845780632c51d0f614610297575b600080fd5b6001546101cb90600160a01b900462ffffff1681565b60405162ffffff90911681526020015b60405180910390f35b61020b7f000000000000000000000000000000000000000000000000000000000000000081565b6040516101db9190613c1b565b61022b610226366004613c47565b6104b9565b005b610235610521565b604080519283526020830191909152016101db565b60025461020b906001600160a01b031681565b61020b7f000000000000000000000000000000000000000000000000000000000000000081565b61022b610292366004613c88565b6105bb565b61022b6102a5366004613cc7565b610697565b6102bd6102b8366004613ce4565b6106ec565b6040519081526020016101db565b61022b6102d9366004613cfd565b6108a9565b6004546102eb9060ff1681565b60405190151581526020016101db565b61022b610906565b61020b7f000000000000000000000000000000000000000000000000000000000000000081565b61022b610338366004613d29565b6109e5565b61022b61034b366004613d46565b610a3a565b60015461020b906001600160a01b031681565b61022b610371366004613d29565b610b54565b610235610ba7565b61022b61038c366004613ce4565b610c64565b6102bd60035481565b60006102bd565b61020b7f000000000000000000000000000000000000000000000000000000000000000081565b6102bd610ca6565b61022b610f51565b60005461020b906001600160a01b031681565b61020b7f000000000000000000000000000000000000000000000000000000000000000081565b6102bd611119565b61020b7f000000000000000000000000000000000000000000000000000000000000000081565b61022b61044f366004613d6b565b611192565b60055461047990600281810b916301000000810490910b90600160301b900460ff1683565b60408051600294850b81529290930b60208301521515918101919091526060016101db565b6102bd611258565b6102bd6104b4366004613ce4565b611267565b6104c1611623565b6104cc8383836116cb565b604080516001600160a01b0385811682526020820184905284168183015233606082015290517f3e1f25b9add380fe3fd35e1f24dbe45ee05008afe1dc5b733e41c522217d0af29181900360800190a1505050565b600080600080600260009054906101000a90046001600160a01b03166001600160a01b0316633850c7bd6040518163ffffffff1660e01b815260040160e060405180830381865afa15801561057a573d6000803e3d6000fd5b505050506040513d601f19601f8201168201806040525081019061059e9190613e28565b5050505050915091506105b182826116d6565b9350935050509091565b60055463010000008104600290810b91900b1461061f5760405162461bcd60e51b815260206004820152601b60248201527f52616e67654f726465723a2061637469766520706f736974696f6e000000000060448201526064015b60405180910390fd5b610627611a82565b7f00000000000000000000000000000000000000000000000000000000000000006001600160a01b039081167f0000000000000000000000000000000000000000000000000000000000000000919091161461069261068b36859003850185613ed1565b8383611bbc565b505050565b61069f611623565b6004805460ff1916821515908117909155604080519182523360208301527f7ac47e28464da4dd32e127766ef4bf88641aa71bd944b94531ab91744e237f0c91015b60405180910390a150565b6000336001600160a01b037f000000000000000000000000000000000000000000000000000000000000000016146107365760405162461bcd60e51b815260040161061690613f6a565b6040516370a0823160e01b81526000906001600160a01b037f000000000000000000000000000000000000000000000000000000000000000016906370a0823190610785903090600401613c1b565b602060405180830381865afa1580156107a2573d6000803e3d6000fd5b505050506040513d601f19601f820116820180604052508101906107c69190613f8a565b9050806000036107d95750600092915050565b8083116108455761080b7f00000000000000000000000000000000000000000000000000000000000000003385611ee8565b6040518381527f5b6b431d4476a211bb7d41c20d1aab9ae2321deee0d20be3d9fc9b1093fa6e3d9060200160405180910390a15090919050565b6108707f00000000000000000000000000000000000000000000000000000000000000003383611ee8565b6040518181527f5b6b431d4476a211bb7d41c20d1aab9ae2321deee0d20be3d9fc9b1093fa6e3d9060200160405180910390a192915050565b6108b1611623565b6108bb8282611f61565b604080518281526001600160a01b0384166020820152338183015290517fad30392620bff8fffd8880bbed5c2ead16365b465590646ece5088c551814eb99181900360600190a15050565b61090e611a82565b60055463010000008104600290810b91900b0361093e57604051630cf2fcaf60e21b815260040160405180910390fd5b6002546000906001600160a01b031663514ea4bf61095a611fb2565b6040518263ffffffff1660e01b815260040161097891815260200190565b60a060405180830381865afa158015610995573d6000803e3d6000fd5b505050506040513d601f19601f820116820180604052508101906109b99190613fba565b50506005549293506109de92600281810b93506301000000909104900b905083612006565b5050505050565b6109ed611623565b600180546001600160a01b0319166001600160a01b0383161790556040517fc02f01e22efc017c1c952d0eef1a8fc038571f14ea5a285d79d1d7ba87d8b001906106e19083903390614011565b60055463010000008104600290810b91900b14610a6a5760405163bcd7805960e01b815260040160405180910390fd5b610a72611623565b6001805462ffffff60a01b1916600160a01b62ffffff841602179055610afa7f00000000000000000000000000000000000000000000000000000000000000007f00000000000000000000000000000000000000000000000000000000000000007f0000000000000000000000000000000000000000000000000000000000000000846114af565b600280546001600160a01b0319166001600160a01b03929092169190911790556040805162ffffff831681523360208201527fc107f7ac58718611776e13e7cfe308c8a57c500e4910ddd8c7fc3c33eaadb63391016106e1565b610b5c611623565b600080546001600160a01b0319166001600160a01b0383161790556040517f2f658b440c35314f52658ea8a740e05b284cdc84dc9ae01e891f21b8933e7cad906106e1908390613c1b565b6000806000600260009054906101000a90046001600160a01b03166001600160a01b0316633850c7bd6040518163ffffffff1660e01b815260040160e060405180830381865afa158015610bff573d6000803e3d6000fd5b505050506040513d601f19601f82011682018060405250810190610c239190613e28565b50505050505090506000610c3561217b565b9050610c41828261229e565b9350610c5c846ec097ce7bc90715b34b9f1000000000614057565b925050509091565b610c6c611623565b6003819055604080518281523360208201527f084d7ac903548120952440490978237c3377deca792b92a601bb5baff98c695c91016106e1565b6000806000610cb3610521565b9150915060007f00000000000000000000000000000000000000000000000000000000000000006001600160a01b03167f00000000000000000000000000000000000000000000000000000000000000006001600160a01b031614610d185782610d1a565b815b905060007f00000000000000000000000000000000000000000000000000000000000000006001600160a01b03167f00000000000000000000000000000000000000000000000000000000000000006001600160a01b031614610d7d5782610d7f565b835b9050610e0f817f00000000000000000000000000000000000000000000000000000000000000006001600160a01b031663313ce5676040518163ffffffff1660e01b8152600401602060405180830381865afa158015610de3573d6000803e3d6000fd5b505050506040513d601f19601f82011682018060405250810190610e07919061406b565b60ff1661232b565b90506000610e75837f00000000000000000000000000000000000000000000000000000000000000006001600160a01b031663313ce5676040518163ffffffff1660e01b8152600401602060405180830381865afa158015610de3573d6000803e3d6000fd5b60015460405163051ce29b60e21b8152919250600091610f3a9185916001600160a01b03909116906314738a6c90610ef3907f0000000000000000000000000000000000000000000000000000000000000000907f000000000000000000000000000000000000000000000000000000000000000090600401614011565b602060405180830381865afa158015610f10573d6000803e3d6000fd5b505050506040513d601f19601f82011682018060405250810190610f349190613f8a565b90612364565b9050610f468183614086565b965050505050505090565b60045460ff168015610f685750610f66612370565b155b15610f86576040516381d4937760e01b815260040160405180910390fd5b60025460408051633850c7bd60e01b815290516000926001600160a01b031691633850c7bd9160048083019260e09291908290030181865afa158015610fd0573d6000803e3d6000fd5b505050506040513d601f19601f82011682018060405250810190610ff49190613e28565b505060025493955060009450506001600160a01b03909216915063514ea4bf905061101d611fb2565b6040518263ffffffff1660e01b815260040161103b91815260200190565b60a060405180830381865afa158015611058573d6000803e3d6000fd5b505050506040513d601f19601f8201168201806040525081019061107c9190613fba565b50506005549293505050600160301b900460ff16156110eb5760055463010000009004600290810b9083900b13156110d2576005546110ca90600281810b9163010000009004900b83612006565b505050505050565b60405163f7b1366560e01b815260040160405180910390fd5b600554600290810b9083900b12156110d2576005546110ca90600281810b9163010000009004900b83612006565b6000806000611126610521565b915091507f00000000000000000000000000000000000000000000000000000000000000006001600160a01b03167f00000000000000000000000000000000000000000000000000000000000000006001600160a01b031614611189578061118b565b815b9250505090565b6002546001600160a01b031633146111de5760405162461bcd60e51b815260206004820152600f60248201526e31b0b6363130b1b59031b0b63632b960891b6044820152606401610616565b8315611218576112186001600160a01b037f0000000000000000000000000000000000000000000000000000000000000000163386611ee8565b8215611252576112526001600160a01b037f0000000000000000000000000000000000000000000000000000000000000000163385611ee8565b50505050565b6000611262611fb2565b905090565b6000336001600160a01b037f000000000000000000000000000000000000000000000000000000000000000016146112b15760405162461bcd60e51b815260040161061690613f6a565b60055463010000008104600290810b91900b146112d0576112d061093e565b816000036112e057506000919050565b60007f00000000000000000000000000000000000000000000000000000000000000006001600160a01b03167f00000000000000000000000000000000000000000000000000000000000000006001600160a01b031614905060006113857f00000000000000000000000000000000000000000000000000000000000000007f0000000000000000000000000000000000000000000000000000000000000000612519565b9050600080611392610521565b915091506000806113a1610ba7565b915091506000866113b257826113b4565b815b9050600089121561141b576000876113cd5760016113d0565b60005b905060006113e083898b8561258d565b905060006113ef82848c612604565b9050600061140582606001518e610f349061409e565b905061141282828d611bbc565b505050506114a0565b600087611428578561142a565b845b905060008861143a57600061143d565b60015b9050600061144d848a8c8561258d565b9050600061145c82848d612604565b90506000848e1361146d578d61146f565b845b905060035481101561148f575060009d9c50505050505050505050505050565b61149a82828e611bbc565b50505050505b50600098975050505050505050565b6000806040518060600160405280866001600160a01b03168152602001856001600160a01b031681526020018462ffffff1681525090506114f086826114fc565b9150505b949350505050565b600081602001516001600160a01b031682600001516001600160a01b0316106115675760405162461bcd60e51b815260206004820152601f60248201527f746f6b656e30206d757374206265206c657373207468616e20746f6b656e31006044820152606401610616565b815160208084015160408086015181516001600160a01b0395861681860152949092168482015262ffffff90911660608085019190915281518085038201815260808501909252815191909201206001600160f81b031960a08401529085901b6001600160601b03191660a183015260b58201527fe34f199b19b2b4f47f68442619d555527d244f78a3297ea89325f843f87b8b5460d582015260f50160408051601f1981840301815291905280516020909101209392505050565b60008054906101000a90046001600160a01b03166001600160a01b0316630c340a246040518163ffffffff1660e01b8152600401602060405180830381865afa158015611674573d6000803e3d6000fd5b505050506040513d601f19601f8201168201806040525081019061169891906140ba565b6001600160a01b0316336001600160a01b0316146116c95760405163075fd2b160e01b815260040160405180910390fd5b565b610692838383611ee8565b6000806116f3600554600281810b6301000000909204900b141590565b61181b576040516370a0823160e01b81526001600160a01b037f000000000000000000000000000000000000000000000000000000000000000016906370a0823190611743903090600401613c1b565b602060405180830381865afa158015611760573d6000803e3d6000fd5b505050506040513d601f19601f820116820180604052508101906117849190613f8a565b6040516370a0823160e01b81529092506001600160a01b037f000000000000000000000000000000000000000000000000000000000000000016906370a08231906117d3903090600401613c1b565b602060405180830381865afa1580156117f0573d6000803e3d6000fd5b505050506040513d601f19601f820116820180604052508101906118149190613f8a565b9050611a7b565b60025460009081908190819081906001600160a01b031663514ea4bf61183f611fb2565b6040518263ffffffff1660e01b815260040161185d91815260200190565b60a060405180830381865afa15801561187a573d6000803e3d6000fd5b505050506040513d601f19601f8201168201806040525081019061189e9190613fba565b600554949950929750909550935091506118dc908a906118c09060020b612952565b6005546118d6906301000000900460020b612952565b88612c6b565b909750955060006001600160801b0383166118fa6001878c8a612d07565b6119049190614086565b90506000826001600160801b031661191f6000878d8b612d07565b6119299190614086565b6040516370a0823160e01b81529091506001600160a01b037f000000000000000000000000000000000000000000000000000000000000000016906370a0823190611978903090600401613c1b565b602060405180830381865afa158015611995573d6000803e3d6000fd5b505050506040513d601f19601f820116820180604052508101906119b99190613f8a565b6119c39083614086565b6119cd908a614086565b6040516370a0823160e01b81529099506001600160a01b037f000000000000000000000000000000000000000000000000000000000000000016906370a0823190611a1c903090600401613c1b565b602060405180830381865afa158015611a39573d6000803e3d6000fd5b505050506040513d601f19601f82011682018060405250810190611a5d9190613f8a565b611a679082614086565b611a719089614086565b9750505050505050505b9250929050565b60008054906101000a90046001600160a01b03166001600160a01b031663481c6a756040518163ffffffff1660e01b8152600401602060405180830381865afa158015611ad3573d6000803e3d6000fd5b505050506040513d601f19601f82011682018060405250810190611af791906140ba565b6001600160a01b0316336001600160a01b031614158015611b9e575060008054906101000a90046001600160a01b03166001600160a01b0316630c340a246040518163ffffffff1660e01b8152600401602060405180830381865afa158015611b64573d6000803e3d6000fd5b505050506040513d601f19601f82011682018060405250810190611b8891906140ba565b6001600160a01b0316336001600160a01b031614155b156116c95760405163075fd2b160e01b815260040160405180910390fd5b6000806000611bd1866000015160020b612952565b90506000611be5876020015160020b612952565b9050600087608001516001811115611bff57611bff6140d7565b03611cdb576040516370a0823160e01b81528694506000906001600160a01b037f000000000000000000000000000000000000000000000000000000000000000016906370a0823190611c56903090600401613c1b565b602060405180830381865afa158015611c73573d6000803e3d6000fd5b505050506040513d601f19601f82011682018060405250810190611c979190613f8a565b9050858015611ca557508681105b15611cd557611cd57f00000000000000000000000000000000000000000000000000000000000000008883613093565b50611daf565b6040516370a0823160e01b81528693506000906001600160a01b037f000000000000000000000000000000000000000000000000000000000000000016906370a0823190611d2d903090600401613c1b565b602060405180830381865afa158015611d4a573d6000803e3d6000fd5b505050506040513d601f19601f82011682018060405250810190611d6e9190613f8a565b905085158015611d7d57508681105b15611dad57611dad7f00000000000000000000000000000000000000000000000000000000000000008883613093565b505b6000611dc288604001518484888861317f565b600280548a5160208c0151604051633c8a7d8d60e01b815230600482015291840b602483015290920b60448301526001600160801b038316606483015260a06084830152600060a48301529192506001600160a01b0390911690633c8a7d8d9060c40160408051808303816000875af1158015611e43573d6000803e3d6000fd5b505050506040513d601f19601f82011682018060405250810190611e6791906140ed565b505087516005805460208b015162ffffff90811663010000000265ffffffffffff19909216931692909217919091179055600088608001516001811115611eb057611eb06140d7565b14611ebc576000611ebf565b60015b60058054911515600160301b0266ff000000000000199092169190911790555050505050505050565b600060405163a9059cbb60e01b81526001600160a01b03841660048201528260248201526000806044836000895af1915050611f2381613243565b6112525760405162461bcd60e51b815260206004820152600f60248201526e1514905394d1915497d19052531151608a1b6044820152606401610616565b600080600080600085875af19050806106925760405162461bcd60e51b815260206004820152601360248201527211551217d514905394d1915497d19052531151606a1b6044820152606401610616565b6005546040516001600160601b03193060601b16602082015260e882811b6034830152630100000090920490911b6037820152600090603a0160405160208183030381529060405280519060200120905090565b6002805460405163a34123a760e01b815285830b60048201529184900b60248301526001600160801b03831660448301526000918291829182916001600160a01b03169063a34123a79060640160408051808303816000875af1158015612071573d6000803e3d6000fd5b505050506040513d601f19601f8201168201806040525081019061209591906140ed565b600280546040516309e3d67b60e31b81523060048201528b830b6024820152918a900b60448301526001600160801b0360648301819052608483015292965090945060009182916001600160a01b0390911690634f1eb3d89060a40160408051808303816000875af115801561210f573d6000803e3d6000fd5b505050506040513d601f19601f820116820180604052508101906121339190614111565b6001600160801b03918216935016905061214d8683614144565b93506121598582614144565b6005805466ffffffffffffff1916905595999498509296509394509192505050565b6000807f00000000000000000000000000000000000000000000000000000000000000006001600160a01b031663313ce5676040518163ffffffff1660e01b8152600401602060405180830381865afa1580156121dc573d6000803e3d6000fd5b505050506040513d601f19601f82011682018060405250810190612200919061406b565b905060007f00000000000000000000000000000000000000000000000000000000000000006001600160a01b031663313ce5676040518163ffffffff1660e01b8152600401602060405180830381865afa158015612262573d6000803e3d6000fd5b505050506040513d601f19601f82011682018060405250810190612286919061406b565b90508161229482601261415b565b61118b919061417e565b60006001600160a01b038316600160601b8111156122f15760006122d1826122c786600a614287565b600160601b61328a565b90506122e881806122e387600a614287565b61328a565b92505050612325565b60006122ff8283600161328a565b9050600061230e85600a614287565b905061231f8282600160c01b61328a565b93505050505b92915050565b6000601282111561233b57600080fd5b612346826012614144565b905061235381600a614296565b61235d90846142a2565b9392505050565b600061235d8383613338565b6000805460405163794f111b60e11b815282916001600160a01b03169063f29e2236906123a1903390600401613c1b565b602060405180830381865afa1580156123be573d6000803e3d6000fd5b505050506040513d601f19601f820116820180604052508101906123e291906142c1565b905060008060009054906101000a90046001600160a01b03166001600160a01b0316630c340a246040518163ffffffff1660e01b8152600401602060405180830381865afa158015612438573d6000803e3d6000fd5b505050506040513d601f19601f8201168201806040525081019061245c91906140ba565b6001600160a01b0316336001600160a01b031614905060008060009054906101000a90046001600160a01b03166001600160a01b031663481c6a756040518163ffffffff1660e01b8152600401602060405180830381865afa1580156124c6573d6000803e3d6000fd5b505050506040513d601f19601f820116820180604052508101906124ea91906140ba565b6001600160a01b0316336001600160a01b031614905081806125095750825b806125115750805b935050505090565b60015460405163051ce29b60e21b81526000916001600160a01b0316906314738a6c9061254c9086908690600401614011565b602060405180830381865afa158015612569573d6000803e3d6000fd5b505050506040513d601f19601f8201168201806040525081019061235d9190613f8a565b600082156125d15760008260018111156125a9576125a96140d7565b036125c4578385106125bb57836125bd565b845b90506114f4565b8385116125bb57836125bd565b60008260018111156125e5576125e56140d7565b036125f7578385116125bb57836125bd565b8385106125bb57836125bd565b6126336040805160a0810182526000808252602082018190529181018290526060810182905290608082015290565b6000806126c4867f00000000000000000000000000000000000000000000000000000000000000006001600160a01b031663313ce5676040518163ffffffff1660e01b8152600401602060405180830381865afa158015612698573d6000803e3d6000fd5b505050506040513d601f19601f820116820180604052508101906126bc919061406b565b60ff166133fe565b905061275281857f00000000000000000000000000000000000000000000000000000000000000006001600160a01b031663313ce5676040518163ffffffff1660e01b8152600401602060405180830381865afa158015612729573d6000803e3d6000fd5b505050506040513d601f19601f8201168201806040525081019061274d919061406b565b613432565b9150506000600260009054906101000a90046001600160a01b03166001600160a01b031663d0c93a7c6040518163ffffffff1660e01b8152600401602060405180830381865afa1580156127aa573d6000803e3d6000fd5b505050506040513d601f19601f820116820180604052508101906127ce91906142de565b905060006127dc838361348f565b90506000808760018111156127f3576127f36140d7565b14612812576128038360026142fb565b61280d9083614388565b61281c565b61281c83836143d0565b9050600080886001811115612833576128336140d7565b14612847576128428484614388565b612851565b61285184836143d0565b90506000600261286183856143d0565b61286b9190614417565b905060006128fb827f00000000000000000000000000000000000000000000000000000000000000006001600160a01b031663313ce5676040518163ffffffff1660e01b8152600401602060405180830381865afa1580156128d1573d6000803e3d6000fd5b505050506040513d601f19601f820116820180604052508101906128f5919061406b565b8b6134b2565b90506040518060a001604052808560020b81526020018460020b8152602001886001600160a01b031681526020018281526020018b6001811115612941576129416140d7565b90529b9a5050505050505050505050565b60008060008360020b12612969578260020b612971565b8260020b6000035b9050620d89e8811115612997576040516315e4079d60e11b815260040160405180910390fd5b6000816001166000036129ae57600160801b6129c0565b6ffffcb933bd6fad37aa2d162d1a5940015b6001600160881b0316905060028216156129ea576ffff97272373d413259a46990580e213a0260801c5b6004821615612a09576ffff2e50f5f656932ef12357cf3c7fdcc0260801c5b6008821615612a28576fffe5caca7e10e4e61c3624eaa0941cd00260801c5b6010821615612a47576fffcb9843d60f6159c9db58835c9266440260801c5b6020821615612a66576fff973b41fa98c081472e6896dfb254c00260801c5b6040821615612a85576fff2ea16466c96a3843ec78b326b528610260801c5b6080821615612aa4576ffe5dee046a99a2a811c461f1969c30530260801c5b610100821615612ac4576ffcbe86c7900a88aedcffc83b479aa3a40260801c5b610200821615612ae4576ff987a7253ac413176f2b074cf7815e540260801c5b610400821615612b04576ff3392b0822b70005940c7a398e4b70f30260801c5b610800821615612b24576fe7159475a2c29b7443b29c7fa6e889d90260801c5b611000821615612b44576fd097f3bdfd2022b8845ad8f792aa58250260801c5b612000821615612b64576fa9f746462d870fdf8a65dc1f90e061e50260801c5b614000821615612b84576f70d869a156d2a1b890bb3df62baf32f70260801c5b618000821615612ba4576f31be135f97d08fd981231505542fcfa60260801c5b62010000821615612bc5576f09aa508b5b7a84e1c677de54f3e99bc90260801c5b62020000821615612be5576e5d6af8dedb81196699c329225ee6040260801c5b62040000821615612c04576d2216e584f5fa1ea926041bedfe980260801c5b62080000821615612c21576b048a170391f7dc42444e8fa20260801c5b60008460020b1315612c42578060001981612c3e57612c3e61402b565b0490505b640100000000810615612c56576001612c59565b60005b60ff16602082901c0192505050919050565b600080836001600160a01b0316856001600160a01b03161115612c8c579293925b846001600160a01b0316866001600160a01b031611612cb757612cb08585856134fa565b9150612cfe565b836001600160a01b0316866001600160a01b03161015612cf057612cdc8685856134fa565b9150612ce9858785613564565b9050612cfe565b612cfb858585613564565b90505b94509492505050565b6000806000808715612e9b57600260009054906101000a90046001600160a01b03166001600160a01b031663f30583996040518163ffffffff1660e01b8152600401602060405180830381865afa158015612d66573d6000803e3d6000fd5b505050506040513d601f19601f82011682018060405250810190612d8a9190613f8a565b6002805460055460405163f30dba9360e01b8152920b60048301529192506001600160a01b039091169063f30dba939060240161010060405180830381865afa158015612ddb573d6000803e3d6000fd5b505050506040513d601f19601f82011682018060405250810190612dff919061445f565b50506002805460055460405163f30dba9360e01b8152969b506001600160a01b03909116975063f30dba939650612e4995630100000090910490910b935060040191506144519050565b61010060405180830381865afa158015612e67573d6000803e3d6000fd5b505050506040513d601f19601f82011682018060405250810190612e8b919061445f565b5093975061301c95505050505050565b600260009054906101000a90046001600160a01b03166001600160a01b031663461413196040518163ffffffff1660e01b8152600401602060405180830381865afa158015612eee573d6000803e3d6000fd5b505050506040513d601f19601f82011682018060405250810190612f129190613f8a565b6002805460055460405163f30dba9360e01b8152920b60048301529192506001600160a01b039091169063f30dba939060240161010060405180830381865afa158015612f63573d6000803e3d6000fd5b505050506040513d601f19601f82011682018060405250810190612f87919061445f565b50506002805460055460405163f30dba9360e01b8152959b506001600160a01b03909116975063f30dba939650612fcf955063010000009004900b9260040191506144519050565b61010060405180830381865afa158015612fed573d6000803e3d6000fd5b505050506040513d601f19601f82011682018060405250810190613011919061445f565b509297505050505050505b600554600090600290810b9088900b1261303757508261303c565b508281035b60055460009063010000009004600290810b9089900b121561305f575082613064565b508282035b8183038190036130846001600160801b0389168b8303600160801b61328a565b9b9a5050505050505050505050565b600061309f8284614144565b905060007f00000000000000000000000000000000000000000000000000000000000000006001600160a01b031663f8b2cb4f866040518263ffffffff1660e01b81526004016130ef9190613c1b565b602060405180830381865afa15801561310c573d6000803e3d6000fd5b505050506040513d601f19601f820116820180604052508101906131309190613f8a565b9050818110156131535760405163b84beb5d60e01b815260040160405180910390fd5b6109de857f000000000000000000000000000000000000000000000000000000000000000030856135ae565b6000836001600160a01b0316856001600160a01b0316111561319f579293925b846001600160a01b0316866001600160a01b0316116131ca576131c3858585613640565b905061323a565b836001600160a01b0316866001600160a01b0316101561322c5760006131f1878686613640565b905060006132008789866136aa565b9050806001600160801b0316826001600160801b0316106132215780613223565b815b9250505061323a565b6132378585846136aa565b90505b95945050505050565b60003d8261325557806000803e806000fd5b806020811461326d57801561327e5760009250613283565b816000803e60005115159250613283565b600192505b5050919050565b60008080600019858709858702925082811083820303915050806000036132c357600084116132b857600080fd5b50829004905061235d565b8084116132cf57600080fd5b60008486880960026001871981018816978890046003810283188082028403028082028403028082028403028082028403028082028403029081029092039091026000889003889004909101858311909403939093029303949094049190911702949350505050565b60008080600019848609848602925082811083820303915050670de0b6b3a7640000811061337c5760405163698d9a0160e11b815260048101829052602401610616565b600080670de0b6b3a764000086880991506706f05b59d3b1ffff82119050826000036133ba5780670de0b6b3a7640000850401945050505050612325565b620400008285030493909111909103600160ee1b02919091177faccb18165bd6fe31ae1cf318dc5b51eee0e1ba569b88cd74c1773b91fac106690201905092915050565b6000601282111561340e57600080fd5b600061341b836012614144565b905061342881600a614296565b6114f49085614057565b6000821561347e57600061344e670de0b6b3a7640000866136e0565b905061345b83600a614287565b61346c600160601b610f34846136f5565b6134769190614509565b91505061235d565b6114f4600160601b610f34866136f5565b60008061349b84613747565b9050826134a88183614417565b6114f491906142fb565b6000806134ca6134c48660020b612952565b8561229e565b9050826134d857905061235d565b60006134e585600a614287565b90506134f181836136e0565b9250505061235d565b6000826001600160a01b0316846001600160a01b0316111561351a579192915b6001600160a01b03841661355a600160601b600160e01b03606085901b166135428787614538565b6001600160a01b0316866001600160a01b031661328a565b6114f49190614057565b6000826001600160a01b0316846001600160a01b03161115613584579192915b6114f46001600160801b03831661359b8686614538565b6001600160a01b0316600160601b61328a565b600084905060006040516323b872dd60e01b81526001600160a01b03861660048201526001600160a01b03851660248201528360448201526000806064836000875af19150506135fd81613243565b6110ca5760405162461bcd60e51b81526020600482015260146024820152731514905394d1915497d19493d357d1905253115160621b6044820152606401610616565b6000826001600160a01b0316846001600160a01b03161115613660579192915b6000613683856001600160a01b0316856001600160a01b0316600160601b61328a565b905061323a6136a584836136978989614538565b6001600160a01b031661328a565b613a2d565b6000826001600160a01b0316846001600160a01b031611156136ca579192915b6114f46136a583600160601b6136978888614538565b600061235d83670de0b6b3a764000084613a48565b60007812725dd1d243aba0e75fe645cc4873f9e65afe688c928e1f2182111561373457604051636155b67d60e01b815260048101839052602401610616565b612325670de0b6b3a76400008302613aac565b60006401000276a36001600160a01b03831610801590613783575073fffd8963efd1fc6a506488495d951d5263988d266001600160a01b038316105b6137a0576040516324c070df60e11b815260040160405180910390fd5b640100000000600160c01b03602083901b166001600160801b03811160071b81811c67ffffffffffffffff811160061b90811c63ffffffff811160051b90811c61ffff811160041b90811c60ff8111600390811b91821c600f811160021b90811c918211600190811b92831c9790881196179094179092171790911717176080811061383457607f810383901c915061383e565b80607f0383901b91505b908002607f81811c60ff83811c9190911c800280831c81831c1c800280841c81841c1c800280851c81851c1c800280861c81861c1c800280871c81871c1c800280881c81881c1c800280891c81891c1c8002808a1c818a1c1c8002808b1c818b1c1c8002808c1c818c1c1c8002808d1c818d1c1c8002808e1c9c81901c9c909c1c80029c8d901c9e9d607f198f0160401b60c09190911c6001603f1b161760c19b909b1c6001603e1b169a909a1760c29990991c6001603d1b169890981760c39790971c6001603c1b169690961760c49590951c6001603b1b169490941760c59390931c6001603a1b169290921760c69190911c600160391b161760c79190911c600160381b161760c89190911c6680000000000000161760c99190911c6640000000000000161760ca9190911c6620000000000000161760cb9190911c6610000000000000161760cc9190911c6608000000000000161760cd9190911c66040000000000001617693627a301d71055774c8581026f028f6481ab7f045a5af012a19d003aa9198101608090811d906fdb2df09e81959a81455e260799a0632f8301901d600281810b9083900b14613a1e57886001600160a01b0316613a0382612952565b6001600160a01b03161115613a185781613a20565b80613a20565b815b9998505050505050505050565b806001600160801b0381168114613a4357600080fd5b919050565b6000808060001985870985870292508281108382030391505080600003613a8257838281613a7857613a7861402b565b049250505061235d565b8381106132cf57604051631dcf306360e21b81526004810182905260248101859052604401610616565b600081600003613abe57506000919050565b50600181600160801b8110613ad85760409190911b9060801c5b600160401b8110613aee5760209190911b9060401c5b6401000000008110613b055760109190911b9060201c5b620100008110613b1a5760089190911b9060101c5b6101008110613b2e5760049190911b9060081c5b60108110613b415760029190911b9060041c5b60088110613b5157600182901b91505b6001828481613b6257613b6261402b565b048301901c91506001828481613b7a57613b7a61402b565b048301901c91506001828481613b9257613b9261402b565b048301901c91506001828481613baa57613baa61402b565b048301901c91506001828481613bc257613bc261402b565b048301901c91506001828481613bda57613bda61402b565b048301901c91506001828481613bf257613bf261402b565b048301901c91506000828481613c0a57613c0a61402b565b0490508083101561235d57826114f4565b6001600160a01b0391909116815260200190565b6001600160a01b0381168114613c4457600080fd5b50565b600080600060608486031215613c5c57600080fd5b8335613c6781613c2f565b92506020840135613c7781613c2f565b929592945050506040919091013590565b60008082840360c0811215613c9c57600080fd5b60a0811215613caa57600080fd5b50919360a08501359350915050565b8015158114613c4457600080fd5b600060208284031215613cd957600080fd5b813561235d81613cb9565b600060208284031215613cf657600080fd5b5035919050565b60008060408385031215613d1057600080fd5b8235613d1b81613c2f565b946020939093013593505050565b600060208284031215613d3b57600080fd5b813561235d81613c2f565b600060208284031215613d5857600080fd5b813562ffffff8116811461235d57600080fd5b60008060008060608587031215613d8157600080fd5b8435935060208501359250604085013567ffffffffffffffff80821115613da757600080fd5b818701915087601f830112613dbb57600080fd5b813581811115613dca57600080fd5b886020828501011115613ddc57600080fd5b95989497505060200194505050565b8060020b8114613c4457600080fd5b805161ffff81168114613a4357600080fd5b805160ff81168114613a4357600080fd5b8051613a4381613cb9565b600080600080600080600060e0888a031215613e4357600080fd5b8751613e4e81613c2f565b6020890151909750613e5f81613deb565b9550613e6d60408901613dfa565b9450613e7b60608901613dfa565b9350613e8960808901613dfa565b9250613e9760a08901613e0c565b915060c0880151613ea781613cb9565b8091505092959891949750929550565b8035613a4381613c2f565b803560028110613a4357600080fd5b600060a08284031215613ee357600080fd5b60405160a0810181811067ffffffffffffffff82111715613f1457634e487b7160e01b600052604160045260246000fd5b6040528235613f2281613deb565b81526020830135613f3281613deb565b6020820152613f4360408401613eb7565b604082015260608301356060820152613f5e60808401613ec2565b60808201529392505050565b602080825260069082015265085d985d5b1d60d21b604082015260600190565b600060208284031215613f9c57600080fd5b5051919050565b80516001600160801b0381168114613a4357600080fd5b600080600080600060a08688031215613fd257600080fd5b613fdb86613fa3565b94506020860151935060408601519250613ff760608701613fa3565b915061400560808701613fa3565b90509295509295909350565b6001600160a01b0392831681529116602082015260400190565b634e487b7160e01b600052601260045260246000fd5b634e487b7160e01b600052601160045260246000fd5b6000826140665761406661402b565b500490565b60006020828403121561407d57600080fd5b61235d82613e0c565b6000821982111561409957614099614041565b500190565b6000600160ff1b82016140b3576140b3614041565b5060000390565b6000602082840312156140cc57600080fd5b815161235d81613c2f565b634e487b7160e01b600052602160045260246000fd5b6000806040838503121561410057600080fd5b505080516020909101519092909150565b6000806040838503121561412457600080fd5b61412d83613fa3565b915061413b60208401613fa3565b90509250929050565b60008282101561415657614156614041565b500390565b600060ff821660ff84168082101561417557614175614041565b90039392505050565b600060ff821660ff84168060ff0382111561419b5761419b614041565b019392505050565b600181815b808511156141de5781600019048211156141c4576141c4614041565b808516156141d157918102915b93841c93908002906141a8565b509250929050565b6000826141f557506001612325565b8161420257506000612325565b816001811461421857600281146142225761423e565b6001915050612325565b60ff84111561423357614233614041565b50506001821b612325565b5060208310610133831016604e8410600b8410161715614261575081810a612325565b61426b83836141a3565b806000190482111561427f5761427f614041565b029392505050565b600061235d60ff8416836141e6565b600061235d83836141e6565b60008160001904831182151516156142bc576142bc614041565b500290565b6000602082840312156142d357600080fd5b815161235d81613cb9565b6000602082840312156142f057600080fd5b815161235d81613deb565b60008160020b8360020b627fffff60008213600084138383048511828216161561432757614327614041565b627fffff19600085128281168783058712161561434657614346614041565b6000871292508582058712848416161561436257614362614041565b8585058712818416161561437857614378614041565b5050509290910295945050505050565b60008160020b8360020b6000811281627fffff19018312811516156143af576143af614041565b81627fffff0183138116156143c6576143c6614041565b5090039392505050565b60008160020b8360020b6000821282627fffff038213811516156143f6576143f6614041565b82627fffff1903821281161561440e5761440e614041565b50019392505050565b60008160020b8360020b8061442e5761442e61402b565b627fffff1982146000198214161561444857614448614041565b90059392505050565b60029190910b815260200190565b600080600080600080600080610100898b03121561447c57600080fd5b61448589613fa3565b9750602089015180600f0b811461449b57600080fd5b80975050604089015195506060890151945060808901518060060b81146144c157600080fd5b60a08a01519094506144d281613c2f565b60c08a015190935063ffffffff811681146144ec57600080fd5b91506144fa60e08a01613e1d565b90509295985092959890939650565b60006001600160a01b038281168482168115158284048211161561452f5761452f614041565b02949350505050565b60006001600160a01b038381169083168181101561455857614558614041565b03939250505056fea2646970667358221220c72773d2a0f406225f66bf2c4901d42d3b1067401b78831df1da6961871ca64a64736f6c634300080e0033",
  "linkReferences": {},
  "deployedLinkReferences": {}
}