{
  "_format": "hh-sol-artifact-1",
  "contractName": "DHVLensMK1",
  "sourceName": "contracts/lens/DHVLensMK1.sol",
  "abi": [
    {
      "inputs": [
        {
          "internalType": "address",
          "name": "_protocol",
          "type": "address"
        },
        {
          "internalType": "address",
          "name": "_catalogue",
          "type": "address"
        },
        {
          "internalType": "address",
          "name": "_pricer",
          "type": "address"
        },
        {
          "internalType": "address",
          "name": "_collateralAsset",
          "type": "address"
        },
        {
          "internalType": "address",
          "name": "_underlyingAsset",
          "type": "address"
        },
        {
          "internalType": "address",
          "name": "_strikeAsset",
          "type": "address"
        }
      ],
      "stateMutability": "nonpayable",
      "type": "constructor"
    },
    {
      "inputs": [],
      "name": "catalogue",
      "outputs": [
        {
          "internalType": "contract OptionCatalogue",
          "name": "",
          "type": "address"
        }
      ],
      "stateMutability": "view",
      "type": "function"
    },
    {
      "inputs": [],
      "name": "collateralAsset",
      "outputs": [
        {
          "internalType": "address",
          "name": "",
          "type": "address"
        }
      ],
      "stateMutability": "view",
      "type": "function"
    },
    {
      "inputs": [],
      "name": "getExpirations",
      "outputs": [
        {
          "internalType": "uint64[]",
          "name": "",
          "type": "uint64[]"
        }
      ],
      "stateMutability": "view",
      "type": "function"
    },
    {
      "inputs": [],
      "name": "getOptionChain",
      "outputs": [
        {
          "components": [
            {
              "internalType": "uint64[]",
              "name": "expirations",
              "type": "uint64[]"
            },
            {
              "components": [
                {
                  "internalType": "uint64",
                  "name": "expiration",
                  "type": "uint64"
                },
                {
                  "internalType": "uint128[]",
                  "name": "callStrikes",
                  "type": "uint128[]"
                },
                {
                  "components": [
                    {
                      "internalType": "uint128",
                      "name": "strike",
                      "type": "uint128"
                    },
                    {
                      "components": [
                        {
                          "internalType": "uint256",
                          "name": "iv",
                          "type": "uint256"
                        },
                        {
                          "internalType": "uint256",
                          "name": "quote",
                          "type": "uint256"
                        },
                        {
                          "internalType": "uint256",
                          "name": "fee",
                          "type": "uint256"
                        },
                        {
                          "internalType": "bool",
                          "name": "disabled",
                          "type": "bool"
                        },
                        {
                          "internalType": "bool",
                          "name": "premiumTooSmall",
                          "type": "bool"
                        }
                      ],
                      "internalType": "struct DHVLensMK1.TradingSpec",
                      "name": "sell",
                      "type": "tuple"
                    },
                    {
                      "components": [
                        {
                          "internalType": "uint256",
                          "name": "iv",
                          "type": "uint256"
                        },
                        {
                          "internalType": "uint256",
                          "name": "quote",
                          "type": "uint256"
                        },
                        {
                          "internalType": "uint256",
                          "name": "fee",
                          "type": "uint256"
                        },
                        {
                          "internalType": "bool",
                          "name": "disabled",
                          "type": "bool"
                        },
                        {
                          "internalType": "bool",
                          "name": "premiumTooSmall",
                          "type": "bool"
                        }
                      ],
                      "internalType": "struct DHVLensMK1.TradingSpec",
                      "name": "buy",
                      "type": "tuple"
                    },
                    {
                      "internalType": "int256",
                      "name": "delta",
                      "type": "int256"
                    },
                    {
                      "internalType": "int256",
                      "name": "exposure",
                      "type": "int256"
                    }
                  ],
                  "internalType": "struct DHVLensMK1.OptionStrikeDrill[]",
                  "name": "callOptionDrill",
                  "type": "tuple[]"
                },
                {
                  "internalType": "uint128[]",
                  "name": "putStrikes",
                  "type": "uint128[]"
                },
                {
                  "components": [
                    {
                      "internalType": "uint128",
                      "name": "strike",
                      "type": "uint128"
                    },
                    {
                      "components": [
                        {
                          "internalType": "uint256",
                          "name": "iv",
                          "type": "uint256"
                        },
                        {
                          "internalType": "uint256",
                          "name": "quote",
                          "type": "uint256"
                        },
                        {
                          "internalType": "uint256",
                          "name": "fee",
                          "type": "uint256"
                        },
                        {
                          "internalType": "bool",
                          "name": "disabled",
                          "type": "bool"
                        },
                        {
                          "internalType": "bool",
                          "name": "premiumTooSmall",
                          "type": "bool"
                        }
                      ],
                      "internalType": "struct DHVLensMK1.TradingSpec",
                      "name": "sell",
                      "type": "tuple"
                    },
                    {
                      "components": [
                        {
                          "internalType": "uint256",
                          "name": "iv",
                          "type": "uint256"
                        },
                        {
                          "internalType": "uint256",
                          "name": "quote",
                          "type": "uint256"
                        },
                        {
                          "internalType": "uint256",
                          "name": "fee",
                          "type": "uint256"
                        },
                        {
                          "internalType": "bool",
                          "name": "disabled",
                          "type": "bool"
                        },
                        {
                          "internalType": "bool",
                          "name": "premiumTooSmall",
                          "type": "bool"
                        }
                      ],
                      "internalType": "struct DHVLensMK1.TradingSpec",
                      "name": "buy",
                      "type": "tuple"
                    },
                    {
                      "internalType": "int256",
                      "name": "delta",
                      "type": "int256"
                    },
                    {
                      "internalType": "int256",
                      "name": "exposure",
                      "type": "int256"
                    }
                  ],
                  "internalType": "struct DHVLensMK1.OptionStrikeDrill[]",
                  "name": "putOptionDrill",
                  "type": "tuple[]"
                },
                {
                  "internalType": "uint256",
                  "name": "underlyingPrice",
                  "type": "uint256"
                }
              ],
              "internalType": "struct DHVLensMK1.OptionExpirationDrill[]",
              "name": "optionExpirationDrills",
              "type": "tuple[]"
            }
          ],
          "internalType": "struct DHVLensMK1.OptionChain",
          "name": "",
          "type": "tuple"
        }
      ],
      "stateMutability": "view",
      "type": "function"
    },
    {
      "inputs": [
        {
          "internalType": "uint64",
          "name": "expiration",
          "type": "uint64"
        }
      ],
      "name": "getOptionExpirationDrill",
      "outputs": [
        {
          "components": [
            {
              "internalType": "uint64",
              "name": "expiration",
              "type": "uint64"
            },
            {
              "internalType": "uint128[]",
              "name": "callStrikes",
              "type": "uint128[]"
            },
            {
              "components": [
                {
                  "internalType": "uint128",
                  "name": "strike",
                  "type": "uint128"
                },
                {
                  "components": [
                    {
                      "internalType": "uint256",
                      "name": "iv",
                      "type": "uint256"
                    },
                    {
                      "internalType": "uint256",
                      "name": "quote",
                      "type": "uint256"
                    },
                    {
                      "internalType": "uint256",
                      "name": "fee",
                      "type": "uint256"
                    },
                    {
                      "internalType": "bool",
                      "name": "disabled",
                      "type": "bool"
                    },
                    {
                      "internalType": "bool",
                      "name": "premiumTooSmall",
                      "type": "bool"
                    }
                  ],
                  "internalType": "struct DHVLensMK1.TradingSpec",
                  "name": "sell",
                  "type": "tuple"
                },
                {
                  "components": [
                    {
                      "internalType": "uint256",
                      "name": "iv",
                      "type": "uint256"
                    },
                    {
                      "internalType": "uint256",
                      "name": "quote",
                      "type": "uint256"
                    },
                    {
                      "internalType": "uint256",
                      "name": "fee",
                      "type": "uint256"
                    },
                    {
                      "internalType": "bool",
                      "name": "disabled",
                      "type": "bool"
                    },
                    {
                      "internalType": "bool",
                      "name": "premiumTooSmall",
                      "type": "bool"
                    }
                  ],
                  "internalType": "struct DHVLensMK1.TradingSpec",
                  "name": "buy",
                  "type": "tuple"
                },
                {
                  "internalType": "int256",
                  "name": "delta",
                  "type": "int256"
                },
                {
                  "internalType": "int256",
                  "name": "exposure",
                  "type": "int256"
                }
              ],
              "internalType": "struct DHVLensMK1.OptionStrikeDrill[]",
              "name": "callOptionDrill",
              "type": "tuple[]"
            },
            {
              "internalType": "uint128[]",
              "name": "putStrikes",
              "type": "uint128[]"
            },
            {
              "components": [
                {
                  "internalType": "uint128",
                  "name": "strike",
                  "type": "uint128"
                },
                {
                  "components": [
                    {
                      "internalType": "uint256",
                      "name": "iv",
                      "type": "uint256"
                    },
                    {
                      "internalType": "uint256",
                      "name": "quote",
                      "type": "uint256"
                    },
                    {
                      "internalType": "uint256",
                      "name": "fee",
                      "type": "uint256"
                    },
                    {
                      "internalType": "bool",
                      "name": "disabled",
                      "type": "bool"
                    },
                    {
                      "internalType": "bool",
                      "name": "premiumTooSmall",
                      "type": "bool"
                    }
                  ],
                  "internalType": "struct DHVLensMK1.TradingSpec",
                  "name": "sell",
                  "type": "tuple"
                },
                {
                  "components": [
                    {
                      "internalType": "uint256",
                      "name": "iv",
                      "type": "uint256"
                    },
                    {
                      "internalType": "uint256",
                      "name": "quote",
                      "type": "uint256"
                    },
                    {
                      "internalType": "uint256",
                      "name": "fee",
                      "type": "uint256"
                    },
                    {
                      "internalType": "bool",
                      "name": "disabled",
                      "type": "bool"
                    },
                    {
                      "internalType": "bool",
                      "name": "premiumTooSmall",
                      "type": "bool"
                    }
                  ],
                  "internalType": "struct DHVLensMK1.TradingSpec",
                  "name": "buy",
                  "type": "tuple"
                },
                {
                  "internalType": "int256",
                  "name": "delta",
                  "type": "int256"
                },
                {
                  "internalType": "int256",
                  "name": "exposure",
                  "type": "int256"
                }
              ],
              "internalType": "struct DHVLensMK1.OptionStrikeDrill[]",
              "name": "putOptionDrill",
              "type": "tuple[]"
            },
            {
              "internalType": "uint256",
              "name": "underlyingPrice",
              "type": "uint256"
            }
          ],
          "internalType": "struct DHVLensMK1.OptionExpirationDrill",
          "name": "",
          "type": "tuple"
        }
      ],
      "stateMutability": "view",
      "type": "function"
    },
    {
      "inputs": [],
      "name": "pricer",
      "outputs": [
        {
          "internalType": "contract BeyondPricer",
          "name": "",
          "type": "address"
        }
      ],
      "stateMutability": "view",
      "type": "function"
    },
    {
      "inputs": [],
      "name": "protocol",
      "outputs": [
        {
          "internalType": "contract Protocol",
          "name": "",
          "type": "address"
        }
      ],
      "stateMutability": "view",
      "type": "function"
    },
    {
      "inputs": [],
      "name": "strikeAsset",
      "outputs": [
        {
          "internalType": "address",
          "name": "",
          "type": "address"
        }
      ],
      "stateMutability": "view",
      "type": "function"
    },
    {
      "inputs": [],
      "name": "underlyingAsset",
      "outputs": [
        {
          "internalType": "address",
          "name": "",
          "type": "address"
        }
      ],
      "stateMutability": "view",
      "type": "function"
    }
  ],
  "bytecode": "0x60806040523480156200001157600080fd5b50604051620016f5380380620016f58339810160408190526200003491620000c4565b600080546001600160a01b03199081166001600160a01b039889161790915560058054821694881694909417909355600480548416928716929092179091556003805483169186169190911790556001805482169385169390931790925560028054909216921691909117905562000145565b80516001600160a01b0381168114620000bf57600080fd5b919050565b60008060008060008060c08789031215620000de57600080fd5b620000e987620000a7565b9550620000f960208801620000a7565b94506200010960408801620000a7565b93506200011960608801620000a7565b92506200012960808801620000a7565b91506200013960a08801620000a7565b90509295509295509295565b6115a080620001556000396000f3fe608060405234801561001057600080fd5b50600436106100835760003560e01c806317d69bc81461008857806324e4013a146100b857806356e9d1e4146100cb5780637158da7c146100e0578063756fb8c9146100f35780638ce7442614610108578063a6138ed91461011b578063aabaecd61461012e578063e8581f4b14610141575b600080fd5b60035461009b906001600160a01b031681565b6040516001600160a01b0390911681526020015b60405180910390f35b60015461009b906001600160a01b031681565b6100d3610161565b6040516100af9190610f18565b60045461009b906001600160a01b031681565b6100fb6101e7565b6040516100af91906110e0565b60005461009b906001600160a01b031681565b60025461009b906001600160a01b031681565b60055461009b906001600160a01b031681565b61015461014f3660046111ae565b610203565b6040516100af91906111cb565b600154604080516315ba747960e21b815290516060926001600160a01b0316916356e9d1e4916004808301926000929190829003018186803b1580156101a657600080fd5b505afa1580156101ba573d6000803e3d6000fd5b505050506040513d6000823e601f3d908101601f191682016040526101e29190810190611247565b905090565b60408051808201909152606080825260208201526101e261021a565b61020b610e62565b61021482610584565b92915050565b6040805180820190915260608082526020820152600154604080516315ba747960e21b815290516000926001600160a01b0316916356e9d1e49160048083019286929190829003018186803b15801561027257600080fd5b505afa158015610286573d6000803e3d6000fd5b505050506040513d6000823e601f3d908101601f191682016040526102ae9190810190611247565b9050600081516001600160401b038111156102cb576102cb6111de565b6040519080825280602002602001820160405280156102f4578160200160208202803683370190505b5090506000610316604051806040016040528060608152602001606081525090565b60005b84518110156103dd5742858281518110610335576103356112e5565b60200260200101516001600160401b03161015610351576103cb565b6201518061708086838151811061036a5761036a6112e5565b602002602001015161037c9190611311565b6103869190611339565b6001600160401b031615610399576103cb565b60018482815181106103ad576103ad6112e5565b91151560209283029190910190910152826103c78161136d565b9350505b806103d58161138d565b915050610319565b5060008260ff166001600160401b038111156103fb576103fb6111de565b604051908082528060200260200182016040528015610424578160200160208202803683370190505b5090506000805b85518110156104ba57858181518110610446576104466112e5565b6020026020010151156104a857868181518110610465576104656112e5565b6020026020010151838360ff1681518110610482576104826112e5565b6001600160401b0390921660209283029190910190910152816104a48161136d565b9250505b806104b28161138d565b91505061042b565b5060008460ff166001600160401b038111156104d8576104d86111de565b60405190808252806020026020018201604052801561051157816020015b6104fe610e62565b8152602001906001900390816104f65790505b50905060005b835181101561057257610542848281518110610535576105356112e5565b6020026020010151610584565b828281518110610554576105546112e5565b6020026020010181905250808061056a9061138d565b915050610517565b50918352506020820152949350505050565b61058c610e62565b60015460405163638e2e8560e11b81526001600160401b0384166004820152600060248201819052916001600160a01b03169063c71c5d0a9060440160006040518083038186803b1580156105e057600080fd5b505afa1580156105f4573d6000803e3d6000fd5b505050506040513d6000823e601f3d908101601f1916820160405261061c91908101906113a8565b6001805460405163638e2e8560e11b81526001600160401b038716600482015260248101929092529192506000916001600160a01b03169063c71c5d0a9060440160006040518083038186803b15801561067557600080fd5b505afa158015610689573d6000803e3d6000fd5b505050506040513d6000823e601f3d908101601f191682016040526106b191908101906113a8565b6004546003549192506000916106d3916001600160a01b039081169116610735565b905060006106e48685600085610846565b905060006106f58785600186610846565b6040805160c0810182526001600160401b039099168952602089019690965294870191909152506060850191909152608084019190915260a08301525090565b60008060009054906101000a90046001600160a01b03166001600160a01b031663741bef1a6040518163ffffffff1660e01b815260040160206040518083038186803b15801561078457600080fd5b505afa158015610798573d6000803e3d6000fd5b505050506040513d601f19601f820116820180604052508101906107bc9190611443565b60405163051ce29b60e21b81526001600160a01b038581166004830152848116602483015291909116906314738a6c9060440160206040518083038186803b15801561080757600080fd5b505afa15801561081b573d6000803e3d6000fd5b505050506040513d601f19601f8201168201806040525081019061083f919061146c565b9392505050565b6060600084516001600160401b03811115610863576108636111de565b60405190808252806020026020018201604052801561089c57816020015b610889610ea1565b8152602001906001900390816108815790505b50905060005b8551811015610a5c576000878783815181106108c0576108c06112e5565b6020026020010151876040516020016108db93929190611485565b60405160208183030381529060405280519060200120905060006108fd610a68565b6001600160a01b03166321e04dd4836040518263ffffffff1660e01b815260040161092a91815260200190565b60206040518083038186803b15801561094257600080fd5b505afa158015610956573d6000803e3d6000fd5b505050506040513d601f19601f8201168201806040525081019061097a919061146c565b90506000806109a78b8b8781518110610995576109956112e5565b60200260200101518b8660018d610aef565b9150915060006109d58c8c88815181106109c3576109c36112e5565b60200260200101518c8760008e610aef565b50905060006040518060a001604052808d89815181106109f7576109f76112e5565b60200260200101516001600160801b0316815260200185815260200183815260200184815260200186815250905080888881518110610a3857610a386112e5565b60200260200101819052505050505050508080610a549061138d565b9150506108a2565b5090505b949350505050565b60008060009054906101000a90046001600160a01b03166001600160a01b0316635fb480c96040518163ffffffff1660e01b815260040160206040518083038186803b158015610ab757600080fd5b505afa158015610acb573d6000803e3d6000fd5b505050506040513d601f19601f820116820180604052508101906101e29190611443565b610af7610ee5565b60015460405160009182916001600160a01b039091169063948d6e3790610b26908c908c908c90602001611485565b604051602081830303815290604052805190602001206040518263ffffffff1660e01b8152600401610b5a91815260200190565b60606040518083038186803b158015610b7257600080fd5b505afa158015610b86573d6000803e3d6000fd5b505050506040513d601f19601f82011682018060405250810190610baa91906114d1565b6002546040805160c0810182526001600160401b038d811682526001600160801b038d8116602084019081528d1515848601908152600480546001600160a01b0390811660608801908152600354821660808901908152600554831660a08a019081529951634d85b51d60e01b81529851909716928801929092529251909316602486015251151560448501529051811660648401529051811660848301529151821660a4820152670de0b6b3a764000060c482015288151560e482015261010481018a905292935060009283929190911690634d85b51d906101240160606040518083038186803b158015610c9f57600080fd5b505afa925050508015610ccf575060408051601f3d908101601f19168201909252610ccc9181019061153c565b60015b610ce257506101a2925082905080610ceb565b90955090925090505b6040518060a00160405280610d0b8b8d8f6001600160401b03168b610d63565b815260200183815260200182815260200188610d2c57846020015115610d33565b8460400151155b1515815260200182600385901c11610d4c576001610d4f565b60005b151590529450505050965096945050505050565b6000610d6d610e13565b6040516367a35e4760e01b81528615156004820152602481018490526001600160801b0386166044820152606481018590526001600160a01b0391909116906367a35e479060840160206040518083038186803b158015610dcd57600080fd5b505afa925050508015610dfd575060408051601f3d908101601f19168201909252610dfa9181019061146c565b60015b610e0a57506101a2610a60565b95945050505050565b60008060009054906101000a90046001600160a01b03166001600160a01b031663128e414b6040518163ffffffff1660e01b815260040160206040518083038186803b158015610ab757600080fd5b6040518060c0016040528060006001600160401b0316815260200160608152602001606081526020016060815260200160608152602001600081525090565b6040518060a0016040528060006001600160801b03168152602001610ec4610ee5565b8152602001610ed1610ee5565b815260200160008152602001600081525090565b6040518060a001604052806000815260200160008152602001600081526020016000151581526020016000151581525090565b6020808252825182820181905260009190848201906040850190845b81811015610f595783516001600160401b031683529284019291840191600101610f34565b50909695505050505050565b600081518084526020808501945080840160005b83811015610f9e5781516001600160801b031687529582019590820190600101610f79565b509495945050505050565b8051825260208101516020830152604081015160408301526060810151151560608301526080810151151560808301525050565b600081518084526020808501945080840160005b83811015610f9e57815180516001600160801b0316885283810151611018858a0182610fa9565b50604081015161102b60c08a0182610fa9565b506060810151610160890152608001516101808801526101a09096019590820190600101610ff1565b6001600160401b0381511682526000602082015160c0602085015261107c60c0850182610f65565b9050604083015184820360408601526110958282610fdd565b915050606083015184820360608601526110af8282610f65565b915050608083015184820360808601526110c98282610fdd565b91505060a083015160a08501528091505092915050565b6020808252825160408383015280516060840181905260009291820190839060808601905b8083101561112e5783516001600160401b03168252928401926001929092019190840190611105565b5083870151601f198783038101604089015281518084529186019450925081850190600581901b8301860160005b828110156111885785858303018452611176828851611054565b9688019693880193915060010161115c565b509998505050505050505050565b6001600160401b03811681146111ab57600080fd5b50565b6000602082840312156111c057600080fd5b813561083f81611196565b60208152600061083f6020830184611054565b634e487b7160e01b600052604160045260246000fd5b604051601f8201601f191681016001600160401b038111828210171561121c5761121c6111de565b604052919050565b60006001600160401b0382111561123d5761123d6111de565b5060051b60200190565b6000602080838503121561125a57600080fd5b82516001600160401b0381111561127057600080fd5b8301601f8101851361128157600080fd5b805161129461128f82611224565b6111f4565b81815260059190911b820183019083810190878311156112b357600080fd5b928401925b828410156112da5783516112cb81611196565b825292840192908401906112b8565b979650505050505050565b634e487b7160e01b600052603260045260246000fd5b634e487b7160e01b600052601160045260246000fd5b60006001600160401b0383811690831681811015611331576113316112fb565b039392505050565b60006001600160401b038084168061136157634e487b7160e01b600052601260045260246000fd5b92169190910692915050565b600060ff821660ff811415611384576113846112fb565b60010192915050565b60006000198214156113a1576113a16112fb565b5060010190565b600060208083850312156113bb57600080fd5b82516001600160401b038111156113d157600080fd5b8301601f810185136113e257600080fd5b80516113f061128f82611224565b81815260059190911b8201830190838101908783111561140f57600080fd5b928401925b828410156112da5783516001600160801b03811681146114345760008081fd5b82529284019290840190611414565b60006020828403121561145557600080fd5b81516001600160a01b038116811461083f57600080fd5b60006020828403121561147e57600080fd5b5051919050565b60c09390931b6001600160c01b031916835260809190911b6001600160801b0319166008830152151560f81b601882015260190190565b805180151581146114cc57600080fd5b919050565b6000606082840312156114e357600080fd5b604051606081018181106001600160401b0382111715611505576115056111de565b604052611511836114bc565b815261151f602084016114bc565b6020820152611530604084016114bc565b60408201529392505050565b60008060006060848603121561155157600080fd5b835192506020840151915060408401519050925092509256fea2646970667358221220164cf269d220363dbb94e27dc445856027897523a7539606af1a3f1965fc461864736f6c63430008090033",
  "linkReferences": {},
  "deployedLinkReferences": {}
}