{
  "_format": "hh-sol-artifact-1",
  "contractName": "UniswapV3HedgingReactor",
  "sourceName": "contracts/hedging/UniswapV3HedgingReactor.sol",
  "abi": [
    {
      "inputs": [
        {
          "internalType": "contract ISwapRouter",
          "name": "_swapRouter",
          "type": "address"
        },
        {
          "internalType": "address",
          "name": "_collateralAsset",
          "type": "address"
        },
        {
          "internalType": "address",
          "name": "_wethAddress",
          "type": "address"
        },
        {
          "internalType": "address",
          "name": "_parentLiquidityPool",
          "type": "address"
        },
        {
          "internalType": "uint24",
          "name": "_poolFee",
          "type": "uint24"
        },
        {
          "internalType": "address",
          "name": "_priceFeed",
          "type": "address"
        },
        {
          "internalType": "address",
          "name": "_authority",
          "type": "address"
        }
      ],
      "stateMutability": "nonpayable",
      "type": "constructor"
    },
    {
      "inputs": [],
      "name": "UNAUTHORIZED",
      "type": "error"
    },
    {
      "inputs": [],
      "name": "WithdrawExceedsLiquidity",
      "type": "error"
    },
    {
      "anonymous": false,
      "inputs": [
        {
          "indexed": false,
          "internalType": "contract IAuthority",
          "name": "authority",
          "type": "address"
        }
      ],
      "name": "AuthorityUpdated",
      "type": "event"
    },
    {
      "inputs": [],
      "name": "authority",
      "outputs": [
        {
          "internalType": "contract IAuthority",
          "name": "",
          "type": "address"
        }
      ],
      "stateMutability": "view",
      "type": "function"
    },
    {
      "inputs": [],
      "name": "buySlippage",
      "outputs": [
        {
          "internalType": "uint16",
          "name": "",
          "type": "uint16"
        }
      ],
      "stateMutability": "view",
      "type": "function"
    },
    {
      "inputs": [
        {
          "internalType": "uint24",
          "name": "_poolFee",
          "type": "uint24"
        }
      ],
      "name": "changePoolFee",
      "outputs": [],
      "stateMutability": "nonpayable",
      "type": "function"
    },
    {
      "inputs": [],
      "name": "collateralAsset",
      "outputs": [
        {
          "internalType": "address",
          "name": "",
          "type": "address"
        }
      ],
      "stateMutability": "view",
      "type": "function"
    },
    {
      "inputs": [],
      "name": "getDelta",
      "outputs": [
        {
          "internalType": "int256",
          "name": "delta",
          "type": "int256"
        }
      ],
      "stateMutability": "view",
      "type": "function"
    },
    {
      "inputs": [],
      "name": "getPoolDenominatedValue",
      "outputs": [
        {
          "internalType": "uint256",
          "name": "value",
          "type": "uint256"
        }
      ],
      "stateMutability": "view",
      "type": "function"
    },
    {
      "inputs": [
        {
          "internalType": "int256",
          "name": "_delta",
          "type": "int256"
        }
      ],
      "name": "hedgeDelta",
      "outputs": [
        {
          "internalType": "int256",
          "name": "",
          "type": "int256"
        }
      ],
      "stateMutability": "nonpayable",
      "type": "function"
    },
    {
      "inputs": [],
      "name": "internalDelta",
      "outputs": [
        {
          "internalType": "int256",
          "name": "",
          "type": "int256"
        }
      ],
      "stateMutability": "view",
      "type": "function"
    },
    {
      "inputs": [],
      "name": "minAmount",
      "outputs": [
        {
          "internalType": "uint256",
          "name": "",
          "type": "uint256"
        }
      ],
      "stateMutability": "view",
      "type": "function"
    },
    {
      "inputs": [],
      "name": "parentLiquidityPool",
      "outputs": [
        {
          "internalType": "address",
          "name": "",
          "type": "address"
        }
      ],
      "stateMutability": "view",
      "type": "function"
    },
    {
      "inputs": [],
      "name": "poolFee",
      "outputs": [
        {
          "internalType": "uint24",
          "name": "",
          "type": "uint24"
        }
      ],
      "stateMutability": "view",
      "type": "function"
    },
    {
      "inputs": [],
      "name": "priceFeed",
      "outputs": [
        {
          "internalType": "address",
          "name": "",
          "type": "address"
        }
      ],
      "stateMutability": "view",
      "type": "function"
    },
    {
      "inputs": [],
      "name": "sellSlippage",
      "outputs": [
        {
          "internalType": "uint16",
          "name": "",
          "type": "uint16"
        }
      ],
      "stateMutability": "view",
      "type": "function"
    },
    {
      "inputs": [
        {
          "internalType": "contract IAuthority",
          "name": "_newAuthority",
          "type": "address"
        }
      ],
      "name": "setAuthority",
      "outputs": [],
      "stateMutability": "nonpayable",
      "type": "function"
    },
    {
      "inputs": [
        {
          "internalType": "uint256",
          "name": "_minAmount",
          "type": "uint256"
        }
      ],
      "name": "setMinAmount",
      "outputs": [],
      "stateMutability": "nonpayable",
      "type": "function"
    },
    {
      "inputs": [
        {
          "internalType": "uint16",
          "name": "_buySlippage",
          "type": "uint16"
        },
        {
          "internalType": "uint16",
          "name": "_sellSlippage",
          "type": "uint16"
        }
      ],
      "name": "setSlippage",
      "outputs": [],
      "stateMutability": "nonpayable",
      "type": "function"
    },
    {
      "inputs": [],
      "name": "swapRouter",
      "outputs": [
        {
          "internalType": "contract ISwapRouter",
          "name": "",
          "type": "address"
        }
      ],
      "stateMutability": "view",
      "type": "function"
    },
    {
      "inputs": [],
      "name": "update",
      "outputs": [
        {
          "internalType": "uint256",
          "name": "",
          "type": "uint256"
        }
      ],
      "stateMutability": "pure",
      "type": "function"
    },
    {
      "inputs": [],
      "name": "wETH",
      "outputs": [
        {
          "internalType": "address",
          "name": "",
          "type": "address"
        }
      ],
      "stateMutability": "view",
      "type": "function"
    },
    {
      "inputs": [
        {
          "internalType": "uint256",
          "name": "_amount",
          "type": "uint256"
        }
      ],
      "name": "withdraw",
      "outputs": [
        {
          "internalType": "uint256",
          "name": "",
          "type": "uint256"
        }
      ],
      "stateMutability": "nonpayable",
      "type": "function"
    }
  ],
  "bytecode": "0x610120604052662386f26fc100006002556003805466ffffffff0000001916656400640000001790553480156200003557600080fd5b5060405162001c9d38038062001c9d83398101604081905262000058916200021a565b600080546001600160a01b0319166001600160a01b03831690811790915560405190815281907f2f658b440c35314f52658ea8a740e05b284cdc84dc9ae01e891f21b8933e7cad9060200160405180910390a1506001600160a01b0387811661010081905287821660c081905287831660e0528683166080526003805462ffffff191662ffffff881617905591841660a0526200010591906000196200012f602090811b62000e5b17901c565b6200012285610100516000196200012f60201b62000e5b1760201c565b50505050505050620002cc565b600060405163095ea7b360e01b81526001600160a01b03841660048201528260248201526000806044836000895af191506200016d905081620001b5565b620001af5760405162461bcd60e51b815260206004820152600e60248201526d1054141493d59157d1905253115160921b604482015260640160405180910390fd5b50505050565b60003d82620001c857806000803e806000fd5b8060208114620001e3578015620001f55760009250620001fa565b816000803e60005115159250620001fa565b600192505b5050919050565b6001600160a01b03811681146200021757600080fd5b50565b600080600080600080600060e0888a0312156200023657600080fd5b8751620002438162000201565b6020890151909750620002568162000201565b6040890151909650620002698162000201565b60608901519095506200027c8162000201565b608089015190945062ffffff811681146200029657600080fd5b60a0890151909350620002a98162000201565b60c0890151909250620002bc8162000201565b8091505092959891949750929550565b60805160a05160c05160e051610100516118a5620003f86000396000818161029a0152818161126201526113690152600081816102dc015281816104f30152818161059501528181610622015281816108e301528181610b3f015281816111fc01526112fc0152600081816102580152818161039101528181610426015281816104580152818161064a0152818161070c01528181610784015281816109040152818161096b01528181610a2201528181610a7501528181610c0401528181610c8701528181610cfe01528181610d8101528181610dc801528181610e0a015261113b0152600081816101db01528181610672015261105d015260008181610186015281816103310152818161089e01528181610a9701528181610de9015261110c01526118a56000f3fe608060405234801561001057600080fd5b506004361061012c5760003560e01c8063a2e62045116100ad578063c549176e11610071578063c549176e146102bc578063d23074b9146102c4578063f2428621146102d7578063fa902968146102fe578063fbaac1151461031157600080fd5b8063a2e620451461024c578063aabaecd614610253578063b7aa436d1461027a578063bf7e214f14610282578063c31c9c071461029557600080fd5b80637a9e5e4b116100f45780637a9e5e4b146101fd5780638401232e14610212578063897b0637146102275780639b2cb5d81461023a5780639ceb04831461024357600080fd5b8063089fe6aa1461013157806312f6e139146101595780632082d8d3146101815780632e1a7d4d146101b5578063741bef1a146101d6575b600080fd5b6003546101409062ffffff1681565b60405162ffffff90911681526020015b60405180910390f35b60035461016e90600160281b900461ffff1681565b60405161ffff9091168152602001610150565b6101a87f000000000000000000000000000000000000000000000000000000000000000081565b60405161015091906114d9565b6101c86101c33660046114ed565b610324565b604051908152602001610150565b6101a87f000000000000000000000000000000000000000000000000000000000000000081565b61021061020b36600461151e565b610484565b005b60035461016e906301000000900461ffff1681565b6102106102353660046114ed565b6104e2565b6101c860025481565b6101c860015481565b60006101c8565b6101a87f000000000000000000000000000000000000000000000000000000000000000081565b6101c86104ef565b6000546101a8906001600160a01b031681565b6101a87f000000000000000000000000000000000000000000000000000000000000000081565b6001546101c8565b6102106102d2366004611552565b61081b565b6101a87f000000000000000000000000000000000000000000000000000000000000000081565b61021061030c366004611585565b61086f565b6101c861031f3660046114ed565b610891565b6000336001600160a01b037f000000000000000000000000000000000000000000000000000000000000000016146103775760405162461bcd60e51b815260040161036e906115aa565b60405180910390fd5b6040516370a0823160e01b81526000906001600160a01b037f000000000000000000000000000000000000000000000000000000000000000016906370a08231906103c69030906004016114d9565b602060405180830381865afa1580156103e3573d6000803e3d6000fd5b505050506040513d601f19601f8201168201806040525081019061040791906115ca565b90508060000361041a5750600092915050565b8083116104535761044c7f00000000000000000000000000000000000000000000000000000000000000003385610ed9565b5090919050565b61047e7f00000000000000000000000000000000000000000000000000000000000000003383610ed9565b92915050565b61048c610f52565b600080546001600160a01b0319166001600160a01b0383161790556040517f2f658b440c35314f52658ea8a740e05b284cdc84dc9ae01e891f21b8933e7cad906104d79083906114d9565b60405180910390a150565b6104ea610f52565b600255565b60007f00000000000000000000000000000000000000000000000000000000000000006001600160a01b031663313ce5676040518163ffffffff1660e01b8152600401602060405180830381865afa15801561054f573d6000803e3d6000fd5b505050506040513d601f19601f8201168201806040525081019061057391906115e3565b61057e90600a611700565b6040516370a0823160e01b81526001600160a01b037f000000000000000000000000000000000000000000000000000000000000000016906370a08231906105ca9030906004016114d9565b602060405180830381865afa1580156105e7573d6000803e3d6000fd5b505050506040513d601f19601f8201168201806040525081019061060b91906115ca565b60405163051ce29b60e21b81526001600160a01b037f0000000000000000000000000000000000000000000000000000000000000000811660048301527f0000000000000000000000000000000000000000000000000000000000000000811660248301527f000000000000000000000000000000000000000000000000000000000000000016906314738a6c90604401602060405180830381865afa1580156106b9573d6000803e3d6000fd5b505050506040513d601f19601f820116820180604052508101906106dd91906115ca565b6106e7919061170f565b6106f1919061172e565b6040516370a0823160e01b815261080c906001600160a01b037f000000000000000000000000000000000000000000000000000000000000000016906370a08231906107419030906004016114d9565b602060405180830381865afa15801561075e573d6000803e3d6000fd5b505050506040513d601f19601f8201168201806040525081019061078291906115ca565b7f00000000000000000000000000000000000000000000000000000000000000006001600160a01b031663313ce5676040518163ffffffff1660e01b8152600401602060405180830381865afa1580156107e0573d6000803e3d6000fd5b505050506040513d601f19601f8201168201806040525081019061080491906115e3565b60ff16610ffa565b6108169190611750565b905090565b610823610f52565b6127108161ffff161061083557600080fd5b6003805466ffffffff0000001916630100000061ffff9485160266ffff0000000000191617600160281b9290931691909102919091179055565b610877610f52565b6003805462ffffff191662ffffff92909216919091179055565b6000336001600160a01b037f000000000000000000000000000000000000000000000000000000000000000016146108db5760405162461bcd60e51b815260040161036e906115aa565b6000806109287f00000000000000000000000000000000000000000000000000000000000000007f0000000000000000000000000000000000000000000000000000000000000000611033565b90506000841215610b255760035460009069021e19e0c9bab24000009061095c906301000000900461ffff16612710611750565b61096587611768565b6109f3857f00000000000000000000000000000000000000000000000000000000000000006001600160a01b031663313ce5676040518163ffffffff1660e01b8152600401602060405180830381865afa1580156109c7573d6000803e3d6000fd5b505050506040513d601f19601f820116820180604052508101906109eb91906115e3565b60ff166110ca565b6109fd919061170f565b610a07919061170f565b610a11919061172e565b9050610a46610a1f86611768565b827f0000000000000000000000000000000000000000000000000000000000000000611106565b50809350508260016000828254610a5d9190611784565b90915550506040516370a0823160e01b8152610b1c907f0000000000000000000000000000000000000000000000000000000000000000907f0000000000000000000000000000000000000000000000000000000000000000906001600160a01b038316906370a0823190610ad69030906004016114d9565b602060405180830381865afa158015610af3573d6000803e3d6000fd5b505050506040513d601f19601f82011682018060405250810190610b1791906115ca565b610ed9565b50909392505050565b6040516370a0823160e01b81526000906001600160a01b037f000000000000000000000000000000000000000000000000000000000000000016906370a0823190610b749030906004016114d9565b602060405180830381865afa158015610b91573d6000803e3d6000fd5b505050506040513d601f19601f82011682018060405250810190610bb591906115ca565b9050600254811015610bcc57506000949350505050565b80851315610cce5760035460009069021e19e0c9bab240000090610bfd90600160281b900461ffff166127106117c5565b83610c60867f00000000000000000000000000000000000000000000000000000000000000006001600160a01b031663313ce5676040518163ffffffff1660e01b8152600401602060405180830381865afa1580156109c7573d6000803e3d6000fd5b610c6a919061170f565b610c74919061170f565b610c7e919061172e565b9050610cab82827f00000000000000000000000000000000000000000000000000000000000000006112e7565b50809450508360016000828254610cc29190611784565b90915550610dc3915050565b60035460009069021e19e0c9bab240000090610cf790600160281b900461ffff166127106117c5565b87610d5a867f00000000000000000000000000000000000000000000000000000000000000006001600160a01b031663313ce5676040518163ffffffff1660e01b8152600401602060405180830381865afa1580156109c7573d6000803e3d6000fd5b610d64919061170f565b610d6e919061170f565b610d78919061172e565b9050610da586827f00000000000000000000000000000000000000000000000000000000000000006112e7565b50809450508360016000828254610dbc9190611784565b9091555050505b610b1c7f00000000000000000000000000000000000000000000000000000000000000007f00000000000000000000000000000000000000000000000000000000000000007f00000000000000000000000000000000000000000000000000000000000000006001600160a01b03166370a08231306040518263ffffffff1660e01b8152600401610ad691906114d9565b5050919050565b600060405163095ea7b360e01b81526001600160a01b03841660048201528260248201526000806044836000895af1915050610e96816113fa565b610ed35760405162461bcd60e51b815260206004820152600e60248201526d1054141493d59157d1905253115160921b604482015260640161036e565b50505050565b600060405163a9059cbb60e01b81526001600160a01b03841660048201528260248201526000806044836000895af1915050610f14816113fa565b610ed35760405162461bcd60e51b815260206004820152600f60248201526e1514905394d1915497d19052531151608a1b604482015260640161036e565b60008054906101000a90046001600160a01b03166001600160a01b0316630c340a246040518163ffffffff1660e01b8152600401602060405180830381865afa158015610fa3573d6000803e3d6000fd5b505050506040513d601f19601f82011682018060405250810190610fc791906117dc565b6001600160a01b0316336001600160a01b031614610ff85760405163075fd2b160e01b815260040160405180910390fd5b565b6000601282111561100a57600080fd5b6110158260126117c5565b905061102281600a6117f9565b61102c908461170f565b9392505050565b60405163051ce29b60e21b81526001600160a01b03838116600483015282811660248301526000917f0000000000000000000000000000000000000000000000000000000000000000909116906314738a6c90604401602060405180830381865afa1580156110a6573d6000803e3d6000fd5b505050506040513d601f19601f8201168201806040525081019061102c91906115ca565b600060128211156110da57600080fd5b60006110e78360126117c5565b90506110f481600a6117f9565b6110fe908561172e565b949350505050565b600080837f00000000000000000000000000000000000000000000000000000000000000006001600160a01b031663f8b2cb4f7f00000000000000000000000000000000000000000000000000000000000000006040518263ffffffff1660e01b815260040161117691906114d9565b602060405180830381865afa158015611193573d6000803e3d6000fd5b505050506040513d601f19601f820116820180604052508101906111b791906115ca565b10156111d65760405163b84beb5d60e01b815260040160405180910390fd5b6111e28333308761143f565b60408051610100810182526001600160a01b0380861682527f00000000000000000000000000000000000000000000000000000000000000008116602083015260035462ffffff168284015230606083015242608083015260a0820188905260c08201879052600060e083018190529251631b67c43360e31b81529192917f00000000000000000000000000000000000000000000000000000000000000009091169063db3e219890611299908590600401611805565b6020604051808303816000875af11580156112b8573d6000803e3d6000fd5b505050506040513d601f19601f820116820180604052508101906112dc91906115ca565b969795505050505050565b60408051610100810182526001600160a01b037f000000000000000000000000000000000000000000000000000000000000000081168252838116602083015260035462ffffff168284015230606083015242608083015260a0820186905260c08201859052600060e08301819052925163414bf38960e01b815283929183917f00000000000000000000000000000000000000000000000000000000000000009091169063414bf389906113a0908590600401611805565b6020604051808303816000875af11580156113bf573d6000803e3d6000fd5b505050506040513d601f19601f820116820180604052508101906113e391906115ca565b90506113ee87611768565b97909650945050505050565b60003d8261140c57806000803e806000fd5b80602081146114245780156114355760009250610e54565b816000803e60005115159250610e54565b5060019392505050565b600084905060006040516323b872dd60e01b81526001600160a01b03861660048201526001600160a01b03851660248201528360448201526000806064836000875af191505061148e816113fa565b6114d15760405162461bcd60e51b81526020600482015260146024820152731514905394d1915497d19493d357d1905253115160621b604482015260640161036e565b505050505050565b6001600160a01b0391909116815260200190565b6000602082840312156114ff57600080fd5b5035919050565b6001600160a01b038116811461151b57600080fd5b50565b60006020828403121561153057600080fd5b813561102c81611506565b803561ffff8116811461154d57600080fd5b919050565b6000806040838503121561156557600080fd5b61156e8361153b565b915061157c6020840161153b565b90509250929050565b60006020828403121561159757600080fd5b813562ffffff8116811461102c57600080fd5b602080825260069082015265085d985d5b1d60d21b604082015260600190565b6000602082840312156115dc57600080fd5b5051919050565b6000602082840312156115f557600080fd5b815160ff8116811461102c57600080fd5b634e487b7160e01b600052601160045260246000fd5b600181815b8085111561165757816000190482111561163d5761163d611606565b8085161561164a57918102915b93841c9390800290611621565b509250929050565b60008261166e5750600161047e565b8161167b5750600061047e565b8160018114611691576002811461169b576116b7565b600191505061047e565b60ff8411156116ac576116ac611606565b50506001821b61047e565b5060208310610133831016604e8410600b84101617156116da575081810a61047e565b6116e4838361161c565b80600019048211156116f8576116f8611606565b029392505050565b600061102c60ff84168361165f565b600081600019048311821515161561172957611729611606565b500290565b60008261174b57634e487b7160e01b600052601260045260246000fd5b500490565b6000821982111561176357611763611606565b500190565b6000600160ff1b820161177d5761177d611606565b5060000390565b600080821280156001600160ff1b03849003851316156117a6576117a6611606565b600160ff1b83900384128116156117bf576117bf611606565b50500190565b6000828210156117d7576117d7611606565b500390565b6000602082840312156117ee57600080fd5b815161102c81611506565b600061102c838361165f565b610100810161047e828480516001600160a01b03908116835260208083015182169084015260408083015162ffffff16908401526060808301518216908401526080808301519084015260a0828101519084015260c0808301519084015260e0918201511691015256fea2646970667358221220a01790079487fe668a8201999bdfc6947b201e5e5603d0f5a9604c4b3a0f872664736f6c634300080e0033",
  "linkReferences": {},
  "deployedLinkReferences": {}
}