{
  "_format": "hh-sol-artifact-1",
  "contractName": "VaultCollateralMulticall",
  "sourceName": "contracts/gelato/VaultCollateralMulticall.sol",
  "abi": [
    {
      "inputs": [
        {
          "internalType": "address",
          "name": "_executorAddress",
          "type": "address"
        },
        {
          "internalType": "address",
          "name": "_optionRegistry",
          "type": "address"
        }
      ],
      "stateMutability": "nonpayable",
      "type": "constructor"
    },
    {
      "inputs": [],
      "name": "invalidMsgSender",
      "type": "error"
    },
    {
      "inputs": [
        {
          "internalType": "uint256[]",
          "name": "vaultIds",
          "type": "uint256[]"
        }
      ],
      "name": "adjustVaults",
      "outputs": [],
      "stateMutability": "nonpayable",
      "type": "function"
    },
    {
      "inputs": [
        {
          "internalType": "uint256[]",
          "name": "vaultIds",
          "type": "uint256[]"
        }
      ],
      "name": "checkVaults",
      "outputs": [
        {
          "internalType": "uint256[]",
          "name": "",
          "type": "uint256[]"
        }
      ],
      "stateMutability": "view",
      "type": "function"
    },
    {
      "inputs": [],
      "name": "executorAddress",
      "outputs": [
        {
          "internalType": "address",
          "name": "",
          "type": "address"
        }
      ],
      "stateMutability": "view",
      "type": "function"
    },
    {
      "inputs": [],
      "name": "optionRegistry",
      "outputs": [
        {
          "internalType": "contract OptionRegistry",
          "name": "",
          "type": "address"
        }
      ],
      "stateMutability": "view",
      "type": "function"
    },
    {
      "inputs": [
        {
          "internalType": "address",
          "name": "_executorAddress",
          "type": "address"
        }
      ],
      "name": "setExecutor",
      "outputs": [],
      "stateMutability": "nonpayable",
      "type": "function"
    }
  ],
  "bytecode": "0x608060405234801561001057600080fd5b506040516106b43803806106b483398101604081905261002f9161007c565b600080546001600160a01b039384166001600160a01b031991821617909155600180549290931691161790556100af565b80516001600160a01b038116811461007757600080fd5b919050565b6000806040838503121561008f57600080fd5b61009883610060565b91506100a660208401610060565b90509250929050565b6105f6806100be6000396000f3fe608060405234801561001057600080fd5b50600436106100575760003560e01c80631c3c0ea81461005c5780633b4567b014610071578063a8e9a539146100a1578063b3341f0b146100b4578063e78a8279146100c7575b600080fd5b61006f61006a3660046103cd565b6100e7565b005b600154610084906001600160a01b031681565b6040516001600160a01b0390911681526020015b60405180910390f35b600054610084906001600160a01b031681565b61006f6100c23660046103f1565b610134565b6100da6100d53660046103f1565b6101f7565b6040516100989190610466565b6000546001600160a01b03163314610112576040516343990e3160e01b815260040160405180910390fd5b600080546001600160a01b0319166001600160a01b0392909216919091179055565b6000546001600160a01b0316331461015f576040516343990e3160e01b815260040160405180910390fd5b6000815b808210156101f1576001546001600160a01b03166363009ac385858581811061018e5761018e6104aa565b905060200201356040518263ffffffff1660e01b81526004016101b391815260200190565b600060405180830381600087803b1580156101cd57600080fd5b505af19250505080156101de575060015b50816101e9816104d6565b925050610163565b50505050565b606060008267ffffffffffffffff811115610214576102146104f1565b60405190808252806020026020018201604052801561023d578160200160208202803683370190505b5090506000835b808210156103ab576001546001600160a01b0316639b8c8dc287878581811061026f5761026f6104aa565b905060200201356040518263ffffffff1660e01b815260040161029491815260200190565b60c06040518083038186803b1580156102ac57600080fd5b505afa9250505080156102dc575060408051601f3d908101601f191682019092526102d99181019061051c565b60015b6103055760008383815181106102f4576102f46104aa565b602002602001018181525050610399565b85806103305750848015610330575061271061032384612af861057f565b61032d919061059e565b84115b15610371578b8b89818110610347576103476104aa565b90506020020135898981518110610360576103606104aa565b602002602001018181525050610392565b6000898981518110610385576103856104aa565b6020026020010181815250505b5050505050505b816103a3816104d6565b925050610244565b5090949350505050565b6001600160a01b03811681146103ca57600080fd5b50565b6000602082840312156103df57600080fd5b81356103ea816103b5565b9392505050565b6000806020838503121561040457600080fd5b823567ffffffffffffffff8082111561041c57600080fd5b818501915085601f83011261043057600080fd5b81358181111561043f57600080fd5b8660208260051b850101111561045457600080fd5b60209290920196919550909350505050565b6020808252825182820181905260009190848201906040850190845b8181101561049e57835183529284019291840191600101610482565b50909695505050505050565b634e487b7160e01b600052603260045260246000fd5b634e487b7160e01b600052601160045260246000fd5b60006000198214156104ea576104ea6104c0565b5060010190565b634e487b7160e01b600052604160045260246000fd5b8051801515811461051757600080fd5b919050565b60008060008060008060c0878903121561053557600080fd5b61053e87610507565b955061054c60208801610507565b945060408701519350606087015192506080870151915060a0870151610571816103b5565b809150509295509295509295565b6000816000190483118215151615610599576105996104c0565b500290565b6000826105bb57634e487b7160e01b600052601260045260246000fd5b50049056fea26469706673582212208a874f797b1014a0813e9e979d881015a1676dcd11bb44d5eef76a33e5ea19db64736f6c63430008090033",
  "linkReferences": {},
  "deployedLinkReferences": {}
}