{
  "_format": "hh-sol-artifact-1",
  "contractName": "PerpHedgingTest",
  "sourceName": "contracts/utils/PerpHedgingTest.sol",
  "abi": [
    {
      "inputs": [
        {
          "internalType": "address",
          "name": "collateralAsset",
          "type": "address"
        }
      ],
      "name": "getBalance",
      "outputs": [
        {
          "internalType": "uint256",
          "name": "",
          "type": "uint256"
        }
      ],
      "stateMutability": "view",
      "type": "function"
    },
    {
      "inputs": [],
      "name": "getDelta",
      "outputs": [
        {
          "internalType": "int256",
          "name": "delta",
          "type": "int256"
        }
      ],
      "stateMutability": "view",
      "type": "function"
    },
    {
      "inputs": [
        {
          "internalType": "int256",
          "name": "_delta",
          "type": "int256"
        }
      ],
      "name": "hedgeDelta",
      "outputs": [
        {
          "internalType": "int256",
          "name": "deltaChange",
          "type": "int256"
        }
      ],
      "stateMutability": "nonpayable",
      "type": "function"
    },
    {
      "inputs": [],
      "name": "perpHedgingReactor",
      "outputs": [
        {
          "internalType": "address",
          "name": "",
          "type": "address"
        }
      ],
      "stateMutability": "view",
      "type": "function"
    },
    {
      "inputs": [
        {
          "internalType": "address",
          "name": "_address",
          "type": "address"
        }
      ],
      "name": "setHedgingReactorAddress",
      "outputs": [],
      "stateMutability": "nonpayable",
      "type": "function"
    },
    {
      "inputs": [],
      "name": "sync",
      "outputs": [],
      "stateMutability": "nonpayable",
      "type": "function"
    },
    {
      "inputs": [],
      "name": "syncAndUpdate",
      "outputs": [],
      "stateMutability": "nonpayable",
      "type": "function"
    },
    {
      "inputs": [],
      "name": "update",
      "outputs": [
        {
          "internalType": "uint256",
          "name": "",
          "type": "uint256"
        }
      ],
      "stateMutability": "nonpayable",
      "type": "function"
    },
    {
      "inputs": [
        {
          "internalType": "uint256",
          "name": "_amount",
          "type": "uint256"
        }
      ],
      "name": "withdraw",
      "outputs": [
        {
          "internalType": "uint256",
          "name": "",
          "type": "uint256"
        }
      ],
      "stateMutability": "nonpayable",
      "type": "function"
    }
  ],
  "bytecode": "0x608060405234801561001057600080fd5b50610530806100206000396000f3fe608060405234801561001057600080fd5b50600436106100835760003560e01c80632e1a7d4d14610088578063550d6d63146100ae5780636cc69817146100d9578063a2e62045146100ee578063bda85007146100f6578063c549176e146100fe578063f8b2cb4f14610106578063fbaac11514610119578063fff6cae91461012c575b600080fd5b61009b610096366004610498565b610134565b6040519081526020015b60405180910390f35b6000546100c1906001600160a01b031681565b6040516001600160a01b0390911681526020016100a5565b6100ec6100e73660046104b1565b6101ab565b005b61009b6101ea565b6100ec610269565b61009b6102c4565b61009b6101143660046104b1565b610318565b61009b610127366004610498565b61035f565b6100ec610391565b60008054604051632e1a7d4d60e01b8152600481018490526001600160a01b0390911690632e1a7d4d906024015b6020604051808303816000875af1158015610181573d6000803e3d6000fd5b505050506040513d601f19601f820116820180604052508101906101a591906104e1565b92915050565b600080546001600160a01b0319166001600160a01b0383161790556101e773a0b86991c6218b36c1d19d4a2e9eb0ce3606eb48826000196103d5565b50565b60008060009054906101000a90046001600160a01b03166001600160a01b031663a2e620456040518163ffffffff1660e01b81526004016020604051808303816000875af1158015610240573d6000803e3d6000fd5b505050506040513d601f19601f8201168201806040525081019061026491906104e1565b905090565b600080546040805163bda8500760e01b815290516001600160a01b039092169263bda850079260048084019382900301818387803b1580156102aa57600080fd5b505af11580156102be573d6000803e3d6000fd5b50505050565b60008060009054906101000a90046001600160a01b03166001600160a01b031663c549176e6040518163ffffffff1660e01b8152600401602060405180830381865afa158015610240573d6000803e3d6000fd5b6040516370a0823160e01b81523060048201526000906001600160a01b038316906370a0823190602401602060405180830381865afa158015610181573d6000803e3d6000fd5b6000805460405163fbaac11560e01b8152600481018490526001600160a01b039091169063fbaac11590602401610162565b600080546040805160016209351760e01b0319815290516001600160a01b039092169263fff6cae99260048084019382900301818387803b1580156102aa57600080fd5b600060405163095ea7b360e01b81526001600160a01b03841660048201528260248201526000806044836000895af191505061041081610451565b6102be5760405162461bcd60e51b815260206004820152600e60248201526d1054141493d59157d1905253115160921b604482015260640160405180910390fd5b60003d8261046357806000803e806000fd5b806020811461047b57801561048c5760009250610491565b816000803e60005115159250610491565b600192505b5050919050565b6000602082840312156104aa57600080fd5b5035919050565b6000602082840312156104c357600080fd5b81356001600160a01b03811681146104da57600080fd5b9392505050565b6000602082840312156104f357600080fd5b505191905056fea26469706673582212209b473e6e9282cde28ea9602194d5862dbaab5688e662ed9f1baf819588a6071b64736f6c634300080e0033",
  "linkReferences": {},
  "deployedLinkReferences": {}
}