{
  "_format": "hh-sol-artifact-1",
  "contractName": "OptionCatalogue",
  "sourceName": "contracts/OptionCatalogue.sol",
  "abi": [
    {
      "inputs": [
        {
          "internalType": "address",
          "name": "_authority",
          "type": "address"
        },
        {
          "internalType": "address",
          "name": "_collateralAsset",
          "type": "address"
        }
      ],
      "stateMutability": "nonpayable",
      "type": "constructor"
    },
    {
      "inputs": [],
      "name": "InvalidExpiry",
      "type": "error"
    },
    {
      "inputs": [],
      "name": "UNAUTHORIZED",
      "type": "error"
    },
    {
      "inputs": [],
      "name": "UnapprovedSeries",
      "type": "error"
    },
    {
      "anonymous": false,
      "inputs": [
        {
          "indexed": false,
          "internalType": "contract IAuthority",
          "name": "authority",
          "type": "address"
        }
      ],
      "name": "AuthorityUpdated",
      "type": "event"
    },
    {
      "anonymous": false,
      "inputs": [
        {
          "indexed": true,
          "internalType": "bytes32",
          "name": "optionHash",
          "type": "bytes32"
        },
        {
          "indexed": false,
          "internalType": "uint64",
          "name": "expiration",
          "type": "uint64"
        },
        {
          "indexed": false,
          "internalType": "uint128",
          "name": "strike",
          "type": "uint128"
        },
        {
          "indexed": false,
          "internalType": "bool",
          "name": "isPut",
          "type": "bool"
        },
        {
          "indexed": false,
          "internalType": "bool",
          "name": "isBuyable",
          "type": "bool"
        },
        {
          "indexed": false,
          "internalType": "bool",
          "name": "isSellable",
          "type": "bool"
        }
      ],
      "name": "SeriesAltered",
      "type": "event"
    },
    {
      "anonymous": false,
      "inputs": [
        {
          "indexed": true,
          "internalType": "bytes32",
          "name": "optionHash",
          "type": "bytes32"
        },
        {
          "indexed": false,
          "internalType": "uint64",
          "name": "expiration",
          "type": "uint64"
        },
        {
          "indexed": false,
          "internalType": "uint128",
          "name": "strike",
          "type": "uint128"
        },
        {
          "indexed": false,
          "internalType": "bool",
          "name": "isPut",
          "type": "bool"
        },
        {
          "indexed": false,
          "internalType": "bool",
          "name": "isBuyable",
          "type": "bool"
        },
        {
          "indexed": false,
          "internalType": "bool",
          "name": "isSellable",
          "type": "bool"
        }
      ],
      "name": "SeriesApproved",
      "type": "event"
    },
    {
      "inputs": [
        {
          "internalType": "bytes32",
          "name": "oHash",
          "type": "bytes32"
        }
      ],
      "name": "approvedOptions",
      "outputs": [
        {
          "internalType": "bool",
          "name": "",
          "type": "bool"
        }
      ],
      "stateMutability": "view",
      "type": "function"
    },
    {
      "inputs": [],
      "name": "authority",
      "outputs": [
        {
          "internalType": "contract IAuthority",
          "name": "",
          "type": "address"
        }
      ],
      "stateMutability": "view",
      "type": "function"
    },
    {
      "inputs": [
        {
          "components": [
            {
              "internalType": "uint64",
              "name": "expiration",
              "type": "uint64"
            },
            {
              "internalType": "uint128",
              "name": "strike",
              "type": "uint128"
            },
            {
              "internalType": "bool",
              "name": "isPut",
              "type": "bool"
            },
            {
              "internalType": "bool",
              "name": "isBuyable",
              "type": "bool"
            },
            {
              "internalType": "bool",
              "name": "isSellable",
              "type": "bool"
            }
          ],
          "internalType": "struct Types.Option[]",
          "name": "options",
          "type": "tuple[]"
        }
      ],
      "name": "changeOptionBuyOrSell",
      "outputs": [],
      "stateMutability": "nonpayable",
      "type": "function"
    },
    {
      "inputs": [],
      "name": "collateralAsset",
      "outputs": [
        {
          "internalType": "address",
          "name": "",
          "type": "address"
        }
      ],
      "stateMutability": "view",
      "type": "function"
    },
    {
      "inputs": [
        {
          "internalType": "uint256",
          "name": "",
          "type": "uint256"
        }
      ],
      "name": "expirations",
      "outputs": [
        {
          "internalType": "uint64",
          "name": "",
          "type": "uint64"
        }
      ],
      "stateMutability": "view",
      "type": "function"
    },
    {
      "inputs": [],
      "name": "getExpirations",
      "outputs": [
        {
          "internalType": "uint64[]",
          "name": "",
          "type": "uint64[]"
        }
      ],
      "stateMutability": "view",
      "type": "function"
    },
    {
      "inputs": [
        {
          "internalType": "uint64",
          "name": "expiration",
          "type": "uint64"
        },
        {
          "internalType": "bool",
          "name": "isPut",
          "type": "bool"
        }
      ],
      "name": "getOptionDetails",
      "outputs": [
        {
          "internalType": "uint128[]",
          "name": "",
          "type": "uint128[]"
        }
      ],
      "stateMutability": "view",
      "type": "function"
    },
    {
      "inputs": [
        {
          "internalType": "bytes32",
          "name": "oHash",
          "type": "bytes32"
        }
      ],
      "name": "getOptionStores",
      "outputs": [
        {
          "components": [
            {
              "internalType": "bool",
              "name": "approvedOption",
              "type": "bool"
            },
            {
              "internalType": "bool",
              "name": "isBuyable",
              "type": "bool"
            },
            {
              "internalType": "bool",
              "name": "isSellable",
              "type": "bool"
            }
          ],
          "internalType": "struct OptionCatalogue.OptionStores",
          "name": "",
          "type": "tuple"
        }
      ],
      "stateMutability": "view",
      "type": "function"
    },
    {
      "inputs": [
        {
          "internalType": "bytes32",
          "name": "oHash",
          "type": "bytes32"
        }
      ],
      "name": "isBuyable",
      "outputs": [
        {
          "internalType": "bool",
          "name": "",
          "type": "bool"
        }
      ],
      "stateMutability": "view",
      "type": "function"
    },
    {
      "inputs": [
        {
          "internalType": "bytes32",
          "name": "oHash",
          "type": "bytes32"
        }
      ],
      "name": "isSellable",
      "outputs": [
        {
          "internalType": "bool",
          "name": "",
          "type": "bool"
        }
      ],
      "stateMutability": "view",
      "type": "function"
    },
    {
      "inputs": [
        {
          "components": [
            {
              "internalType": "uint64",
              "name": "expiration",
              "type": "uint64"
            },
            {
              "internalType": "uint128",
              "name": "strike",
              "type": "uint128"
            },
            {
              "internalType": "bool",
              "name": "isPut",
              "type": "bool"
            },
            {
              "internalType": "bool",
              "name": "isBuyable",
              "type": "bool"
            },
            {
              "internalType": "bool",
              "name": "isSellable",
              "type": "bool"
            }
          ],
          "internalType": "struct Types.Option[]",
          "name": "options",
          "type": "tuple[]"
        }
      ],
      "name": "issueNewSeries",
      "outputs": [],
      "stateMutability": "nonpayable",
      "type": "function"
    },
    {
      "inputs": [
        {
          "internalType": "uint256",
          "name": "",
          "type": "uint256"
        },
        {
          "internalType": "bool",
          "name": "",
          "type": "bool"
        },
        {
          "internalType": "uint256",
          "name": "",
          "type": "uint256"
        }
      ],
      "name": "optionDetails",
      "outputs": [
        {
          "internalType": "uint128",
          "name": "",
          "type": "uint128"
        }
      ],
      "stateMutability": "view",
      "type": "function"
    },
    {
      "inputs": [
        {
          "internalType": "bytes32",
          "name": "",
          "type": "bytes32"
        }
      ],
      "name": "optionStores",
      "outputs": [
        {
          "internalType": "bool",
          "name": "approvedOption",
          "type": "bool"
        },
        {
          "internalType": "bool",
          "name": "isBuyable",
          "type": "bool"
        },
        {
          "internalType": "bool",
          "name": "isSellable",
          "type": "bool"
        }
      ],
      "stateMutability": "view",
      "type": "function"
    },
    {
      "inputs": [
        {
          "internalType": "contract IAuthority",
          "name": "_newAuthority",
          "type": "address"
        }
      ],
      "name": "setAuthority",
      "outputs": [],
      "stateMutability": "nonpayable",
      "type": "function"
    }
  ],
  "bytecode": "0x60a060405234801561001057600080fd5b506040516113c73803806113c783398101604081905261002f916100b1565b600080546001600160a01b0319166001600160a01b03841690811790915560405190815282907f2f658b440c35314f52658ea8a740e05b284cdc84dc9ae01e891f21b8933e7cad9060200160405180910390a1506001600160a01b0316608052506100e4565b80516001600160a01b03811681146100ac57600080fd5b919050565b600080604083850312156100c457600080fd5b6100cd83610095565b91506100db60208401610095565b90509250929050565b6080516112ba61010d6000396000818161023d015281816103d8015261075e01526112ba6000f3fe608060405234801561001057600080fd5b50600436106100ca5760003560e01c8063948d6e371161007c578063948d6e37146101a8578063aabaecd614610238578063bf7e214f14610277578063c251ddf81461028a578063c71c5d0a146102b5578063dd1c6baa146102d5578063f5fc79e11461030057600080fd5b8063066966f3146100cf5780631e2d78891461010d5780634574991514610135578063491fa4a41461014a57806356e9d1e41461015d5780637a9e5e4b146101725780637b4c08f914610185575b600080fd5b6100f86100dd366004610ce6565b60009081526001602052604090205462010000900460ff1690565b60405190151581526020015b60405180910390f35b6100f861011b366004610ce6565b600090815260016020526040902054610100900460ff1690565b610148610143366004610d99565b610355565b005b610148610158366004610d99565b6106db565b6101656108de565b6040516101049190610eb2565b610148610180366004610f17565b610968565b6100f8610193366004610ce6565b60009081526001602052604090205460ff1690565b6102106101b6366004610ce6565b6040805160608082018352600080835260208084018290529284018190529384526001825292829020825193840183525460ff80821615158552610100820481161515928501929092526201000090041615159082015290565b6040805182511515815260208084015115159082015291810151151590820152606001610104565b61025f7f000000000000000000000000000000000000000000000000000000000000000081565b6040516001600160a01b039091168152602001610104565b60005461025f906001600160a01b031681565b61029d610298366004610ce6565b6109c4565b6040516001600160401b039091168152602001610104565b6102c86102c3366004610f3b565b610a01565b6040516101049190610f6e565b6102e86102e3366004610faf565b610aab565b6040516001600160801b039091168152602001610104565b61033661030e366004610ce6565b60016020526000908152604090205460ff808216916101008104821691620100009091041683565b6040805193151584529115156020840152151590820152606001610104565b61035d610b04565b805160005b818110156106d657600083828151811061037e5761037e610fe4565b602002602001015190506000600860126103989190611010565b6103a390600a611117565b60208301516040516351c4ae7360e11b815273__$9200b285a0f372c982db0cf335fd1ba5de$__9163a3895ce69161040091907f000000000000000000000000000000000000000000000000000000000000000090600401611126565b602060405180830381865af415801561041d573d6000803e3d6000fd5b505050506040513d601f19601f820116820180604052508101906104419190611148565b61044b9190611161565b90506201518061708083600001516104639190611180565b61046d91906111a8565b6001600160401b0316156104935760405162d36c8560e81b815260040160405180910390fd5b600082600001518284604001516040516020016104b2939291906111dc565b60408051601f1981840301815291815281516020928301206000818152600190935291205490915060ff16156104ea575050506106c4565b60408051606080820183526001808352908601511515602080840191825260808801511515848601908152600087815284835286812095518654945192511515620100000262ff0000199315156101000261ff00199215159290921661ffff199096169590951717919091169290921790935586516001600160401b0316815260038352838120918152915220541580156105a7575082516001600160401b03166000908152600360209081526040808320838052909152902054155b1561060d578251600280546001810182556000919091527f405787fa12a823e0f2b7631cc41b3ba8828b3321ca811111fa75cd3aa3bb5ace6004820401805460039092166008026101000a6001600160401b038181021990931692909316929092021790555b82516001600160401b031660009081526003602090815260408083208187018051151585529083528184208054600180820183559186529390942060028404018054949093166010026101000a6001600160801b038181021990951694871602939093179091558451915160608601516080870151925185947fb3cde67957df62b50569520be360938d1647b691ee700f1bf5f238d1cb24661c946106b89491938993909190611213565b60405180910390a25050505b806106ce8161124e565b915050610362565b505050565b6106e3610b04565b805160005b818110156106d657600083828151811061070457610704610fe4565b6020026020010151905060006008601261071e9190611010565b61072990600a611117565b60208301516040516351c4ae7360e11b815273__$9200b285a0f372c982db0cf335fd1ba5de$__9163a3895ce69161078691907f000000000000000000000000000000000000000000000000000000000000000090600401611126565b602060405180830381865af41580156107a3573d6000803e3d6000fd5b505050506040513d601f19601f820116820180604052508101906107c79190611148565b6107d19190611161565b9050600082600001518284604001516040516020016107f2939291906111dc565b60408051601f1981840301815291815281516020928301206000818152600190935291205490915060ff16156108af57606083018051600083815260016020526040908190208054608088015162ffff00199091166101009415159490940262ff000019169390931762010000841515021790558551818701519351915185947f97dc283f5985b19ca03303b41feda757978c2f883145da9f3ec2cb449407e12d946108a2948993909190611213565b60405180910390a26108c8565b604051633c7b394760e21b815260040160405180910390fd5b50505080806108d69061124e565b9150506106e8565b6060600280548060200260200160405190810160405280929190818152602001828054801561095e57602002820191906000526020600020906000905b82829054906101000a90046001600160401b03166001600160401b03168152602001906008019060208260070104928301926001038202915080841161091b5790505b5050505050905090565b610970610c40565b600080546001600160a01b0319166001600160a01b0383169081179091556040519081527f2f658b440c35314f52658ea8a740e05b284cdc84dc9ae01e891f21b8933e7cad9060200160405180910390a150565b600281815481106109d457600080fd5b9060005260206000209060049182820401919006600802915054906101000a90046001600160401b031681565b6001600160401b03821660009081526003602090815260408083208415158452825291829020805483518184028101840190945280845260609392830182828015610a9d57602002820191906000526020600020906000905b82829054906101000a90046001600160801b03166001600160801b031681526020019060100190602082600f01049283019260010382029150808411610a5a5790505b505050505090505b92915050565b60036020528260005260406000206020528160005260406000208181548110610ad357600080fd5b906000526020600020906002918282040191900660100292509250509054906101000a90046001600160801b031681565b60008054906101000a90046001600160a01b03166001600160a01b031663481c6a756040518163ffffffff1660e01b8152600401602060405180830381865afa158015610b55573d6000803e3d6000fd5b505050506040513d601f19601f82011682018060405250810190610b799190611267565b6001600160a01b0316336001600160a01b031614158015610c20575060008054906101000a90046001600160a01b03166001600160a01b0316630c340a246040518163ffffffff1660e01b8152600401602060405180830381865afa158015610be6573d6000803e3d6000fd5b505050506040513d601f19601f82011682018060405250810190610c0a9190611267565b6001600160a01b0316336001600160a01b031614155b15610c3e5760405163075fd2b160e01b815260040160405180910390fd5b565b60008054906101000a90046001600160a01b03166001600160a01b0316630c340a246040518163ffffffff1660e01b8152600401602060405180830381865afa158015610c91573d6000803e3d6000fd5b505050506040513d601f19601f82011682018060405250810190610cb59190611267565b6001600160a01b0316336001600160a01b031614610c3e5760405163075fd2b160e01b815260040160405180910390fd5b600060208284031215610cf857600080fd5b5035919050565b634e487b7160e01b600052604160045260246000fd5b60405160a081016001600160401b0381118282101715610d3757610d37610cff565b60405290565b604051601f8201601f191681016001600160401b0381118282101715610d6557610d65610cff565b604052919050565b80356001600160401b0381168114610d8457600080fd5b919050565b80358015158114610d8457600080fd5b60006020808385031215610dac57600080fd5b82356001600160401b0380821115610dc357600080fd5b818501915085601f830112610dd757600080fd5b813581811115610de957610de9610cff565b610df7848260051b01610d3d565b818152848101925060a0918202840185019188831115610e1657600080fd5b938501935b82851015610ea65780858a031215610e335760008081fd5b610e3b610d15565b610e4486610d6d565b8152858701356001600160801b0381168114610e605760008081fd5b818801526040610e71878201610d89565b908201526060610e82878201610d89565b908201526080610e93878201610d89565b9082015284529384019392850192610e1b565b50979650505050505050565b6020808252825182820181905260009190848201906040850190845b81811015610ef35783516001600160401b031683529284019291840191600101610ece565b50909695505050505050565b6001600160a01b0381168114610f1457600080fd5b50565b600060208284031215610f2957600080fd5b8135610f3481610eff565b9392505050565b60008060408385031215610f4e57600080fd5b610f5783610d6d565b9150610f6560208401610d89565b90509250929050565b6020808252825182820181905260009190848201906040850190845b81811015610ef35783516001600160801b031683529284019291840191600101610f8a565b600080600060608486031215610fc457600080fd5b83359250610fd460208501610d89565b9150604084013590509250925092565b634e487b7160e01b600052603260045260246000fd5b634e487b7160e01b600052601160045260246000fd5b600060ff821660ff84168082101561102a5761102a610ffa565b90039392505050565b600181815b8085111561106e57816000190482111561105457611054610ffa565b8085161561106157918102915b93841c9390800290611038565b509250929050565b60008261108557506001610aa5565b8161109257506000610aa5565b81600181146110a857600281146110b2576110ce565b6001915050610aa5565b60ff8411156110c3576110c3610ffa565b50506001821b610aa5565b5060208310610133831016604e8410600b84101617156110f1575081810a610aa5565b6110fb8383611033565b806000190482111561110f5761110f610ffa565b029392505050565b6000610f3460ff841683611076565b6001600160801b039290921682526001600160a01b0316602082015260400190565b60006020828403121561115a57600080fd5b5051919050565b600081600019048311821515161561117b5761117b610ffa565b500290565b60006001600160401b03838116908316818110156111a0576111a0610ffa565b039392505050565b60006001600160401b03808416806111d057634e487b7160e01b600052601260045260246000fd5b92169190910692915050565b60c09390931b6001600160c01b031916835260809190911b6001600160801b0319166008830152151560f81b601882015260190190565b6001600160401b039590951685526001600160801b039390931660208501529015156040840152151560608301521515608082015260a00190565b60006001820161126057611260610ffa565b5060010190565b60006020828403121561127957600080fd5b8151610f3481610eff56fea26469706673582212203ab70f2a91d6d7418feca585c442eca246d734d949539ced6b7ff210024bc4d964736f6c634300080e0033",
  "linkReferences": {
    "contracts/libraries/OptionsCompute.sol": {
      "OptionsCompute": [
        {
          "length": 20,
          "start": 1220
        },
        {
          "length": 20,
          "start": 2122
        }
      ]
    }
  },
  "deployedLinkReferences": {
    "contracts/libraries/OptionsCompute.sol": {
      "OptionsCompute": [
        {
          "length": 20,
          "start": 951
        },
        {
          "length": 20,
          "start": 1853
        }
      ]
    }
  }
}