{
  "_format": "hh-sol-artifact-1",
  "contractName": "MockChainlinkAggregator",
  "sourceName": "contracts/mocks/MockChainlinkAggregator.sol",
  "abi": [
    {
      "inputs": [],
      "name": "decimals",
      "outputs": [
        {
          "internalType": "uint256",
          "name": "",
          "type": "uint256"
        }
      ],
      "stateMutability": "view",
      "type": "function"
    },
    {
      "inputs": [
        {
          "internalType": "uint80",
          "name": "_roundId",
          "type": "uint80"
        }
      ],
      "name": "getRoundData",
      "outputs": [
        {
          "internalType": "uint80",
          "name": "roundId",
          "type": "uint80"
        },
        {
          "internalType": "int256",
          "name": "answer",
          "type": "int256"
        },
        {
          "internalType": "uint256",
          "name": "startedAt",
          "type": "uint256"
        },
        {
          "internalType": "uint256",
          "name": "updatedAt",
          "type": "uint256"
        },
        {
          "internalType": "uint80",
          "name": "answeredInRound",
          "type": "uint80"
        }
      ],
      "stateMutability": "view",
      "type": "function"
    },
    {
      "inputs": [],
      "name": "latestAnswer",
      "outputs": [
        {
          "internalType": "int256",
          "name": "",
          "type": "int256"
        }
      ],
      "stateMutability": "view",
      "type": "function"
    },
    {
      "inputs": [],
      "name": "latestRound",
      "outputs": [
        {
          "internalType": "uint80",
          "name": "",
          "type": "uint80"
        }
      ],
      "stateMutability": "view",
      "type": "function"
    },
    {
      "inputs": [],
      "name": "latestRoundData",
      "outputs": [
        {
          "internalType": "uint80",
          "name": "roundId",
          "type": "uint80"
        },
        {
          "internalType": "int256",
          "name": "answer",
          "type": "int256"
        },
        {
          "internalType": "uint256",
          "name": "startedAt",
          "type": "uint256"
        },
        {
          "internalType": "uint256",
          "name": "updatedAt",
          "type": "uint256"
        },
        {
          "internalType": "uint80",
          "name": "answeredInRound",
          "type": "uint80"
        }
      ],
      "stateMutability": "view",
      "type": "function"
    },
    {
      "inputs": [
        {
          "internalType": "int256",
          "name": "_answer",
          "type": "int256"
        }
      ],
      "name": "setLatestAnswer",
      "outputs": [],
      "stateMutability": "nonpayable",
      "type": "function"
    },
    {
      "inputs": [
        {
          "internalType": "uint256",
          "name": "_roundId",
          "type": "uint256"
        },
        {
          "internalType": "int256",
          "name": "_answer",
          "type": "int256"
        }
      ],
      "name": "setRoundAnswer",
      "outputs": [],
      "stateMutability": "nonpayable",
      "type": "function"
    },
    {
      "inputs": [
        {
          "internalType": "uint256",
          "name": "_roundId",
          "type": "uint256"
        }
      ],
      "name": "setRoundTimestamp",
      "outputs": [],
      "stateMutability": "nonpayable",
      "type": "function"
    }
  ],
  "bytecode": "0x6080604052600860005534801561001557600080fd5b50610294806100256000396000f3fe608060405234801561001057600080fd5b50600436106100785760003560e01c806304ea97b01461007d5780631ef4026b1461009257806326b17a08146100b3578063313ce567146100d357806350d25bcd146100ef578063668a0f02146100f75780639a6fc8f514610106578063feaf968c1461014d575b600080fd5b61009061008b3660046101f3565b600355565b005b6100906100a03660046101f3565b6000908152600160205260409020429055565b6100906100c136600461020c565b60009182526002602052604090912055565b6100dc60005481565b6040519081526020015b60405180910390f35b6003546100dc565b604051600181526020016100e6565b61011961011436600461022e565b61015b565b604080516001600160501b03968716815260208101959095528401929092526060830152909116608082015260a0016100e6565b600354600190428083610119565b6001600160501b03811660009081526001602052604081205481908190819081906101be5760405162461bcd60e51b815260206004820152600f60248201526e139bc819185d18481c1c995cd95b9d608a1b604482015260640160405180910390fd5b505050506001600160501b03821660009081526002602090815260408083205460019092529091205492939092915081908490565b60006020828403121561020557600080fd5b5035919050565b6000806040838503121561021f57600080fd5b50508035926020909101359150565b60006020828403121561024057600080fd5b81356001600160501b038116811461025757600080fd5b939250505056fea2646970667358221220bac5c630deac1edc2d2411e63e35acddb94e53e1a31cf8dc671100f5405cd1cf64736f6c63430008090033",
  "linkReferences": {},
  "deployedLinkReferences": {}
}