{
  "_format": "hh-sol-artifact-1",
  "contractName": "AlphaPortfolioValuesFeed",
  "sourceName": "contracts/AlphaPortfolioValuesFeed.sol",
  "abi": [
    {
      "inputs": [
        {
          "internalType": "address",
          "name": "_authority",
          "type": "address"
        },
        {
          "internalType": "uint256",
          "name": "_maxNetDhvExposure",
          "type": "uint256"
        }
      ],
      "stateMutability": "nonpayable",
      "type": "constructor"
    },
    {
      "inputs": [],
      "name": "IncorrectSeriesToRemove",
      "type": "error"
    },
    {
      "inputs": [],
      "name": "MaxNetDhvExposureExceeded",
      "type": "error"
    },
    {
      "inputs": [],
      "name": "NoShortPositions",
      "type": "error"
    },
    {
      "inputs": [],
      "name": "NoVaultForShortPositions",
      "type": "error"
    },
    {
      "inputs": [],
      "name": "NotKeeper",
      "type": "error"
    },
    {
      "inputs": [
        {
          "internalType": "uint256",
          "name": "index",
          "type": "uint256"
        },
        {
          "internalType": "address",
          "name": "seriesAddress",
          "type": "address"
        }
      ],
      "name": "OptionHasExpiredInStores",
      "type": "error"
    },
    {
      "inputs": [],
      "name": "PRBMathSD59x18__AbsInputTooSmall",
      "type": "error"
    },
    {
      "inputs": [
        {
          "internalType": "uint256",
          "name": "prod1",
          "type": "uint256"
        }
      ],
      "name": "PRBMath__MulDivFixedPointOverflow",
      "type": "error"
    },
    {
      "inputs": [
        {
          "internalType": "uint256",
          "name": "prod1",
          "type": "uint256"
        },
        {
          "internalType": "uint256",
          "name": "denominator",
          "type": "uint256"
        }
      ],
      "name": "PRBMath__MulDivOverflow",
      "type": "error"
    },
    {
      "inputs": [],
      "name": "SeriesNotExpired",
      "type": "error"
    },
    {
      "inputs": [],
      "name": "UNAUTHORIZED",
      "type": "error"
    },
    {
      "anonymous": false,
      "inputs": [
        {
          "indexed": false,
          "internalType": "contract IAuthority",
          "name": "authority",
          "type": "address"
        }
      ],
      "name": "AuthorityUpdated",
      "type": "event"
    },
    {
      "anonymous": false,
      "inputs": [
        {
          "indexed": true,
          "internalType": "address",
          "name": "underlying",
          "type": "address"
        },
        {
          "indexed": true,
          "internalType": "address",
          "name": "strike",
          "type": "address"
        },
        {
          "indexed": false,
          "internalType": "int256",
          "name": "delta",
          "type": "int256"
        },
        {
          "indexed": false,
          "internalType": "int256",
          "name": "gamma",
          "type": "int256"
        },
        {
          "indexed": false,
          "internalType": "int256",
          "name": "vega",
          "type": "int256"
        },
        {
          "indexed": false,
          "internalType": "int256",
          "name": "theta",
          "type": "int256"
        },
        {
          "indexed": false,
          "internalType": "int256",
          "name": "callPutsValue",
          "type": "int256"
        }
      ],
      "name": "DataFullfilled",
      "type": "event"
    },
    {
      "anonymous": false,
      "inputs": [
        {
          "indexed": false,
          "internalType": "uint256",
          "name": "maxNetDhvExposure",
          "type": "uint256"
        }
      ],
      "name": "MaxNetDhvExposureUpdated",
      "type": "event"
    },
    {
      "anonymous": false,
      "inputs": [
        {
          "indexed": false,
          "internalType": "address",
          "name": "_underlying",
          "type": "address"
        },
        {
          "indexed": false,
          "internalType": "address",
          "name": "_strike",
          "type": "address"
        }
      ],
      "name": "RequestedUpdate",
      "type": "event"
    },
    {
      "anonymous": false,
      "inputs": [
        {
          "indexed": false,
          "internalType": "address",
          "name": "seriesAddress",
          "type": "address"
        },
        {
          "indexed": false,
          "internalType": "int256",
          "name": "shortExposure",
          "type": "int256"
        },
        {
          "indexed": false,
          "internalType": "int256",
          "name": "longExposure",
          "type": "int256"
        },
        {
          "components": [
            {
              "internalType": "uint64",
              "name": "expiration",
              "type": "uint64"
            },
            {
              "internalType": "uint128",
              "name": "strike",
              "type": "uint128"
            },
            {
              "internalType": "bool",
              "name": "isPut",
              "type": "bool"
            },
            {
              "internalType": "address",
              "name": "underlying",
              "type": "address"
            },
            {
              "internalType": "address",
              "name": "strikeAsset",
              "type": "address"
            },
            {
              "internalType": "address",
              "name": "collateral",
              "type": "address"
            }
          ],
          "indexed": false,
          "internalType": "struct Types.OptionSeries",
          "name": "optionSeries",
          "type": "tuple"
        }
      ],
      "name": "StoresUpdated",
      "type": "event"
    },
    {
      "inputs": [
        {
          "internalType": "address",
          "name": "_series",
          "type": "address"
        }
      ],
      "name": "accountLiquidatedSeries",
      "outputs": [],
      "stateMutability": "nonpayable",
      "type": "function"
    },
    {
      "inputs": [
        {
          "internalType": "uint256",
          "name": "_i",
          "type": "uint256"
        }
      ],
      "name": "addressAtIndexInSet",
      "outputs": [
        {
          "internalType": "address",
          "name": "",
          "type": "address"
        }
      ],
      "stateMutability": "view",
      "type": "function"
    },
    {
      "inputs": [],
      "name": "addressSetLength",
      "outputs": [
        {
          "internalType": "uint256",
          "name": "",
          "type": "uint256"
        }
      ],
      "stateMutability": "view",
      "type": "function"
    },
    {
      "inputs": [],
      "name": "authority",
      "outputs": [
        {
          "internalType": "contract IAuthority",
          "name": "",
          "type": "address"
        }
      ],
      "stateMutability": "view",
      "type": "function"
    },
    {
      "inputs": [
        {
          "internalType": "address",
          "name": "_series",
          "type": "address"
        }
      ],
      "name": "cleanLooperManually",
      "outputs": [],
      "stateMutability": "nonpayable",
      "type": "function"
    },
    {
      "inputs": [
        {
          "internalType": "address",
          "name": "_underlying",
          "type": "address"
        },
        {
          "internalType": "address",
          "name": "_strikeAsset",
          "type": "address"
        }
      ],
      "name": "fulfill",
      "outputs": [],
      "stateMutability": "nonpayable",
      "type": "function"
    },
    {
      "inputs": [],
      "name": "getAddressSet",
      "outputs": [
        {
          "internalType": "address[]",
          "name": "",
          "type": "address[]"
        }
      ],
      "stateMutability": "view",
      "type": "function"
    },
    {
      "inputs": [
        {
          "internalType": "address",
          "name": "underlying",
          "type": "address"
        },
        {
          "internalType": "address",
          "name": "strike",
          "type": "address"
        }
      ],
      "name": "getPortfolioValues",
      "outputs": [
        {
          "components": [
            {
              "internalType": "int256",
              "name": "delta",
              "type": "int256"
            },
            {
              "internalType": "int256",
              "name": "gamma",
              "type": "int256"
            },
            {
              "internalType": "int256",
              "name": "vega",
              "type": "int256"
            },
            {
              "internalType": "int256",
              "name": "theta",
              "type": "int256"
            },
            {
              "internalType": "int256",
              "name": "callPutsValue",
              "type": "int256"
            },
            {
              "internalType": "uint256",
              "name": "timestamp",
              "type": "uint256"
            },
            {
              "internalType": "uint256",
              "name": "spotPrice",
              "type": "uint256"
            }
          ],
          "internalType": "struct Types.PortfolioValues",
          "name": "",
          "type": "tuple"
        }
      ],
      "stateMutability": "view",
      "type": "function"
    },
    {
      "inputs": [
        {
          "internalType": "address",
          "name": "",
          "type": "address"
        }
      ],
      "name": "handler",
      "outputs": [
        {
          "internalType": "bool",
          "name": "",
          "type": "bool"
        }
      ],
      "stateMutability": "view",
      "type": "function"
    },
    {
      "inputs": [
        {
          "internalType": "address",
          "name": "_a",
          "type": "address"
        }
      ],
      "name": "isAddressInSet",
      "outputs": [
        {
          "internalType": "bool",
          "name": "",
          "type": "bool"
        }
      ],
      "stateMutability": "view",
      "type": "function"
    },
    {
      "inputs": [
        {
          "internalType": "address",
          "name": "",
          "type": "address"
        }
      ],
      "name": "keeper",
      "outputs": [
        {
          "internalType": "bool",
          "name": "",
          "type": "bool"
        }
      ],
      "stateMutability": "view",
      "type": "function"
    },
    {
      "inputs": [],
      "name": "liquidityPool",
      "outputs": [
        {
          "internalType": "contract ILiquidityPool",
          "name": "",
          "type": "address"
        }
      ],
      "stateMutability": "view",
      "type": "function"
    },
    {
      "inputs": [],
      "name": "maxNetDhvExposure",
      "outputs": [
        {
          "internalType": "uint256",
          "name": "",
          "type": "uint256"
        }
      ],
      "stateMutability": "view",
      "type": "function"
    },
    {
      "inputs": [
        {
          "internalType": "contract IPortfolioValuesFeed",
          "name": "_migrateContract",
          "type": "address"
        }
      ],
      "name": "migrate",
      "outputs": [],
      "stateMutability": "nonpayable",
      "type": "function"
    },
    {
      "inputs": [
        {
          "internalType": "bytes32",
          "name": "",
          "type": "bytes32"
        }
      ],
      "name": "netDhvExposure",
      "outputs": [
        {
          "internalType": "int256",
          "name": "",
          "type": "int256"
        }
      ],
      "stateMutability": "view",
      "type": "function"
    },
    {
      "inputs": [],
      "name": "protocol",
      "outputs": [
        {
          "internalType": "contract Protocol",
          "name": "",
          "type": "address"
        }
      ],
      "stateMutability": "view",
      "type": "function"
    },
    {
      "inputs": [
        {
          "internalType": "address",
          "name": "_underlying",
          "type": "address"
        },
        {
          "internalType": "address",
          "name": "_strike",
          "type": "address"
        }
      ],
      "name": "requestPortfolioData",
      "outputs": [
        {
          "internalType": "bytes32",
          "name": "id",
          "type": "bytes32"
        }
      ],
      "stateMutability": "nonpayable",
      "type": "function"
    },
    {
      "inputs": [],
      "name": "rfr",
      "outputs": [
        {
          "internalType": "uint256",
          "name": "",
          "type": "uint256"
        }
      ],
      "stateMutability": "view",
      "type": "function"
    },
    {
      "inputs": [
        {
          "internalType": "contract IAuthority",
          "name": "_newAuthority",
          "type": "address"
        }
      ],
      "name": "setAuthority",
      "outputs": [],
      "stateMutability": "nonpayable",
      "type": "function"
    },
    {
      "inputs": [
        {
          "internalType": "address",
          "name": "_handler",
          "type": "address"
        },
        {
          "internalType": "bool",
          "name": "_auth",
          "type": "bool"
        }
      ],
      "name": "setHandler",
      "outputs": [],
      "stateMutability": "nonpayable",
      "type": "function"
    },
    {
      "inputs": [
        {
          "internalType": "address",
          "name": "_keeper",
          "type": "address"
        },
        {
          "internalType": "bool",
          "name": "_auth",
          "type": "bool"
        }
      ],
      "name": "setKeeper",
      "outputs": [],
      "stateMutability": "nonpayable",
      "type": "function"
    },
    {
      "inputs": [
        {
          "internalType": "address",
          "name": "_liquidityPool",
          "type": "address"
        }
      ],
      "name": "setLiquidityPool",
      "outputs": [],
      "stateMutability": "nonpayable",
      "type": "function"
    },
    {
      "inputs": [
        {
          "internalType": "uint256",
          "name": "_maxNetDhvExposure",
          "type": "uint256"
        }
      ],
      "name": "setMaxNetDhvExposure",
      "outputs": [],
      "stateMutability": "nonpayable",
      "type": "function"
    },
    {
      "inputs": [
        {
          "internalType": "address",
          "name": "_protocol",
          "type": "address"
        }
      ],
      "name": "setProtocol",
      "outputs": [],
      "stateMutability": "nonpayable",
      "type": "function"
    },
    {
      "inputs": [
        {
          "internalType": "uint256",
          "name": "_rfr",
          "type": "uint256"
        }
      ],
      "name": "setRFR",
      "outputs": [],
      "stateMutability": "nonpayable",
      "type": "function"
    },
    {
      "inputs": [
        {
          "internalType": "address",
          "name": "",
          "type": "address"
        }
      ],
      "name": "storesForAddress",
      "outputs": [
        {
          "components": [
            {
              "internalType": "uint64",
              "name": "expiration",
              "type": "uint64"
            },
            {
              "internalType": "uint128",
              "name": "strike",
              "type": "uint128"
            },
            {
              "internalType": "bool",
              "name": "isPut",
              "type": "bool"
            },
            {
              "internalType": "address",
              "name": "underlying",
              "type": "address"
            },
            {
              "internalType": "address",
              "name": "strikeAsset",
              "type": "address"
            },
            {
              "internalType": "address",
              "name": "collateral",
              "type": "address"
            }
          ],
          "internalType": "struct Types.OptionSeries",
          "name": "optionSeries",
          "type": "tuple"
        },
        {
          "internalType": "int256",
          "name": "shortExposure",
          "type": "int256"
        },
        {
          "internalType": "int256",
          "name": "longExposure",
          "type": "int256"
        }
      ],
      "stateMutability": "view",
      "type": "function"
    },
    {
      "inputs": [],
      "name": "syncLooper",
      "outputs": [],
      "stateMutability": "nonpayable",
      "type": "function"
    },
    {
      "inputs": [
        {
          "components": [
            {
              "internalType": "uint64",
              "name": "expiration",
              "type": "uint64"
            },
            {
              "internalType": "uint128",
              "name": "strike",
              "type": "uint128"
            },
            {
              "internalType": "bool",
              "name": "isPut",
              "type": "bool"
            },
            {
              "internalType": "address",
              "name": "underlying",
              "type": "address"
            },
            {
              "internalType": "address",
              "name": "strikeAsset",
              "type": "address"
            },
            {
              "internalType": "address",
              "name": "collateral",
              "type": "address"
            }
          ],
          "internalType": "struct Types.OptionSeries",
          "name": "_optionSeries",
          "type": "tuple"
        },
        {
          "internalType": "int256",
          "name": "shortExposure",
          "type": "int256"
        },
        {
          "internalType": "int256",
          "name": "longExposure",
          "type": "int256"
        },
        {
          "internalType": "address",
          "name": "_seriesAddress",
          "type": "address"
        }
      ],
      "name": "updateStores",
      "outputs": [],
      "stateMutability": "nonpayable",
      "type": "function"
    }
  ],
  "bytecode": "0x60806040526000600a553480156200001657600080fd5b50604051620027c2380380620027c2833981016040819052620000399162000097565b600080546001600160a01b0319166001600160a01b03841690811790915560405190815282907f2f658b440c35314f52658ea8a740e05b284cdc84dc9ae01e891f21b8933e7cad9060200160405180910390a150600b5550620000d3565b60008060408385031215620000ab57600080fd5b82516001600160a01b0381168114620000c357600080fd5b6020939093015192949293505050565b6126df80620000e36000396000f3fe608060405234801561001057600080fd5b50600436106101845760003560e01c80639cb7de4b116100d9578063ce5494bb11610087578063ce5494bb14610429578063d1b9e8531461043c578063dce66fb81461044f578063dfef605e14610462578063e138e2e314610485578063e8cf86081461048d578063f02de0e9146104b057600080fd5b80639cb7de4b14610304578063a31697ac14610317578063a44b6edc1461031f578063bf7e214f14610332578063c238f68d14610345578063c646240c146103f1578063ce0914e61461041457600080fd5b80633e4a5c83116101365780633e4a5c831461021c5780634e133d4d1461022f5780635053a962146102985780635f098428146102ab578063665a11ca146102be5780637a9e5e4b146102de5780638ce74426146102f157600080fd5b8063018770201461018957806305c253901461019e57806306bd74b5146101c45780630a9d793d146101cd57806313165894146101e057806321e04dd4146101f35780632ab6bfaf14610213575b600080fd5b61019c610197366004611e28565b6104c3565b005b6101b16101ac366004611e45565b6104ed565b6040519081526020015b60405180910390f35b6101b1600b5481565b61019c6101db366004611e28565b610539565b61019c6101ee366004611e28565b610563565b6101b1610201366004611e7e565b60056020526000908152604090205481565b6101b1600a5481565b61019c61022a366004611e45565b6108b1565b61024261023d366004611e45565b610d9a565b6040516101bb9190600060e082019050825182526020830151602083015260408301516040830152606083015160608301526080830151608083015260a083015160a083015260c083015160c083015292915050565b61019c6102a6366004611e28565b610e55565b61019c6102b9366004611e7e565b610ed5565b6007546102d1906001600160a01b031681565b6040516101bb9190611e97565b61019c6102ec366004611e28565b610f19565b6006546102d1906001600160a01b031681565b61019c610312366004611ebb565b610f6c565b6101b1610f9f565b61019c61032d366004611e7e565b610fb0565b6000546102d1906001600160a01b031681565b6103e2610353366004611e28565b600160208181526000928352604092839020835160c08101855281546001600160401b0381168252600160401b81046001600160801b031693820193909352600160c01b90920460ff16151593820193909352908201546001600160a01b03908116606083015260028301548116608083015260038301541660a0820152600482015460059092015490919083565b6040516101bb93929190611f4c565b6104046103ff366004611e28565b610fbd565b60405190151581526020016101bb565b61041c610fca565b6040516101bb9190611f6c565b61019c610437366004611e28565b610fd6565b61019c61044a366004611ebb565b611119565b61019c61045d366004612027565b61114c565b610404610470366004611e28565b60086020526000908152604090205460ff1681565b61019c6113ef565b61040461049b366004611e28565b60096020526000908152604090205460ff1681565b6102d16104be366004611e7e565b6114fa565b6104cb611507565b600780546001600160a01b0319166001600160a01b0392909216919091179055565b604080516001600160a01b038085168252831660208201526000917f6ec35af0b709b54559046cce99f4f62031cc990ecbae37d60658503383a130f5910160405180910390a192915050565b610541611507565b600680546001600160a01b0319166001600160a01b0392909216919091179055565b61056b6115be565b610576600282611732565b61059357604051634d87802160e01b815260040160405180910390fd5b6001600160a01b0381811660009081526001602081815260409283902083516101208101855281546001600160401b03811660608301908152600160401b82046001600160801b03166080840152600160c01b90910460ff16151560a083015293820154861660c08201526002820154861660e0820152600382015490951661010086015291845260048201549084018190526005909101549183019190915261065057604051636fc2555d60e11b815260040160405180910390fd5b600061065a611757565b90506000816001600160a01b03166341849afc856040518263ffffffff1660e01b815260040161068a9190611e97565b60206040518083038186803b1580156106a257600080fd5b505afa1580156106b6573d6000803e3d6000fd5b505050506040513d601f19601f820116820180604052508101906106da91906120fa565b9050806106fa5760405163168536ad60e31b815260040160405180910390fd5b600061088b836001600160a01b031663f5887cdd6040518163ffffffff1660e01b815260040160206040518083038186803b15801561073857600080fd5b505afa15801561074c573d6000803e3d6000fd5b505050506040513d601f19601f820116820180604052508101906107709190612113565b6001600160a01b0316633018205f6040518163ffffffff1660e01b815260040160206040518083038186803b1580156107a857600080fd5b505afa1580156107bc573d6000803e3d6000fd5b505050506040513d601f19601f820116820180604052508101906107e09190612113565b60405163d99d13f560e01b81526001600160a01b03868116600483015260248201869052919091169063d99d13f59060440160006040518083038186803b15801561082a57600080fd5b505afa15801561083e573d6000803e3d6000fd5b505050506040513d6000823e601f3d908101601f191682016040526108669190810190612222565b6060015160008151811061087c5761087c612342565b602002602001015160086117d4565b6001600160a01b0390951660009081526001602052604090206004019490945550505050565b60008060006108c06002611806565b905060006108ce8686611810565b905060006108da611910565b600a5490915060005b84811015610bfd5760006001816108fb600285611955565b6001600160a01b039081168252602080830193909352604091820160002082516101208101845281546001600160401b03811660608301818152600160401b83046001600160801b03166080850152600160c01b90920460ff16151560a08401526001840154851660c08401526002840154851660e08401526003840154909416610100830152815260048201549481019490945260050154918301919091529091504211156109e157816109b1600282611955565b604051633682accf60e11b815260048101929092526001600160a01b031660248201526044015b60405180910390fd5b80516040808201516020830151925191516304fb63ed60e01b81529015156004820152602481018890526001600160801b0390921660448301526001600160401b0316606482015260009081906001600160a01b038716906304fb63ed90608401604080518083038186803b158015610a5957600080fd5b505afa158015610a6d573d6000803e3d6000fd5b505050506040513d601f19601f82011682018060405250810190610a919190612358565b845160208101518151604092830151925163d98ac76960e01b8152600481018590526001600160801b0390921660248301526001600160401b03166044820152606481018490526084810189905290151560a48201529193509150600090819073__$eb86d565a3113b3c398b1080d0d395c3b4$__9063d98ac7699060c401604080518083038186803b158015610b2757600080fd5b505af4158015610b3b573d6000803e3d6000fd5b505050506040513d601f19601f82011682018060405250810190610b5f9190612358565b9092509050610b7883610b72848c611961565b9061196d565b9150600085604001518660200151610b909190612392565b9050670de0b6b3a7640000610ba582846123d1565b610baf919061246c565b610bb9908e612392565b9c50670de0b6b3a7640000610bce82856123d1565b610bd8919061246c565b610be2908d6124a8565b9b505050505050508080610bf5906124e9565b9150506108e3565b5060006040518060e0016040528088815260200160008152602001600081526020016000815260200187815260200142815260200185815250905080600460008b6001600160a01b03166001600160a01b0316815260200190815260200160002060008a6001600160a01b03166001600160a01b03168152602001908152602001600020600082015181600001556020820151816001015560408201518160020155606082015181600301556080820151816004015560a0820151816005015560c08201518160060155905050600760009054906101000a90046001600160a01b03166001600160a01b0316634da2df786040518163ffffffff1660e01b8152600401600060405180830381600087803b158015610d1a57600080fd5b505af1158015610d2e573d6000803e3d6000fd5b5050604080518a81526000602082018190528183018190526060820152608081018a905290516001600160a01b038c811694508d1692507fec5da05d5d82ced9f6369cfcc2f9d0cad94c0256c7ac3a81d6681bd57b2c33749181900360a00190a3505050505050505050565b610dda6040518060e00160405280600081526020016000815260200160008152602001600081526020016000815260200160008152602001600081525090565b506001600160a01b038083166000908152600460208181526040808420948616845293815291839020835160e08101855281548152600182015493810193909352600281015493830193909352600383015460608301528201546080820152600582015460a082015260069091015460c08201525b92915050565b610e5d6115be565b610e68600282611732565b610e8557604051634d87802160e01b815260040160405180910390fd5b6001600160a01b038116600090815260016020526040902054426001600160401b039091161115610ec95760405163bbb2af5960e01b815260040160405180910390fd5b610ed281611982565b50565b610edd611507565b600b8190556040518181527fa539c7f409128b9cb1841b4de1124812a38aa82896631f6583550b55e950e1c1906020015b60405180910390a150565b610f21611507565b600080546001600160a01b0319166001600160a01b0383161790556040517f2f658b440c35314f52658ea8a740e05b284cdc84dc9ae01e891f21b8933e7cad90610f0e908390611e97565b610f74611507565b6001600160a01b03919091166000908152600860205260409020805460ff1916911515919091179055565b6000610fab6002611806565b905090565b610fb8611507565b600a55565b6000610e4f600283611732565b6060610fab60026119eb565b610fde611507565b6000610fea6002611806565b905060005b81811015611114576000611004600283611955565b6001600160a01b0381811660009081526001602081815260409283902083516101208101855281546001600160401b03811660608301908152600160401b82046001600160801b03166080840152600160c01b90910460ff16151560a083015293820154861660c08201526002820154861660e0820152600382015486166101008201528381526004808301549382018490526005909201548186018190529451631b9ccdf760e31b815296975095948a169463dce66fb8946110cd9493929091899101612504565b600060405180830381600087803b1580156110e757600080fd5b505af11580156110fb573d6000803e3d6000fd5b505050505050808061110c906124e9565b915050610fef565b505050565b611121611507565b6001600160a01b03919091166000908152600960205260409020805460ff1916911515919091179055565b6111546119f8565b61115f600282611732565b6112585761116e600282611a14565b50604080516060808201835286825260208083018781528385018781526001600160a01b03808816600090815260018086529088902096518051885496820151998201511515600160c01b0260ff60c01b196001600160801b03909b16600160401b026001600160c01b03199098166001600160401b039092169190911796909617989098169490941786559386015192850180549385166001600160a01b0319948516179055608086015160028601805491861691851691909117905560a0909501516003850180549190941692169190911790915551600482015590516005909101556112b9565b6001600160a01b038116600090815260016020526040812060040180548592906112839084906124a8565b90915550506001600160a01b038116600090815260016020526040812060050180548492906112b39084906124a8565b90915550505b600084600001518560200151866040015160405160200161130e9392919060c09390931b6001600160c01b031916835260809190911b6001600160801b0319166008830152151560f81b601882015260190190565b604051602081830303815290604052805190602001209050836005600083815260200190815260200160002060008282546113499190612392565b90915550506000818152600560205260408120805485929061136c9084906124a8565b9091555050600b5460008281526005602052604090205461138c90611a29565b11156113ab576040516323dcfbfd60e01b815260040160405180910390fd5b7fa38c7fb25587f28150ab4e312ae71a3bbd5b9c69895d652c056c03c341c38ad8828585886040516113e09493929190612538565b60405180910390a15050505050565b6113f76115be565b60006114036002611806565b905060005b8181101561149b574260016000611420600285611955565b6001600160a01b031681526020810191909152604001600020546001600160401b0316101561148957600c611456600283611955565b81546001810183556000928352602090922090910180546001600160a01b0319166001600160a01b039092169190911790555b80611493816124e9565b915050611408565b5050600c5460005b818110156114ed576114db600c82815481106114c1576114c1612342565b6000918252602090912001546001600160a01b0316611982565b806114e5816124e9565b9150506114a3565b50610ed2600c6000611dd1565b6000610e4f600283611955565b60008054906101000a90046001600160a01b03166001600160a01b0316630c340a246040518163ffffffff1660e01b815260040160206040518083038186803b15801561155357600080fd5b505afa158015611567573d6000803e3d6000fd5b505050506040513d601f19601f8201168201806040525081019061158b9190612113565b6001600160a01b0316336001600160a01b0316146115bc5760405163075fd2b160e01b815260040160405180910390fd5b565b3360009081526009602052604090205460ff16158015611673575060008054906101000a90046001600160a01b03166001600160a01b0316630c340a246040518163ffffffff1660e01b815260040160206040518083038186803b15801561162557600080fd5b505afa158015611639573d6000803e3d6000fd5b505050506040513d601f19601f8201168201806040525081019061165d9190612113565b6001600160a01b0316336001600160a01b031614155b8015611714575060008054906101000a90046001600160a01b03166001600160a01b031663481c6a756040518163ffffffff1660e01b815260040160206040518083038186803b1580156116c657600080fd5b505afa1580156116da573d6000803e3d6000fd5b505050506040513d601f19601f820116820180604052508101906116fe9190612113565b6001600160a01b0316336001600160a01b031614155b156115bc57604051631ea2564f60e31b815260040160405180910390fd5b6001600160a01b038116600090815260018301602052604081205415155b9392505050565b600654604080516303b4567b60e41b815290516000926001600160a01b031691633b4567b0916004808301926020929190829003018186803b15801561179c57600080fd5b505afa1580156117b0573d6000803e3d6000fd5b505050506040513d601f19601f82011682018060405250810190610fab9190612113565b600060128211156117e457600080fd5b6117ef82601261256d565b90506117fc81600a612668565b6117509084612674565b6000610e4f825490565b60065460408051633a0df78d60e11b815290516000926001600160a01b03169163741bef1a916004808301926020929190829003018186803b15801561185557600080fd5b505afa158015611869573d6000803e3d6000fd5b505050506040513d601f19601f8201168201806040525081019061188d9190612113565b60405163051ce29b60e21b81526001600160a01b038581166004830152848116602483015291909116906314738a6c9060440160206040518083038186803b1580156118d857600080fd5b505afa1580156118ec573d6000803e3d6000fd5b505050506040513d601f19601f8201168201806040525081019061175091906120fa565b6006546040805163128e414b60e01b815290516000926001600160a01b03169163128e414b916004808301926020929190829003018186803b15801561179c57600080fd5b60006117508383611a65565b60006117508383611a8f565b600061175083670de0b6b3a764000084611b51565b61198d600282611c1e565b506001600160a01b03166000908152600160208190526040822080546001600160c81b031916815590810180546001600160a01b03199081169091556002820180548216905560038201805490911690556004810182905560050155565b6060600061175083611c33565b3360009081526008602052604090205460ff166115bc57600080fd5b6000611750836001600160a01b038416611c8f565b6000600160ff1b821415611a5057604051631d0742e360e21b815260040160405180910390fd5b60008212611a5e5781610e4f565b5060000390565b6000826000018281548110611a7c57611a7c612342565b9060005260206000200154905092915050565b60008080600019848609848602925082811083820303915050670de0b6b3a76400008110611ad35760405163698d9a0160e11b8152600481018290526024016109d8565b600080670de0b6b3a76400008688099150506706f05b59d3b1ffff811182611b0d5780670de0b6b3a7640000850401945050505050610e4f565b620400008285030493909111909103600160ee1b02919091177faccb18165bd6fe31ae1cf318dc5b51eee0e1ba569b88cd74c1773b91fac106690201905092915050565b600080806000198587098587029250828110838203039150508060001415611b8c57838281611b8257611b82612456565b0492505050611750565b838110611bb657604051631dcf306360e21b815260048101829052602481018590526044016109d8565b600084868809600260036001881981018916988990049182028318808302840302808302840302808302840302808302840302808302840302918202909203026000889003889004909101858311909403939093029303949094049190911702949350505050565b6000611750836001600160a01b038416611cde565b606081600001805480602002602001604051908101604052809291908181526020018280548015611c8357602002820191906000526020600020905b815481526020019060010190808311611c6f575b50505050509050919050565b6000818152600183016020526040812054611cd657508154600181810184556000848152602080822090930184905584548482528286019093526040902091909155610e4f565b506000610e4f565b60008181526001830160205260408120548015611dc7576000611d0260018361256d565b8554909150600090611d169060019061256d565b9050818114611d7b576000866000018281548110611d3657611d36612342565b9060005260206000200154905080876000018481548110611d5957611d59612342565b6000918252602080832090910192909255918252600188019052604090208390555b8554869080611d8c57611d8c612693565b600190038181906000526020600020016000905590558560010160008681526020019081526020016000206000905560019350505050610e4f565b6000915050610e4f565b5080546000825590600052602060002090810190610ed291905b80821115611dff5760008155600101611deb565b5090565b6001600160a01b0381168114610ed257600080fd5b8035611e2381611e03565b919050565b600060208284031215611e3a57600080fd5b813561175081611e03565b60008060408385031215611e5857600080fd5b8235611e6381611e03565b91506020830135611e7381611e03565b809150509250929050565b600060208284031215611e9057600080fd5b5035919050565b6001600160a01b0391909116815260200190565b80358015158114611e2357600080fd5b60008060408385031215611ece57600080fd5b8235611ed981611e03565b9150611ee760208401611eab565b90509250929050565b80516001600160401b031682526020808201516001600160801b0316908301526040808201511515908301526060808201516001600160a01b039081169184019190915260808083015182169084015260a09182015116910152565b6101008101611f5b8286611ef0565b60c082019390935260e00152919050565b6020808252825182820181905260009190848201906040850190845b81811015611fad5783516001600160a01b031683529284019291840191600101611f88565b50909695505050505050565b634e487b7160e01b600052604160045260246000fd5b60405160c081016001600160401b0381118282101715611ff157611ff1611fb9565b60405290565b604051601f8201601f191681016001600160401b038111828210171561201f5761201f611fb9565b604052919050565b60008060008084860361012081121561203f57600080fd5b60c081121561204d57600080fd5b50612056611fcf565b85356001600160401b038116811461206d57600080fd5b815260208601356001600160801b038116811461208957600080fd5b602082015261209a60408701611eab565b60408201526120ab60608701611e18565b60608201526120bc60808701611e18565b60808201526120cd60a08701611e18565b60a0820152935060c0850135925060e085013591506120ef6101008601611e18565b905092959194509250565b60006020828403121561210c57600080fd5b5051919050565b60006020828403121561212557600080fd5b815161175081611e03565b60006001600160401b0382111561214957612149611fb9565b5060051b60200190565b600082601f83011261216457600080fd5b8151602061217961217483612130565b611ff7565b82815260059290921b8401810191818101908684111561219857600080fd5b8286015b848110156121bc5780516121af81611e03565b835291830191830161219c565b509695505050505050565b600082601f8301126121d857600080fd5b815160206121e861217483612130565b82815260059290921b8401810191818101908684111561220757600080fd5b8286015b848110156121bc578051835291830191830161220b565b60006020828403121561223457600080fd5b81516001600160401b038082111561224b57600080fd5b9083019060c0828603121561225f57600080fd5b612267611fcf565b82518281111561227657600080fd5b61228287828601612153565b82525060208301518281111561229757600080fd5b6122a387828601612153565b6020830152506040830151828111156122bb57600080fd5b6122c787828601612153565b6040830152506060830151828111156122df57600080fd5b6122eb878286016121c7565b60608301525060808301518281111561230357600080fd5b61230f878286016121c7565b60808301525060a08301518281111561232757600080fd5b612333878286016121c7565b60a08301525095945050505050565b634e487b7160e01b600052603260045260246000fd5b6000806040838503121561236b57600080fd5b505080516020909101519092909150565b634e487b7160e01b600052601160045260246000fd5b60008083128015600160ff1b8501841216156123b0576123b061237c565b6001600160ff1b03840183138116156123cb576123cb61237c565b50500390565b60006001600160ff1b03818413828413808216868404861116156123f7576123f761237c565b600160ff1b60008712828116878305891216156124165761241661237c565b600087129250878205871284841616156124325761243261237c565b878505871281841616156124485761244861237c565b505050929093029392505050565b634e487b7160e01b600052601260045260246000fd5b60008261248957634e487b7160e01b600052601260045260246000fd5b600160ff1b8214600019841416156124a3576124a361237c565b500590565b600080821280156001600160ff1b03849003851316156124ca576124ca61237c565b600160ff1b83900384128116156124e3576124e361237c565b50500190565b60006000198214156124fd576124fd61237c565b5060010190565b61012081016125138287611ef0565b60c082019490945260e08101929092526001600160a01b031661010090910152919050565b6001600160a01b0385168152602081018490526040810183905261012081016125646060830184611ef0565b95945050505050565b60008282101561257f5761257f61237c565b500390565b600181815b808511156125bf5781600019048211156125a5576125a561237c565b808516156125b257918102915b93841c9390800290612589565b509250929050565b6000826125d657506001610e4f565b816125e357506000610e4f565b81600181146125f957600281146126035761261f565b6001915050610e4f565b60ff8411156126145761261461237c565b50506001821b610e4f565b5060208310610133831016604e8410600b8410161715612642575081810a610e4f565b61264c8383612584565b80600019048211156126605761266061237c565b029392505050565b600061175083836125c7565b600081600019048311821515161561268e5761268e61237c565b500290565b634e487b7160e01b600052603160045260246000fdfea264697066735822122053700acbfb2558c9731d348797efec21f26bfd5235eb523789eec76603e24bd964736f6c63430008090033",
  "linkReferences": {
    "contracts/libraries/BlackScholes.sol": {
      "BlackScholes": [
        {
          "length": 20,
          "start": 3030
        }
      ]
    }
  },
  "deployedLinkReferences": {
    "contracts/libraries/BlackScholes.sol": {
      "BlackScholes": [
        {
          "length": 20,
          "start": 2803
        }
      ]
    }
  }
}