{
  "_format": "hh-sol-artifact-1",
  "contractName": "BlackScholes",
  "sourceName": "contracts/libraries/BlackScholes.sol",
  "abi": [
    {
      "inputs": [],
      "name": "PRBMathSD59x18__DivInputTooSmall",
      "type": "error"
    },
    {
      "inputs": [
        {
          "internalType": "uint256",
          "name": "rAbs",
          "type": "uint256"
        }
      ],
      "name": "PRBMathSD59x18__DivOverflow",
      "type": "error"
    },
    {
      "inputs": [
        {
          "internalType": "int256",
          "name": "x",
          "type": "int256"
        }
      ],
      "name": "PRBMathSD59x18__Exp2InputTooBig",
      "type": "error"
    },
    {
      "inputs": [
        {
          "internalType": "int256",
          "name": "x",
          "type": "int256"
        }
      ],
      "name": "PRBMathSD59x18__ExpInputTooBig",
      "type": "error"
    },
    {
      "inputs": [
        {
          "internalType": "int256",
          "name": "x",
          "type": "int256"
        }
      ],
      "name": "PRBMathSD59x18__LogInputTooSmall",
      "type": "error"
    },
    {
      "inputs": [],
      "name": "PRBMathSD59x18__MulInputTooSmall",
      "type": "error"
    },
    {
      "inputs": [
        {
          "internalType": "uint256",
          "name": "rAbs",
          "type": "uint256"
        }
      ],
      "name": "PRBMathSD59x18__MulOverflow",
      "type": "error"
    },
    {
      "inputs": [
        {
          "internalType": "uint256",
          "name": "x",
          "type": "uint256"
        }
      ],
      "name": "PRBMathUD60x18__SqrtOverflow",
      "type": "error"
    },
    {
      "inputs": [
        {
          "internalType": "uint256",
          "name": "prod1",
          "type": "uint256"
        }
      ],
      "name": "PRBMath__MulDivFixedPointOverflow",
      "type": "error"
    },
    {
      "inputs": [
        {
          "internalType": "uint256",
          "name": "prod1",
          "type": "uint256"
        },
        {
          "internalType": "uint256",
          "name": "denominator",
          "type": "uint256"
        }
      ],
      "name": "PRBMath__MulDivOverflow",
      "type": "error"
    },
    {
      "inputs": [
        {
          "internalType": "uint256",
          "name": "price",
          "type": "uint256"
        },
        {
          "internalType": "uint256",
          "name": "strike",
          "type": "uint256"
        },
        {
          "internalType": "uint256",
          "name": "expiration",
          "type": "uint256"
        },
        {
          "internalType": "uint256",
          "name": "vol",
          "type": "uint256"
        },
        {
          "internalType": "uint256",
          "name": "rfr",
          "type": "uint256"
        },
        {
          "internalType": "bool",
          "name": "isPut",
          "type": "bool"
        }
      ],
      "name": "blackScholesCalc",
      "outputs": [
        {
          "internalType": "uint256",
          "name": "",
          "type": "uint256"
        }
      ],
      "stateMutability": "view",
      "type": "function"
    },
    {
      "inputs": [
        {
          "internalType": "uint256",
          "name": "price",
          "type": "uint256"
        },
        {
          "internalType": "uint256",
          "name": "strike",
          "type": "uint256"
        },
        {
          "internalType": "uint256",
          "name": "expiration",
          "type": "uint256"
        },
        {
          "internalType": "uint256",
          "name": "vol",
          "type": "uint256"
        },
        {
          "internalType": "uint256",
          "name": "rfr",
          "type": "uint256"
        },
        {
          "internalType": "bool",
          "name": "isPut",
          "type": "bool"
        }
      ],
      "name": "blackScholesCalcGreeks",
      "outputs": [
        {
          "internalType": "uint256",
          "name": "quote",
          "type": "uint256"
        },
        {
          "internalType": "int256",
          "name": "delta",
          "type": "int256"
        }
      ],
      "stateMutability": "view",
      "type": "function"
    },
    {
      "inputs": [
        {
          "internalType": "int256",
          "name": "d1",
          "type": "int256"
        },
        {
          "internalType": "int256",
          "name": "d1Denominator",
          "type": "int256"
        },
        {
          "internalType": "int256",
          "name": "price",
          "type": "int256"
        },
        {
          "internalType": "int256",
          "name": "strike",
          "type": "int256"
        },
        {
          "internalType": "int256",
          "name": "eToNegRT",
          "type": "int256"
        }
      ],
      "name": "callOptionPrice",
      "outputs": [
        {
          "internalType": "uint256",
          "name": "",
          "type": "uint256"
        }
      ],
      "stateMutability": "pure",
      "type": "function"
    },
    {
      "inputs": [
        {
          "internalType": "int256",
          "name": "d1",
          "type": "int256"
        },
        {
          "internalType": "int256",
          "name": "d1Denominator",
          "type": "int256"
        },
        {
          "internalType": "int256",
          "name": "price",
          "type": "int256"
        },
        {
          "internalType": "int256",
          "name": "strike",
          "type": "int256"
        },
        {
          "internalType": "int256",
          "name": "eToNegRT",
          "type": "int256"
        }
      ],
      "name": "callOptionPriceGreeks",
      "outputs": [
        {
          "internalType": "uint256",
          "name": "quote",
          "type": "uint256"
        },
        {
          "internalType": "int256",
          "name": "delta",
          "type": "int256"
        }
      ],
      "stateMutability": "pure",
      "type": "function"
    },
    {
      "inputs": [
        {
          "internalType": "uint256",
          "name": "price",
          "type": "uint256"
        },
        {
          "internalType": "uint256",
          "name": "strike",
          "type": "uint256"
        },
        {
          "internalType": "uint256",
          "name": "expiration",
          "type": "uint256"
        },
        {
          "internalType": "uint256",
          "name": "vol",
          "type": "uint256"
        },
        {
          "internalType": "uint256",
          "name": "rfr",
          "type": "uint256"
        },
        {
          "internalType": "bool",
          "name": "isPut",
          "type": "bool"
        }
      ],
      "name": "getDelta",
      "outputs": [
        {
          "internalType": "int256",
          "name": "",
          "type": "int256"
        }
      ],
      "stateMutability": "view",
      "type": "function"
    },
    {
      "inputs": [
        {
          "internalType": "int256",
          "name": "d1",
          "type": "int256"
        },
        {
          "internalType": "int256",
          "name": "d1Denominator",
          "type": "int256"
        },
        {
          "internalType": "int256",
          "name": "price",
          "type": "int256"
        },
        {
          "internalType": "int256",
          "name": "strike",
          "type": "int256"
        },
        {
          "internalType": "int256",
          "name": "eToNegRT",
          "type": "int256"
        }
      ],
      "name": "putOptionPrice",
      "outputs": [
        {
          "internalType": "uint256",
          "name": "",
          "type": "uint256"
        }
      ],
      "stateMutability": "pure",
      "type": "function"
    },
    {
      "inputs": [
        {
          "internalType": "int256",
          "name": "d1",
          "type": "int256"
        },
        {
          "internalType": "int256",
          "name": "d1Denominator",
          "type": "int256"
        },
        {
          "internalType": "int256",
          "name": "price",
          "type": "int256"
        },
        {
          "internalType": "int256",
          "name": "strike",
          "type": "int256"
        },
        {
          "internalType": "int256",
          "name": "eToNegRT",
          "type": "int256"
        }
      ],
      "name": "putOptionPriceGreeks",
      "outputs": [
        {
          "internalType": "uint256",
          "name": "quote",
          "type": "uint256"
        },
        {
          "internalType": "int256",
          "name": "delta",
          "type": "int256"
        }
      ],
      "stateMutability": "pure",
      "type": "function"
    }
  ],
  "bytecode": "0x611a7961003a600b82828239805160001a60731461002d57634e487b7160e01b600052600060045260246000fd5b30600052607381538281f3fe73000000000000000000000000000000000000000030146080604052600436106100775760003560e01c806364bd4d7c1461007c578063679dfe31146100a9578063be2df192146100ca578063c0a7bf22146100dd578063cb09870e146100f0578063d743267014610103578063d98ac76914610116575b600080fd5b61008f61008a366004611888565b610129565b604080519283526020830191909152015b60405180910390f35b6100bc6100b73660046118c3565b61027f565b6040519081526020016100a0565b6100bc6100d83660046118c3565b6103c7565b6100bc6100eb366004611888565b610422565b61008f6100fe366004611888565b61056e565b6100bc610111366004611888565b6106d4565b61008f6101243660046118c3565b61081d565b600080806101378789611933565b60405163685b8d8f60e11b8152600481018a905290915060009073__$ebc6a235f62198c0ffd1ba3f5780dbc7b2$__9063d0b71b1e90602401602060405180830381865af415801561018d573d6000803e3d6000fd5b505050506040513d601f19601f820116820180604052508101906101b19190611972565b60405163685b8d8f60e11b81526004810184905290915060009073__$ebc6a235f62198c0ffd1ba3f5780dbc7b2$__9063d0b71b1e90602401602060405180830381865af4158015610207573d6000803e3d6000fd5b505050506040513d601f19601f8201168201806040525081019061022b9190611972565b905060006102398984610893565b905060006102518361024b8b8b610893565b90610893565b9050808212156102635761026361198b565b61026d8183611933565b9c939b50929950505050505050505050565b60008061029c6301e187e0425b61029690896119a1565b9061095d565b905060006102ad8989848989610979565b509050836103325760405163685b8d8f60e11b81526004810182905273__$ebc6a235f62198c0ffd1ba3f5780dbc7b2$__9063d0b71b1e90602401602060405180830381865af4158015610305573d6000803e3d6000fd5b505050506040513d601f19601f820116820180604052508101906103299190611972565b925050506103bd565b73__$ebc6a235f62198c0ffd1ba3f5780dbc7b2$__63d0b71b1e610355836119b8565b6040518263ffffffff1660e01b815260040161037391815260200190565b602060405180830381865af4158015610390573d6000803e3d6000fd5b505050506040513d601f19601f820116820180604052508101906103b49190611972565b610329906119b8565b9695505050505050565b6000806103d86301e187e04261028c565b905060006103e989898489896109fc565b90508361040957610329816020015182600001518b8b8560400151610422565b610329816020015182600001518b8b85604001516106d4565b60008061042f8688611933565b60405163685b8d8f60e11b81526004810189905290915060009073__$ebc6a235f62198c0ffd1ba3f5780dbc7b2$__9063d0b71b1e90602401602060405180830381865af4158015610485573d6000803e3d6000fd5b505050506040513d601f19601f820116820180604052508101906104a99190611972565b60405163685b8d8f60e11b81526004810184905290915060009073__$ebc6a235f62198c0ffd1ba3f5780dbc7b2$__9063d0b71b1e90602401602060405180830381865af41580156104ff573d6000803e3d6000fd5b505050506040513d601f19601f820116820180604052508101906105239190611972565b905060006105318884610893565b905060006105438361024b8a8a610893565b9050808212156105555761055561198b565b61055f8183611933565b9b9a5050505050505050505050565b6000808061057c8888611933565b9050600073__$ebc6a235f62198c0ffd1ba3f5780dbc7b2$__63d0b71b1e6105a38b6119b8565b6040518263ffffffff1660e01b81526004016105c191815260200190565b602060405180830381865af41580156105de573d6000803e3d6000fd5b505050506040513d601f19601f820116820180604052508101906106029190611972565b60405163685b8d8f60e11b81526004810184905290915060009073__$ebc6a235f62198c0ffd1ba3f5780dbc7b2$__9063d0b71b1e90602401602060405180830381865af4158015610658573d6000803e3d6000fd5b505050506040513d601f19601f8201168201806040525081019061067c9190611972565b9050600061068a8984610893565b9050600061069c8361024b8b8b610893565b9050818112156106ae576106ae61198b565b6106b88282611933565b96506106c3846119b8565b955050505050509550959350505050565b6000806106e18787611933565b9050600073__$ebc6a235f62198c0ffd1ba3f5780dbc7b2$__63d0b71b1e6107088a6119b8565b6040518263ffffffff1660e01b815260040161072691815260200190565b602060405180830381865af4158015610743573d6000803e3d6000fd5b505050506040513d601f19601f820116820180604052508101906107679190611972565b60405163685b8d8f60e11b81526004810184905290915060009073__$ebc6a235f62198c0ffd1ba3f5780dbc7b2$__9063d0b71b1e90602401602060405180830381865af41580156107bd573d6000803e3d6000fd5b505050506040513d601f19601f820116820180604052508101906107e19190611972565b905060006107ef8884610893565b905060006108018361024b8a8a610893565b9050818112156108135761081361198b565b61055f8282611933565b600080806108336301e187e0610296428a6119a1565b905060006108448a8a848a8a6109fc565b90508461086f57610864816020015182600001518c8c8560400151610129565b935093505050610888565b610864816020015182600001518c8c856040015161056e565b965096945050505050565b6000600160ff1b8314806108aa5750600160ff1b82145b156108c857604051630d01a11b60e21b815260040160405180910390fd5b600080600085126108d957846108de565b846000035b9150600084126108ee57836108f3565b836000035b905060006109018383610a80565b90506001600160ff1b038111156109335760405163bf79e8d960e01b8152600481018290526024015b60405180910390fd5b60001980871390861380821860011461094c5782610951565b826000035b98975050505050505050565b600061097283670de0b6b3a764000084610b47565b9392505050565b600080806109a88685610998671bc16d674ec800006102968a80610c13565b6109a291906119d4565b90610c13565b905060006109be6109b98a8a61095d565b610c1f565b905060006109cc83836119ec565b90506109e16109da89610c51565b8890610c13565b93506109ed8185610ca3565b94505050509550959350505050565b610a2060405180606001604052806000815260200160008152602001600081525090565b600080610a308888888888610979565b915091506040518060600160405280828152602001838152602001610a72610a6d670de0b6b3a7640000610a63906119b8565b61024b898c610893565b610d69565b905298975050505050505050565b60008080600019848609848602925082811083820303915050670de0b6b3a76400008110610ac45760405163698d9a0160e11b81526004810182905260240161092a565b600080670de0b6b3a764000086880991506706f05b59d3b1ffff8211905082600003610b025780670de0b6b3a7640000850401945050505050610b41565b620400008285030493909111909103600160ee1b02919091177faccb18165bd6fe31ae1cf318dc5b51eee0e1ba569b88cd74c1773b91fac10669020190505b92915050565b6000808060001985870985870292508281108382030391505080600003610b8157838281610b7757610b77611a2d565b0492505050610972565b838110610bab57604051631dcf306360e21b8152600481018290526024810185905260440161092a565b600084868809600260036001881981018916988990049182028318808302840302808302840302808302840302808302840302808302840302918202909203026000889003889004909101858311909403939093029303949094049190911702949350505050565b60006109728383610a80565b60006714057b7ef767814f670de0b6b3a7640000610c3c84610dd9565b0281610c4a57610c4a611a2d565b0592915050565b60007812725dd1d243aba0e75fe645cc4873f9e65afe688c928e1f21821115610c9057604051636155b67d60e01b81526004810183905260240161092a565b610b41670de0b6b3a76400008302610ebe565b6000600160ff1b831480610cba5750600160ff1b82145b15610cd85760405163b3c754a360e01b815260040160405180910390fd5b60008060008512610ce95784610cee565b846000035b915060008412610cfe5783610d03565b836000035b90506000610d1a83670de0b6b3a764000084610b47565b90506001600160ff1b03811115610d4757604051637cb4bef560e01b81526004810182905260240161092a565b600019808713908613808218600114610d605782610951565b610951836119b8565b600068023f2fa8f6da5b9d3119821215610d8557506000919050565b680736ea4425c11ac6318212610db1576040516399bb754160e01b81526004810183905260240161092a565b6714057b7ef767814f8202610972670de0b6b3a76400006706f05b59d3b20000830105611037565b6000808213610dfe5760405163309fa7dd60e11b81526004810183905260240161092a565b6000670de0b6b3a76400008312610e1757506001610e31565b6000199050826ec097ce7bc90715b34b9f10000000000492505b6000610e46670de0b6b3a764000085056110cd565b670de0b6b3a764000081029350905083811d670de0b6b3a763ffff198101610e7057505002919050565b6706f05b59d3b200005b6000811315610eb557670de0b6b3a7640000828002059150671bc16d674ec800008212610ead579384019360019190911d905b60011d610e7a565b50505002919050565b600081600003610ed057506000919050565b50600181600160801b8110610eea5760409190911b9060801c5b600160401b8110610f005760209190911b9060401c5b6401000000008110610f175760109190911b9060201c5b620100008110610f2c5760089190911b9060101c5b6101008110610f405760049190911b9060081c5b60108110610f535760029190911b9060041c5b60088110610f6357600182901b91505b6001828481610f7457610f74611a2d565b048301901c91506001828481610f8c57610f8c611a2d565b048301901c91506001828481610fa457610fa4611a2d565b048301901c91506001828481610fbc57610fbc611a2d565b048301901c91506001828481610fd457610fd4611a2d565b048301901c91506001828481610fec57610fec611a2d565b048301901c9150600182848161100457611004611a2d565b048301901c9150600082848161101c5761101c611a2d565b0490508083101561102d578261102f565b805b949350505050565b6000808212156110845768033dd1780914b971141982121561105b57506000919050565b61106782600003611037565b6ec097ce7bc90715b34b9f100000000081610c4a57610c4a611a2d565b680a688906bd8b00000082126110b05760405163e69458f960e01b81526004810183905260240161092a565b670de0b6b3a7640000604083901b04610972816111ac565b919050565b6000600160801b82106110ed57608091821c916110ea90826119d4565b90505b600160401b821061110b57604091821c9161110890826119d4565b90505b640100000000821061112a57602091821c9161112790826119d4565b90505b62010000821061114757601091821c9161114490826119d4565b90505b610100821061116357600891821c9161116090826119d4565b90505b6010821061117e57600491821c9161117b90826119d4565b90505b6004821061119957600291821c9161119690826119d4565b90505b600282106110c857610b416001826119d4565b600160bf1b6001603f1b8216156111cc5768016a09e667f3bcc9090260401c5b6001603e1b8216156111e7576801306fe0a31b7152df0260401c5b6001603d1b821615611202576801172b83c7d517adce0260401c5b6001603c1b82161561121d5768010b5586cf9890f62a0260401c5b6001603b1b821615611238576801059b0d31585743ae0260401c5b6001603a1b82161561125357680102c9a3e778060ee70260401c5b600160391b82161561126e5768010163da9fb33356d80260401c5b600160381b82161561128957680100b1afa5abcbed610260401c5b66800000000000008216156112a75768010058c86da1c09ea20260401c5b66400000000000008216156112c5576801002c605e2e8cec500260401c5b66200000000000008216156112e357680100162f3904051fa10260401c5b6610000000000000821615611301576801000b175effdc76ba0260401c5b660800000000000082161561131f57680100058ba01fb9f96d0260401c5b660400000000000082161561133d5768010002c5cc37da94920260401c5b660200000000000082161561135b576801000162e525ee05470260401c5b66010000000000008216156113795768010000b17255775c040260401c5b65800000000000821615611396576801000058b91b5bc9ae0260401c5b654000000000008216156113b357680100002c5c89d5ec6d0260401c5b652000000000008216156113d05768010000162e43f4f8310260401c5b651000000000008216156113ed57680100000b1721bcfc9a0260401c5b6508000000000082161561140a5768010000058b90cf1e6e0260401c5b65040000000000821615611427576801000002c5c863b73f0260401c5b6502000000000082161561144457680100000162e430e5a20260401c5b65010000000000821615611461576801000000b1721835510260401c5b64800000000082161561147d57680100000058b90c0b490260401c5b6440000000008216156114995768010000002c5c8601cc0260401c5b6420000000008216156114b5576801000000162e42fff00260401c5b6410000000008216156114d15768010000000b17217fbb0260401c5b6408000000008216156114ed576801000000058b90bfce0260401c5b64040000000082161561150957680100000002c5c85fe30260401c5b6402000000008216156115255768010000000162e42ff10260401c5b64010000000082161561154157680100000000b17217f80260401c5b638000000082161561155c5768010000000058b90bfc0260401c5b6340000000821615611577576801000000002c5c85fe0260401c5b632000000082161561159257680100000000162e42ff0260401c5b63100000008216156115ad576801000000000b17217f0260401c5b63080000008216156115c857680100000000058b90c00260401c5b63040000008216156115e35768010000000002c5c8600260401c5b63020000008216156115fe576801000000000162e4300260401c5b63010000008216156116195768010000000000b172180260401c5b62800000821615611633576801000000000058b90c0260401c5b6240000082161561164d57680100000000002c5c860260401c5b622000008216156116675768010000000000162e430260401c5b6210000082161561168157680100000000000b17210260401c5b6208000082161561169b5768010000000000058b910260401c5b620400008216156116b5576801000000000002c5c80260401c5b620200008216156116cf57680100000000000162e40260401c5b620100008216156116e9576801000000000000b1720260401c5b61800082161561170257680100000000000058b90260401c5b61400082161561171b5768010000000000002c5d0260401c5b612000821615611734576801000000000000162e0260401c5b61100082161561174d5768010000000000000b170260401c5b610800821615611766576801000000000000058c0260401c5b61040082161561177f57680100000000000002c60260401c5b61020082161561179857680100000000000001630260401c5b6101008216156117b157680100000000000000b10260401c5b60808216156117c957680100000000000000590260401c5b60408216156117e1576801000000000000002c0260401c5b60208216156117f957680100000000000000160260401c5b6010821615611811576801000000000000000b0260401c5b600882161561182957680100000000000000060260401c5b600482161561184157680100000000000000030260401c5b600282161561185957680100000000000000010260401c5b600182161561187157680100000000000000010260401c5b670de0b6b3a76400000260409190911c60bf031c90565b600080600080600060a086880312156118a057600080fd5b505083359560208501359550604085013594606081013594506080013592509050565b60008060008060008060c087890312156118dc57600080fd5b863595506020870135945060408701359350606087013592506080870135915060a0870135801515811461190f57600080fd5b809150509295509295509295565b634e487b7160e01b600052601160045260246000fd5b60008083128015600160ff1b8501841216156119515761195161191d565b6001600160ff1b038401831381161561196c5761196c61191d565b50500390565b60006020828403121561198457600080fd5b5051919050565b634e487b7160e01b600052600160045260246000fd5b6000828210156119b3576119b361191d565b500390565b6000600160ff1b82016119cd576119cd61191d565b5060000390565b600082198211156119e7576119e761191d565b500190565b600080821280156001600160ff1b0384900385131615611a0e57611a0e61191d565b600160ff1b8390038412811615611a2757611a2761191d565b50500190565b634e487b7160e01b600052601260045260246000fdfea26469706673582212200a24d4b21e2ab3a871d6add14658725c262669c5deff2f4b73af059f08786aa964736f6c634300080e0033",
  "linkReferences": {
    "contracts/libraries/NormalDist.sol": {
      "NormalDist": [
        {
          "length": 20,
          "start": 397
        },
        {
          "length": 20,
          "start": 519
        },
        {
          "length": 20,
          "start": 773
        },
        {
          "length": 20,
          "start": 878
        },
        {
          "length": 20,
          "start": 1157
        },
        {
          "length": 20,
          "start": 1279
        },
        {
          "length": 20,
          "start": 1468
        },
        {
          "length": 20,
          "start": 1624
        },
        {
          "length": 20,
          "start": 1825
        },
        {
          "length": 20,
          "start": 1981
        }
      ]
    }
  },
  "deployedLinkReferences": {
    "contracts/libraries/NormalDist.sol": {
      "NormalDist": [
        {
          "length": 20,
          "start": 339
        },
        {
          "length": 20,
          "start": 461
        },
        {
          "length": 20,
          "start": 715
        },
        {
          "length": 20,
          "start": 820
        },
        {
          "length": 20,
          "start": 1099
        },
        {
          "length": 20,
          "start": 1221
        },
        {
          "length": 20,
          "start": 1410
        },
        {
          "length": 20,
          "start": 1566
        },
        {
          "length": 20,
          "start": 1767
        },
        {
          "length": 20,
          "start": 1923
        }
      ]
    }
  }
}