{
  "_format": "hh-sol-artifact-1",
  "contractName": "OpynPricerResolver",
  "sourceName": "contracts/gelato/OpynPricerResolver.sol",
  "abi": [
    {
      "inputs": [
        {
          "internalType": "address",
          "name": "_chainlinkPricer",
          "type": "address"
        },
        {
          "internalType": "address",
          "name": "_addressBook",
          "type": "address"
        }
      ],
      "stateMutability": "nonpayable",
      "type": "constructor"
    },
    {
      "inputs": [],
      "name": "checker",
      "outputs": [
        {
          "internalType": "bool",
          "name": "canExec",
          "type": "bool"
        },
        {
          "internalType": "bytes",
          "name": "execPayload",
          "type": "bytes"
        }
      ],
      "stateMutability": "view",
      "type": "function"
    }
  ],
  "bytecode": "0x6080604052600280546001600160a01b031916735f4ec3df9cbd43714fe2740f5e3616155c5b841917905534801561003657600080fd5b5060405161086c38038061086c833981016040819052610055916100a2565b600080546001600160a01b039384166001600160a01b031991821617909155600180549290931691161790556100d5565b80516001600160a01b038116811461009d57600080fd5b919050565b600080604083850312156100b557600080fd5b6100be83610086565b91506100cc60208401610086565b90509250929050565b610788806100e46000396000f3fe608060405234801561001057600080fd5b506004361061002b5760003560e01c8063cf5303cf14610030575b600080fd5b61003861004f565b60405161004692919061058d565b60405180910390f35b60006060426100616008610e10610602565b61006e610e106018610602565b6100789083610621565b10806100b0575061008b60086001610643565b61009790610e10610602565b6100a4610e106018610602565b6100ae9083610621565b115b156100e457505060408051808201909152600e81526d496e636f72726563742074696d6560901b6020820152600092909150565b60006100f3610e106008610602565b610100610e106018610602565b61010a9084610621565b610114908461065b565b61011e9190610643565b90506000600160009054906101000a90046001600160a01b03166001600160a01b031663833b1fce6040518163ffffffff1660e01b8152600401602060405180830381865afa158015610175573d6000803e3d6000fd5b505050506040513d601f19601f820116820180604052508101906101999190610672565b6040516301957f8160e01b815273c02aaa39b223fe8d0a0e5c4f27ead9083c756cc26004820152602481018490526001600160a01b0391909116906301957f81906044016040805180830381865afa1580156101f9573d6000803e3d6000fd5b505050506040513d601f19601f8201168201806040525081019061021d91906106b7565b5090506000600160009054906101000a90046001600160a01b03166001600160a01b031663833b1fce6040518163ffffffff1660e01b8152600401602060405180830381865afa158015610275573d6000803e3d6000fd5b505050506040513d601f19601f820116820180604052508101906102999190610672565b604051631a5e769d60e31b815273c02aaa39b223fe8d0a0e5c4f27ead9083c756cc26004820152602481018590526001600160a01b03919091169063d2f3b4e890604401602060405180830381865afa1580156102fa573d6000803e3d6000fd5b505050506040513d601f19601f8201168201806040525081019061031e91906106e3565b90508115158061032c575080155b1561036957600060405180604001604052806011815260200170141c9a58d948185b1c9958591e481cd95d607a1b81525095509550505050509091565b60025460408051633345078160e11b815290516000926001600160a01b03169163668a0f029160048083019260209291908290030181865afa1580156103b3573d6000803e3d6000fd5b505050506040513d601f19601f820116820180604052508101906103d791906106fe565b600254604051632d8cd88360e21b8152600481018390529192506000916001600160a01b039091169063b633620c90602401602060405180830381865afa158015610426573d6000803e3d6000fd5b505050506040513d601f19601f8201168201806040525081019061044a91906106fe565b90508481101561047d57600060405180606001604052806024815260200161072f60249139975097505050505050509091565b6000808061048c60018661065b565b90505b801561052f57600254604051632d8cd88360e21b81526004810183905291935083916001600160a01b039091169063b633620c90602401602060405180830381865afa1580156104e3573d6000803e3d6000fd5b505050506040513d601f19601f8201168201806040525081019061050791906106fe565b9150811561051d5787821061052f578294508193505b8061052781610717565b91505061048f565b6040516024810189905269ffffffffffffffffffff8616604482015260019060640160408051601f198184030181529190526020810180516001600160e01b031663b2b63d9f60e01b179052909c909b509950505050505050505050565b821515815260006020604081840152835180604085015260005b818110156105c3578581018301518582016060015282016105a7565b818111156105d5576000606083870101525b50601f01601f191692909201606001949350505050565b634e487b7160e01b600052601160045260246000fd5b600081600019048311821515161561061c5761061c6105ec565b500290565b60008261063e57634e487b7160e01b600052601260045260246000fd5b500690565b60008219821115610656576106566105ec565b500190565b60008282101561066d5761066d6105ec565b500390565b60006020828403121561068457600080fd5b81516001600160a01b038116811461069b57600080fd5b9392505050565b805180151581146106b257600080fd5b919050565b600080604083850312156106ca57600080fd5b825191506106da602084016106a2565b90509250929050565b6000602082840312156106f557600080fd5b61069b826106a2565b60006020828403121561071057600080fd5b5051919050565b600081610726576107266105ec565b50600019019056fe6c617465737420636861696e6c696e6b207072696365206265666f726520657870697279a264697066735822122045ff2d0a367c874143c6ba8d884940a329c0e37b3eed207a05d45459a5885e9c64736f6c634300080e0033",
  "linkReferences": {},
  "deployedLinkReferences": {}
}