{
  "_format": "hh-sol-artifact-1",
  "contractName": "GmxHedgingReactor",
  "sourceName": "contracts/hedging/GmxHedgingReactor.sol",
  "abi": [
    {
      "inputs": [
        {
          "internalType": "address",
          "name": "_gmxPositionRouter",
          "type": "address"
        },
        {
          "internalType": "address",
          "name": "_gmxRouter",
          "type": "address"
        },
        {
          "internalType": "address",
          "name": "_gmxReader",
          "type": "address"
        },
        {
          "internalType": "address",
          "name": "_gmxVault",
          "type": "address"
        },
        {
          "internalType": "address",
          "name": "_collateralAsset",
          "type": "address"
        },
        {
          "internalType": "address",
          "name": "_wethAddress",
          "type": "address"
        },
        {
          "internalType": "address",
          "name": "_parentLiquidityPool",
          "type": "address"
        },
        {
          "internalType": "address",
          "name": "_priceFeed",
          "type": "address"
        },
        {
          "internalType": "address",
          "name": "_authority",
          "type": "address"
        }
      ],
      "stateMutability": "nonpayable",
      "type": "constructor"
    },
    {
      "inputs": [],
      "name": "GmxCallbackPending",
      "type": "error"
    },
    {
      "inputs": [],
      "name": "InvalidGmxCallback",
      "type": "error"
    },
    {
      "inputs": [],
      "name": "NoPositionsOpen",
      "type": "error"
    },
    {
      "inputs": [],
      "name": "NotKeeper",
      "type": "error"
    },
    {
      "inputs": [],
      "name": "PRBMathSD59x18__DivInputTooSmall",
      "type": "error"
    },
    {
      "inputs": [
        {
          "internalType": "uint256",
          "name": "rAbs",
          "type": "uint256"
        }
      ],
      "name": "PRBMathSD59x18__DivOverflow",
      "type": "error"
    },
    {
      "inputs": [],
      "name": "PRBMathSD59x18__MulInputTooSmall",
      "type": "error"
    },
    {
      "inputs": [
        {
          "internalType": "uint256",
          "name": "rAbs",
          "type": "uint256"
        }
      ],
      "name": "PRBMathSD59x18__MulOverflow",
      "type": "error"
    },
    {
      "inputs": [
        {
          "internalType": "uint256",
          "name": "prod1",
          "type": "uint256"
        }
      ],
      "name": "PRBMath__MulDivFixedPointOverflow",
      "type": "error"
    },
    {
      "inputs": [
        {
          "internalType": "uint256",
          "name": "prod1",
          "type": "uint256"
        },
        {
          "internalType": "uint256",
          "name": "denominator",
          "type": "uint256"
        }
      ],
      "name": "PRBMath__MulDivOverflow",
      "type": "error"
    },
    {
      "inputs": [],
      "name": "UNAUTHORIZED",
      "type": "error"
    },
    {
      "inputs": [],
      "name": "WithdrawExceedsLiquidity",
      "type": "error"
    },
    {
      "anonymous": false,
      "inputs": [
        {
          "indexed": false,
          "internalType": "contract IAuthority",
          "name": "authority",
          "type": "address"
        }
      ],
      "name": "AuthorityUpdated",
      "type": "event"
    },
    {
      "anonymous": false,
      "inputs": [
        {
          "indexed": false,
          "internalType": "bytes32",
          "name": "positionKey",
          "type": "bytes32"
        }
      ],
      "name": "CreateDecreasePosition",
      "type": "event"
    },
    {
      "anonymous": false,
      "inputs": [
        {
          "indexed": false,
          "internalType": "bytes32",
          "name": "positionKey",
          "type": "bytes32"
        }
      ],
      "name": "CreateIncreasePosition",
      "type": "event"
    },
    {
      "anonymous": false,
      "inputs": [
        {
          "indexed": false,
          "internalType": "int256",
          "name": "deltaChange",
          "type": "int256"
        }
      ],
      "name": "PositionExecuted",
      "type": "event"
    },
    {
      "anonymous": false,
      "inputs": [
        {
          "indexed": false,
          "internalType": "int256",
          "name": "delta",
          "type": "int256"
        }
      ],
      "name": "RebalancePortfolioDeltaFailed",
      "type": "event"
    },
    {
      "inputs": [],
      "name": "authority",
      "outputs": [
        {
          "internalType": "contract IAuthority",
          "name": "",
          "type": "address"
        }
      ],
      "stateMutability": "view",
      "type": "function"
    },
    {
      "inputs": [],
      "name": "checkVaultHealth",
      "outputs": [
        {
          "internalType": "bool",
          "name": "isBelowMin",
          "type": "bool"
        },
        {
          "internalType": "bool",
          "name": "isAboveMax",
          "type": "bool"
        },
        {
          "internalType": "int256",
          "name": "health",
          "type": "int256"
        },
        {
          "internalType": "uint256",
          "name": "collatToTransfer",
          "type": "uint256"
        },
        {
          "internalType": "uint256[]",
          "name": "position",
          "type": "uint256[]"
        },
        {
          "internalType": "bool",
          "name": "",
          "type": "bool"
        }
      ],
      "stateMutability": "view",
      "type": "function"
    },
    {
      "inputs": [],
      "name": "collateralAsset",
      "outputs": [
        {
          "internalType": "address",
          "name": "",
          "type": "address"
        }
      ],
      "stateMutability": "view",
      "type": "function"
    },
    {
      "inputs": [],
      "name": "collateralRemovalPercentage",
      "outputs": [
        {
          "internalType": "int256",
          "name": "",
          "type": "int256"
        }
      ],
      "stateMutability": "view",
      "type": "function"
    },
    {
      "inputs": [],
      "name": "collateralSwapPriceTolerance",
      "outputs": [
        {
          "internalType": "uint256",
          "name": "",
          "type": "uint256"
        }
      ],
      "stateMutability": "view",
      "type": "function"
    },
    {
      "inputs": [
        {
          "internalType": "bytes32",
          "name": "",
          "type": "bytes32"
        }
      ],
      "name": "decreaseOrderDeltaChange",
      "outputs": [
        {
          "internalType": "int256",
          "name": "",
          "type": "int256"
        }
      ],
      "stateMutability": "view",
      "type": "function"
    },
    {
      "inputs": [
        {
          "internalType": "bytes32",
          "name": "positionKey",
          "type": "bytes32"
        }
      ],
      "name": "executeDecreasePosition",
      "outputs": [],
      "stateMutability": "nonpayable",
      "type": "function"
    },
    {
      "inputs": [
        {
          "internalType": "bytes32",
          "name": "positionKey",
          "type": "bytes32"
        }
      ],
      "name": "executeIncreasePosition",
      "outputs": [],
      "stateMutability": "nonpayable",
      "type": "function"
    },
    {
      "inputs": [],
      "name": "getDelta",
      "outputs": [
        {
          "internalType": "int256",
          "name": "",
          "type": "int256"
        }
      ],
      "stateMutability": "view",
      "type": "function"
    },
    {
      "inputs": [],
      "name": "getPoolDenominatedValue",
      "outputs": [
        {
          "internalType": "uint256",
          "name": "value",
          "type": "uint256"
        }
      ],
      "stateMutability": "view",
      "type": "function"
    },
    {
      "inputs": [
        {
          "internalType": "bytes32",
          "name": "positionKey",
          "type": "bytes32"
        },
        {
          "internalType": "bool",
          "name": "isExecuted",
          "type": "bool"
        },
        {
          "internalType": "bool",
          "name": "isIncrease",
          "type": "bool"
        }
      ],
      "name": "gmxPositionCallback",
      "outputs": [],
      "stateMutability": "nonpayable",
      "type": "function"
    },
    {
      "inputs": [],
      "name": "gmxPositionRouter",
      "outputs": [
        {
          "internalType": "contract IPositionRouter",
          "name": "",
          "type": "address"
        }
      ],
      "stateMutability": "view",
      "type": "function"
    },
    {
      "inputs": [],
      "name": "healthFactor",
      "outputs": [
        {
          "internalType": "uint256",
          "name": "",
          "type": "uint256"
        }
      ],
      "stateMutability": "view",
      "type": "function"
    },
    {
      "inputs": [
        {
          "internalType": "int256",
          "name": "_delta",
          "type": "int256"
        }
      ],
      "name": "hedgeDelta",
      "outputs": [
        {
          "internalType": "int256",
          "name": "deltaChange",
          "type": "int256"
        }
      ],
      "stateMutability": "nonpayable",
      "type": "function"
    },
    {
      "inputs": [
        {
          "internalType": "bytes32",
          "name": "",
          "type": "bytes32"
        }
      ],
      "name": "increaseOrderDeltaChange",
      "outputs": [
        {
          "internalType": "int256",
          "name": "",
          "type": "int256"
        }
      ],
      "stateMutability": "view",
      "type": "function"
    },
    {
      "inputs": [],
      "name": "internalDelta",
      "outputs": [
        {
          "internalType": "int256",
          "name": "",
          "type": "int256"
        }
      ],
      "stateMutability": "view",
      "type": "function"
    },
    {
      "inputs": [
        {
          "internalType": "address",
          "name": "",
          "type": "address"
        }
      ],
      "name": "keeper",
      "outputs": [
        {
          "internalType": "bool",
          "name": "",
          "type": "bool"
        }
      ],
      "stateMutability": "view",
      "type": "function"
    },
    {
      "inputs": [],
      "name": "longAndShortOpen",
      "outputs": [
        {
          "internalType": "bool",
          "name": "",
          "type": "bool"
        }
      ],
      "stateMutability": "view",
      "type": "function"
    },
    {
      "inputs": [],
      "name": "openLongDelta",
      "outputs": [
        {
          "internalType": "uint256",
          "name": "",
          "type": "uint256"
        }
      ],
      "stateMutability": "view",
      "type": "function"
    },
    {
      "inputs": [],
      "name": "openShortDelta",
      "outputs": [
        {
          "internalType": "uint256",
          "name": "",
          "type": "uint256"
        }
      ],
      "stateMutability": "view",
      "type": "function"
    },
    {
      "inputs": [],
      "name": "parentLiquidityPool",
      "outputs": [
        {
          "internalType": "address",
          "name": "",
          "type": "address"
        }
      ],
      "stateMutability": "view",
      "type": "function"
    },
    {
      "inputs": [],
      "name": "pendingDecreaseCallback",
      "outputs": [
        {
          "internalType": "uint8",
          "name": "",
          "type": "uint8"
        }
      ],
      "stateMutability": "view",
      "type": "function"
    },
    {
      "inputs": [],
      "name": "pendingIncreaseCallback",
      "outputs": [
        {
          "internalType": "uint8",
          "name": "",
          "type": "uint8"
        }
      ],
      "stateMutability": "view",
      "type": "function"
    },
    {
      "inputs": [],
      "name": "pendingIncreaseCollateralValue",
      "outputs": [
        {
          "internalType": "uint256",
          "name": "",
          "type": "uint256"
        }
      ],
      "stateMutability": "view",
      "type": "function"
    },
    {
      "inputs": [],
      "name": "positionPriceTolerance",
      "outputs": [
        {
          "internalType": "uint256",
          "name": "",
          "type": "uint256"
        }
      ],
      "stateMutability": "view",
      "type": "function"
    },
    {
      "inputs": [],
      "name": "priceFeed",
      "outputs": [
        {
          "internalType": "address",
          "name": "",
          "type": "address"
        }
      ],
      "stateMutability": "view",
      "type": "function"
    },
    {
      "inputs": [],
      "name": "reader",
      "outputs": [
        {
          "internalType": "contract IReader",
          "name": "",
          "type": "address"
        }
      ],
      "stateMutability": "view",
      "type": "function"
    },
    {
      "inputs": [],
      "name": "resetPendingPositionCallbacks",
      "outputs": [],
      "stateMutability": "nonpayable",
      "type": "function"
    },
    {
      "inputs": [],
      "name": "router",
      "outputs": [
        {
          "internalType": "contract IRouter",
          "name": "",
          "type": "address"
        }
      ],
      "stateMutability": "view",
      "type": "function"
    },
    {
      "inputs": [
        {
          "internalType": "contract IAuthority",
          "name": "_newAuthority",
          "type": "address"
        }
      ],
      "name": "setAuthority",
      "outputs": [],
      "stateMutability": "nonpayable",
      "type": "function"
    },
    {
      "inputs": [
        {
          "internalType": "int256",
          "name": "_collateralRemovalPercentage",
          "type": "int256"
        }
      ],
      "name": "setCollateralRemovalPercentage",
      "outputs": [],
      "stateMutability": "nonpayable",
      "type": "function"
    },
    {
      "inputs": [
        {
          "internalType": "uint256",
          "name": "_collateralSwapPriceTolerance",
          "type": "uint256"
        }
      ],
      "name": "setCollateralSwapPriceTolerance",
      "outputs": [],
      "stateMutability": "nonpayable",
      "type": "function"
    },
    {
      "inputs": [
        {
          "internalType": "uint256",
          "name": "_healthFactor",
          "type": "uint256"
        }
      ],
      "name": "setHealthFactor",
      "outputs": [],
      "stateMutability": "nonpayable",
      "type": "function"
    },
    {
      "inputs": [
        {
          "internalType": "address",
          "name": "_keeper",
          "type": "address"
        },
        {
          "internalType": "bool",
          "name": "_auth",
          "type": "bool"
        }
      ],
      "name": "setKeeper",
      "outputs": [],
      "stateMutability": "nonpayable",
      "type": "function"
    },
    {
      "inputs": [
        {
          "internalType": "uint256",
          "name": "_positionPriceTolerance",
          "type": "uint256"
        }
      ],
      "name": "setPositionPriceTolerance",
      "outputs": [],
      "stateMutability": "nonpayable",
      "type": "function"
    },
    {
      "inputs": [
        {
          "internalType": "address",
          "name": "_gmxPositionRouter",
          "type": "address"
        }
      ],
      "name": "setPositionRouter",
      "outputs": [],
      "stateMutability": "nonpayable",
      "type": "function"
    },
    {
      "inputs": [
        {
          "internalType": "address",
          "name": "_priceFeed",
          "type": "address"
        }
      ],
      "name": "setPriceFeed",
      "outputs": [],
      "stateMutability": "nonpayable",
      "type": "function"
    },
    {
      "inputs": [
        {
          "internalType": "address",
          "name": "_reader",
          "type": "address"
        }
      ],
      "name": "setReader",
      "outputs": [],
      "stateMutability": "nonpayable",
      "type": "function"
    },
    {
      "inputs": [
        {
          "internalType": "address",
          "name": "_router",
          "type": "address"
        }
      ],
      "name": "setRouter",
      "outputs": [],
      "stateMutability": "nonpayable",
      "type": "function"
    },
    {
      "inputs": [
        {
          "internalType": "uint256",
          "name": "_amount",
          "type": "uint256"
        },
        {
          "internalType": "address",
          "name": "_receiver",
          "type": "address"
        }
      ],
      "name": "sweepFunds",
      "outputs": [],
      "stateMutability": "nonpayable",
      "type": "function"
    },
    {
      "inputs": [],
      "name": "sync",
      "outputs": [
        {
          "internalType": "int256",
          "name": "",
          "type": "int256"
        }
      ],
      "stateMutability": "nonpayable",
      "type": "function"
    },
    {
      "inputs": [],
      "name": "update",
      "outputs": [
        {
          "internalType": "uint256",
          "name": "",
          "type": "uint256"
        }
      ],
      "stateMutability": "nonpayable",
      "type": "function"
    },
    {
      "inputs": [],
      "name": "vault",
      "outputs": [
        {
          "internalType": "contract IGmxVault",
          "name": "",
          "type": "address"
        }
      ],
      "stateMutability": "view",
      "type": "function"
    },
    {
      "inputs": [],
      "name": "wETH",
      "outputs": [
        {
          "internalType": "address",
          "name": "",
          "type": "address"
        }
      ],
      "stateMutability": "view",
      "type": "function"
    },
    {
      "inputs": [
        {
          "internalType": "uint256",
          "name": "_amount",
          "type": "uint256"
        }
      ],
      "name": "withdraw",
      "outputs": [
        {
          "internalType": "uint256",
          "name": "",
          "type": "uint256"
        }
      ],
      "stateMutability": "nonpayable",
      "type": "function"
    },
    {
      "stateMutability": "payable",
      "type": "receive"
    }
  ],
  "bytecode": "0x610100604052611388600a556611c37937e08000600b556611c37937e08000600c556126ac600d553480156200003457600080fd5b50604051620047f6380380620047f6833981016040819052620000579162000198565b600080546001600160a01b0319166001600160a01b03831690811790915560405190815281907f2f658b440c35314f52658ea8a740e05b284cdc84dc9ae01e891f21b8933e7cad9060200160405180910390a150601080546001600160a01b038a81166001600160a01b03199283168117909355601180548b831690841617905588811660e052600f8054918d169190921681179091556040516338c74dd960e01b815260048101919091526338c74dd990602401600060405180830381600087803b1580156200012757600080fd5b505af11580156200013c573d6000803e3d6000fd5b505050506001600160a01b039283166080525091811660c05291821660a052600e80546001600160a01b03191691909216179055506200025392505050565b80516001600160a01b03811681146200019357600080fd5b919050565b60008060008060008060008060006101208a8c031215620001b857600080fd5b620001c38a6200017b565b9850620001d360208b016200017b565b9750620001e360408b016200017b565b9650620001f360608b016200017b565b95506200020360808b016200017b565b94506200021360a08b016200017b565b93506200022360c08b016200017b565b92506200023360e08b016200017b565b9150620002446101008b016200017b565b90509295985092959850929598565b60805160a05160c05160e05161444a620003ac6000396000818161080601528181610d2201528181610e2c015281816121b301528181612388015261286501526000818161079201528181611ffc0152818161211301528181612250015281816122e40152818161241a01528181612a1301528181612b050152818161335d015281816135520152818161369e0152613c3c0152600081816105790152818161091d015281816109b2015281816109e4015281816113ef01528181611970015281816119f30152818161209501528181612271015281816123050152818161243b01528181612a34015281816133b1015281816134250152818161348c015281816135730152818161359e015281816135ee0152613be801526000818161039d0152818161087a01528181611a1401528181611c9601528181611f9301528181612b3c0152818161345d01526135bf015261444a6000f3fe6080604052600436106102765760003560e01c8063aabaecd61161014f578063d4fc42c6116100c1578063f24286211161007a578063f242862114610780578063f887ea40146107b4578063fbaac115146107d4578063fbfa77cf146107f4578063fc17c3a714610828578063fff6cae91461083e57600080fd5b8063d4fc42c6146106bb578063dd8bdf64146106db578063df0abc3c146106f0578063e8cf860814610710578063edf3daec14610740578063ef630b3c1461076057600080fd5b8063bf7e214f11610113578063bf7e214f14610606578063c0d7865514610626578063c549176e14610646578063c657e7c21461065b578063cfaa55eb1461067b578063d1b9e8531461069b57600080fd5b8063aabaecd614610567578063abf7cfc11461059b578063ade656f9146105bb578063b7aa436d146105db578063ba579a31146105f057600080fd5b806331ae4ec6116101e85780638c0b5abe116101ac5780638c0b5abe146104c557806392d62593146104df5780639598da7f146104f55780639ceb048314610515578063a2e620451461052b578063a7f59ac51461054057600080fd5b806331ae4ec61461042257806367e736d01461044f578063724e78da14610465578063741bef1a146104855780637a9e5e4b146104a557600080fd5b80631969b35b1161023a5780631969b35b1461035f5780631e26f897146103755780632082d8d31461038b57806322841f01146103cc5780632e1a7d4d146103e2578063311117081461040257600080fd5b806305f34d5c1461028257806309198d4d146102a45780630d574cb0146102da578063121a3b92146102fa578063159295b81461033557600080fd5b3661027d57005b600080fd5b34801561028e57600080fd5b506102a261029d366004613c6e565b610853565b005b3480156102b057600080fd5b506004546102c390610100900460ff1681565b60405160ff90911681526020015b60405180910390f35b3480156102e657600080fd5b506102a26102f5366004613c6e565b610860565b34801561030657600080fd5b50610327610315366004613c6e565b60066020526000908152604090205481565b6040519081526020016102d1565b34801561034157600080fd5b5060085461034f9060ff1681565b60405190151581526020016102d1565b34801561036b57600080fd5b50610327600b5481565b34801561038157600080fd5b50610327600c5481565b34801561039757600080fd5b506103bf7f000000000000000000000000000000000000000000000000000000000000000081565b6040516102d19190613c87565b3480156103d857600080fd5b50610327600a5481565b3480156103ee57600080fd5b506103276103fd366004613c6e565b61086d565b34801561040e57600080fd5b506102a261041d366004613c6e565b610a10565b34801561042e57600080fd5b5061032761043d366004613c6e565b60056020526000908152604090205481565b34801561045b57600080fd5b5061032760035481565b34801561047157600080fd5b506102a2610480366004613cb0565b610a1d565b34801561049157600080fd5b50600e546103bf906001600160a01b031681565b3480156104b157600080fd5b506102a26104c0366004613cb0565b610a47565b3480156104d157600080fd5b506004546102c39060ff1681565b3480156104eb57600080fd5b50610327600d5481565b34801561050157600080fd5b506102a2610510366004613cb0565b610aa5565b34801561052157600080fd5b5061032760015481565b34801561053757600080fd5b50610327610acf565b34801561054c57600080fd5b50610555610f5b565b6040516102d196959493929190613ccd565b34801561057357600080fd5b506103bf7f000000000000000000000000000000000000000000000000000000000000000081565b3480156105a757600080fd5b506102a26105b6366004613c6e565b6111f0565b3480156105c757600080fd5b506102a26105d6366004613c6e565b6112dc565b3480156105e757600080fd5b506103276112e9565b3480156105fc57600080fd5b5061032760075481565b34801561061257600080fd5b506000546103bf906001600160a01b031681565b34801561063257600080fd5b506102a2610641366004613cb0565b6115a2565b34801561065257600080fd5b506103276115cc565b34801561066757600080fd5b50600f546103bf906001600160a01b031681565b34801561068757600080fd5b506102a2610696366004613cb0565b6115e0565b3480156106a757600080fd5b506102a26106b6366004613d4d565b611704565b3480156106c757600080fd5b506011546103bf906001600160a01b031681565b3480156106e757600080fd5b506102a2611737565b3480156106fc57600080fd5b506102a261070b366004613d86565b61174c565b34801561071c57600080fd5b5061034f61072b366004613cb0565b60096020526000908152604090205460ff1681565b34801561074c57600080fd5b506102a261075b366004613dab565b611771565b34801561076c57600080fd5b506102a261077b366004613c6e565b611b65565b34801561078c57600080fd5b506103bf7f000000000000000000000000000000000000000000000000000000000000000081565b3480156107c057600080fd5b506010546103bf906001600160a01b031681565b3480156107e057600080fd5b506103276107ef366004613c6e565b611c08565b34801561080057600080fd5b506103bf7f000000000000000000000000000000000000000000000000000000000000000081565b34801561083457600080fd5b5061032760025481565b34801561084a57600080fd5b50610327611cf5565b61085b611d22565b600b55565b610868611d22565b600c55565b6000336001600160a01b037f000000000000000000000000000000000000000000000000000000000000000016146108c05760405162461bcd60e51b81526004016108b790613ded565b60405180910390fd5b60001982036109035760045460ff161515806108e55750600454610100900460ff1615155b15610903576040516316e814a560e31b815260040160405180910390fd5b6040516370a0823160e01b81526000906001600160a01b037f000000000000000000000000000000000000000000000000000000000000000016906370a0823190610952903090600401613c87565b602060405180830381865afa15801561096f573d6000803e3d6000fd5b505050506040513d601f19601f820116820180604052508101906109939190613e0d565b9050806000036109a65750600092915050565b8083116109df576109d87f00000000000000000000000000000000000000000000000000000000000000003385611dca565b5090919050565b610a0a7f00000000000000000000000000000000000000000000000000000000000000003383611dca565b92915050565b610a18611d22565b600a55565b610a25611d22565b600e80546001600160a01b0319166001600160a01b0392909216919091179055565b610a4f611d22565b600080546001600160a01b0319166001600160a01b0383161790556040517f2f658b440c35314f52658ea8a740e05b284cdc84dc9ae01e891f21b8933e7cad90610a9a908390613c87565b60405180910390a150565b610aad611d22565b601180546001600160a01b0319166001600160a01b0392909216919091179055565b6000610ad9611e49565b6000610ae3611cf5565b905080158015610af35750600354155b8015610aff5750600254155b15610b1d57604051630fc9f4a760e21b815260040160405180910390fd5b60045460ff16151580610b395750600454610100900460ff1615155b15610b57576040516316e814a560e31b815260040160405180910390fd5b6000806000806000610b67610f5b565b95509550955050945094508015610cf75760008060008812610c34576000610b8f6000611fd4565b9050610ba16000806002546000612231565b9150600080610bb46002548560006129fc565b600082815260066020526040812080549395509193508392610bd7908490613e3c565b92505081905550610bee6000806002546001612231565b9450600080610c016002548860016129fc565b600082815260066020526040812080549395509193508392610c24908490613e3c565b90915550610ce095505050505050565b6000610c406001611fd4565b9050610c526000806003546001612231565b9250600080610c656003548660016129fc565b600082815260066020526040812080549395509193508392610c88908490613e3c565b92505081905550610c9f6000806003546000612231565b9350600080610cb26003548760006129fc565b600082815260066020526040812080549395509193508392610cd5908490613e3c565b909155505050505050505b610cea8183613e7d565b9850505050505050505090565b8415610d1757610d0a8360008813612d28565b5092979650505050505050565b8315610f4e57612af87f00000000000000000000000000000000000000000000000000000000000000006001600160a01b031663ae3302c26040518163ffffffff1660e01b8152600401602060405180830381865afa158015610d7e573d6000803e3d6000fd5b505050506040513d601f19601f82011682018060405250810190610da29190613e0d565b610dac9190613eab565b69d3c21bcecceda100000083600081518110610dca57610dca613ebf565b6020026020010151610ddc9190613eab565b610de69190613eab565b8369d3c21bcecceda100000084600181518110610e0557610e05613ebf565b6020026020010151610e179190613eab565b610e219190613ed5565b1215610f4157612af87f00000000000000000000000000000000000000000000000000000000000000006001600160a01b031663ae3302c26040518163ffffffff1660e01b8152600401602060405180830381865afa158015610e88573d6000803e3d6000fd5b505050506040513d601f19601f82011682018060405250810190610eac9190613e0d565b610eb69190613eab565b69d3c21bcecceda100000083600081518110610ed457610ed4613ebf565b6020026020010151610ee69190613eab565b610ef09190613eab565b69d3c21bcecceda100000083600181518110610f0e57610f0e613ebf565b6020026020010151610f209190613eab565b610f2a9190613f14565b925082600003610f41576000965050505050505090565b610d0a8360008813612d42565b6000965050505050505090565b6000806000806060600080610f6e612d51565b50509050610f7e60008213611fd4565b925082600081518110610f9357610f93613ebf565b6020026020010151600003610fbf575050600a546008546000965086955090935084925060ff166111e8565b82600781518110610fd257610fd2613ebf565b602002602001015160010361106c57670de0b6b3a76400006127106110518560008151811061100357611003613ebf565b60200260200101518660088151811061101e5761101e613ebf565b60200260200101518760018151811061103957611039613ebf565b602002602001015161104b9190613e7d565b90612e0b565b61105b9190613f2b565b6110659190613eab565b94506110f3565b670de0b6b3a76400006127106110dc8560008151811061108e5761108e613ebf565b6020026020010151866008815181106110a9576110a9613ebf565b6020026020010151876001815181106110c4576110c4613ebf565b60200260200101516110d69190613ed5565b90612e27565b6110e69190613f4a565b6110f09190613fcf565b94505b600a5485131561116157600195506000965069d3c21bcecceda10000006127108460008151811061112657611126613ebf565b6020026020010151600a548861113c9190613f14565b6111469190613f2b565b6111509190613eab565b61115a9190613eab565b93506111df565b600a548512156111c857600196506000955069d3c21bcecceda10000006127108460008151811061119457611194613ebf565b602002602001015187600a546111aa9190613ed5565b6111b49190613f4a565b6111be9190613fcf565b61115a9190613fcf565b50506008546000955085945084925060ff166111e8565b505060085460ff165b909192939495565b600f546040516327b42c0f60e01b81526001600160a01b03909116906327b42c0f906112229084903090600401613ffd565b6020604051808303816000875af192505050801561125d575060408051601f3d908101601f1916820190925261125a91810190614014565b60015b6112d857600f5460405163225fc9fd60e01b81526001600160a01b039091169063225fc9fd906112939084903090600401613ffd565b6020604051808303816000875af19250505080156112ce575060408051601f3d908101601f191682019092526112cb91810190614014565b60015b156112d557505b50565b5050565b6112e4611d22565b600d55565b6000806112f4612d51565b50509050600061130660008313611fd4565b90508060078151811061131b5761131b613ebf565b60200260200101516001036113815764e8d4a510008160088151811061134357611343613ebf565b60200260200101518260018151811061135e5761135e613ebf565b60200260200101516113709190613e7d565b61137a9190613eab565b92506113d4565b64e8d4a510008160088151811061139a5761139a613ebf565b6020026020010151826001815181106113b5576113b5613ebf565b60200260200101516113c79190613f14565b6113d19190613eab565b92505b6040516370a0823160e01b815261146c906001600160a01b037f000000000000000000000000000000000000000000000000000000000000000016906370a0823190611424903090600401613c87565b602060405180830381865afa158015611441573d6000803e3d6000fd5b505050506040513d601f19601f820116820180604052508101906114659190613e0d565b6006612ef9565b6114769084613e7d565b60045490935060ff161561149f57600754611492906006612ef9565b61149c9084613e7d565b92505b60085460ff161561159d5760006114b96000841315611fd4565b9050806007815181106114ce576114ce613ebf565b602002602001015160010361153e5764e8d4a51000816008815181106114f6576114f6613ebf565b60200260200101518260018151811061151157611511613ebf565b60200260200101516115239190613e7d565b61152d9190613eab565b6115379085613e7d565b935061159b565b64e8d4a510008160088151811061155757611557613ebf565b60200260200101518260018151811061157257611572613ebf565b60200260200101516115849190613f14565b61158e9190613eab565b6115989085613e7d565b93505b505b505090565b6115aa611d22565b601080546001600160a01b0319166001600160a01b0392909216919091179055565b6000806115d7612d51565b50909392505050565b6115e8611d22565b60045460ff161515806116045750600454610100900460ff1615155b15611622576040516316e814a560e31b815260040160405180910390fd5b601054600f5460405163cedd437560e01b81526001600160a01b039283169263cedd43759261165692911690600401613c87565b600060405180830381600087803b15801561167057600080fd5b505af1158015611684573d6000803e3d6000fd5b5050600f80546001600160a01b0319166001600160a01b03858116919091179091556010546040516338c74dd960e01b8152911692506338c74dd991506116cf908490600401613c87565b600060405180830381600087803b1580156116e957600080fd5b505af11580156116fd573d6000803e3d6000fd5b5050505050565b61170c611d22565b6001600160a01b03919091166000908152600960205260409020805460ff1916911515919091179055565b61173f611d22565b6004805461ffff19169055565b611754611d22565b4761176c828285116117665784612f2b565b82612f2b565b505050565b600f546001600160a01b0316331461179c576040516396a98daf60e01b815260040160405180910390fd5b811561195657801561187d5760008381526005602052604081205460018054919283926117ca908490613e3c565b909155505060008113156118055780600360008282546117ea9190613e7d565b909155505060025415611805576008805460ff191660011790555b60008112156118435761181781614031565b600260008282546118289190613e7d565b909155505060035415611843576008805460ff191660011790555b6040518181527fdb31703513910da1d355dc22ada2bc0030b94eb49fd4cc6645d01bbce8c7abdd906020015b60405180910390a150611acd565b600083815260066020526040812054600180549192839261189f908490613e3c565b909155505060008113156118d95780600260008282546118bf9190613f14565b90915550506002546000036118d9576008805460ff191690555b6000811215611916576118eb81614031565b600360008282546118fc9190613f14565b9091555050600354600003611916576008805460ff191690555b6000848152600660209081526040918290205491519182527fdb31703513910da1d355dc22ada2bc0030b94eb49fd4cc6645d01bbce8c7abdd910161186f565b6040516370a0823160e01b81526000906001600160a01b037f000000000000000000000000000000000000000000000000000000000000000016906370a08231906119a5903090600401613c87565b602060405180830381865afa1580156119c2573d6000803e3d6000fd5b505050506040513d601f19601f820116820180604052508101906119e69190613e0d565b90508015611a3957611a397f00000000000000000000000000000000000000000000000000000000000000007f000000000000000000000000000000000000000000000000000000000000000083611dca565b8115611a87576000848152600560209081526040918290205491519182527f9ddc73b0ecf0ff47862ca7fe7bd65015c2f35cf9d888e4eaec261921f148b836910160405180910390a1611acb565b6000848152600660209081526040918290205491519182527f9ddc73b0ecf0ff47862ca7fe7bd65015c2f35cf9d888e4eaec261921f148b836910160405180910390a15b505b8015611b1c576004805460ff16906000611ae68361404d565b825460ff9182166101009390930a9283029190920219909116179055506000838152600560205260408120819055600755505050565b60048054610100900460ff16906001611b348361404d565b825460ff9182166101009390930a928302919092021990911617905550600083815260066020526040812055505050565b600f54604051630d4d003d60e01b81526001600160a01b0390911690630d4d003d90611b979084903090600401613ffd565b6020604051808303816000875af1925050508015611bd2575060408051601f3d908101601f19168201909252611bcf91810190614014565b60015b6112d857600f54604051633051b17160e11b81526001600160a01b03909116906360a362e2906112939084903090600401613ffd565b600081600003611c515760405162461bcd60e51b815260206004820152601460248201527364656c7461206368616e6765206973207a65726f60601b60448201526064016108b7565b60045460ff16151580611c6d5750600454610100900460ff1615155b15611c8b576040516316e814a560e31b815260040160405180910390fd5b336001600160a01b037f00000000000000000000000000000000000000000000000000000000000000001614611cd35760405162461bcd60e51b81526004016108b790613ded565b611cdb611cf5565b50611ced611ce883614031565b612f7c565b506000919050565b6000611cff611e49565b6000806000611d0c612d51565b6003919091556002556001819055949350505050565b60008054906101000a90046001600160a01b03166001600160a01b0316630c340a246040518163ffffffff1660e01b8152600401602060405180830381865afa158015611d73573d6000803e3d6000fd5b505050506040513d601f19601f82011682018060405250810190611d97919061406a565b6001600160a01b0316336001600160a01b031614611dc85760405163075fd2b160e01b815260040160405180910390fd5b565b600060405163a9059cbb60e01b81526001600160a01b03841660048201528260248201526000806044836000895af1915050611e0581613152565b611e435760405162461bcd60e51b815260206004820152600f60248201526e1514905394d1915497d19052531151608a1b60448201526064016108b7565b50505050565b3360009081526009602052604090205460ff16158015611eef575060008054906101000a90046001600160a01b03166001600160a01b0316630c340a246040518163ffffffff1660e01b8152600401602060405180830381865afa158015611eb5573d6000803e3d6000fd5b505050506040513d601f19601f82011682018060405250810190611ed9919061406a565b6001600160a01b0316336001600160a01b031614155b8015611f81575060008054906101000a90046001600160a01b03166001600160a01b031663481c6a756040518163ffffffff1660e01b8152600401602060405180830381865afa158015611f47573d6000803e3d6000fd5b505050506040513d601f19601f82011682018060405250810190611f6b919061406a565b6001600160a01b0316336001600160a01b031614155b8015611fb65750336001600160a01b037f00000000000000000000000000000000000000000000000000000000000000001614155b15611dc857604051631ea2564f60e31b815260040160405180910390fd5b60408051600180825281830190925260609160009190602080830190803683370190505090507f00000000000000000000000000000000000000000000000000000000000000008160008151811061202e5761202e613ebf565b6001600160a01b039290921660209283029190910190910152604080516001808252818301909252600091816020016020820280368337505060408051600180825281830190925292935060009291506020808301908036833701905050905084612111577f0000000000000000000000000000000000000000000000000000000000000000826000815181106120c7576120c7613ebf565b60200260200101906001600160a01b031690816001600160a01b0316815250506000816000815181106120fc576120fc613ebf565b9115156020928302919091019091015261218b565b7f00000000000000000000000000000000000000000000000000000000000000008260008151811061214557612145613ebf565b60200260200101906001600160a01b031690816001600160a01b03168152505060018160008151811061217a5761217a613ebf565b911515602092830291909101909101525b60115460405163dc383cab60e01b81526001600160a01b039091169063dc383cab906121e3907f00000000000000000000000000000000000000000000000000000000000000009030908790899088906004016140e1565b600060405180830381865afa158015612200573d6000803e3d6000fd5b505050506040513d6000823e601f3d908101601f191682016040526122289190810190614167565b95945050505050565b600084156125145783156122be576122b7612710600a5461229c6122957f00000000000000000000000000000000000000000000000000000000000000007f0000000000000000000000000000000000000000000000000000000000000000613199565b8790613210565b6122a69190613f2b565b6122b09190613eab565b600661321c565b90506129f4565b6000806122c9610f5b565b50509350509250506000612330612710600a5461229c6123297f00000000000000000000000000000000000000000000000000000000000000007f0000000000000000000000000000000000000000000000000000000000000000613199565b8a90613210565b9050600083801561234057508183115b1561234d57506000612371565b83156123645761235d8383613f14565b9050612371565b61236e8383613e7d565b90505b600061237c87611fd4565b9050600061249b612af87f00000000000000000000000000000000000000000000000000000000000000006001600160a01b031663ae3302c26040518163ffffffff1660e01b8152600401602060405180830381865afa1580156123e4573d6000803e3d6000fd5b505050506040513d601f19601f820116820180604052508101906124089190613e0d565b6124129190613eab565b61246661245f7f00000000000000000000000000000000000000000000000000000000000000007f0000000000000000000000000000000000000000000000000000000000000000613199565b8c90613210565b64e8d4a510008560008151811061247f5761247f613ebf565b60200260200101516124919190613eab565b6122a69190613e7d565b905080836124cd64e8d4a51000856001815181106124bb576124bb613ebf565b60200260200101516122b09190613eab565b6124d79190613e7d565b1015612506576124f964e8d4a51000836001815181106124bb576124bb613ebf565b6125039082613f14565b92505b8296505050505050506129f4565b600061252d600a54612710612e0b90919063ffffffff16565b9050600061253a84611fd4565b905060008160078151811061255157612551613ebf565b60200260200101516001036126bf576126b864e8d4a510008360018151811061257c5761257c613ebf565b602002602001015161258e9190613eab565b6126a664e8d4a510006125c4866001815181106125ad576125ad613ebf565b60200260200101518861321090919063ffffffff16565b6125ce9190613eab565b6110d661261c876000815181106125e7576125e7613ebf565b602002602001015161104b8960028151811061260557612605613ebf565b60200260200101518e61321090919063ffffffff16565b61262e90670de0b6b3a7640000613ed5565b64e8d4a510006126618960088151811061264a5761264a613ebf565b60200260200101518b61321090919063ffffffff16565b61266b9190613eab565b64e8d4a510008960008151811061268457612684613ebf565b60200260200101516126969190613eab565b6126a09190613ed5565b90613250565b6126a090670de0b6b3a7640000613ed5565b9050612849565b6000612708836002815181106126d7576126d7613ebf565b6020026020010151846000815181106126f2576126f2613ebf565b6020026020010151612e0b90919063ffffffff16565b871061272957612724836002815181106126d7576126d7613ebf565b61272b565b865b9050600061277a8460008151811061274557612745613ebf565b602002602001015161104b8660028151811061276357612763613ebf565b60200260200101518561321090919063ffffffff16565b9050612710600d5464e8d4a510008660088151811061279b5761279b613ebf565b60200260200101516127ad9190613eab565b6127f1886110d66127c687670de0b6b3a7640000613ed5565b64e8d4a510008b6000815181106127df576127df613ebf565b60200260200101516126a09190613eab565b64e8d4a510008860018151811061280a5761280a613ebf565b602002602001015161281c9190613eab565b6128269190613ed5565b6128309190613ed5565b61283a9190613f4a565b6128449190613fcf565b925050505b60008082121561285b575060006129e2565b8190506000612af87f00000000000000000000000000000000000000000000000000000000000000006001600160a01b031663ae3302c26040518163ffffffff1660e01b8152600401602060405180830381865afa1580156128c1573d6000803e3d6000fd5b505050506040513d601f19601f820116820180604052508101906128e59190613e0d565b6128ef9190613eab565b64e8d4a5100061291a8a8760008151811061290c5761290c613ebf565b60200260200101518b613312565b8660008151811061292d5761292d613ebf565b602002602001015161293f9190613f14565b6129499190613eab565b6129539190613eab565b9050808264e8d4a510008660018151811061297057612970613ebf565b60200260200101516129829190613eab565b61298c9190613ed5565b12156129e0578064e8d4a51000856001815181106129ac576129ac613ebf565b60200260200101516129be9190613eab565b6129c89190613f14565b9150816000036129e0576000955050505050506129f4565b505b6129ed81600661321c565b9450505050505b949350505050565b6000806000612a0a84611fd4565b90506000612a587f00000000000000000000000000000000000000000000000000000000000000007f0000000000000000000000000000000000000000000000000000000000000000613199565b90506000612a818884600081518110612a7357612a73613ebf565b602002602001015188613312565b600f54604080516363ae210360e01b815290519293506001600160a01b0390911691637be7d1419183916363ae2103916004808201926020929091908290030181865afa158015612ad6573d6000803e3d6000fd5b505050506040513d601f19601f82011682018060405250810190612afa9190613e0d565b612b0389613332565b7f0000000000000000000000000000000000000000000000000000000000000000612b3869d3c21bcecceda10000008d613f2b565b868c7f00000000000000000000000000000000000000000000000000000000000000008e612b955764e8d4a51000612b86600c54670de0b6b3a7640000612b7f9190613e7d565b8d90613210565b612b909190613f2b565b612bbe565b64e8d4a51000612bb4600c54670de0b6b3a7640000612b7f9190613f14565b612bbe9190613f2b565b600f54604080516363ae210360e01b815290516000926001600160a01b0316916363ae21039160048083019260209291908290030181865afa158015612c08573d6000803e3d6000fd5b505050506040513d601f19601f82011682018060405250810190612c2c9190613e0d565b6000306040518d63ffffffff1660e01b8152600401612c559b9a99989796959493929190614219565b60206040518083038185885af1158015612c73573d6000803e3d6000fd5b50505050506040513d601f19601f82011682018060405250810190612c989190613e0d565b94507f7acc4dca09d737f815758c4786c6f133efdaa89d088efd08512f7011a7bd933b85604051612ccb91815260200190565b60405180910390a160048054610100900460ff16906001612ceb8361428c565b91906101000a81548160ff021916908360ff160217905550508486612d105788612d19565b612d1989614031565b94509450505050935093915050565b600080612d3760008585613457565b915091509250929050565b600080612d37600085856129fc565b600080600080612d616001611fd4565b90506000612d6f6000611fd4565b905060008083600081518110612d8757612d87613ebf565b602002602001015111612d9b576000612db1565b612db1836002815181106126d7576126d7613ebf565b905060008083600081518110612dc957612dc9613ebf565b602002602001015111612ddd576000612df3565b612df3836002815181106126d7576126d7613ebf565b9050612dff8183613ed5565b97919650945092505050565b6000612e2083670de0b6b3a7640000846138e5565b9392505050565b6000600160ff1b831480612e3e5750600160ff1b82145b15612e5c5760405163b3c754a360e01b815260040160405180910390fd5b60008060008512612e6d5784612e72565b846000035b915060008412612e825783612e87565b836000035b90506000612e9e83670de0b6b3a7640000846138e5565b90506001600160ff1b03811115612ecb57604051637cb4bef560e01b8152600481018290526024016108b7565b600019808713908613808218600114612ee45782612eed565b612eed83614031565b98975050505050505050565b60006012821115612f0957600080fd5b612f14826012613f14565b9050612f2181600a61438f565b612e209084613f2b565b600080600080600085875af190508061176c5760405162461bcd60e51b815260206004820152601360248201527211551217d514905394d1915497d19052531151606a1b60448201526064016108b7565b600080808313156130615760008060006001541215613012576000612fa28660006139b2565b90506000612fb4600080846000612231565b9050612fc2828260006129fc565b600082815260066020526040812080549397509195508592612fe5908490613e3c565b90915550612ff590508288613ed5565b9650866000036130085750505050505050565b8294506001955050505b6000613022600186886001612231565b905061303086826001613457565b600082815260056020526040812080549396509194508492613053908490613e3c565b9091555061176c9350505050565b600080600060015413156130f457600061308461307d87614031565b60016139b2565b90506000613096600080846001612231565b90506130a4828260016129fc565b6000828152600660205260408120805493975091955085926130c7908490613e3c565b909155506130d790508288613e3c565b9650866000036130ea5750505050505050565b8294506001955050505b600061310c60018661310589614031565b6000612231565b905061312261311a87614031565b826000613457565b600082815260056020526040812080549396509194508492613145908490613e3c565b9091555050505050505050565b60003d8261316457806000803e806000fd5b806020811461317c57801561318d5760009250613192565b816000803e60005115159250613192565b600192505b5050919050565b600e5460405163051ce29b60e21b81526001600160a01b038481166004830152838116602483015260009216906314738a6c90604401602060405180830381865afa1580156131ec573d6000803e3d6000fd5b505050506040513d601f19601f82011682018060405250810190612e209190613e0d565b6000612e2083836139e5565b6000601282111561322c57600080fd5b6000613239836012613f14565b905061324681600a61438f565b6129f49085613eab565b6000600160ff1b8314806132675750600160ff1b82145b1561328557604051630d01a11b60e21b815260040160405180910390fd5b60008060008512613296578461329b565b846000035b9150600084126132ab57836132b0565b836000035b905060006132be83836139e5565b90506001600160ff1b038111156132eb5760405163bf79e8d960e01b8152600481018290526024016108b7565b6000198087139086138082186001146133045782612eed565b505060000395945050505050565b60006129f48261332457600254613328565b6003545b61104b8686613210565b60608115613401576040805160028082526060820183526000926020830190803683370190505090507f00000000000000000000000000000000000000000000000000000000000000008160008151811061338f5761338f613ebf565b60200260200101906001600160a01b031690816001600160a01b0316815250507f0000000000000000000000000000000000000000000000000000000000000000816001815181106133e3576133e3613ebf565b6001600160a01b039092166020928302919091019091015292915050565b604080516001808252818301909252600091602080830190803683370190505090507f0000000000000000000000000000000000000000000000000000000000000000816000815181106133e3576133e3613ebf565b600080837f00000000000000000000000000000000000000000000000000000000000000006001600160a01b031663f8b2cb4f7f00000000000000000000000000000000000000000000000000000000000000006040518263ffffffff1660e01b81526004016134c79190613c87565b602060405180830381865afa1580156134e4573d6000803e3d6000fd5b505050506040513d601f19601f820116820180604052508101906135089190613e0d565b10156135275760405163b84beb5d60e01b815260040160405180910390fd5b60045460ff161561354b576040516316e814a560e31b815260040160405180910390fd5b60006135977f00000000000000000000000000000000000000000000000000000000000000007f0000000000000000000000000000000000000000000000000000000000000000613199565b90506135e57f00000000000000000000000000000000000000000000000000000000000000007f00000000000000000000000000000000000000000000000000000000000000003088613aab565b60105461361d907f0000000000000000000000000000000000000000000000000000000000000000906001600160a01b031687613b45565b600f54604080516363ae210360e01b815290516001600160a01b039092169163f2ae372f9183916363ae2103916004808201926020929091908290030181865afa15801561366f573d6000803e3d6000fd5b505050506040513d601f19601f820116820180604052508101906136939190613e0d565b61369c87613bbd565b7f000000000000000000000000000000000000000000000000000000000000000089896136ca5760006136fe565b6136fe8761104b600b54670de0b6b3a76400006136e79190613f14565b64e8d4a510008f6136f89190613f2b565b90613210565b64e8d4a5100061370e8e8a613210565b6137189190613f2b565b8b8c61374c5764e8d4a5100061373d600c54670de0b6b3a764000061245f9190613f14565b6137479190613f2b565b613775565b64e8d4a5100061376b600c54670de0b6b3a764000061245f9190613e7d565b6137759190613f2b565b600f60009054906101000a90046001600160a01b03166001600160a01b03166363ae21036040518163ffffffff1660e01b8152600401602060405180830381865afa1580156137c8573d6000803e3d6000fd5b505050506040513d601f19601f820116820180604052508101906137ec9190613e0d565b306040518b63ffffffff1660e01b81526004016138119998979695949392919061439b565b60206040518083038185885af115801561382f573d6000803e3d6000fd5b50505050506040513d601f19601f820116820180604052508101906138549190613e0d565b92507f689b0b6d5c7ea6017f2fccf917b5aae50e03c2d8c6bb53287c110b3db5bccda98360405161388791815260200190565b60405180910390a16004805460ff169060006138a28361428c565b91906101000a81548160ff021916908360ff160217905550508460078190555082846138d6576138d187614031565b6138d8565b865b9250925050935093915050565b600080806000198587098587029250828110838203039150508060000361391f5783828161391557613915613e95565b0492505050612e20565b83811061394957604051631dcf306360e21b815260048101829052602481018590526044016108b7565b60008486880960026001871981018816978890046003810283188082028403028082028403028082028403028082028403028082028403029081029092039091026000889003889004909101858311909403939093029303949094049190911702949350505050565b600081156139d45782600354116139cb576003546139cd565b825b9050610a0a565b82600254116139cb576002546139cd565b60008080600019848609848602925082811083820303915050670de0b6b3a76400008110613a295760405163698d9a0160e11b8152600481018290526024016108b7565b600080670de0b6b3a764000086880991506706f05b59d3b1ffff8211905082600003613a675780670de0b6b3a7640000850401945050505050610a0a565b620400008285030493909111909103600160ee1b02919091177faccb18165bd6fe31ae1cf318dc5b51eee0e1ba569b88cd74c1773b91fac106690201905092915050565b600084905060006040516323b872dd60e01b81526001600160a01b03861660048201526001600160a01b03851660248201528360448201526000806064836000875af1915050613afa81613152565b613b3d5760405162461bcd60e51b81526020600482015260146024820152731514905394d1915497d19493d357d1905253115160621b60448201526064016108b7565b505050505050565b600060405163095ea7b360e01b81526001600160a01b03841660048201528260248201526000806044836000895af1915050613b8081613152565b611e435760405162461bcd60e51b815260206004820152600e60248201526d1054141493d59157d1905253115160921b60448201526064016108b7565b60608115613401576040805160028082526060820183526000926020830190803683370190505090507f000000000000000000000000000000000000000000000000000000000000000081600081518110613c1a57613c1a613ebf565b60200260200101906001600160a01b031690816001600160a01b0316815250507f0000000000000000000000000000000000000000000000000000000000000000816001815181106133e3576133e3613ebf565b600060208284031215613c8057600080fd5b5035919050565b6001600160a01b0391909116815260200190565b6001600160a01b03811681146112d557600080fd5b600060208284031215613cc257600080fd5b8135612e2081613c9b565b600060c08201881515835260208815158185015287604085015286606085015260c0608085015281865180845260e086019150828801935060005b81811015613d2457845183529383019391830191600101613d08565b505080935050505082151560a0830152979650505050505050565b80151581146112d557600080fd5b60008060408385031215613d6057600080fd5b8235613d6b81613c9b565b91506020830135613d7b81613d3f565b809150509250929050565b60008060408385031215613d9957600080fd5b823591506020830135613d7b81613c9b565b600080600060608486031215613dc057600080fd5b833592506020840135613dd281613d3f565b91506040840135613de281613d3f565b809150509250925092565b602080825260069082015265085d985d5b1d60d21b604082015260600190565b600060208284031215613e1f57600080fd5b5051919050565b634e487b7160e01b600052601160045260246000fd5b600080821280156001600160ff1b0384900385131615613e5e57613e5e613e26565b600160ff1b8390038412811615613e7757613e77613e26565b50500190565b60008219821115613e9057613e90613e26565b500190565b634e487b7160e01b600052601260045260246000fd5b600082613eba57613eba613e95565b500490565b634e487b7160e01b600052603260045260246000fd5b60008083128015600160ff1b850184121615613ef357613ef3613e26565b6001600160ff1b0384018313811615613f0e57613f0e613e26565b50500390565b600082821015613f2657613f26613e26565b500390565b6000816000190483118215151615613f4557613f45613e26565b500290565b60006001600160ff1b0381841382841380821686840486111615613f7057613f70613e26565b600160ff1b6000871282811687830589121615613f8f57613f8f613e26565b60008712925087820587128484161615613fab57613fab613e26565b87850587128184161615613fc157613fc1613e26565b505050929093029392505050565b600082613fde57613fde613e95565b600160ff1b821460001984141615613ff857613ff8613e26565b500590565b9182526001600160a01b0316602082015260400190565b60006020828403121561402657600080fd5b8151612e2081613d3f565b6000600160ff1b820161404657614046613e26565b5060000390565b600060ff82168061406057614060613e26565b6000190192915050565b60006020828403121561407c57600080fd5b8151612e2081613c9b565b634e487b7160e01b600052604160045260246000fd5b600081518084526020808501945080840160005b838110156140d65781516001600160a01b0316875295820195908201906001016140b1565b509495945050505050565b600060018060a01b03808816835260208188168185015260a0604085015261410c60a085018861409d565b91508382036060850152614120828761409d565b8481036080860152855180825282870193509082019060005b81811015614157578451151583529383019391830191600101614139565b50909a9950505050505050505050565b6000602080838503121561417a57600080fd5b825167ffffffffffffffff8082111561419257600080fd5b818501915085601f8301126141a657600080fd5b8151818111156141b8576141b8614087565b8060051b604051601f19603f830116810181811085821117156141dd576141dd614087565b6040529182528482019250838101850191888311156141fb57600080fd5b938501935b82851015612eed57845184529385019392850192614200565b600061016080835261422d8184018f61409d565b6001600160a01b039d8e166020850152604084019c909c5250506060810198909852951515608088015293881660a087015260c086019290925260e0850152610100840152151561012083015290921661014090920191909152919050565b600060ff821660ff81036142a2576142a2613e26565b60010192915050565b600181815b808511156142e65781600019048211156142cc576142cc613e26565b808516156142d957918102915b93841c93908002906142b0565b509250929050565b6000826142fd57506001610a0a565b8161430a57506000610a0a565b8160018114614320576002811461432a57614346565b6001915050610a0a565b60ff84111561433b5761433b613e26565b50506001821b610a0a565b5060208310610133831016604e8410600b8410161715614369575081810a610a0a565b61437383836142ab565b806000190482111561438757614387613e26565b029392505050565b6000612e2083836142ee565b60006101408083526143af8184018d61409d565b6001600160a01b039b8c166020850152604084019a909a5250506060810196909652608086019490945291151560a085015260c084015260e08301526c3632bb32b930b3b2b4b9b33ab760991b6101008301529092166101209092019190915291905056fea264697066735822122051810d0c6c1ca533e266f086889aae8069ab505df311224df4f67619c2567d4064736f6c634300080e0033",
  "linkReferences": {},
  "deployedLinkReferences": {}
}