{
  "_format": "hh-sol-artifact-1",
  "contractName": "VolatilityFeed",
  "sourceName": "contracts/VolatilityFeed.sol",
  "abi": [
    {
      "inputs": [
        {
          "internalType": "address",
          "name": "_authority",
          "type": "address"
        }
      ],
      "stateMutability": "nonpayable",
      "type": "constructor"
    },
    {
      "inputs": [],
      "name": "AlphaError",
      "type": "error"
    },
    {
      "inputs": [],
      "name": "BetaError",
      "type": "error"
    },
    {
      "inputs": [],
      "name": "IVNotFound",
      "type": "error"
    },
    {
      "inputs": [],
      "name": "InterestRateError",
      "type": "error"
    },
    {
      "inputs": [],
      "name": "NotKeeper",
      "type": "error"
    },
    {
      "inputs": [],
      "name": "OptionExpiryInvalid",
      "type": "error"
    },
    {
      "inputs": [],
      "name": "PRBMathSD59x18__AbsInputTooSmall",
      "type": "error"
    },
    {
      "inputs": [],
      "name": "PRBMathSD59x18__DivInputTooSmall",
      "type": "error"
    },
    {
      "inputs": [
        {
          "internalType": "uint256",
          "name": "rAbs",
          "type": "uint256"
        }
      ],
      "name": "PRBMathSD59x18__DivOverflow",
      "type": "error"
    },
    {
      "inputs": [
        {
          "internalType": "int256",
          "name": "x",
          "type": "int256"
        }
      ],
      "name": "PRBMathSD59x18__Exp2InputTooBig",
      "type": "error"
    },
    {
      "inputs": [
        {
          "internalType": "int256",
          "name": "x",
          "type": "int256"
        }
      ],
      "name": "PRBMathSD59x18__ExpInputTooBig",
      "type": "error"
    },
    {
      "inputs": [
        {
          "internalType": "int256",
          "name": "x",
          "type": "int256"
        }
      ],
      "name": "PRBMathSD59x18__LogInputTooSmall",
      "type": "error"
    },
    {
      "inputs": [],
      "name": "PRBMathSD59x18__MulInputTooSmall",
      "type": "error"
    },
    {
      "inputs": [
        {
          "internalType": "uint256",
          "name": "rAbs",
          "type": "uint256"
        }
      ],
      "name": "PRBMathSD59x18__MulOverflow",
      "type": "error"
    },
    {
      "inputs": [
        {
          "internalType": "uint256",
          "name": "rAbs",
          "type": "uint256"
        }
      ],
      "name": "PRBMathSD59x18__PowuOverflow",
      "type": "error"
    },
    {
      "inputs": [
        {
          "internalType": "int256",
          "name": "x",
          "type": "int256"
        }
      ],
      "name": "PRBMathSD59x18__SqrtNegativeInput",
      "type": "error"
    },
    {
      "inputs": [
        {
          "internalType": "int256",
          "name": "x",
          "type": "int256"
        }
      ],
      "name": "PRBMathSD59x18__SqrtOverflow",
      "type": "error"
    },
    {
      "inputs": [
        {
          "internalType": "uint256",
          "name": "prod1",
          "type": "uint256"
        }
      ],
      "name": "PRBMath__MulDivFixedPointOverflow",
      "type": "error"
    },
    {
      "inputs": [
        {
          "internalType": "uint256",
          "name": "prod1",
          "type": "uint256"
        },
        {
          "internalType": "uint256",
          "name": "denominator",
          "type": "uint256"
        }
      ],
      "name": "PRBMath__MulDivOverflow",
      "type": "error"
    },
    {
      "inputs": [],
      "name": "RhoError",
      "type": "error"
    },
    {
      "inputs": [],
      "name": "UNAUTHORIZED",
      "type": "error"
    },
    {
      "inputs": [],
      "name": "VolvolError",
      "type": "error"
    },
    {
      "anonymous": false,
      "inputs": [
        {
          "indexed": false,
          "internalType": "contract IAuthority",
          "name": "authority",
          "type": "address"
        }
      ],
      "name": "AuthorityUpdated",
      "type": "event"
    },
    {
      "anonymous": false,
      "inputs": [
        {
          "indexed": false,
          "internalType": "address",
          "name": "keeper",
          "type": "address"
        },
        {
          "indexed": false,
          "internalType": "bool",
          "name": "auth",
          "type": "bool"
        }
      ],
      "name": "KeeperUpdated",
      "type": "event"
    },
    {
      "anonymous": false,
      "inputs": [
        {
          "indexed": true,
          "internalType": "uint256",
          "name": "_expiry",
          "type": "uint256"
        },
        {
          "indexed": false,
          "internalType": "int32",
          "name": "callAlpha",
          "type": "int32"
        },
        {
          "indexed": false,
          "internalType": "int32",
          "name": "callBeta",
          "type": "int32"
        },
        {
          "indexed": false,
          "internalType": "int32",
          "name": "callRho",
          "type": "int32"
        },
        {
          "indexed": false,
          "internalType": "int32",
          "name": "callVolvol",
          "type": "int32"
        },
        {
          "indexed": false,
          "internalType": "int32",
          "name": "putAlpha",
          "type": "int32"
        },
        {
          "indexed": false,
          "internalType": "int32",
          "name": "putBeta",
          "type": "int32"
        },
        {
          "indexed": false,
          "internalType": "int32",
          "name": "putRho",
          "type": "int32"
        },
        {
          "indexed": false,
          "internalType": "int32",
          "name": "putVolvol",
          "type": "int32"
        },
        {
          "indexed": false,
          "internalType": "int256",
          "name": "interestRate",
          "type": "int256"
        }
      ],
      "name": "SabrParamsSet",
      "type": "event"
    },
    {
      "inputs": [],
      "name": "authority",
      "outputs": [
        {
          "internalType": "contract IAuthority",
          "name": "",
          "type": "address"
        }
      ],
      "stateMutability": "view",
      "type": "function"
    },
    {
      "inputs": [
        {
          "internalType": "uint256",
          "name": "",
          "type": "uint256"
        }
      ],
      "name": "expiries",
      "outputs": [
        {
          "internalType": "uint256",
          "name": "",
          "type": "uint256"
        }
      ],
      "stateMutability": "view",
      "type": "function"
    },
    {
      "inputs": [],
      "name": "getExpiries",
      "outputs": [
        {
          "internalType": "uint256[]",
          "name": "",
          "type": "uint256[]"
        }
      ],
      "stateMutability": "view",
      "type": "function"
    },
    {
      "inputs": [
        {
          "internalType": "bool",
          "name": "isPut",
          "type": "bool"
        },
        {
          "internalType": "uint256",
          "name": "underlyingPrice",
          "type": "uint256"
        },
        {
          "internalType": "uint256",
          "name": "strikePrice",
          "type": "uint256"
        },
        {
          "internalType": "uint256",
          "name": "expiration",
          "type": "uint256"
        }
      ],
      "name": "getImpliedVolatility",
      "outputs": [
        {
          "internalType": "uint256",
          "name": "vol",
          "type": "uint256"
        }
      ],
      "stateMutability": "view",
      "type": "function"
    },
    {
      "inputs": [
        {
          "internalType": "bool",
          "name": "isPut",
          "type": "bool"
        },
        {
          "internalType": "uint256",
          "name": "underlyingPrice",
          "type": "uint256"
        },
        {
          "internalType": "uint256",
          "name": "strikePrice",
          "type": "uint256"
        },
        {
          "internalType": "uint256",
          "name": "expiration",
          "type": "uint256"
        }
      ],
      "name": "getImpliedVolatilityWithForward",
      "outputs": [
        {
          "internalType": "uint256",
          "name": "vol",
          "type": "uint256"
        },
        {
          "internalType": "uint256",
          "name": "forward",
          "type": "uint256"
        }
      ],
      "stateMutability": "view",
      "type": "function"
    },
    {
      "inputs": [
        {
          "internalType": "address",
          "name": "",
          "type": "address"
        }
      ],
      "name": "keeper",
      "outputs": [
        {
          "internalType": "bool",
          "name": "",
          "type": "bool"
        }
      ],
      "stateMutability": "view",
      "type": "function"
    },
    {
      "inputs": [
        {
          "internalType": "uint256",
          "name": "",
          "type": "uint256"
        }
      ],
      "name": "sabrParams",
      "outputs": [
        {
          "internalType": "int32",
          "name": "callAlpha",
          "type": "int32"
        },
        {
          "internalType": "int32",
          "name": "callBeta",
          "type": "int32"
        },
        {
          "internalType": "int32",
          "name": "callRho",
          "type": "int32"
        },
        {
          "internalType": "int32",
          "name": "callVolvol",
          "type": "int32"
        },
        {
          "internalType": "int32",
          "name": "putAlpha",
          "type": "int32"
        },
        {
          "internalType": "int32",
          "name": "putBeta",
          "type": "int32"
        },
        {
          "internalType": "int32",
          "name": "putRho",
          "type": "int32"
        },
        {
          "internalType": "int32",
          "name": "putVolvol",
          "type": "int32"
        },
        {
          "internalType": "int256",
          "name": "interestRate",
          "type": "int256"
        }
      ],
      "stateMutability": "view",
      "type": "function"
    },
    {
      "inputs": [
        {
          "internalType": "contract IAuthority",
          "name": "_newAuthority",
          "type": "address"
        }
      ],
      "name": "setAuthority",
      "outputs": [],
      "stateMutability": "nonpayable",
      "type": "function"
    },
    {
      "inputs": [
        {
          "internalType": "address",
          "name": "_keeper",
          "type": "address"
        },
        {
          "internalType": "bool",
          "name": "_auth",
          "type": "bool"
        }
      ],
      "name": "setKeeper",
      "outputs": [],
      "stateMutability": "nonpayable",
      "type": "function"
    },
    {
      "inputs": [
        {
          "components": [
            {
              "internalType": "int32",
              "name": "callAlpha",
              "type": "int32"
            },
            {
              "internalType": "int32",
              "name": "callBeta",
              "type": "int32"
            },
            {
              "internalType": "int32",
              "name": "callRho",
              "type": "int32"
            },
            {
              "internalType": "int32",
              "name": "callVolvol",
              "type": "int32"
            },
            {
              "internalType": "int32",
              "name": "putAlpha",
              "type": "int32"
            },
            {
              "internalType": "int32",
              "name": "putBeta",
              "type": "int32"
            },
            {
              "internalType": "int32",
              "name": "putRho",
              "type": "int32"
            },
            {
              "internalType": "int32",
              "name": "putVolvol",
              "type": "int32"
            },
            {
              "internalType": "int256",
              "name": "interestRate",
              "type": "int256"
            }
          ],
          "internalType": "struct VolatilityFeed.SABRParams",
          "name": "_sabrParams",
          "type": "tuple"
        },
        {
          "internalType": "uint256",
          "name": "_expiry",
          "type": "uint256"
        }
      ],
      "name": "setSabrParameters",
      "outputs": [],
      "stateMutability": "nonpayable",
      "type": "function"
    }
  ],
  "bytecode": "0x608060405234801561001057600080fd5b5060405162002561380380620025618339810160408190526100319161008b565b600080546001600160a01b0319166001600160a01b03831690811790915560405190815281907f2f658b440c35314f52658ea8a740e05b284cdc84dc9ae01e891f21b8933e7cad9060200160405180910390a150506100bb565b60006020828403121561009d57600080fd5b81516001600160a01b03811681146100b457600080fd5b9392505050565b61249680620000cb6000396000f3fe608060405234801561001057600080fd5b506004361061009e5760003560e01c8063bf7e214f11610066578063bf7e214f1461012c578063d1b9e85314610157578063e444c0291461016a578063e8cf8608146101f2578063fca7cd881461022557600080fd5b806304fb63ed146100a357806367a35e47146100d0578063765bb6a1146100f15780637a9e5e4b14610106578063b9cce32814610119575b600080fd5b6100b66100b1366004612087565b61023a565b604080519283526020830191909152015b60405180910390f35b6100e36100de366004612087565b610256565b6040519081526020016100c7565b6101046100ff36600461210a565b61026e565b005b6101046101143660046121e9565b610649565b6100e3610127366004612206565b6106a5565b60005461013f906001600160a01b031681565b6040516001600160a01b0390911681526020016100c7565b61010461016536600461221f565b6106c6565b6101dd610178366004612206565b60016020819052600091825260409091208054910154600382810b92600160201b8104820b92600160401b8204830b92600160601b8304810b92600160801b8104820b92600160a01b8204830b92600160c01b8304810b92600160e01b9004900b9089565b6040516100c799989796959493929190612254565b6102156102003660046121e9565b60026020526000908152604090205460ff1681565b60405190151581526020016100c7565b61022d610731565b6040516100c791906122a1565b60008061024986868686610789565b9097909650945050505050565b600061026485858585610789565b5095945050505050565b6102766109bb565b6000826000015160030b13158061029557506000826080015160030b13155b156102b357604051632d2a75a760e11b815260040160405180910390fd5b6000826060015160030b1315806102d2575060008260e0015160030b13155b156102f057604051637e5528f560e01b815260040160405180910390fd5b6000826020015160030b1315806103105750620f4240826020015160030b135b80610323575060008260a0015160030b13155b806103375750620f42408260a0015160030b135b1561035557604051631906f32160e01b815260040160405180910390fd5b610361620f42406122fb565b826040015160030b1315806103805750620f4240826040015160030b12155b8061039d5750610392620f42406122fb565b8260c0015160030b13155b806103b25750620f42408260c0015160030b12155b156103d05760405163d2e5a34b60e01b815260040160405180910390fd5b680ad78ebc5ac620000082610100015113806103fa5750680ad78ebc5ac61fffff19826101000151125b1561041857604051636301f98360e11b815260040160405180910390fd5b60008181526001602052604081205460030b900361046657600380546001810182556000919091527fc2575a0e9e593c00f959f8c92f12db2869c3395a3b0502d05e2516446f71f85b018190555b816001600083815260200190815260200160002060008201518160000160006101000a81548163ffffffff021916908360030b63ffffffff16021790555060208201518160000160046101000a81548163ffffffff021916908360030b63ffffffff16021790555060408201518160000160086101000a81548163ffffffff021916908360030b63ffffffff160217905550606082015181600001600c6101000a81548163ffffffff021916908360030b63ffffffff16021790555060808201518160000160106101000a81548163ffffffff021916908360030b63ffffffff16021790555060a08201518160000160146101000a81548163ffffffff021916908360030b63ffffffff16021790555060c08201518160000160186101000a81548163ffffffff021916908360030b63ffffffff16021790555060e082015181600001601c6101000a81548163ffffffff021916908360030b63ffffffff1602179055506101008201518160010155905050807f8b29aa77aa6e64b49618ac800d9ca789130466b2459969b724a470f99c7a143d836000015184602001518560400151866060015187608001518860a001518960c001518a60e001518b610100015160405161063d99989796959493929190612254565b60405180910390a25050565b610651610b13565b600080546001600160a01b0319166001600160a01b0383169081179091556040519081527f2f658b440c35314f52658ea8a740e05b284cdc84dc9ae01e891f21b8933e7cad9060200160405180910390a150565b600381815481106106b557600080fd5b600091825260209091200154905081565b6106ce610b13565b6001600160a01b038216600081815260026020908152604091829020805460ff19168515159081179091558251938452908301527f786c9db967bf0c6b16c7c91adae8a8c554b15a57d373fa2059607300f4616c00910160405180910390a15050565b6060600380548060200260200160405190810160405280929190818152602001828054801561077f57602002820191906000526020600020905b81548152602001906001019080831161076b575b5050505050905090565b600080806107a56301e187e061079f4287612310565b90610bb9565b9050600081136107c8576040516366bfac3d60e01b815260040160405180910390fd5b60008481526001602081815260408084208151610120810183528154600381810b808452600160201b8304820b96840196909652600160401b8204810b94830194909452600160601b8104840b6060830152600160801b8104840b6080830152600160a01b8104840b60a0830152600160c01b8104840b60c0830152600160e01b900490920b60e083015290920154610100830152820361087c576040516304485c2d60e41b815260040160405180910390fd5b60006108a86108a161089c86856101000151610c9090919063ffffffff16565b610d52565b8a90610c90565b9050896109215761091a88828664e8d4a51000866000015160030b6108cd919061234f565b64e8d4a51000876020015160030b6108e5919061234f565b64e8d4a51000886040015160030b6108fd919061234f565b64e8d4a51000896060015160030b610915919061234f565b610dc9565b925061098a565b61098788828664e8d4a51000866080015160030b61093f919061234f565b64e8d4a510008760a0015160030b610957919061234f565b64e8d4a510008860c0015160030b61096f919061234f565b64e8d4a510008960e0015160030b610915919061234f565b92505b600083136109ab576040516304485c2d60e41b815260040160405180910390fd5b9199919850909650505050505050565b3360009081526002602052604090205460ff16158015610a61575060008054906101000a90046001600160a01b03166001600160a01b0316630c340a246040518163ffffffff1660e01b8152600401602060405180830381865afa158015610a27573d6000803e3d6000fd5b505050506040513d601f19601f82011682018060405250810190610a4b91906123d4565b6001600160a01b0316336001600160a01b031614155b8015610af3575060008054906101000a90046001600160a01b03166001600160a01b031663481c6a756040518163ffffffff1660e01b8152600401602060405180830381865afa158015610ab9573d6000803e3d6000fd5b505050506040513d601f19601f82011682018060405250810190610add91906123d4565b6001600160a01b0316336001600160a01b031614155b15610b1157604051631ea2564f60e31b815260040160405180910390fd5b565b60008054906101000a90046001600160a01b03166001600160a01b0316630c340a246040518163ffffffff1660e01b8152600401602060405180830381865afa158015610b64573d6000803e3d6000fd5b505050506040513d601f19601f82011682018060405250810190610b8891906123d4565b6001600160a01b0316336001600160a01b031614610b115760405163075fd2b160e01b815260040160405180910390fd5b6000600160ff1b831480610bd05750600160ff1b82145b15610bee5760405163b3c754a360e01b815260040160405180910390fd5b60008060008512610bff5784610c04565b846000035b915060008412610c145783610c19565b836000035b90506000610c3083670de0b6b3a7640000846111a0565b90506001600160ff1b03811115610c6257604051637cb4bef560e01b8152600481018290526024015b60405180910390fd5b600019808713908613808218600114610c7b5782610c84565b610c84836122fb565b98975050505050505050565b6000600160ff1b831480610ca75750600160ff1b82145b15610cc557604051630d01a11b60e21b815260040160405180910390fd5b60008060008512610cd65784610cdb565b846000035b915060008412610ceb5783610cf0565b836000035b90506000610cfe838361126c565b90506001600160ff1b03811115610d2b5760405163bf79e8d960e01b815260048101829052602401610c59565b600019808713908613808218600114610d445782610c84565b505060000395945050505050565b600068023f2fa8f6da5b9d3119821215610d6e57506000919050565b680736ea4425c11ac6318212610d9a576040516399bb754160e01b815260048101839052602401610c59565b6714057b7ef767814f8202610dc2670de0b6b3a76400006706f05b59d3b20000830105611333565b9392505050565b60008088131580610ddb575060008713155b15610de857506000611195565b610e3e604051806101400160405280600081526020016000815260200160008152602001600081526020016000815260200160008152602001600081526020016000815260200160008152602001600081525090565b60e0810189905261010081018890526101208101879052670de0b6b3a7640000859003610e7b5760008082526080820181905260a0820152610f70565b610ee4610ea5610e958361010001518460e00151896113d0565b68014d1120d7b160000090610c90565b61079f610eba89671bc16d674ec800006113f9565b610ede671bc16d674ec80000610ed88b670de0b6b3a7640000612310565b906113f9565b90610c90565b816000018181525050610f1b68014d1120d7b160000061079f610eba6002610f158661010001518760e0015161143b565b9061144f565b816080018181525050610f6a6868155a43676e00000061079f610f4c6004610f158661010001518760e0015161143b565b610ede673782dace9d900000610ed88b670de0b6b3a7640000612310565b60a08201525b610fa9610f8f610f8a8361010001518460e00151896113d0565b611509565b61079f88610ede87818b816703782dace9d900008d610c90565b6020820152610fff68014d1120d7b160000061079f610fd086671bc16d674ec800006113f9565b610fed610fde89600261144f565b6729a2241af62c000090610c90565b610ede90671bc16d674ec80000612310565b604082015261010081015160e082015161101d91610f8a91886113d0565b8160600181815250506110618661079f6110408461010001518560e0015161143b565b610ede61105a610f8a8761010001518860e001518d6113d0565b8890610c90565b60c0820181905264174876e800906110789061157f565b131561112457600061111a6110c9611094878560c001516115ba565b610ede8560a001518660800151670de0b6b3a76400006110b49190612407565b6110be9190612407565b606087015190610c90565b61079f6110f88561012001518660400151876020015188600001516110ee9190612407565b610ede9190612407565b61110a90670de0b6b3a7640000612407565b60c0860151610ede908c90610c90565b9250611195915050565b600061111a61115e8360a001518460800151670de0b6b3a76400006111499190612407565b6111539190612407565b606085015190610c90565b61079f6111838561012001518660400151876020015188600001516110ee9190612407565b6108a190670de0b6b3a7640000612407565b979650505050505050565b60008080600019858709858702925082811083820303915050806000036111da578382816111d0576111d06123f1565b0492505050610dc2565b83811061120457604051631dcf306360e21b81526004810182905260248101859052604401610c59565b600084868809600260036001881981018916988990049182028318808302840302808302840302808302840302808302840302808302840302918202909203026000889003889004909101858311909403939093029303949094049190911702949350505050565b60008080600019848609848602925082811083820303915050670de0b6b3a764000081106112b05760405163698d9a0160e11b815260048101829052602401610c59565b600080670de0b6b3a764000086880991506706f05b59d3b1ffff82119050826000036112ee5780670de0b6b3a764000085040194505050505061132d565b620400008285030493909111909103600160ee1b02919091177faccb18165bd6fe31ae1cf318dc5b51eee0e1ba569b88cd74c1773b91fac10669020190505b92915050565b6000808212156113875768033dd1780914b971141982121561135757506000919050565b61136382600003611333565b6ec097ce7bc90715b34b9f100000000081611380576113806123f1565b0592915050565b680a688906bd8b00000082126113b35760405163e69458f960e01b815260048101839052602401610c59565b670de0b6b3a7640000604083901b04610dc281611640565b919050565b60006113f16113e783670de0b6b3a7640000612310565b610ed88686610c90565b949350505050565b60008260000361142157811561141057600061141a565b670de0b6b3a76400005b905061132d565b610dc261143661143085611d1b565b84610c90565b611333565b6000610dc261144a8484610bb9565b611e00565b60008061145b8461157f565b9050600080846001161161147757670de0b6b3a7640000611479565b815b9050600184901c5b80156114b157611491838461126c565b925060018116156114a9576114a6828461126c565b91505b60011c611481565b6001600160ff1b038211156114df576040516001624ea43360e01b0319815260048101839052602401610c59565b600080871280156114f35750856001166001145b9050806115005782611195565b611195836122fb565b60008082121561152f5760405163608c83ff60e11b815260048101839052602401610c59565b7809392ee8e921d5d073aff322e62439fcf32d7f344649470f9082131561156c57604051632c482c3960e01b815260048101839052602401610c59565b61132d670de0b6b3a76400008302611e2b565b6000600160ff1b82036115a557604051631d0742e360e21b815260040160405180910390fd5b600082126115b3578161132d565b5060000390565b60008083836115fe6115cd82600261144f565b6115d78888610c90565b6115e290600261234f565b6115f490670de0b6b3a7640000612310565b610f8a9190612407565b6116089190612407565b6116129190612310565b9050600061162885670de0b6b3a7640000612310565b905061163761144a8383610bb9565b95945050505050565b600160bf1b6001603f1b8216156116605768016a09e667f3bcc9090260401c5b6001603e1b82161561167b576801306fe0a31b7152df0260401c5b6001603d1b821615611696576801172b83c7d517adce0260401c5b6001603c1b8216156116b15768010b5586cf9890f62a0260401c5b6001603b1b8216156116cc576801059b0d31585743ae0260401c5b6001603a1b8216156116e757680102c9a3e778060ee70260401c5b600160391b8216156117025768010163da9fb33356d80260401c5b600160381b82161561171d57680100b1afa5abcbed610260401c5b668000000000000082161561173b5768010058c86da1c09ea20260401c5b6640000000000000821615611759576801002c605e2e8cec500260401c5b662000000000000082161561177757680100162f3904051fa10260401c5b6610000000000000821615611795576801000b175effdc76ba0260401c5b66080000000000008216156117b357680100058ba01fb9f96d0260401c5b66040000000000008216156117d15768010002c5cc37da94920260401c5b66020000000000008216156117ef576801000162e525ee05470260401c5b660100000000000082161561180d5768010000b17255775c040260401c5b6580000000000082161561182a576801000058b91b5bc9ae0260401c5b6540000000000082161561184757680100002c5c89d5ec6d0260401c5b652000000000008216156118645768010000162e43f4f8310260401c5b6510000000000082161561188157680100000b1721bcfc9a0260401c5b6508000000000082161561189e5768010000058b90cf1e6e0260401c5b650400000000008216156118bb576801000002c5c863b73f0260401c5b650200000000008216156118d857680100000162e430e5a20260401c5b650100000000008216156118f5576801000000b1721835510260401c5b64800000000082161561191157680100000058b90c0b490260401c5b64400000000082161561192d5768010000002c5c8601cc0260401c5b642000000000821615611949576801000000162e42fff00260401c5b6410000000008216156119655768010000000b17217fbb0260401c5b640800000000821615611981576801000000058b90bfce0260401c5b64040000000082161561199d57680100000002c5c85fe30260401c5b6402000000008216156119b95768010000000162e42ff10260401c5b600160201b8216156119d457680100000000b17217f80260401c5b63800000008216156119ef5768010000000058b90bfc0260401c5b6340000000821615611a0a576801000000002c5c85fe0260401c5b6320000000821615611a2557680100000000162e42ff0260401c5b6310000000821615611a40576801000000000b17217f0260401c5b6308000000821615611a5b57680100000000058b90c00260401c5b6304000000821615611a765768010000000002c5c8600260401c5b6302000000821615611a91576801000000000162e4300260401c5b6301000000821615611aac5768010000000000b172180260401c5b62800000821615611ac6576801000000000058b90c0260401c5b62400000821615611ae057680100000000002c5c860260401c5b62200000821615611afa5768010000000000162e430260401c5b62100000821615611b1457680100000000000b17210260401c5b62080000821615611b2e5768010000000000058b910260401c5b62040000821615611b48576801000000000002c5c80260401c5b62020000821615611b6257680100000000000162e40260401c5b62010000821615611b7c576801000000000000b1720260401c5b618000821615611b9557680100000000000058b90260401c5b614000821615611bae5768010000000000002c5d0260401c5b612000821615611bc7576801000000000000162e0260401c5b611000821615611be05768010000000000000b170260401c5b610800821615611bf9576801000000000000058c0260401c5b610400821615611c1257680100000000000002c60260401c5b610200821615611c2b57680100000000000001630260401c5b610100821615611c4457680100000000000000b10260401c5b6080821615611c5c57680100000000000000590260401c5b6040821615611c74576801000000000000002c0260401c5b6020821615611c8c57680100000000000000160260401c5b6010821615611ca4576801000000000000000b0260401c5b6008821615611cbc57680100000000000000060260401c5b6004821615611cd457680100000000000000030260401c5b6002821615611cec57680100000000000000010260401c5b6001821615611d0457680100000000000000010260401c5b670de0b6b3a76400000260409190911c60bf031c90565b6000808213611d405760405163309fa7dd60e11b815260048101839052602401610c59565b6000670de0b6b3a76400008312611d5957506001611d73565b6000199050826ec097ce7bc90715b34b9f10000000000492505b6000611d88670de0b6b3a76400008505611f99565b670de0b6b3a764000081029350905083811d670de0b6b3a763ffff198101611db257505002919050565b6706f05b59d3b200005b6000811315611df757670de0b6b3a7640000828002059150671bc16d674ec800008212611def579384019360019190911d905b60011d611dbc565b50505002919050565b60006714057b7ef767814f670de0b6b3a7640000611e1d84611d1b565b0281611380576113806123f1565b600081600003611e3d57506000919050565b50600181600160801b8110611e575760409190911b9060801c5b600160401b8110611e6d5760209190911b9060401c5b600160201b8110611e835760109190911b9060201c5b620100008110611e985760089190911b9060101c5b6101008110611eac5760049190911b9060081c5b60108110611ebf5760029190911b9060041c5b60088110611ecf57600182901b91505b6001828481611ee057611ee06123f1565b048301901c91506001828481611ef857611ef86123f1565b048301901c91506001828481611f1057611f106123f1565b048301901c91506001828481611f2857611f286123f1565b048301901c91506001828481611f4057611f406123f1565b048301901c91506001828481611f5857611f586123f1565b048301901c91506001828481611f7057611f706123f1565b048301901c91506000828481611f8857611f886123f1565b04905080831015610dc257826113f1565b6000600160801b8210611fb957608091821c91611fb69082612448565b90505b600160401b8210611fd757604091821c91611fd49082612448565b90505b600160201b8210611ff557602091821c91611ff29082612448565b90505b62010000821061201257601091821c9161200f9082612448565b90505b610100821061202e57600891821c9161202b9082612448565b90505b6010821061204957600491821c916120469082612448565b90505b6004821061206457600291821c916120619082612448565b90505b600282106113cb5761132d600182612448565b803580151581146113cb57600080fd5b6000806000806080858703121561209d57600080fd5b6120a685612077565b966020860135965060408601359560600135945092505050565b604051610120810167ffffffffffffffff811182821017156120f257634e487b7160e01b600052604160045260246000fd5b60405290565b8035600381900b81146113cb57600080fd5b60008082840361014081121561211f57600080fd5b6101208082121561212f57600080fd5b6121376120c0565b9150612142856120f8565b8252612150602086016120f8565b6020830152612161604086016120f8565b6040830152612172606086016120f8565b6060830152612183608086016120f8565b608083015261219460a086016120f8565b60a08301526121a560c086016120f8565b60c08301526121b660e086016120f8565b60e08301526101008581013590830152909593013593505050565b6001600160a01b03811681146121e657600080fd5b50565b6000602082840312156121fb57600080fd5b8135610dc2816121d1565b60006020828403121561221857600080fd5b5035919050565b6000806040838503121561223257600080fd5b823561223d816121d1565b915061224b60208401612077565b90509250929050565b6003998a0b815297890b602089015295880b604088015293870b606087015291860b6080860152850b60a0850152840b60c084015290920b60e08201526101008101919091526101200190565b6020808252825182820181905260009190848201906040850190845b818110156122d9578351835292840192918401916001016122bd565b50909695505050505050565b634e487b7160e01b600052601160045260246000fd5b6000600160ff1b82016115b3576115b36122e5565b60008083128015600160ff1b85018412161561232e5761232e6122e5565b6001600160ff1b0384018313811615612349576123496122e5565b50500390565b60006001600160ff1b0381841382841380821686840486111615612375576123756122e5565b600160ff1b6000871282811687830589121615612394576123946122e5565b600087129250878205871284841616156123b0576123b06122e5565b878505871281841616156123c6576123c66122e5565b505050929093029392505050565b6000602082840312156123e657600080fd5b8151610dc2816121d1565b634e487b7160e01b600052601260045260246000fd5b600080821280156001600160ff1b0384900385131615612429576124296122e5565b600160ff1b8390038412811615612442576124426122e5565b50500190565b6000821982111561245b5761245b6122e5565b50019056fea26469706673582212200187c0d2727209aa3e72b57f5e7346b6f0b259c825a39026b6f29f35c320858864736f6c634300080e0033",
  "linkReferences": {},
  "deployedLinkReferences": {}
}