{
  "_format": "hh-sol-artifact-1",
  "contractName": "Accounting",
  "sourceName": "contracts/Accounting.sol",
  "abi": [
    {
      "inputs": [
        {
          "internalType": "address",
          "name": "_liquidityPool",
          "type": "address"
        }
      ],
      "stateMutability": "nonpayable",
      "type": "constructor"
    },
    {
      "inputs": [],
      "name": "EpochNotClosed",
      "type": "error"
    },
    {
      "inputs": [],
      "name": "ExistingWithdrawal",
      "type": "error"
    },
    {
      "inputs": [],
      "name": "InsufficientShareBalance",
      "type": "error"
    },
    {
      "inputs": [],
      "name": "LiabilitiesGreaterThanAssets",
      "type": "error"
    },
    {
      "inputs": [],
      "name": "NoExistingWithdrawal",
      "type": "error"
    },
    {
      "inputs": [],
      "name": "TotalSupplyReached",
      "type": "error"
    },
    {
      "inputs": [
        {
          "internalType": "uint256",
          "name": "_shares",
          "type": "uint256"
        },
        {
          "internalType": "uint256",
          "name": "_assetPerShare",
          "type": "uint256"
        }
      ],
      "name": "amountForShares",
      "outputs": [
        {
          "internalType": "uint256",
          "name": "amount",
          "type": "uint256"
        }
      ],
      "stateMutability": "view",
      "type": "function"
    },
    {
      "inputs": [],
      "name": "collateralAsset",
      "outputs": [
        {
          "internalType": "address",
          "name": "",
          "type": "address"
        }
      ],
      "stateMutability": "view",
      "type": "function"
    },
    {
      "inputs": [
        {
          "internalType": "address",
          "name": "withdrawer",
          "type": "address"
        }
      ],
      "name": "completeWithdraw",
      "outputs": [
        {
          "internalType": "uint256",
          "name": "withdrawalAmount",
          "type": "uint256"
        },
        {
          "internalType": "uint256",
          "name": "withdrawalShares",
          "type": "uint256"
        },
        {
          "components": [
            {
              "internalType": "uint128",
              "name": "epoch",
              "type": "uint128"
            },
            {
              "internalType": "uint128",
              "name": "shares",
              "type": "uint128"
            }
          ],
          "internalType": "struct IAccounting.WithdrawalReceipt",
          "name": "withdrawalReceipt",
          "type": "tuple"
        }
      ],
      "stateMutability": "view",
      "type": "function"
    },
    {
      "inputs": [
        {
          "internalType": "address",
          "name": "depositor",
          "type": "address"
        },
        {
          "internalType": "uint256",
          "name": "_amount",
          "type": "uint256"
        }
      ],
      "name": "deposit",
      "outputs": [
        {
          "internalType": "uint256",
          "name": "depositAmount",
          "type": "uint256"
        },
        {
          "internalType": "uint256",
          "name": "unredeemedShares",
          "type": "uint256"
        }
      ],
      "stateMutability": "view",
      "type": "function"
    },
    {
      "inputs": [
        {
          "internalType": "uint256",
          "name": "totalSupply",
          "type": "uint256"
        },
        {
          "internalType": "uint256",
          "name": "assets",
          "type": "uint256"
        },
        {
          "internalType": "int256",
          "name": "liabilities",
          "type": "int256"
        }
      ],
      "name": "executeEpochCalculation",
      "outputs": [
        {
          "internalType": "uint256",
          "name": "newPricePerShareDeposit",
          "type": "uint256"
        },
        {
          "internalType": "uint256",
          "name": "newPricePerShareWithdrawal",
          "type": "uint256"
        },
        {
          "internalType": "uint256",
          "name": "sharesToMint",
          "type": "uint256"
        },
        {
          "internalType": "uint256",
          "name": "totalWithdrawAmount",
          "type": "uint256"
        },
        {
          "internalType": "uint256",
          "name": "amountNeeded",
          "type": "uint256"
        }
      ],
      "stateMutability": "view",
      "type": "function"
    },
    {
      "inputs": [
        {
          "internalType": "address",
          "name": "withdrawer",
          "type": "address"
        },
        {
          "internalType": "uint256",
          "name": "shares",
          "type": "uint256"
        }
      ],
      "name": "initiateWithdraw",
      "outputs": [
        {
          "components": [
            {
              "internalType": "uint128",
              "name": "epoch",
              "type": "uint128"
            },
            {
              "internalType": "uint128",
              "name": "shares",
              "type": "uint128"
            }
          ],
          "internalType": "struct IAccounting.WithdrawalReceipt",
          "name": "withdrawalReceipt",
          "type": "tuple"
        }
      ],
      "stateMutability": "view",
      "type": "function"
    },
    {
      "inputs": [],
      "name": "liquidityPool",
      "outputs": [
        {
          "internalType": "contract ILiquidityPool",
          "name": "",
          "type": "address"
        }
      ],
      "stateMutability": "view",
      "type": "function"
    },
    {
      "inputs": [
        {
          "internalType": "address",
          "name": "redeemer",
          "type": "address"
        },
        {
          "internalType": "uint256",
          "name": "shares",
          "type": "uint256"
        }
      ],
      "name": "redeem",
      "outputs": [
        {
          "internalType": "uint256",
          "name": "toRedeem",
          "type": "uint256"
        },
        {
          "components": [
            {
              "internalType": "uint128",
              "name": "epoch",
              "type": "uint128"
            },
            {
              "internalType": "uint128",
              "name": "amount",
              "type": "uint128"
            },
            {
              "internalType": "uint256",
              "name": "unredeemedShares",
              "type": "uint256"
            }
          ],
          "internalType": "struct IAccounting.DepositReceipt",
          "name": "",
          "type": "tuple"
        }
      ],
      "stateMutability": "view",
      "type": "function"
    },
    {
      "inputs": [
        {
          "internalType": "uint256",
          "name": "_amount",
          "type": "uint256"
        },
        {
          "internalType": "uint256",
          "name": "assetPerShare",
          "type": "uint256"
        }
      ],
      "name": "sharesForAmount",
      "outputs": [
        {
          "internalType": "uint256",
          "name": "shares",
          "type": "uint256"
        }
      ],
      "stateMutability": "view",
      "type": "function"
    },
    {
      "inputs": [],
      "name": "strikeAsset",
      "outputs": [
        {
          "internalType": "address",
          "name": "",
          "type": "address"
        }
      ],
      "stateMutability": "view",
      "type": "function"
    },
    {
      "inputs": [],
      "name": "underlyingAsset",
      "outputs": [
        {
          "internalType": "address",
          "name": "",
          "type": "address"
        }
      ],
      "stateMutability": "view",
      "type": "function"
    }
  ],
  "bytecode": "0x6101006040523480156200001257600080fd5b5060405162001989380380620019898339810160408190526200003591620001b5565b6001600160a01b0381166080819052604080516302fad37960e31b815290516317d69bc8916004808201926020929091908290030181865afa15801562000080573d6000803e3d6000fd5b505050506040513d601f19601f82011682018060405250810190620000a69190620001b5565b6001600160a01b031660a0816001600160a01b031681525050806001600160a01b0316637158da7c6040518163ffffffff1660e01b8152600401602060405180830381865afa158015620000fe573d6000803e3d6000fd5b505050506040513d601f19601f82011682018060405250810190620001249190620001b5565b6001600160a01b031660c0816001600160a01b031681525050806001600160a01b031663aabaecd66040518163ffffffff1660e01b8152600401602060405180830381865afa1580156200017c573d6000803e3d6000fd5b505050506040513d601f19601f82011682018060405250810190620001a29190620001b5565b6001600160a01b031660e05250620001e7565b600060208284031215620001c857600080fd5b81516001600160a01b0381168114620001e057600080fd5b9392505050565b60805160a05160c05160e0516116cf620002ba6000396000818161021c01528181610502015281816105d50152818161077b01526111e8015260006101f50152600060b30152600081816101ce015281816102b601528181610332015281816104110152818161066b015281816106f1015281816107d9015281816108a00152818161097701528181610a4601528181610add01528181610b6a01528181610c5001528181610d0101528181610dda01528181610e7a01528181610f1b01528181610fb5015261116601526116cf6000f3fe608060405234801561001057600080fd5b50600436106100a95760003560e01c806355676bad1161007157806355676bad1461018e578063665a11ca146101c95780637158da7c146101f0578063aabaecd614610217578063bf3b826b1461023e578063c4bf09361461026057600080fd5b806317d69bc8146100ae5780631e9a6950146100eb57806332afc309146101325780634513576e1461015357806347e7ef2414610166575b600080fd5b6100d57f000000000000000000000000000000000000000000000000000000000000000081565b6040516100e29190611273565b60405180910390f35b6100fe6100f93660046112a3565b610280565b6040805192835281516001600160801b039081166020808601919091528301511683820152015160608201526080016100e2565b6101456101403660046112cd565b6104f9565b6040519081526020016100e2565b6101456101613660046112cd565b6105b1565b6101796101743660046112a3565b610664565b604080519283526020830191909152016100e2565b6101a161019c3660046112ef565b610a3b565b604080519586526020860194909452928401919091526060830152608082015260a0016100e2565b6100d57f000000000000000000000000000000000000000000000000000000000000000081565b6100d57f000000000000000000000000000000000000000000000000000000000000000081565b6100d57f000000000000000000000000000000000000000000000000000000000000000081565b61025161024c36600461131b565b610c1c565b6040516100e293929190611336565b61027361026e3660046112a3565b610e57565b6040516100e29190611366565b6040805160608101825260008082526020820181905291810182905260405163338cd97760e11b81526000906001600160a01b037f00000000000000000000000000000000000000000000000000000000000000001690636719b2ee906102eb908890600401611273565b606060405180830381865afa158015610308573d6000803e3d6000fd5b505050506040513d601f19601f8201168201806040525081019061032c91906113a1565b905060007f00000000000000000000000000000000000000000000000000000000000000006001600160a01b031663dc1bee0d6040518163ffffffff1660e01b8152600401602060405180830381865afa15801561038e573d6000803e3d6000fd5b505050506040513d601f19601f820116820180604052508101906103b29190611417565b60408301518351919250906001600160801b0316158015906103dd575082516001600160801b031682115b15610492576020830151835160405163274a961360e11b81526001600160801b0391821660048201526104859291909116907f00000000000000000000000000000000000000000000000000000000000000006001600160a01b031690634e952c26906024015b602060405180830381865afa158015610461573d6000803e3d6000fd5b505050506040513d601f19601f820116820180604052508101906101409190611417565b61048f9082611446565b90505b80861161049f57856104a1565b805b9450846000036104ba57600083945094505050506104f2565b82516001600160801b03168211156104d457600060208401525b6104de858261145e565b6001600160801b0316604084015250909150505b9250929050565b60008061058a847f00000000000000000000000000000000000000000000000000000000000000006001600160a01b031663313ce5676040518163ffffffff1660e01b8152600401602060405180830381865afa15801561055e573d6000803e3d6000fd5b505050506040513d601f19601f820116820180604052508101906105829190611475565b60ff166110ad565b90508261059f670de0b6b3a764000083611498565b6105a991906114b7565b949350505050565b600061065d670de0b6b3a76400006105c98486611498565b6105d391906114b7565b7f00000000000000000000000000000000000000000000000000000000000000006001600160a01b031663313ce5676040518163ffffffff1660e01b8152600401602060405180830381865afa158015610631573d6000803e3d6000fd5b505050506040513d601f19601f820116820180604052508101906106559190611475565b60ff166110e5565b9392505050565b60008060007f00000000000000000000000000000000000000000000000000000000000000006001600160a01b031663d2bb18e96040518163ffffffff1660e01b8152600401602060405180830381865afa1580156106c7573d6000803e3d6000fd5b505050506040513d601f19601f820116820180604052508101906106eb9190611417565b905060007f00000000000000000000000000000000000000000000000000000000000000006001600160a01b031663dc1bee0d6040518163ffffffff1660e01b8152600401602060405180830381865afa15801561074d573d6000803e3d6000fd5b505050506040513d601f19601f820116820180604052508101906107719190611417565b905060006107d7867f00000000000000000000000000000000000000000000000000000000000000006001600160a01b031663313ce5676040518163ffffffff1660e01b8152600401602060405180830381865afa15801561055e573d6000803e3d6000fd5b7f00000000000000000000000000000000000000000000000000000000000000006001600160a01b03166367e4ac2c6040518163ffffffff1660e01b8152600401602060405180830381865afa158015610835573d6000803e3d6000fd5b505050506040513d601f19601f820116820180604052508101906108599190611417565b6108639190611446565b90508281111561088657604051637be9badb60e01b815260040160405180910390fd5b60405163338cd97760e11b81526000906001600160a01b037f00000000000000000000000000000000000000000000000000000000000000001690636719b2ee906108d5908b90600401611273565b606060405180830381865afa1580156108f2573d6000803e3d6000fd5b505050506040513d601f19601f8201168201806040525081019061091691906113a1565b604081015181519096509091506001600160801b031615801590610943575080516001600160801b031683115b156109bb576020810151815160405163274a961360e11b81526001600160801b0391821660048201526109ae9291909116907f00000000000000000000000000000000000000000000000000000000000000006001600160a01b031690634e952c2690602401610444565b6109b89086611446565b94505b80518796506001600160801b031683036109ea5760208101516109e7906001600160801b031687611446565b95505b6001600160801b03861115610a305760405162461bcd60e51b81526020600482015260086024820152676f766572666c6f7760c01b604482015260640160405180910390fd5b505050509250929050565b6000806000806000807f00000000000000000000000000000000000000000000000000000000000000006001600160a01b031663cda2dd9a6040518163ffffffff1660e01b8152600401602060405180830381865afa158015610aa2573d6000803e3d6000fd5b505050506040513d601f19601f82011682018060405250810190610ac69190611417565b9050610ad3898989611119565b9450849550610b637f00000000000000000000000000000000000000000000000000000000000000006001600160a01b0316635c074f446040518163ffffffff1660e01b8152600401602060405180830381865afa158015610b39573d6000803e3d6000fd5b505050506040513d601f19601f82011682018060405250810190610b5d9190611417565b876104f9565b9350610bf07f00000000000000000000000000000000000000000000000000000000000000006001600160a01b031663beca03d56040518163ffffffff1660e01b8152600401602060405180830381865afa158015610bc6573d6000803e3d6000fd5b505050506040513d601f19601f82011682018060405250810190610bea9190611417565b866105b1565b925082811315610c035760009150610c10565b610c0d81846114d9565b91505b50939792965093509350565b600080610c39604080518082019091526000808252602082015290565b604051634b24d85160e11b81526001600160a01b037f00000000000000000000000000000000000000000000000000000000000000001690639649b0a290610c85908790600401611273565b6040805180830381865afa158015610ca1573d6000803e3d6000fd5b505050506040513d601f19601f82011682018060405250810190610cc59190611518565b602081015181516001600160801b039182169450919250166000839003610cff5760405163e3c0287b60e01b815260040160405180910390fd5b7f00000000000000000000000000000000000000000000000000000000000000006001600160a01b031663802aaa5f6040518163ffffffff1660e01b8152600401602060405180830381865afa158015610d5d573d6000803e3d6000fd5b505050506040513d601f19601f82011682018060405250810190610d819190611417565b8103610da0576040516339c1569960e01b815260040160405180910390fd5b8282602001818151610db29190611581565b6001600160801b0316905250604051630a67daad60e01b815260048101829052610e4d9084907f00000000000000000000000000000000000000000000000000000000000000006001600160a01b031690630a67daad90602401602060405180830381865afa158015610e29573d6000803e3d6000fd5b505050506040513d601f19601f820116820180604052508101906101619190611417565b9350509193909250565b6040805180820182526000808252602082015290516370a0823160e01b815282907f00000000000000000000000000000000000000000000000000000000000000006001600160a01b0316906370a0823190610eb7908790600401611273565b602060405180830381865afa158015610ed4573d6000803e3d6000fd5b505050506040513d601f19601f82011682018060405250810190610ef89190611417565b1015610f175760405163af4e51c760e01b815260040160405180910390fd5b60007f00000000000000000000000000000000000000000000000000000000000000006001600160a01b031663802aaa5f6040518163ffffffff1660e01b8152600401602060405180830381865afa158015610f77573d6000803e3d6000fd5b505050506040513d601f19601f82011682018060405250810190610f9b9190611417565b604051634b24d85160e11b81529091506001600160a01b037f00000000000000000000000000000000000000000000000000000000000000001690639649b0a290610fea908790600401611273565b6040805180830381865afa158015611006573d6000803e3d6000fd5b505050506040513d601f19601f8201168201806040525081019061102a9190611518565b9150600082602001516001600160801b0316905060008284600001516001600160801b0316036110655761105e8583611446565b9050611096565b60648211156110875760405163029ceadb60e21b815260040160405180910390fd5b506001600160801b0382168352835b6001600160801b0316602084015250909392505050565b600060128211156110bd57600080fd5b6110c882601261145e565b90506110d581600a61168d565b61065d9084611498565b92915050565b600060128211156110f557600080fd5b600061110283601261145e565b905061110f81600a61168d565b6105a990856114b7565b60008183121561113c576040516307e42e3b60e21b815260040160405180910390fd5b600061114883856114d9565b90506000851161116057670de0b6b3a764000061126a565b846112447f00000000000000000000000000000000000000000000000000000000000000006001600160a01b0316635c074f446040518163ffffffff1660e01b8152600401602060405180830381865afa1580156111c2573d6000803e3d6000fd5b505050506040513d601f19601f820116820180604052508101906111e69190611417565b7f00000000000000000000000000000000000000000000000000000000000000006001600160a01b031663313ce5676040518163ffffffff1660e01b8152600401602060405180830381865afa15801561055e573d6000803e3d6000fd5b61124e908361145e565b61126090670de0b6b3a7640000611498565b61126a91906114b7565b95945050505050565b6001600160a01b0391909116815260200190565b80356001600160a01b038116811461129e57600080fd5b919050565b600080604083850312156112b657600080fd5b6112bf83611287565b946020939093013593505050565b600080604083850312156112e057600080fd5b50508035926020909101359150565b60008060006060848603121561130457600080fd5b505081359360208301359350604090920135919050565b60006020828403121561132d57600080fd5b61065d82611287565b838152602080820184905282516001600160801b03908116604084015290830151166060820152608081016105a9565b604081016110df828480516001600160801b03908116835260209182015116910152565b80516001600160801b038116811461129e57600080fd5b6000606082840312156113b357600080fd5b6040516060810181811067ffffffffffffffff821117156113e457634e487b7160e01b600052604160045260246000fd5b6040526113f08361138a565b81526113fe6020840161138a565b6020820152604083015160408201528091505092915050565b60006020828403121561142957600080fd5b5051919050565b634e487b7160e01b600052601160045260246000fd5b6000821982111561145957611459611430565b500190565b60008282101561147057611470611430565b500390565b60006020828403121561148757600080fd5b815160ff8116811461065d57600080fd5b60008160001904831182151516156114b2576114b2611430565b500290565b6000826114d457634e487b7160e01b600052601260045260246000fd5b500490565b60008083128015600160ff1b8501841216156114f7576114f7611430565b6001600160ff1b038401831381161561151257611512611430565b50500390565b60006040828403121561152a57600080fd5b6040516040810181811067ffffffffffffffff8211171561155b57634e487b7160e01b600052604160045260246000fd5b6040526115678361138a565b81526115756020840161138a565b60208201529392505050565b60006001600160801b03838116908316818110156115a1576115a1611430565b039392505050565b600181815b808511156115e45781600019048211156115ca576115ca611430565b808516156115d757918102915b93841c93908002906115ae565b509250929050565b6000826115fb575060016110df565b81611608575060006110df565b816001811461161e576002811461162857611644565b60019150506110df565b60ff84111561163957611639611430565b50506001821b6110df565b5060208310610133831016604e8410600b8410161715611667575081810a6110df565b61167183836115a9565b806000190482111561168557611685611430565b029392505050565b600061065d83836115ec56fea26469706673582212204ef4b4a22fe5e6586b914163859721b9f38e428dca9c3fad3d557c451d24c05864736f6c634300080e0033",
  "linkReferences": {},
  "deployedLinkReferences": {}
}