{
  "_format": "hh-sol-artifact-1",
  "contractName": "LiquidityPool",
  "sourceName": "contracts/LiquidityPool.sol",
  "abi": [
    {
      "inputs": [
        {
          "internalType": "address",
          "name": "_protocol",
          "type": "address"
        },
        {
          "internalType": "address",
          "name": "_strikeAsset",
          "type": "address"
        },
        {
          "internalType": "address",
          "name": "_underlyingAsset",
          "type": "address"
        },
        {
          "internalType": "address",
          "name": "_collateralAsset",
          "type": "address"
        },
        {
          "internalType": "uint256",
          "name": "rfr",
          "type": "uint256"
        },
        {
          "internalType": "string",
          "name": "name",
          "type": "string"
        },
        {
          "internalType": "string",
          "name": "symbol",
          "type": "string"
        },
        {
          "components": [
            {
              "internalType": "uint128",
              "name": "minCallStrikePrice",
              "type": "uint128"
            },
            {
              "internalType": "uint128",
              "name": "maxCallStrikePrice",
              "type": "uint128"
            },
            {
              "internalType": "uint128",
              "name": "minPutStrikePrice",
              "type": "uint128"
            },
            {
              "internalType": "uint128",
              "name": "maxPutStrikePrice",
              "type": "uint128"
            },
            {
              "internalType": "uint128",
              "name": "minExpiry",
              "type": "uint128"
            },
            {
              "internalType": "uint128",
              "name": "maxExpiry",
              "type": "uint128"
            }
          ],
          "internalType": "struct Types.OptionParams",
          "name": "_optionParams",
          "type": "tuple"
        },
        {
          "internalType": "address",
          "name": "_authority",
          "type": "address"
        }
      ],
      "stateMutability": "nonpayable",
      "type": "constructor"
    },
    {
      "inputs": [],
      "name": "CollateralAssetInvalid",
      "type": "error"
    },
    {
      "inputs": [],
      "name": "InvalidAddress",
      "type": "error"
    },
    {
      "inputs": [],
      "name": "InvalidAmount",
      "type": "error"
    },
    {
      "inputs": [],
      "name": "InvalidDecimals",
      "type": "error"
    },
    {
      "inputs": [],
      "name": "InvalidShareAmount",
      "type": "error"
    },
    {
      "inputs": [],
      "name": "IssuanceFailed",
      "type": "error"
    },
    {
      "inputs": [],
      "name": "LiabilitiesGreaterThanAssets",
      "type": "error"
    },
    {
      "inputs": [],
      "name": "MaxLiquidityBufferReached",
      "type": "error"
    },
    {
      "inputs": [],
      "name": "NotHandler",
      "type": "error"
    },
    {
      "inputs": [],
      "name": "NotKeeper",
      "type": "error"
    },
    {
      "inputs": [],
      "name": "OptionExpiryInvalid",
      "type": "error"
    },
    {
      "inputs": [],
      "name": "OptionStrikeInvalid",
      "type": "error"
    },
    {
      "inputs": [],
      "name": "ReactorAlreadyExists",
      "type": "error"
    },
    {
      "inputs": [],
      "name": "StrikeAssetInvalid",
      "type": "error"
    },
    {
      "inputs": [],
      "name": "TradingNotPaused",
      "type": "error"
    },
    {
      "inputs": [],
      "name": "TradingPaused",
      "type": "error"
    },
    {
      "inputs": [],
      "name": "UNAUTHORIZED",
      "type": "error"
    },
    {
      "inputs": [],
      "name": "UnderlyingAssetInvalid",
      "type": "error"
    },
    {
      "inputs": [],
      "name": "WithdrawExceedsLiquidity",
      "type": "error"
    },
    {
      "anonymous": false,
      "inputs": [
        {
          "indexed": true,
          "internalType": "address",
          "name": "owner",
          "type": "address"
        },
        {
          "indexed": true,
          "internalType": "address",
          "name": "spender",
          "type": "address"
        },
        {
          "indexed": false,
          "internalType": "uint256",
          "name": "amount",
          "type": "uint256"
        }
      ],
      "name": "Approval",
      "type": "event"
    },
    {
      "anonymous": false,
      "inputs": [
        {
          "indexed": false,
          "internalType": "contract IAuthority",
          "name": "authority",
          "type": "address"
        }
      ],
      "name": "AuthorityUpdated",
      "type": "event"
    },
    {
      "anonymous": false,
      "inputs": [
        {
          "indexed": false,
          "internalType": "address",
          "name": "series",
          "type": "address"
        },
        {
          "indexed": false,
          "internalType": "uint256",
          "name": "amount",
          "type": "uint256"
        },
        {
          "indexed": false,
          "internalType": "uint256",
          "name": "premium",
          "type": "uint256"
        },
        {
          "indexed": false,
          "internalType": "uint256",
          "name": "escrowReturned",
          "type": "uint256"
        },
        {
          "indexed": false,
          "internalType": "address",
          "name": "seller",
          "type": "address"
        }
      ],
      "name": "BuybackOption",
      "type": "event"
    },
    {
      "anonymous": false,
      "inputs": [
        {
          "indexed": false,
          "internalType": "address",
          "name": "recipient",
          "type": "address"
        },
        {
          "indexed": false,
          "internalType": "uint256",
          "name": "amount",
          "type": "uint256"
        },
        {
          "indexed": false,
          "internalType": "uint256",
          "name": "epoch",
          "type": "uint256"
        }
      ],
      "name": "Deposit",
      "type": "event"
    },
    {
      "anonymous": false,
      "inputs": [
        {
          "indexed": false,
          "internalType": "uint256",
          "name": "epoch",
          "type": "uint256"
        }
      ],
      "name": "DepositEpochExecuted",
      "type": "event"
    },
    {
      "anonymous": false,
      "inputs": [
        {
          "indexed": false,
          "internalType": "address",
          "name": "recipient",
          "type": "address"
        },
        {
          "indexed": false,
          "internalType": "uint256",
          "name": "amount",
          "type": "uint256"
        },
        {
          "indexed": false,
          "internalType": "uint256",
          "name": "epoch",
          "type": "uint256"
        }
      ],
      "name": "InitiateWithdraw",
      "type": "event"
    },
    {
      "anonymous": false,
      "inputs": [
        {
          "indexed": false,
          "internalType": "address",
          "name": "account",
          "type": "address"
        }
      ],
      "name": "Paused",
      "type": "event"
    },
    {
      "anonymous": false,
      "inputs": [
        {
          "indexed": false,
          "internalType": "int256",
          "name": "deltaChange",
          "type": "int256"
        }
      ],
      "name": "RebalancePortfolioDelta",
      "type": "event"
    },
    {
      "anonymous": false,
      "inputs": [
        {
          "indexed": false,
          "internalType": "address",
          "name": "recipient",
          "type": "address"
        },
        {
          "indexed": false,
          "internalType": "uint256",
          "name": "amount",
          "type": "uint256"
        },
        {
          "indexed": false,
          "internalType": "uint256",
          "name": "epoch",
          "type": "uint256"
        }
      ],
      "name": "Redeem",
      "type": "event"
    },
    {
      "anonymous": false,
      "inputs": [
        {
          "indexed": false,
          "internalType": "address",
          "name": "series",
          "type": "address"
        },
        {
          "indexed": false,
          "internalType": "uint256",
          "name": "collateralReturned",
          "type": "uint256"
        },
        {
          "indexed": false,
          "internalType": "uint256",
          "name": "collateralLost",
          "type": "uint256"
        },
        {
          "indexed": false,
          "internalType": "address",
          "name": "closer",
          "type": "address"
        }
      ],
      "name": "SettleVault",
      "type": "event"
    },
    {
      "anonymous": false,
      "inputs": [],
      "name": "TradingPaused",
      "type": "event"
    },
    {
      "anonymous": false,
      "inputs": [],
      "name": "TradingUnpaused",
      "type": "event"
    },
    {
      "anonymous": false,
      "inputs": [
        {
          "indexed": true,
          "internalType": "address",
          "name": "from",
          "type": "address"
        },
        {
          "indexed": true,
          "internalType": "address",
          "name": "to",
          "type": "address"
        },
        {
          "indexed": false,
          "internalType": "uint256",
          "name": "amount",
          "type": "uint256"
        }
      ],
      "name": "Transfer",
      "type": "event"
    },
    {
      "anonymous": false,
      "inputs": [
        {
          "indexed": false,
          "internalType": "address",
          "name": "account",
          "type": "address"
        }
      ],
      "name": "Unpaused",
      "type": "event"
    },
    {
      "anonymous": false,
      "inputs": [
        {
          "indexed": false,
          "internalType": "address",
          "name": "recipient",
          "type": "address"
        },
        {
          "indexed": false,
          "internalType": "uint256",
          "name": "amount",
          "type": "uint256"
        },
        {
          "indexed": false,
          "internalType": "uint256",
          "name": "shares",
          "type": "uint256"
        }
      ],
      "name": "Withdraw",
      "type": "event"
    },
    {
      "anonymous": false,
      "inputs": [
        {
          "indexed": false,
          "internalType": "uint256",
          "name": "epoch",
          "type": "uint256"
        }
      ],
      "name": "WithdrawalEpochExecuted",
      "type": "event"
    },
    {
      "anonymous": false,
      "inputs": [
        {
          "indexed": false,
          "internalType": "address",
          "name": "series",
          "type": "address"
        },
        {
          "indexed": false,
          "internalType": "uint256",
          "name": "amount",
          "type": "uint256"
        },
        {
          "indexed": false,
          "internalType": "uint256",
          "name": "premium",
          "type": "uint256"
        },
        {
          "indexed": false,
          "internalType": "uint256",
          "name": "escrow",
          "type": "uint256"
        },
        {
          "indexed": false,
          "internalType": "address",
          "name": "buyer",
          "type": "address"
        }
      ],
      "name": "WriteOption",
      "type": "event"
    },
    {
      "inputs": [],
      "name": "DOMAIN_SEPARATOR",
      "outputs": [
        {
          "internalType": "bytes32",
          "name": "",
          "type": "bytes32"
        }
      ],
      "stateMutability": "view",
      "type": "function"
    },
    {
      "inputs": [
        {
          "internalType": "uint256",
          "name": "lpCollateralDifference",
          "type": "uint256"
        },
        {
          "internalType": "bool",
          "name": "addToLpBalance",
          "type": "bool"
        }
      ],
      "name": "adjustCollateral",
      "outputs": [],
      "stateMutability": "nonpayable",
      "type": "function"
    },
    {
      "inputs": [
        {
          "internalType": "uint256",
          "name": "collateralAmount",
          "type": "uint256"
        },
        {
          "internalType": "uint256",
          "name": "optionsValue",
          "type": "uint256"
        },
        {
          "internalType": "int256",
          "name": "delta",
          "type": "int256"
        },
        {
          "internalType": "bool",
          "name": "isSale",
          "type": "bool"
        }
      ],
      "name": "adjustVariables",
      "outputs": [],
      "stateMutability": "nonpayable",
      "type": "function"
    },
    {
      "inputs": [
        {
          "internalType": "address",
          "name": "",
          "type": "address"
        },
        {
          "internalType": "address",
          "name": "",
          "type": "address"
        }
      ],
      "name": "allowance",
      "outputs": [
        {
          "internalType": "uint256",
          "name": "",
          "type": "uint256"
        }
      ],
      "stateMutability": "view",
      "type": "function"
    },
    {
      "inputs": [
        {
          "internalType": "address",
          "name": "spender",
          "type": "address"
        },
        {
          "internalType": "uint256",
          "name": "amount",
          "type": "uint256"
        }
      ],
      "name": "approve",
      "outputs": [
        {
          "internalType": "bool",
          "name": "",
          "type": "bool"
        }
      ],
      "stateMutability": "nonpayable",
      "type": "function"
    },
    {
      "inputs": [],
      "name": "authority",
      "outputs": [
        {
          "internalType": "contract IAuthority",
          "name": "",
          "type": "address"
        }
      ],
      "stateMutability": "view",
      "type": "function"
    },
    {
      "inputs": [
        {
          "internalType": "address",
          "name": "",
          "type": "address"
        }
      ],
      "name": "balanceOf",
      "outputs": [
        {
          "internalType": "uint256",
          "name": "",
          "type": "uint256"
        }
      ],
      "stateMutability": "view",
      "type": "function"
    },
    {
      "inputs": [],
      "name": "bufferPercentage",
      "outputs": [
        {
          "internalType": "uint256",
          "name": "",
          "type": "uint256"
        }
      ],
      "stateMutability": "view",
      "type": "function"
    },
    {
      "inputs": [
        {
          "internalType": "address",
          "name": "_handler",
          "type": "address"
        },
        {
          "internalType": "bool",
          "name": "auth",
          "type": "bool"
        }
      ],
      "name": "changeHandler",
      "outputs": [],
      "stateMutability": "nonpayable",
      "type": "function"
    },
    {
      "inputs": [],
      "name": "checkBuffer",
      "outputs": [
        {
          "internalType": "int256",
          "name": "bufferRemaining",
          "type": "int256"
        }
      ],
      "stateMutability": "view",
      "type": "function"
    },
    {
      "inputs": [],
      "name": "collateralAllocated",
      "outputs": [
        {
          "internalType": "uint256",
          "name": "",
          "type": "uint256"
        }
      ],
      "stateMutability": "view",
      "type": "function"
    },
    {
      "inputs": [],
      "name": "collateralAsset",
      "outputs": [
        {
          "internalType": "address",
          "name": "",
          "type": "address"
        }
      ],
      "stateMutability": "view",
      "type": "function"
    },
    {
      "inputs": [],
      "name": "collateralCap",
      "outputs": [
        {
          "internalType": "uint256",
          "name": "",
          "type": "uint256"
        }
      ],
      "stateMutability": "view",
      "type": "function"
    },
    {
      "inputs": [],
      "name": "completeWithdraw",
      "outputs": [
        {
          "internalType": "uint256",
          "name": "",
          "type": "uint256"
        }
      ],
      "stateMutability": "nonpayable",
      "type": "function"
    },
    {
      "inputs": [],
      "name": "decimals",
      "outputs": [
        {
          "internalType": "uint8",
          "name": "",
          "type": "uint8"
        }
      ],
      "stateMutability": "view",
      "type": "function"
    },
    {
      "inputs": [
        {
          "internalType": "uint256",
          "name": "_amount",
          "type": "uint256"
        }
      ],
      "name": "deposit",
      "outputs": [
        {
          "internalType": "bool",
          "name": "",
          "type": "bool"
        }
      ],
      "stateMutability": "nonpayable",
      "type": "function"
    },
    {
      "inputs": [],
      "name": "depositEpoch",
      "outputs": [
        {
          "internalType": "uint256",
          "name": "",
          "type": "uint256"
        }
      ],
      "stateMutability": "view",
      "type": "function"
    },
    {
      "inputs": [
        {
          "internalType": "uint256",
          "name": "",
          "type": "uint256"
        }
      ],
      "name": "depositEpochPricePerShare",
      "outputs": [
        {
          "internalType": "uint256",
          "name": "",
          "type": "uint256"
        }
      ],
      "stateMutability": "view",
      "type": "function"
    },
    {
      "inputs": [
        {
          "internalType": "address",
          "name": "",
          "type": "address"
        }
      ],
      "name": "depositReceipts",
      "outputs": [
        {
          "internalType": "uint128",
          "name": "epoch",
          "type": "uint128"
        },
        {
          "internalType": "uint128",
          "name": "amount",
          "type": "uint128"
        },
        {
          "internalType": "uint256",
          "name": "unredeemedShares",
          "type": "uint256"
        }
      ],
      "stateMutability": "view",
      "type": "function"
    },
    {
      "inputs": [],
      "name": "ephemeralDelta",
      "outputs": [
        {
          "internalType": "int256",
          "name": "",
          "type": "int256"
        }
      ],
      "stateMutability": "view",
      "type": "function"
    },
    {
      "inputs": [],
      "name": "ephemeralLiabilities",
      "outputs": [
        {
          "internalType": "int256",
          "name": "",
          "type": "int256"
        }
      ],
      "stateMutability": "view",
      "type": "function"
    },
    {
      "inputs": [],
      "name": "executeEpochCalculation",
      "outputs": [],
      "stateMutability": "nonpayable",
      "type": "function"
    },
    {
      "inputs": [],
      "name": "getAssets",
      "outputs": [
        {
          "internalType": "uint256",
          "name": "",
          "type": "uint256"
        }
      ],
      "stateMutability": "view",
      "type": "function"
    },
    {
      "inputs": [
        {
          "internalType": "address",
          "name": "asset",
          "type": "address"
        }
      ],
      "name": "getBalance",
      "outputs": [
        {
          "internalType": "uint256",
          "name": "",
          "type": "uint256"
        }
      ],
      "stateMutability": "view",
      "type": "function"
    },
    {
      "inputs": [],
      "name": "getExternalDelta",
      "outputs": [
        {
          "internalType": "int256",
          "name": "externalDelta",
          "type": "int256"
        }
      ],
      "stateMutability": "view",
      "type": "function"
    },
    {
      "inputs": [],
      "name": "getHedgingReactors",
      "outputs": [
        {
          "internalType": "address[]",
          "name": "",
          "type": "address[]"
        }
      ],
      "stateMutability": "view",
      "type": "function"
    },
    {
      "inputs": [
        {
          "internalType": "bool",
          "name": "isPut",
          "type": "bool"
        },
        {
          "internalType": "uint256",
          "name": "underlyingPrice",
          "type": "uint256"
        },
        {
          "internalType": "uint256",
          "name": "strikePrice",
          "type": "uint256"
        },
        {
          "internalType": "uint256",
          "name": "expiration",
          "type": "uint256"
        }
      ],
      "name": "getImpliedVolatility",
      "outputs": [
        {
          "internalType": "uint256",
          "name": "",
          "type": "uint256"
        }
      ],
      "stateMutability": "view",
      "type": "function"
    },
    {
      "inputs": [],
      "name": "getNAV",
      "outputs": [
        {
          "internalType": "uint256",
          "name": "",
          "type": "uint256"
        }
      ],
      "stateMutability": "view",
      "type": "function"
    },
    {
      "inputs": [],
      "name": "getPortfolioDelta",
      "outputs": [
        {
          "internalType": "int256",
          "name": "",
          "type": "int256"
        }
      ],
      "stateMutability": "view",
      "type": "function"
    },
    {
      "inputs": [],
      "name": "getVolatilityFeed",
      "outputs": [
        {
          "internalType": "contract VolatilityFeed",
          "name": "",
          "type": "address"
        }
      ],
      "stateMutability": "view",
      "type": "function"
    },
    {
      "inputs": [
        {
          "internalType": "address",
          "name": "",
          "type": "address"
        }
      ],
      "name": "handler",
      "outputs": [
        {
          "internalType": "bool",
          "name": "",
          "type": "bool"
        }
      ],
      "stateMutability": "view",
      "type": "function"
    },
    {
      "inputs": [
        {
          "components": [
            {
              "internalType": "uint64",
              "name": "expiration",
              "type": "uint64"
            },
            {
              "internalType": "uint128",
              "name": "strike",
              "type": "uint128"
            },
            {
              "internalType": "bool",
              "name": "isPut",
              "type": "bool"
            },
            {
              "internalType": "address",
              "name": "underlying",
              "type": "address"
            },
            {
              "internalType": "address",
              "name": "strikeAsset",
              "type": "address"
            },
            {
              "internalType": "address",
              "name": "collateral",
              "type": "address"
            }
          ],
          "internalType": "struct Types.OptionSeries",
          "name": "optionSeries",
          "type": "tuple"
        },
        {
          "internalType": "uint256",
          "name": "amount",
          "type": "uint256"
        },
        {
          "internalType": "contract IOptionRegistry",
          "name": "optionRegistry",
          "type": "address"
        },
        {
          "internalType": "address",
          "name": "seriesAddress",
          "type": "address"
        },
        {
          "internalType": "uint256",
          "name": "premium",
          "type": "uint256"
        },
        {
          "internalType": "int256",
          "name": "delta",
          "type": "int256"
        },
        {
          "internalType": "address",
          "name": "seller",
          "type": "address"
        }
      ],
      "name": "handlerBuybackOption",
      "outputs": [
        {
          "internalType": "uint256",
          "name": "",
          "type": "uint256"
        }
      ],
      "stateMutability": "nonpayable",
      "type": "function"
    },
    {
      "inputs": [
        {
          "components": [
            {
              "internalType": "uint64",
              "name": "expiration",
              "type": "uint64"
            },
            {
              "internalType": "uint128",
              "name": "strike",
              "type": "uint128"
            },
            {
              "internalType": "bool",
              "name": "isPut",
              "type": "bool"
            },
            {
              "internalType": "address",
              "name": "underlying",
              "type": "address"
            },
            {
              "internalType": "address",
              "name": "strikeAsset",
              "type": "address"
            },
            {
              "internalType": "address",
              "name": "collateral",
              "type": "address"
            }
          ],
          "internalType": "struct Types.OptionSeries",
          "name": "optionSeries",
          "type": "tuple"
        }
      ],
      "name": "handlerIssue",
      "outputs": [
        {
          "internalType": "address",
          "name": "",
          "type": "address"
        }
      ],
      "stateMutability": "nonpayable",
      "type": "function"
    },
    {
      "inputs": [
        {
          "components": [
            {
              "internalType": "uint64",
              "name": "expiration",
              "type": "uint64"
            },
            {
              "internalType": "uint128",
              "name": "strike",
              "type": "uint128"
            },
            {
              "internalType": "bool",
              "name": "isPut",
              "type": "bool"
            },
            {
              "internalType": "address",
              "name": "underlying",
              "type": "address"
            },
            {
              "internalType": "address",
              "name": "strikeAsset",
              "type": "address"
            },
            {
              "internalType": "address",
              "name": "collateral",
              "type": "address"
            }
          ],
          "internalType": "struct Types.OptionSeries",
          "name": "optionSeries",
          "type": "tuple"
        },
        {
          "internalType": "uint256",
          "name": "amount",
          "type": "uint256"
        },
        {
          "internalType": "uint256",
          "name": "premium",
          "type": "uint256"
        },
        {
          "internalType": "int256",
          "name": "delta",
          "type": "int256"
        },
        {
          "internalType": "address",
          "name": "recipient",
          "type": "address"
        }
      ],
      "name": "handlerIssueAndWriteOption",
      "outputs": [
        {
          "internalType": "uint256",
          "name": "",
          "type": "uint256"
        },
        {
          "internalType": "address",
          "name": "",
          "type": "address"
        }
      ],
      "stateMutability": "nonpayable",
      "type": "function"
    },
    {
      "inputs": [
        {
          "components": [
            {
              "internalType": "uint64",
              "name": "expiration",
              "type": "uint64"
            },
            {
              "internalType": "uint128",
              "name": "strike",
              "type": "uint128"
            },
            {
              "internalType": "bool",
              "name": "isPut",
              "type": "bool"
            },
            {
              "internalType": "address",
              "name": "underlying",
              "type": "address"
            },
            {
              "internalType": "address",
              "name": "strikeAsset",
              "type": "address"
            },
            {
              "internalType": "address",
              "name": "collateral",
              "type": "address"
            }
          ],
          "internalType": "struct Types.OptionSeries",
          "name": "optionSeries",
          "type": "tuple"
        },
        {
          "internalType": "address",
          "name": "seriesAddress",
          "type": "address"
        },
        {
          "internalType": "uint256",
          "name": "amount",
          "type": "uint256"
        },
        {
          "internalType": "contract IOptionRegistry",
          "name": "optionRegistry",
          "type": "address"
        },
        {
          "internalType": "uint256",
          "name": "premium",
          "type": "uint256"
        },
        {
          "internalType": "int256",
          "name": "delta",
          "type": "int256"
        },
        {
          "internalType": "address",
          "name": "recipient",
          "type": "address"
        }
      ],
      "name": "handlerWriteOption",
      "outputs": [
        {
          "internalType": "uint256",
          "name": "",
          "type": "uint256"
        }
      ],
      "stateMutability": "nonpayable",
      "type": "function"
    },
    {
      "inputs": [
        {
          "internalType": "uint256",
          "name": "",
          "type": "uint256"
        }
      ],
      "name": "hedgingReactors",
      "outputs": [
        {
          "internalType": "address",
          "name": "",
          "type": "address"
        }
      ],
      "stateMutability": "view",
      "type": "function"
    },
    {
      "inputs": [
        {
          "internalType": "uint256",
          "name": "_shares",
          "type": "uint256"
        }
      ],
      "name": "initiateWithdraw",
      "outputs": [],
      "stateMutability": "nonpayable",
      "type": "function"
    },
    {
      "inputs": [],
      "name": "isTradingPaused",
      "outputs": [
        {
          "internalType": "bool",
          "name": "",
          "type": "bool"
        }
      ],
      "stateMutability": "view",
      "type": "function"
    },
    {
      "inputs": [
        {
          "internalType": "address",
          "name": "",
          "type": "address"
        }
      ],
      "name": "keeper",
      "outputs": [
        {
          "internalType": "bool",
          "name": "",
          "type": "bool"
        }
      ],
      "stateMutability": "view",
      "type": "function"
    },
    {
      "inputs": [],
      "name": "maxPriceDeviationThreshold",
      "outputs": [
        {
          "internalType": "uint256",
          "name": "",
          "type": "uint256"
        }
      ],
      "stateMutability": "view",
      "type": "function"
    },
    {
      "inputs": [],
      "name": "maxTimeDeviationThreshold",
      "outputs": [
        {
          "internalType": "uint256",
          "name": "",
          "type": "uint256"
        }
      ],
      "stateMutability": "view",
      "type": "function"
    },
    {
      "inputs": [],
      "name": "name",
      "outputs": [
        {
          "internalType": "string",
          "name": "",
          "type": "string"
        }
      ],
      "stateMutability": "view",
      "type": "function"
    },
    {
      "inputs": [
        {
          "internalType": "address",
          "name": "",
          "type": "address"
        }
      ],
      "name": "nonces",
      "outputs": [
        {
          "internalType": "uint256",
          "name": "",
          "type": "uint256"
        }
      ],
      "stateMutability": "view",
      "type": "function"
    },
    {
      "inputs": [],
      "name": "optionParams",
      "outputs": [
        {
          "internalType": "uint128",
          "name": "minCallStrikePrice",
          "type": "uint128"
        },
        {
          "internalType": "uint128",
          "name": "maxCallStrikePrice",
          "type": "uint128"
        },
        {
          "internalType": "uint128",
          "name": "minPutStrikePrice",
          "type": "uint128"
        },
        {
          "internalType": "uint128",
          "name": "maxPutStrikePrice",
          "type": "uint128"
        },
        {
          "internalType": "uint128",
          "name": "minExpiry",
          "type": "uint128"
        },
        {
          "internalType": "uint128",
          "name": "maxExpiry",
          "type": "uint128"
        }
      ],
      "stateMutability": "view",
      "type": "function"
    },
    {
      "inputs": [],
      "name": "partitionedFunds",
      "outputs": [
        {
          "internalType": "uint256",
          "name": "",
          "type": "uint256"
        }
      ],
      "stateMutability": "view",
      "type": "function"
    },
    {
      "inputs": [],
      "name": "pause",
      "outputs": [],
      "stateMutability": "nonpayable",
      "type": "function"
    },
    {
      "inputs": [],
      "name": "pauseTradingAndRequest",
      "outputs": [
        {
          "internalType": "bytes32",
          "name": "",
          "type": "bytes32"
        }
      ],
      "stateMutability": "nonpayable",
      "type": "function"
    },
    {
      "inputs": [
        {
          "internalType": "bool",
          "name": "_pause",
          "type": "bool"
        }
      ],
      "name": "pauseUnpauseTrading",
      "outputs": [],
      "stateMutability": "nonpayable",
      "type": "function"
    },
    {
      "inputs": [],
      "name": "paused",
      "outputs": [
        {
          "internalType": "bool",
          "name": "",
          "type": "bool"
        }
      ],
      "stateMutability": "view",
      "type": "function"
    },
    {
      "inputs": [],
      "name": "pendingDeposits",
      "outputs": [
        {
          "internalType": "uint256",
          "name": "",
          "type": "uint256"
        }
      ],
      "stateMutability": "view",
      "type": "function"
    },
    {
      "inputs": [],
      "name": "pendingWithdrawals",
      "outputs": [
        {
          "internalType": "uint256",
          "name": "",
          "type": "uint256"
        }
      ],
      "stateMutability": "view",
      "type": "function"
    },
    {
      "inputs": [
        {
          "internalType": "address",
          "name": "owner",
          "type": "address"
        },
        {
          "internalType": "address",
          "name": "spender",
          "type": "address"
        },
        {
          "internalType": "uint256",
          "name": "value",
          "type": "uint256"
        },
        {
          "internalType": "uint256",
          "name": "deadline",
          "type": "uint256"
        },
        {
          "internalType": "uint8",
          "name": "v",
          "type": "uint8"
        },
        {
          "internalType": "bytes32",
          "name": "r",
          "type": "bytes32"
        },
        {
          "internalType": "bytes32",
          "name": "s",
          "type": "bytes32"
        }
      ],
      "name": "permit",
      "outputs": [],
      "stateMutability": "nonpayable",
      "type": "function"
    },
    {
      "inputs": [],
      "name": "protocol",
      "outputs": [
        {
          "internalType": "contract Protocol",
          "name": "",
          "type": "address"
        }
      ],
      "stateMutability": "view",
      "type": "function"
    },
    {
      "inputs": [
        {
          "internalType": "int256",
          "name": "delta",
          "type": "int256"
        },
        {
          "internalType": "uint256",
          "name": "reactorIndex",
          "type": "uint256"
        }
      ],
      "name": "rebalancePortfolioDelta",
      "outputs": [],
      "stateMutability": "nonpayable",
      "type": "function"
    },
    {
      "inputs": [
        {
          "internalType": "uint256",
          "name": "_shares",
          "type": "uint256"
        }
      ],
      "name": "redeem",
      "outputs": [
        {
          "internalType": "uint256",
          "name": "",
          "type": "uint256"
        }
      ],
      "stateMutability": "nonpayable",
      "type": "function"
    },
    {
      "inputs": [
        {
          "internalType": "uint256",
          "name": "_index",
          "type": "uint256"
        },
        {
          "internalType": "bool",
          "name": "_override",
          "type": "bool"
        }
      ],
      "name": "removeHedgingReactorAddress",
      "outputs": [],
      "stateMutability": "nonpayable",
      "type": "function"
    },
    {
      "inputs": [],
      "name": "resetEphemeralValues",
      "outputs": [],
      "stateMutability": "nonpayable",
      "type": "function"
    },
    {
      "inputs": [],
      "name": "riskFreeRate",
      "outputs": [
        {
          "internalType": "uint256",
          "name": "",
          "type": "uint256"
        }
      ],
      "stateMutability": "view",
      "type": "function"
    },
    {
      "inputs": [
        {
          "internalType": "contract IAuthority",
          "name": "_newAuthority",
          "type": "address"
        }
      ],
      "name": "setAuthority",
      "outputs": [],
      "stateMutability": "nonpayable",
      "type": "function"
    },
    {
      "inputs": [
        {
          "internalType": "uint256",
          "name": "_bufferPercentage",
          "type": "uint256"
        }
      ],
      "name": "setBufferPercentage",
      "outputs": [],
      "stateMutability": "nonpayable",
      "type": "function"
    },
    {
      "inputs": [
        {
          "internalType": "uint256",
          "name": "_collateralCap",
          "type": "uint256"
        }
      ],
      "name": "setCollateralCap",
      "outputs": [],
      "stateMutability": "nonpayable",
      "type": "function"
    },
    {
      "inputs": [
        {
          "internalType": "address",
          "name": "_reactorAddress",
          "type": "address"
        }
      ],
      "name": "setHedgingReactorAddress",
      "outputs": [],
      "stateMutability": "nonpayable",
      "type": "function"
    },
    {
      "inputs": [
        {
          "internalType": "address",
          "name": "_keeper",
          "type": "address"
        },
        {
          "internalType": "bool",
          "name": "_auth",
          "type": "bool"
        }
      ],
      "name": "setKeeper",
      "outputs": [],
      "stateMutability": "nonpayable",
      "type": "function"
    },
    {
      "inputs": [
        {
          "internalType": "uint256",
          "name": "_maxPriceDeviationThreshold",
          "type": "uint256"
        }
      ],
      "name": "setMaxPriceDeviationThreshold",
      "outputs": [],
      "stateMutability": "nonpayable",
      "type": "function"
    },
    {
      "inputs": [
        {
          "internalType": "uint256",
          "name": "_maxTimeDeviationThreshold",
          "type": "uint256"
        }
      ],
      "name": "setMaxTimeDeviationThreshold",
      "outputs": [],
      "stateMutability": "nonpayable",
      "type": "function"
    },
    {
      "inputs": [
        {
          "internalType": "uint128",
          "name": "_newMinCallStrike",
          "type": "uint128"
        },
        {
          "internalType": "uint128",
          "name": "_newMaxCallStrike",
          "type": "uint128"
        },
        {
          "internalType": "uint128",
          "name": "_newMinPutStrike",
          "type": "uint128"
        },
        {
          "internalType": "uint128",
          "name": "_newMaxPutStrike",
          "type": "uint128"
        },
        {
          "internalType": "uint128",
          "name": "_newMinExpiry",
          "type": "uint128"
        },
        {
          "internalType": "uint128",
          "name": "_newMaxExpiry",
          "type": "uint128"
        }
      ],
      "name": "setNewOptionParams",
      "outputs": [],
      "stateMutability": "nonpayable",
      "type": "function"
    },
    {
      "inputs": [
        {
          "internalType": "uint256",
          "name": "_riskFreeRate",
          "type": "uint256"
        }
      ],
      "name": "setRiskFreeRate",
      "outputs": [],
      "stateMutability": "nonpayable",
      "type": "function"
    },
    {
      "inputs": [
        {
          "internalType": "address",
          "name": "seriesAddress",
          "type": "address"
        }
      ],
      "name": "settleVault",
      "outputs": [
        {
          "internalType": "uint256",
          "name": "",
          "type": "uint256"
        }
      ],
      "stateMutability": "nonpayable",
      "type": "function"
    },
    {
      "inputs": [],
      "name": "strikeAsset",
      "outputs": [
        {
          "internalType": "address",
          "name": "",
          "type": "address"
        }
      ],
      "stateMutability": "view",
      "type": "function"
    },
    {
      "inputs": [],
      "name": "symbol",
      "outputs": [
        {
          "internalType": "string",
          "name": "",
          "type": "string"
        }
      ],
      "stateMutability": "view",
      "type": "function"
    },
    {
      "inputs": [],
      "name": "totalSupply",
      "outputs": [
        {
          "internalType": "uint256",
          "name": "",
          "type": "uint256"
        }
      ],
      "stateMutability": "view",
      "type": "function"
    },
    {
      "inputs": [
        {
          "internalType": "address",
          "name": "to",
          "type": "address"
        },
        {
          "internalType": "uint256",
          "name": "amount",
          "type": "uint256"
        }
      ],
      "name": "transfer",
      "outputs": [
        {
          "internalType": "bool",
          "name": "",
          "type": "bool"
        }
      ],
      "stateMutability": "nonpayable",
      "type": "function"
    },
    {
      "inputs": [
        {
          "internalType": "address",
          "name": "from",
          "type": "address"
        },
        {
          "internalType": "address",
          "name": "to",
          "type": "address"
        },
        {
          "internalType": "uint256",
          "name": "amount",
          "type": "uint256"
        }
      ],
      "name": "transferFrom",
      "outputs": [
        {
          "internalType": "bool",
          "name": "",
          "type": "bool"
        }
      ],
      "stateMutability": "nonpayable",
      "type": "function"
    },
    {
      "inputs": [],
      "name": "underlyingAsset",
      "outputs": [
        {
          "internalType": "address",
          "name": "",
          "type": "address"
        }
      ],
      "stateMutability": "view",
      "type": "function"
    },
    {
      "inputs": [],
      "name": "unpause",
      "outputs": [],
      "stateMutability": "nonpayable",
      "type": "function"
    },
    {
      "inputs": [],
      "name": "withdrawalEpoch",
      "outputs": [
        {
          "internalType": "uint256",
          "name": "",
          "type": "uint256"
        }
      ],
      "stateMutability": "view",
      "type": "function"
    },
    {
      "inputs": [
        {
          "internalType": "uint256",
          "name": "",
          "type": "uint256"
        }
      ],
      "name": "withdrawalEpochPricePerShare",
      "outputs": [
        {
          "internalType": "uint256",
          "name": "",
          "type": "uint256"
        }
      ],
      "stateMutability": "view",
      "type": "function"
    },
    {
      "inputs": [
        {
          "internalType": "address",
          "name": "",
          "type": "address"
        }
      ],
      "name": "withdrawalReceipts",
      "outputs": [
        {
          "internalType": "uint128",
          "name": "epoch",
          "type": "uint128"
        },
        {
          "internalType": "uint128",
          "name": "shares",
          "type": "uint128"
        }
      ],
      "stateMutability": "view",
      "type": "function"
    }
  ],
  "bytecode": "0x610160604052611388601555600019601755610258601e55670de0b6b3a7640000601f553480156200003057600080fd5b5060405162005cb738038062005cb7833981016040819052620000539162000507565b80848460128260009080519060200190620000709291906200034e565b508151620000869060019060208501906200034e565b5060ff81166080524660a0526200009c620002b2565b60c0525050600680546001600160a01b0319166001600160a01b0384169081179091556040519081527f2f658b440c35314f52658ea8a740e05b284cdc84dc9ae01e891f21b8933e7cad915060200160405180910390a15060016007556008805460ff191690556040805163313ce56760e01b815290516012916001600160a01b0389169163313ce56791600480820192602092909190829003018186803b1580156200014857600080fd5b505afa1580156200015d573d6000803e3d6000fd5b505050506040513d601f19601f820116820180604052508101906200018391906200068a565b60ff161115620001a657604051630692acc560e51b815260040160405180910390fd5b6001600160a01b0388811661010052601b8690558781166101205286811661014052891660e05281516020838101516001600160801b03928316600160801b91841682021760185560408501516060860151908416908416820217601955608085015160a086015190841693160291909117601a556000808052670de0b6b3a76400007fe710864318d4a32f37d6ce54cb3fadbef648dd12d8dbdf53973564d56b7f881c819055600f9092527ff4803e074bd026baaf6ed2e288c9515f68c72fb7216eebdd7cae1718a53ec37591909155600c8054916200028783620006b6565b9091555050600d80549060006200029e83620006b6565b9190505550505050505050505050620007c1565b60007f8b73c3c69bb8fe3d512ecc4cf759cc79239f7b179b0ffacaa9a75d522b39400f6000604051620002e691906200071d565b6040805191829003822060208301939093528101919091527fc89efdaa54c0f20c7adf612882df0950f5a951637e0307cdcb4c672f298b8bc660608201524660808201523060a082015260c00160405160208183030381529060405280519060200120905090565b8280546200035c90620006e0565b90600052602060002090601f016020900481019282620003805760008555620003cb565b82601f106200039b57805160ff1916838001178555620003cb565b82800160010185558215620003cb579182015b82811115620003cb578251825591602001919060010190620003ae565b50620003d9929150620003dd565b5090565b5b80821115620003d95760008155600101620003de565b80516001600160a01b03811681146200040c57600080fd5b919050565b634e487b7160e01b600052604160045260246000fd5b604051601f8201601f191681016001600160401b038111828210171562000452576200045262000411565b604052919050565b600082601f8301126200046c57600080fd5b81516001600160401b0381111562000488576200048862000411565b60206200049e601f8301601f1916820162000427565b8281528582848701011115620004b357600080fd5b60005b83811015620004d3578581018301518282018401528201620004b6565b83811115620004e55760008385840101525b5095945050505050565b80516001600160801b03811681146200040c57600080fd5b6000806000806000806000806000898b036101c08112156200052857600080fd5b620005338b620003f4565b99506200054360208c01620003f4565b98506200055360408c01620003f4565b97506200056360608c01620003f4565b60808c015160a08d015191985096506001600160401b03808211156200058857600080fd5b620005968e838f016200045a565b965060c08d0151915080821115620005ad57600080fd5b620005bb8e838f016200045a565b955060c060df1984011215620005d057600080fd5b604051925060c0830191508282108183111715620005f257620005f262000411565b506040526200060460e08c01620004ef565b8152620006156101008c01620004ef565b6020820152620006296101208c01620004ef565b60408201526200063d6101408c01620004ef565b6060820152620006516101608c01620004ef565b6080820152620006656101808c01620004ef565b60a082015291506200067b6101a08b01620003f4565b90509295985092959850929598565b6000602082840312156200069d57600080fd5b815160ff81168114620006af57600080fd5b9392505050565b6000600019821415620006d957634e487b7160e01b600052601160045260246000fd5b5060010190565b600181811c90821680620006f557607f821691505b602082108114156200071757634e487b7160e01b600052602260045260246000fd5b50919050565b600080835481600182811c9150808316806200073a57607f831692505b60208084108214156200075b57634e487b7160e01b86526022600452602486fd5b8180156200077257600181146200078457620007b3565b60ff19861689528489019650620007b3565b60008a81526020902060005b86811015620007ab5781548b82015290850190830162000790565b505084890196505b509498975050505050505050565b60805160a05160c05160e0516101005161012051610140516153c2620008f56000396000818161094401528181610d2201528181611a1501528181611bf601528181612275015281816122ea0152818161291301528181612fcc015281816130680152818161379d015281816137e50152818161390c01528181613d00015281816140b5015261416001526000818161076701528181610ec701528181611001015281816110cf015281816131cc0152818161329a01526139620152600081816104f101528181610ee801528181611022015281816110f0015281816131ed015281816132bb01526139b80152600081816108920152818161154801528181612acf01528181612d1901528181612e0e0152612f6b01526000610fc401526000610f940152600061058201526153c26000f3fe608060405234801561001057600080fd5b506004361061044a5760003560e01c80637158da7c1161023c578063beca03d511610146578063dfef605e116100c3578063f18e471811610087578063f18e471814610ac9578063f3cc699314610adc578063f589826214610ae5578063f756fa2114610af8578063f8b2cb4f14610b0057600080fd5b8063dfef605e14610a4b578063e1ea1cf514610a6e578063e6d1544014610a81578063e8cf860814610a94578063eaae9f4214610ab657600080fd5b8063d2bb18e91161010a578063d2bb18e9146109e8578063d505accf146109f1578063db006a7514610a04578063dc1bee0d14610a17578063dd62ed3e14610a2057600080fd5b8063beca03d51461099e578063bf7e214f146109a7578063c0e9b164146109ba578063cda2dd9a146109cd578063d1b9e853146109d557600080fd5b806393fd25ec116101d4578063aabaecd611610198578063aabaecd61461093f578063afd3280814610966578063b6b55f251461096f578063b908337b14610982578063bdb424611461098b57600080fd5b806393fd25ec146108b457806395d89b41146108bd5780639649b0a2146108c5578063992006e414610919578063a9059cbb1461092c57600080fd5b80637158da7c146107625780637a9e5e4b146107895780637d4624721461079c5780637e108d52146107cc5780637ecebe00146107df578063802aaa5f146107ff5780638456cb59146108085780638adce2b4146108105780638ce744261461088d57600080fd5b80633d1d667c116103585780635c074f44116102d557806367e4ac2c1161029957806367e4ac2c146107015780636834a332146107095780636cc698171461071c57806370183e0a1461072f57806370a082311461074257600080fd5b80635c074f44146106655780635c975abb1461066e5780636719b2ee146106795780636724589e146106db57806367a35e47146106ee57600080fd5b80634e952c261161031c5780634e952c2614610619578063522f4a0814610639578063526e61cc1461064257806354db2f731461064a5780635733af2a1461065257600080fd5b80633d1d667c146105eb5780633f2306ab146105f35780633f4ba83a146106005780634c9eb2ec146106085780634da2df781461061157600080fd5b806321950260116103e65780633185d32b116103aa5780633185d32b146105b657806334b2c022146105c95780633644e515146105d25780633a5cd401146105da5780633b9d7454146105e357600080fd5b8063219502601461053c57806323b872dd1461054f57806326d127f3146105625780632b371ecf1461056a578063313ce5671461057d57600080fd5b80630126c6061461044f57806306fdde031461046a578063095ea7b31461047f5780630a67daad146104a25780630b4c0ddf146104c25780630b75503d146104d757806317d69bc8146104ec57806318160ddd146105205780631e4bc55714610529575b600080fd5b610457610b13565b6040519081526020015b60405180910390f35b610472610b22565b60405161046191906144c4565b61049261048d36600461452e565b610bb0565b6040519015158152602001610461565b6104576104b036600461455a565b600f6020526000908152604090205481565b6104ca610c1d565b6040516104619190614573565b6104ea6104e53660046145ce565b610c7f565b005b6105137f000000000000000000000000000000000000000000000000000000000000000081565b6040516104619190614607565b61045760025481565b6104ea61053736600461461b565b610cd9565b61051361054a36600461455a565b610d65565b61049261055d366004614640565b610d8f565b610457610e6f565b6104ea61057836600461455a565b610f76565b6105a47f000000000000000000000000000000000000000000000000000000000000000081565b60405160ff9091168152602001610461565b6104ea6105c436600461455a565b610f83565b61045760145481565b610457610f90565b61045760095481565b610457610fe6565b6104ea611191565b601d546104929060ff1681565b6104ea611503565b610457601e5481565b6104ea611513565b61045761062736600461455a565b600e6020526000908152604090205481565b610457600b5481565b610513611544565b6104576115d7565b610457610660366004614767565b6116f6565b61045760125481565b60085460ff16610492565b6106b56106873660046147e6565b601060205260009081526040902080546001909101546001600160801b0380831692600160801b9004169083565b604080516001600160801b03948516815293909216602084015290820152606001610461565b6104ea6106e9366004614803565b611723565b6104576106fc366004614885565b61175e565b610457611801565b6104ea61071736600461461b565b61180b565b6104ea61072a3660046147e6565b611b05565b61051361073d3660046148c0565b611c22565b6104576107503660046147e6565b60036020526000908152604090205481565b6105137f000000000000000000000000000000000000000000000000000000000000000081565b6104ea6107973660046147e6565b611c3d565b6107af6107aa3660046148dc565b611c9b565b604080519283526001600160a01b03909116602083015201610461565b6104ea6107da36600461455a565b611d6c565b6104576107ed3660046147e6565b60056020526000908152604090205481565b610457600d5481565b6104ea611f52565b601854601954601a5461084b926001600160801b0380821693600160801b928390048216938183169391829004831692818116929091041686565b604080516001600160801b03978816815295871660208701529386169385019390935290841660608401528316608083015290911660a082015260c001610461565b6105137f000000000000000000000000000000000000000000000000000000000000000081565b61045760155481565b610472611f62565b6108f96108d33660046147e6565b6011602052600090815260409020546001600160801b0380821691600160801b90041682565b604080516001600160801b03938416815292909116602083015201610461565b6104576109273660046147e6565b611f6f565b61049261093a36600461452e565b612084565b6105137f000000000000000000000000000000000000000000000000000000000000000081565b610457600a5481565b61049261097d36600461455a565b6120ea565b610457601f5481565b610457610999366004614934565b6122ac565b61045760135481565b600654610513906001600160a01b031681565b6104ea6109c836600461455a565b6122d5565b6104576122e2565b6104ea6109e33660046145ce565b612342565b61045760175481565b6104ea6109ff366004614991565b61239b565b610457610a1236600461455a565b6125e6565b610457600c5481565b610457610a2e366004614a02565b600460209081526000928352604080842090915290825290205481565b610492610a593660046147e6565b601c6020526000908152604090205460ff1681565b6104ea610a7c36600461455a565b612642565b6104ea610a8f36600461455a565b61264f565b610492610aa23660046147e6565b602080526000908152604090205460ff1681565b6104ea610ac4366004614a30565b61265c565b6104ea610ad7366004614a4d565b6126d4565b610457601b5481565b6104ea610af3366004614a8e565b6126ee565b6104576127c8565b610457610b0e3660046147e6565b612945565b6000610b1d6129d0565b905090565b60008054610b2f90614ab0565b80601f0160208091040260200160405190810160405280929190818152602001828054610b5b90614ab0565b8015610ba85780601f10610b7d57610100808354040283529160200191610ba8565b820191906000526020600020905b815481529060010190602001808311610b8b57829003601f168201915b505050505081565b3360008181526004602090815260408083206001600160a01b038716808552925280832085905551919290917f8c5be1e5ebec7d5bd14f71427d1e84f3dd0314c0f7b2291e5b200ac8c7c3b92590610c0b9086815260200190565b60405180910390a35060015b92915050565b60606016805480602002602001604051908101604052809291908181526020018280548015610c7557602002820191906000526020600020905b81546001600160a01b03168152600190910190602001808311610c57575b5050505050905090565b610c87612a14565b6001600160a01b038216610cae5760405163e6c4247b60e01b815260040160405180910390fd5b6001600160a01b03919091166000908152601c60205260409020805460ff1916911515919091179055565b6000610ce3612acb565b9050336001600160a01b03821614610cfa57600080fd5b8115610d1d578260096000828254610d129190614b01565b90915550610d609050565b610d487f00000000000000000000000000000000000000000000000000000000000000008285612b26565b8260096000828254610d5a9190614b18565b90915550505b505050565b60168181548110610d7557600080fd5b6000918252602090912001546001600160a01b0316905081565b6001600160a01b03831660009081526004602090815260408083203384529091528120546000198114610deb57610dc68382614b01565b6001600160a01b03861660009081526004602090815260408083203384529091529020555b6001600160a01b03851660009081526003602052604081208054859290610e13908490614b01565b90915550506001600160a01b038085166000818152600360205260409081902080548701905551909187169060008051602061536d83398151915290610e5c9087815260200190565b60405180910390a3506001949350505050565b6000610e79612b9e565b601d805460ff191660011790556040517f02b874a66f7edefaaca8e06ecdb0825247542b983cc7c499a3d7f1bb34e7272890600090a1610eb7612d15565b6001600160a01b03166305c253907f00000000000000000000000000000000000000000000000000000000000000007f00000000000000000000000000000000000000000000000000000000000000006040518363ffffffff1660e01b8152600401610f24929190614b30565b602060405180830381600087803b158015610f3e57600080fd5b505af1158015610f52573d6000803e3d6000fd5b505050506040513d601f19601f82011682018060405250810190610b1d9190614b4a565b610f7e612a14565b601555565b610f8b612a14565b601f55565b60007f00000000000000000000000000000000000000000000000000000000000000004614610fc157610b1d612d70565b507f000000000000000000000000000000000000000000000000000000000000000090565b600080610ff1612d15565b6001600160a01b0316634e133d4d7f00000000000000000000000000000000000000000000000000000000000000007f00000000000000000000000000000000000000000000000000000000000000006040518363ffffffff1660e01b815260040161105e929190614b30565b60e06040518083038186803b15801561107657600080fd5b505afa15801561108a573d6000803e3d6000fd5b505050506040513d601f19601f820116820180604052508101906110ae9190614b63565b905073__$9200b285a0f372c982db0cf335fd1ba5de$__6348aec70b6111147f00000000000000000000000000000000000000000000000000000000000000007f0000000000000000000000000000000000000000000000000000000000000000612e0a565b83601e54601f546040518563ffffffff1660e01b815260040161113a9493929190614bf4565b60006040518083038186803b15801561115257600080fd5b505af4158015611166573d6000803e3d6000fd5b50505050600b546111756115d7565b82516111819190614c5a565b61118b9190614c5a565b91505090565b611199612f21565b6111a1612b9e565b601d5460ff166111c45760405163dd908f1b60e01b815260040160405180910390fd5b60008060008060006111d4612f67565b6001600160a01b03166355676bad6002546111ed612fc2565b6111f56131b1565b6040516001600160e01b031960e086901b16815260048101939093526024830191909152604482015260640160a06040518083038186803b15801561123957600080fd5b505afa15801561124d573d6000803e3d6000fd5b505050506040513d601f19601f820116820180604052508101906112719190614c9b565b9450945094509450945084600e6000600c548152602001908152602001600020819055506012600090557f0f5bb4b5d20dcb8c06151458c2583d0958b5cc6bead1f07a26f7ee1ef1a5ba7d600c546040516112ce91815260200190565b60405180910390a1600c80549060006112e683614cdb565b9091555050601d805460ff191690556040517f2185a7ecc28b84536b7b3d3cf472d9215a2bc8f2302d7331cb56db0a44239f3290600090a16113283084613347565b8015611474576000601680548060200260200160405190810160405280929190818152602001828054801561138657602002820191906000526020600020905b81546001600160a01b03168152600190910190602001808311611368575b5050505050905060005b81518160ff16101561146357818160ff16815181106113b1576113b1614cf6565b60200260200101516001600160a01b0316632e1a7d4d846040518263ffffffff1660e01b81526004016113e691815260200190565b602060405180830381600087803b15801561140057600080fd5b505af1158015611414573d6000803e3d6000fd5b505050506040513d601f19601f820116820180604052508101906114389190614b4a565b6114429084614b01565b92506000831161145157611463565b8061145b81614d0c565b915050611390565b50811561147257505050505050565b505b600d546000908152600f602052604081208590556014805484929061149a908490614b18565b9091555050600d546040519081527f14605f088644076934e95d93264603055260cbb14ab846609ecd0153ec2842ad9060200160405180910390a16114e1306013546133a1565b60006013819055600d8054916114f683614cdb565b919050555050505050505b565b61150b613403565b611501613545565b61151b612d15565b6001600160a01b0316336001600160a01b03161461153857600080fd5b6000600a819055600b55565b60007f00000000000000000000000000000000000000000000000000000000000000006001600160a01b031663128e414b6040518163ffffffff1660e01b815260040160206040518083038186803b15801561159f57600080fd5b505afa1580156115b3573d6000803e3d6000fd5b505050506040513d601f19601f82011682018060405250810190610b1d9190614d2c565b600080601680548060200260200160405190810160405280929190818152602001828054801561163057602002820191906000526020600020905b81546001600160a01b03168152600190910190602001808311611612575b5050505050905060005b81518160ff1610156116f157818160ff168151811061165b5761165b614cf6565b60200260200101516001600160a01b031663c549176e6040518163ffffffff1660e01b815260040160206040518083038186803b15801561169b57600080fd5b505afa1580156116af573d6000803e3d6000fd5b505050506040513d601f19601f820116820180604052508101906116d39190614b4a565b6116dd9084614c5a565b9250806116e981614d0c565b91505061163a565b505090565b6000611700613591565b6117086135b5565b611717888888888888886135e5565b98975050505050505050565b61172b613818565b6001600160801b03958616600160801b958716860217601855928516918516840291909117601955831692160217601a55565b6000611768611544565b6040516367a35e4760e01b815286151560048201526024810186905260448101859052606481018490526001600160a01b0391909116906367a35e479060840160206040518083038186803b1580156117c057600080fd5b505afa1580156117d4573d6000803e3d6000fd5b505050506040513d601f19601f820116820180604052508101906117f89190614b4a565b95945050505050565b6000610b1d612fc2565b611813612a14565b6000601680548060200260200160405190810160405280929190818152602001828054801561186b57602002820191906000526020600020905b81546001600160a01b0316815260019091019060200180831161184d575b50505050509050600081848151811061188657611886614cf6565b6020026020010151905082611a105760008190506000816001600160a01b031663c549176e6040518163ffffffff1660e01b815260040160206040518083038186803b1580156118d557600080fd5b505afa1580156118e9573d6000803e3d6000fd5b505050506040513d601f19601f8201168201806040525081019061190d9190614b4a565b905080156119915760405163fbaac11560e01b8152600481018290526001600160a01b0383169063fbaac11590602401602060405180830381600087803b15801561195757600080fd5b505af115801561196b573d6000803e3d6000fd5b505050506040513d601f19601f8201168201806040525081019061198f9190614b4a565b505b604051632e1a7d4d60e01b815260001960048201526001600160a01b03831690632e1a7d4d90602401602060405180830381600087803b1580156119d457600080fd5b505af11580156119e8573d6000803e3d6000fd5b505050506040513d601f19601f82011682018060405250810190611a0c9190614b4a565b5050505b611a3c7f0000000000000000000000000000000000000000000000000000000000000000826000612b26565b600060018351611a4c9190614b01565b9050845b81811015611aca5783611a64826001614b18565b81518110611a7457611a74614cf6565b602002602001015160168281548110611a8f57611a8f614cf6565b600091825260209091200180546001600160a01b0319166001600160a01b039290921691909117905580611ac281614cdb565b915050611a50565b506016805480611adc57611adc614d49565b600082815260209020810160001990810180546001600160a01b03191690550190555050505050565b611b0d612a14565b6001600160a01b038116611b345760405163e6c4247b60e01b815260040160405180910390fd5b60165460005b81811015611ba557826001600160a01b031660168281548110611b5f57611b5f614cf6565b6000918252602090912001546001600160a01b03161415611b93576040516305de9c7760e11b815260040160405180910390fd5b80611b9d81614cdb565b915050611b3a565b50601680546001810182556000919091527fd833147d7dc355ba459fc788f669e58cfaf9dc25ddcd0702e87d69c7b51242890180546001600160a01b0319166001600160a01b038416179055611c1e7f000000000000000000000000000000000000000000000000000000000000000083600019612b26565b5050565b6000611c2c6135b5565b610c1782611c38612acb565b613908565b611c45612a14565b600680546001600160a01b0319166001600160a01b0383161790556040517f2f658b440c35314f52658ea8a740e05b284cdc84dc9ae01e891f21b8933e7cad90611c90908390614607565b60405180910390a150565b600080611ca6613591565b611cae6135b5565b6000611cb8612acb565b90506000611cc68983613908565b60405163dac9675b60e01b81529091506001600160a01b0383169063dac9675b90611cf5908490600401614607565b60c06040518083038186803b158015611d0d57600080fd5b505afa158015611d21573d6000803e3d6000fd5b505050506040513d601f19601f82011682018060405250810190611d459190614d5f565b9850611d5e89828a858b8b611d586122e2565b8c613c45565b999098509650505050505050565b611d74612f21565b60026007541415611da05760405162461bcd60e51b8152600401611d9790614e17565b60405180910390fd5b600260075580611dc357604051638c88122d60e01b815260040160405180910390fd5b33600090815260106020908152604091829020825160608101845281546001600160801b038082168352600160801b9091041692810183905260019091015492810192909252151580611e1a575060008160400151115b15611e2c57611e2a600019613f09565b505b6000611e36612f67565b6001600160a01b031663c4bf093633856040518363ffffffff1660e01b8152600401611e63929190614e4e565b6040805180830381600087803b158015611e7c57600080fd5b505af1158015611e90573d6000803e3d6000fd5b505050506040513d601f19601f82011682018060405250810190611eb49190614ed9565b33600090815260116020908152604082208351918401516001600160801b03908116600160801b029216919091179055601380549293508592909190611efb908490614b18565b9091555050600d546040517f0c53c82ad07e2d592d88ece3b066777dd60f1118e2a081b380efc4358f0d9e2a91611f359133918791614ef5565b60405180910390a1611f473084612084565b505060016007555050565b611f5a613403565b611501614053565b60018054610b2f90614ab0565b6000611f79612b9e565b600080611f84612acb565b6001600160a01b0316636a256b29856040518263ffffffff1660e01b8152600401611faf9190614607565b608060405180830381600087803b158015611fc957600080fd5b505af1158015611fdd573d6000803e3d6000fd5b505050506040513d601f19601f820116820180604052508101906120019190614f16565b50604080516001600160a01b03891681526020810184905290810182905233606082015291945092507f3c6fbb57d229454c2441564ffff38b57852db9295bb7794d55f399901f5758a9915060800160405180910390a16120658282600080614090565b80600960008282546120779190614b01565b9091555091949350505050565b336000908152600360205260408120805483919083906120a5908490614b01565b90915550506001600160a01b0383166000818152600360205260409081902080548501905551339060008051602061536d83398151915290610c0b9086815260200190565b60006120f4612f21565b600260075414156121175760405162461bcd60e51b8152600401611d9790614e17565b60026007558161213a5760405163162908e360e11b815260040160405180910390fd5b600080612145612f67565b6001600160a01b03166347e7ef2433866040518363ffffffff1660e01b8152600401612172929190614e4e565b6040805180830381600087803b15801561218b57600080fd5b505af115801561219f573d6000803e3d6000fd5b505050506040513d601f19601f820116820180604052508101906121c39190614f55565b915091507f90890809c654f11d6e72a28fa60149770a0d11ec6c92319d6ceb2bb0a4ea1a153385600c546040516121fc93929190614ef5565b60405180910390a160408051606081018252600c546001600160801b03908116825284811660208084019182528385018681523360009081526010909252948120935191518316600160801b029190921617825591516001909101556012805486929061226a908490614b18565b9091555061229c90507f00000000000000000000000000000000000000000000000000000000000000003330876141ec565b6001925050506001600755919050565b60006122b6613591565b6122be6135b5565b6117178888888888886122cf6122e2565b89613c45565b6122dd612a14565b601e55565b60008061230e7f0000000000000000000000000000000000000000000000000000000000000000612945565b905060006127106015546009546123259190614f79565b61232f9190614f98565b905061233b8183614fba565b9250505090565b61234a612a14565b6001600160a01b0382166123715760405163e6c4247b60e01b815260040160405180910390fd5b6001600160a01b039190911660009081526020805260409020805460ff1916911515919091179055565b428410156123e55760405162461bcd60e51b815260206004820152601760248201527614115493525517d11150511312539157d1561412549151604a1b6044820152606401611d97565b60006123ef610f90565b6001600160a01b0389811660008181526005602090815260409182902080546001810190915582517f6e71edae12b1b97f4d1f60370fef10105fa2faae0126114a169c64845d6126c98184015280840194909452938c166060840152608083018b905260a083019390935260c08083018a90528151808403909101815260e08301909152805192019190912061190160f01b6101008301526101028201929092526101228101919091526101420160408051601f198184030181528282528051602091820120600080855291840180845281905260ff88169284019290925260608301869052608083018590529092509060019060a0016020604051602081039080840390855afa158015612508573d6000803e3d6000fd5b5050604051601f1901519150506001600160a01b0381161580159061253e5750886001600160a01b0316816001600160a01b0316145b61257b5760405162461bcd60e51b815260206004820152600e60248201526d24a72b20a624a22fa9a4a3a722a960911b6044820152606401611d97565b6001600160a01b0390811660009081526004602090815260408083208b8516808552908352928190208a905551898152919350918a16917f8c5be1e5ebec7d5bd14f71427d1e84f3dd0314c0f7b2291e5b200ac8c7c3b925910160405180910390a350505050505050565b60006002600754141561260b5760405162461bcd60e51b8152600401611d9790614e17565b60026007558161262e57604051638c88122d60e01b815260040160405180910390fd5b61263782613f09565b600160075592915050565b61264a612a14565b601b55565b612657612a14565b601755565b612664613403565b601d805460ff191682158015919091179091556126a7576040517f02b874a66f7edefaaca8e06ecdb0825247542b983cc7c499a3d7f1bb34e7272890600090a150565b6040517f2185a7ecc28b84536b7b3d3cf472d9215a2bc8f2302d7331cb56db0a44239f3290600090a15b50565b6126dc6135b5565b6126e884848484614090565b50505050565b6126f6613818565b6016818154811061270957612709614cf6565b60009182526020909120015460405163fbaac11560e01b8152600481018490526001600160a01b039091169063fbaac11590602401602060405180830381600087803b15801561275857600080fd5b505af115801561276c573d6000803e3d6000fd5b505050506040513d601f19601f820116820180604052508101906127909190614b4a565b506040518281527faf0f1d052fd7370209dd6c5557bc9c6e0249ea04840a1a09bdc7ac76fb60585d9060200160405180910390a15050565b60006127d2612f21565b600260075414156127f55760405162461bcd60e51b8152600401611d9790614e17565b600260075560008080612806612f67565b6001600160a01b031663bf3b826b336040518263ffffffff1660e01b81526004016128319190614607565b608060405180830381600087803b15801561284b57600080fd5b505af115801561285f573d6000803e3d6000fd5b505050506040513d601f19601f820116820180604052508101906128839190614ff9565b336000818152601160209081526040918290208451918501516001600160801b03908116600160801b0292169190911790555193965091945092507ff279e6a1f5e320cca91135676d9cb6e44ca8a08c0b88342bcdb1144f6511b568916128ee919086908690614ef5565b60405180910390a182601460008282546129089190614b01565b9091555061293990507f00000000000000000000000000000000000000000000000000000000000000003385614286565b50506001600755919050565b6000601454826001600160a01b03166370a08231306040518263ffffffff1660e01b81526004016129769190614607565b60206040518083038186803b15801561298e57600080fd5b505afa1580156129a2573d6000803e3d6000fd5b505050506040513d601f19601f820116820180604052508101906129c69190614b4a565b610c179190614b01565b6000806129db612fc2565b905060006129e76131b1565b905080821215612a0a576040516307e42e3b60e21b815260040160405180910390fd5b61233b8183614fba565b600660009054906101000a90046001600160a01b03166001600160a01b0316630c340a246040518163ffffffff1660e01b815260040160206040518083038186803b158015612a6257600080fd5b505afa158015612a76573d6000803e3d6000fd5b505050506040513d601f19601f82011682018060405250810190612a9a9190614d2c565b6001600160a01b0316336001600160a01b0316146115015760405163075fd2b160e01b815260040160405180910390fd5b60007f00000000000000000000000000000000000000000000000000000000000000006001600160a01b0316633b4567b06040518163ffffffff1660e01b815260040160206040518083038186803b15801561159f57600080fd5b600060405163095ea7b360e01b81526001600160a01b03841660048201528260248201526000806044836000895af1915050612b61816142ff565b6126e85760405162461bcd60e51b815260206004820152600e60248201526d1054141493d59157d1905253115160921b6044820152606401611d97565b33600090815260208052604090205460ff16158015612c545750600660009054906101000a90046001600160a01b03166001600160a01b0316630c340a246040518163ffffffff1660e01b815260040160206040518083038186803b158015612c0657600080fd5b505afa158015612c1a573d6000803e3d6000fd5b505050506040513d601f19601f82011682018060405250810190612c3e9190614d2c565b6001600160a01b0316336001600160a01b031614155b8015612cf75750600660009054906101000a90046001600160a01b03166001600160a01b031663481c6a756040518163ffffffff1660e01b815260040160206040518083038186803b158015612ca957600080fd5b505afa158015612cbd573d6000803e3d6000fd5b505050506040513d601f19601f82011682018060405250810190612ce19190614d2c565b6001600160a01b0316336001600160a01b031614155b1561150157604051631ea2564f60e31b815260040160405180910390fd5b60007f00000000000000000000000000000000000000000000000000000000000000006001600160a01b0316635fb480c96040518163ffffffff1660e01b815260040160206040518083038186803b15801561159f57600080fd5b60007f8b73c3c69bb8fe3d512ecc4cf759cc79239f7b179b0ffacaa9a75d522b39400f6000604051612da2919061502f565b6040805191829003822060208301939093528101919091527fc89efdaa54c0f20c7adf612882df0950f5a951637e0307cdcb4c672f298b8bc660608201524660808201523060a082015260c00160405160208183030381529060405280519060200120905090565b60007f00000000000000000000000000000000000000000000000000000000000000006001600160a01b031663741bef1a6040518163ffffffff1660e01b815260040160206040518083038186803b158015612e6557600080fd5b505afa158015612e79573d6000803e3d6000fd5b505050506040513d601f19601f82011682018060405250810190612e9d9190614d2c565b6001600160a01b03166314738a6c84846040518363ffffffff1660e01b8152600401612eca929190614b30565b60206040518083038186803b158015612ee257600080fd5b505afa158015612ef6573d6000803e3d6000fd5b505050506040513d601f19601f82011682018060405250810190612f1a9190614b4a565b9392505050565b60085460ff16156115015760405162461bcd60e51b815260206004820152601060248201526f14185d5cd8589b194e881c185d5cd95960821b6044820152606401611d97565b60007f00000000000000000000000000000000000000000000000000000000000000006001600160a01b0316639624e83e6040518163ffffffff1660e01b815260040160206040518083038186803b15801561159f57600080fd5b60006130636009547f00000000000000000000000000000000000000000000000000000000000000006001600160a01b031663313ce5676040518163ffffffff1660e01b815260040160206040518083038186803b15801561302357600080fd5b505afa158015613037573d6000803e3d6000fd5b505050506040513d601f19601f8201168201806040525081019061305b91906150cb565b60ff16614346565b61308c7f0000000000000000000000000000000000000000000000000000000000000000614378565b6130969190614b18565b9050600060168054806020026020016040519081016040528092919081815260200182805480156130f057602002820191906000526020600020905b81546001600160a01b031681526001909101906020018083116130d2575b5050505050905060005b81518160ff1610156116f157818160ff168151811061311b5761311b614cf6565b60200260200101516001600160a01b031663b7aa436d6040518163ffffffff1660e01b815260040160206040518083038186803b15801561315b57600080fd5b505afa15801561316f573d6000803e3d6000fd5b505050506040513d601f19601f820116820180604052508101906131939190614b4a565b61319d9084614b18565b9250806131a981614d0c565b9150506130fa565b6000806131bc612d15565b6001600160a01b0316634e133d4d7f00000000000000000000000000000000000000000000000000000000000000007f00000000000000000000000000000000000000000000000000000000000000006040518363ffffffff1660e01b8152600401613229929190614b30565b60e06040518083038186803b15801561324157600080fd5b505afa158015613255573d6000803e3d6000fd5b505050506040513d601f19601f820116820180604052508101906132799190614b63565b905073__$9200b285a0f372c982db0cf335fd1ba5de$__6348aec70b6132df7f00000000000000000000000000000000000000000000000000000000000000007f0000000000000000000000000000000000000000000000000000000000000000612e0a565b83601e54601f546040518563ffffffff1660e01b81526004016133059493929190614bf4565b60006040518083038186803b15801561331d57600080fd5b505af4158015613331573d6000803e3d6000fd5b50505050600a54816080015161118b9190614c5a565b80600260008282546133599190614b18565b90915550506001600160a01b03821660008181526003602090815260408083208054860190555184815260008051602061536d83398151915291015b60405180910390a35050565b6001600160a01b038216600090815260036020526040812080548392906133c9908490614b01565b90915550506002805482900390556040518181526000906001600160a01b0384169060008051602061536d83398151915290602001613395565b60065460405163794f111b60e11b81526001600160a01b039091169063f29e223690613433903390600401614607565b60206040518083038186803b15801561344b57600080fd5b505afa15801561345f573d6000803e3d6000fd5b505050506040513d601f19601f8201168201806040525081019061348391906150e8565b1580156135275750600660009054906101000a90046001600160a01b03166001600160a01b0316630c340a246040518163ffffffff1660e01b815260040160206040518083038186803b1580156134d957600080fd5b505afa1580156134ed573d6000803e3d6000fd5b505050506040513d601f19601f820116820180604052508101906135119190614d2c565b6001600160a01b0316336001600160a01b031614155b156115015760405163075fd2b160e01b815260040160405180910390fd5b61354d61443f565b6008805460ff191690557f5db9ee0a495bf2e6ff9c91a7834c1ba4fdd244a5e8aa4e537bd38aeae4b073aa335b6040516135879190614607565b60405180910390a1565b601d5460ff16156115015760405163015c3a5360e11b815260040160405180910390fd5b336000908152601c602052604090205460ff1661150157604051634690abc160e11b815260040160405180910390fd5b600061366e85876136698a896001600160a01b031663313ce5676040518163ffffffff1660e01b815260040160206040518083038186803b15801561362957600080fd5b505afa15801561363d573d6000803e3d6000fd5b505050506040513d601f19601f8201168201806040525081019061366191906150cb565b60ff16614488565b612b26565b60405163e49280cb60e01b81526000906001600160a01b0388169063e49280cb9061369f9089908c90600401614e4e565b6040805180830381600087803b1580156136b857600080fd5b505af11580156136cc573d6000803e3d6000fd5b505050506040513d601f19601f820116820180604052508101906136f09190615105565b9150507fe988243c7383c2c950aab9b716103bb6d91f015900ef405467025fbdc3fe1ecd868987848760405161372a959493929190615133565b60405180910390a161377c89602001516001600160801b0316876001600160a01b031663313ce5676040518163ffffffff1660e01b815260040160206040518083038186803b15801561302357600080fd5b6001600160801b031660208a01526137978186866000614090565b846137c17f0000000000000000000000000000000000000000000000000000000000000000612945565b10156137e05760405163b84beb5d60e01b815260040160405180910390fd5b61380b7f00000000000000000000000000000000000000000000000000000000000000008487614286565b5095979650505050505050565b600660009054906101000a90046001600160a01b03166001600160a01b031663481c6a756040518163ffffffff1660e01b815260040160206040518083038186803b15801561386657600080fd5b505afa15801561387a573d6000803e3d6000fd5b505050506040513d601f19601f8201168201806040525081019061389e9190614d2c565b6001600160a01b0316336001600160a01b0316141580156135275750600660009054906101000a90046001600160a01b03166001600160a01b0316630c340a246040518163ffffffff1660e01b815260040160206040518083038186803b1580156134d957600080fd5b60007f00000000000000000000000000000000000000000000000000000000000000006001600160a01b03168360a001516001600160a01b03161461396057604051639d3b9e0160e01b815260040160405180910390fd5b7f00000000000000000000000000000000000000000000000000000000000000006001600160a01b031683606001516001600160a01b0316146139b65760405163bff9e44560e01b815260040160405180910390fd5b7f00000000000000000000000000000000000000000000000000000000000000006001600160a01b031683608001516001600160a01b031614613a0c5760405163b3e8cda760e01b815260040160405180910390fd5b6040805160c0810182526018546001600160801b038082168352600160801b9182900481166020840152601954808216948401949094529281900483166060830152601a548084166080840181905291900490921660a0820152845190916001600160401b0390911690613a809042614b18565b1180613aac575060a0810151613a9f906001600160801b031642614b18565b84516001600160401b0316115b15613aca576040516366bfac3d60e01b815260040160405180910390fd5b836040015115613b385783602001516001600160801b031681604001516001600160801b03161180613b15575080606001516001600160801b031684602001516001600160801b0316115b15613b335760405163e04ba97560e01b815260040160405180910390fd5b613b97565b83602001516001600160801b031681600001516001600160801b03161180613b79575080602001516001600160801b031684602001516001600160801b0316115b15613b975760405163e04ba97560e01b815260040160405180910390fd5b604051635fb708cf60e01b81526001600160a01b03841690635fb708cf90613bc39087906004016151bf565b602060405180830381600087803b158015613bdd57600080fd5b505af1158015613bf1573d6000803e3d6000fd5b505050506040513d601f19601f82011682018060405250810190613c159190614d2c565b91506001600160a01b038216613c3e5760405163ecdc661560e01b815260040160405180910390fd5b5092915050565b600080866001600160a01b0316632e79bf428b8a6040518363ffffffff1660e01b8152600401613c769291906151cd565b60206040518083038186803b158015613c8e57600080fd5b505afa158015613ca2573d6000803e3d6000fd5b505050506040513d601f19601f82011682018060405250810190613cc69190614b4a565b905080841215613ce9576040516301b2115160e61b815260040160405180910390fd5b60405163095ea7b360e01b81526001600160a01b037f0000000000000000000000000000000000000000000000000000000000000000169063095ea7b390613d37908a908590600401614e4e565b602060405180830381600087803b158015613d5157600080fd5b505af1158015613d65573d6000803e3d6000fd5b505050506040513d601f19601f82011682018060405250810190613d8991906150e8565b506040516389a86ad360e01b81526001600160a01b038816906389a86ad390613dba908c908c908690600401614ef5565b6040805180830381600087803b158015613dd357600080fd5b505af1158015613de7573d6000803e3d6000fd5b505050506040513d601f19601f82011682018060405250810190613e0b9190615105565b6040519092507f807243a06aa6324afb44b093c16090c302133c76a8ce9f9ba4f74cdae3c0f2b09150613e47908b908b908a9086908990615133565b60405180910390a1613e998a602001516001600160801b03168a6001600160a01b031663313ce5676040518163ffffffff1660e01b815260040160206040518083038186803b15801561302357600080fd5b6001600160801b031660208b0152613eb48187876001614090565b613efb8984613ef68b8d6001600160a01b031663313ce5676040518163ffffffff1660e01b815260040160206040518083038186803b15801561362957600080fd5b614286565b509598975050505050505050565b6000806000613f16612f67565b6001600160a01b0316631e9a695033866040518363ffffffff1660e01b8152600401613f43929190614e4e565b608060405180830381600087803b158015613f5d57600080fd5b505af1158015613f71573d6000803e3d6000fd5b505050506040513d601f19601f82011682018060405250810190613f9591906151e8565b915091508160001415613fac575060009392505050565b3360008181526010602090815260408083208551868401516001600160801b03908116600160801b02918116919091178255868301516001909201919091553084526004835281842085855283529281902086905584518151948552918401869052911682820152517fe5b754fb1abb7f01b499791d0b820ae3b6af3424ac1c59768edb53f4ec31a9299181900360600190a161404a303384610d8f565b50909392505050565b61405b612f21565b6008805460ff191660011790557f62e78cea01bee320cd4e420270b5ea74000d11b0c9f74754ebdbfc544b05a25861357a3390565b80156141415783600960008282546140a89190614b18565b9250508190555061410c837f00000000000000000000000000000000000000000000000000000000000000006001600160a01b031663313ce5676040518163ffffffff1660e01b815260040160206040518083038186803b15801561302357600080fd5b600a600082825461411d9190614c5a565b9250508190555081600b60008282546141369190614fba565b909155506126e89050565b83600960008282546141539190614b01565b925050819055506141b7837f00000000000000000000000000000000000000000000000000000000000000006001600160a01b031663313ce5676040518163ffffffff1660e01b815260040160206040518083038186803b15801561302357600080fd5b600a60008282546141c89190614fba565b9250508190555081600b60008282546141e19190614c5a565b909155505050505050565b600084905060006040516323b872dd60e01b81526001600160a01b03861660048201526001600160a01b03851660248201528360448201526000806064836000875af191505061423b816142ff565b61427e5760405162461bcd60e51b81526020600482015260146024820152731514905394d1915497d19493d357d1905253115160621b6044820152606401611d97565b505050505050565b600060405163a9059cbb60e01b81526001600160a01b03841660048201528260248201526000806044836000895af19150506142c1816142ff565b6126e85760405162461bcd60e51b815260206004820152600f60248201526e1514905394d1915497d19052531151608a1b6044820152606401611d97565b60003d8261431157806000803e806000fd5b806020811461432957801561433a576000925061433f565b816000803e6000511515925061433f565b600192505b5050919050565b6000601282111561435657600080fd5b614361826012614b01565b905061436e81600a615360565b612f1a9084614f79565b6000610c17601454836001600160a01b03166370a08231306040518263ffffffff1660e01b81526004016143ac9190614607565b60206040518083038186803b1580156143c457600080fd5b505afa1580156143d8573d6000803e3d6000fd5b505050506040513d601f19601f820116820180604052508101906143fc9190614b4a565b6144069190614b01565b836001600160a01b031663313ce5676040518163ffffffff1660e01b815260040160206040518083038186803b15801561302357600080fd5b60085460ff166115015760405162461bcd60e51b815260206004820152601460248201527314185d5cd8589b194e881b9bdd081c185d5cd95960621b6044820152606401611d97565b6000601282111561449857600080fd5b60006144a5836012614b01565b90506144b281600a615360565b6144bc9085614f98565b949350505050565b600060208083528351808285015260005b818110156144f1578581018301518582016040015282016144d5565b81811115614503576000604083870101525b50601f01601f1916929092016040019392505050565b6001600160a01b03811681146126d157600080fd5b6000806040838503121561454157600080fd5b823561454c81614519565b946020939093013593505050565b60006020828403121561456c57600080fd5b5035919050565b6020808252825182820181905260009190848201906040850190845b818110156145b45783516001600160a01b03168352928401929184019160010161458f565b50909695505050505050565b80151581146126d157600080fd5b600080604083850312156145e157600080fd5b82356145ec81614519565b915060208301356145fc816145c0565b809150509250929050565b6001600160a01b0391909116815260200190565b6000806040838503121561462e57600080fd5b8235915060208301356145fc816145c0565b60008060006060848603121561465557600080fd5b833561466081614519565b9250602084013561467081614519565b929592945050506040919091013590565b6001600160401b03811681146126d157600080fd5b6001600160801b03811681146126d157600080fd5b600060c082840312156146bd57600080fd5b60405160c081018181106001600160401b03821117156146ed57634e487b7160e01b600052604160045260246000fd5b60405290508082356146fe81614681565b8152602083013561470e81614696565b60208201526040830135614721816145c0565b6040820152606083013561473481614519565b6060820152608083013561474781614519565b608082015260a083013561475a81614519565b60a0919091015292915050565b6000806000806000806000610180888a03121561478357600080fd5b61478d89896146ab565b965060c0880135955060e08801356147a481614519565b94506101008801356147b581614519565b9350610120880135925061014088013591506101608801356147d681614519565b8091505092959891949750929550565b6000602082840312156147f857600080fd5b8135612f1a81614519565b60008060008060008060c0878903121561481c57600080fd5b863561482781614696565b9550602087013561483781614696565b9450604087013561484781614696565b9350606087013561485781614696565b9250608087013561486781614696565b915060a087013561487781614696565b809150509295509295509295565b6000806000806080858703121561489b57600080fd5b84356148a6816145c0565b966020860135965060408601359560600135945092505050565b600060c082840312156148d257600080fd5b612f1a83836146ab565b600080600080600061014086880312156148f557600080fd5b6148ff87876146ab565b945060c0860135935060e08601359250610100860135915061012086013561492681614519565b809150509295509295909350565b6000806000806000806000610180888a03121561495057600080fd5b61495a89896146ab565b965060c088013561496a81614519565b955060e088013594506101008801356147b581614519565b60ff811681146126d157600080fd5b600080600080600080600060e0888a0312156149ac57600080fd5b87356149b781614519565b965060208801356149c781614519565b9550604088013594506060880135935060808801356149e581614982565b9699959850939692959460a0840135945060c09093013592915050565b60008060408385031215614a1557600080fd5b8235614a2081614519565b915060208301356145fc81614519565b600060208284031215614a4257600080fd5b8135612f1a816145c0565b60008060008060808587031215614a6357600080fd5b8435935060208501359250604085013591506060850135614a83816145c0565b939692955090935050565b60008060408385031215614aa157600080fd5b50508035926020909101359150565b600181811c90821680614ac457607f821691505b60208210811415614ae557634e487b7160e01b600052602260045260246000fd5b50919050565b634e487b7160e01b600052601160045260246000fd5b600082821015614b1357614b13614aeb565b500390565b60008219821115614b2b57614b2b614aeb565b500190565b6001600160a01b0392831681529116602082015260400190565b600060208284031215614b5c57600080fd5b5051919050565b600060e08284031215614b7557600080fd5b60405160e081018181106001600160401b0382111715614ba557634e487b7160e01b600052604160045260246000fd5b8060405250825181526020830151602082015260408301516040820152606083015160608201526080830151608082015260a083015160a082015260c083015160c08201528091505092915050565b60006101408201905085825284516020830152602085015160408301526040850151606083015260608501516080830152608085015160a083015260a085015160c083015260c085015160e0830152836101008301528261012083015295945050505050565b600080821280156001600160ff1b0384900385131615614c7c57614c7c614aeb565b600160ff1b8390038412811615614c9557614c95614aeb565b50500190565b600080600080600060a08688031215614cb357600080fd5b5050835160208501516040860151606087015160809097015192989197509594509092509050565b6000600019821415614cef57614cef614aeb565b5060010190565b634e487b7160e01b600052603260045260246000fd5b600060ff821660ff811415614d2357614d23614aeb565b60010192915050565b600060208284031215614d3e57600080fd5b8151612f1a81614519565b634e487b7160e01b600052603160045260246000fd5b600060c08284031215614d7157600080fd5b60405160c081018181106001600160401b0382111715614da157634e487b7160e01b600052604160045260246000fd5b6040528251614daf81614681565b81526020830151614dbf81614696565b60208201526040830151614dd2816145c0565b60408201526060830151614de581614519565b60608201526080830151614df881614519565b608082015260a0830151614e0b81614519565b60a08201529392505050565b6020808252601f908201527f5265656e7472616e637947756172643a207265656e7472616e742063616c6c00604082015260600190565b6001600160a01b03929092168252602082015260400190565b600060408284031215614e7957600080fd5b604051604081018181106001600160401b0382111715614ea957634e487b7160e01b600052604160045260246000fd5b80604052508091508251614ebc81614696565b81526020830151614ecc81614696565b6020919091015292915050565b600060408284031215614eeb57600080fd5b612f1a8383614e67565b6001600160a01b039390931683526020830191909152604082015260600190565b60008060008060808587031215614f2c57600080fd5b8451614f37816145c0565b60208601516040870151606090970151919890975090945092505050565b60008060408385031215614f6857600080fd5b505080516020909101519092909150565b6000816000190483118215151615614f9357614f93614aeb565b500290565b600082614fb557634e487b7160e01b600052601260045260246000fd5b500490565b60008083128015600160ff1b850184121615614fd857614fd8614aeb565b6001600160ff1b0384018313811615614ff357614ff3614aeb565b50500390565b60008060006080848603121561500e57600080fd5b83519250602084015191506150268560408601614e67565b90509250925092565b600080835481600182811c91508083168061504b57607f831692505b602080841082141561506b57634e487b7160e01b86526022600452602486fd5b81801561507f5760018114615090576150bd565b60ff198616895284890196506150bd565b60008a81526020902060005b868110156150b55781548b82015290850190830161509c565b505084890196505b509498975050505050505050565b6000602082840312156150dd57600080fd5b8151612f1a81614982565b6000602082840312156150fa57600080fd5b8151612f1a816145c0565b6000806040838503121561511857600080fd5b8251615123816145c0565b6020939093015192949293505050565b6001600160a01b039586168152602081019490945260408401929092526060830152909116608082015260a00190565b80516001600160401b031682526020808201516001600160801b0316908301526040808201511515908301526060808201516001600160a01b039081169184019190915260808083015182169084015260a09182015116910152565b60c08101610c178284615163565b60e081016151db8285615163565b8260c08301529392505050565b60008082840360808112156151fc57600080fd5b835192506060601f198201121561521257600080fd5b50604051606081018181106001600160401b038211171561524357634e487b7160e01b600052604160045260246000fd5b604052602084015161525481614696565b8152604084015161526481614696565b60208201526060939093015160408401525092909150565b600181815b808511156152b757816000190482111561529d5761529d614aeb565b808516156152aa57918102915b93841c9390800290615281565b509250929050565b6000826152ce57506001610c17565b816152db57506000610c17565b81600181146152f157600281146152fb57615317565b6001915050610c17565b60ff84111561530c5761530c614aeb565b50506001821b610c17565b5060208310610133831016604e8410600b841016171561533a575081810a610c17565b615344838361527c565b806000190482111561535857615358614aeb565b029392505050565b6000612f1a83836152bf56feddf252ad1be2c89b69c2b068fc378daa952ba7f163c4a11628f55a4df523b3efa2646970667358221220dff97ab14d28dd0ea601daf99e52736304b77015ec93c4f4a700f82ea774831764736f6c63430008090033",
  "linkReferences": {
    "contracts/libraries/OptionsCompute.sol": {
      "OptionsCompute": [
        {
          "length": 20,
          "start": 6567
        },
        {
          "length": 20,
          "start": 15218
        }
      ]
    }
  },
  "deployedLinkReferences": {
    "contracts/libraries/OptionsCompute.sol": {
      "OptionsCompute": [
        {
          "length": 20,
          "start": 4274
        },
        {
          "length": 20,
          "start": 12925
        }
      ]
    }
  }
}