{
  "_format": "hh-sol-artifact-1",
  "contractName": "ForceSend",
  "sourceName": "contracts/mocks/ForceSend.sol",
  "abi": [
    {
      "inputs": [
        {
          "internalType": "address payable",
          "name": "victim",
          "type": "address"
        }
      ],
      "name": "go",
      "outputs": [],
      "stateMutability": "payable",
      "type": "function"
    }
  ],
  "bytecode": "0x6080604052348015600f57600080fd5b5060a28061001e6000396000f3fe608060405260043610601c5760003560e01c80633434e749146021575b600080fd5b6030602c366004603e565b6032565b005b806001600160a01b0316ff5b600060208284031215604f57600080fd5b81356001600160a01b0381168114606557600080fd5b939250505056fea2646970667358221220ab5206eaa7b8b46a4f387d15172f58e62c979423344014f06cf26abba1c9acc464736f6c63430008090033",
  "linkReferences": {},
  "deployedLinkReferences": {}
}