{
  "_format": "hh-sol-artifact-1",
  "contractName": "OptionsCompute",
  "sourceName": "contracts/libraries/OptionsCompute.sol",
  "abi": [
    {
      "inputs": [
        {
          "internalType": "uint256",
          "name": "prod1",
          "type": "uint256"
        },
        {
          "internalType": "uint256",
          "name": "denominator",
          "type": "uint256"
        }
      ],
      "name": "PRBMath__MulDivOverflow",
      "type": "error"
    },
    {
      "inputs": [
        {
          "internalType": "uint256",
          "name": "priceDelta",
          "type": "uint256"
        }
      ],
      "name": "PriceDeltaExceedsThreshold",
      "type": "error"
    },
    {
      "inputs": [
        {
          "internalType": "uint256",
          "name": "timeDelta",
          "type": "uint256"
        }
      ],
      "name": "TimeDeltaExceedsThreshold",
      "type": "error"
    },
    {
      "inputs": [
        {
          "internalType": "uint256",
          "name": "strikePrice",
          "type": "uint256"
        },
        {
          "internalType": "address",
          "name": "collateral",
          "type": "address"
        }
      ],
      "name": "formatStrikePrice",
      "outputs": [
        {
          "internalType": "uint256",
          "name": "",
          "type": "uint256"
        }
      ],
      "stateMutability": "view",
      "type": "function"
    },
    {
      "inputs": [
        {
          "internalType": "uint256",
          "name": "spotPrice",
          "type": "uint256"
        },
        {
          "components": [
            {
              "internalType": "int256",
              "name": "delta",
              "type": "int256"
            },
            {
              "internalType": "int256",
              "name": "gamma",
              "type": "int256"
            },
            {
              "internalType": "int256",
              "name": "vega",
              "type": "int256"
            },
            {
              "internalType": "int256",
              "name": "theta",
              "type": "int256"
            },
            {
              "internalType": "int256",
              "name": "callPutsValue",
              "type": "int256"
            },
            {
              "internalType": "uint256",
              "name": "timestamp",
              "type": "uint256"
            },
            {
              "internalType": "uint256",
              "name": "spotPrice",
              "type": "uint256"
            }
          ],
          "internalType": "struct Types.PortfolioValues",
          "name": "portfolioValues",
          "type": "tuple"
        },
        {
          "internalType": "uint256",
          "name": "maxTimeDeviationThreshold",
          "type": "uint256"
        },
        {
          "internalType": "uint256",
          "name": "maxPriceDeviationThreshold",
          "type": "uint256"
        }
      ],
      "name": "validatePortfolioValues",
      "outputs": [],
      "stateMutability": "view",
      "type": "function"
    }
  ],
  "bytecode": "0x6105c561003a600b82828239805160001a60731461002d57634e487b7160e01b600052600060045260246000fd5b30600052607381538281f3fe73000000000000000000000000000000000000000030146080604052600436106100405760003560e01c806348aec70b14610045578063a3895ce61461005a575b600080fd5b6100586100533660046102e8565b61007f565b005b61006d6100683660046103ad565b6100fa565b60405190815260200160405180910390f35b60008360a001514261009191906103ff565b9050828111156100bc5760405163d225a0e560e01b8152600481018290526024015b60405180910390fd5b60006100cc868660c001516101d2565b9050828111156100f25760405163024bd64960e51b8152600481018290526024016100b3565b505050505050565b600080610108600a806104fa565b610112908561051f565b90506000836001600160a01b031663313ce5676040518163ffffffff1660e01b8152600401602060405180830381865afa158015610154573d6000803e3d6000fd5b505050506040513d601f19601f820116820180604052508101906101789190610541565b60ff1690506008811061018d575090506101cc565b600061019a8260086103ff565b90506101a781600a610564565b6101b282600a610564565b6101bc908561051f565b6101c69190610570565b93505050505b92915050565b6000818311156101f7576101f0826101ea81866103ff565b9061020c565b90506101cc565b610205826101ea85826103ff565b9392505050565b600061020583670de0b6b3a76400008460008080600019858709858702925082811083820303915050806000036102565783828161024c5761024c610509565b0492505050610205565b83811061028057604051631dcf306360e21b815260048101829052602481018590526044016100b3565b600084868809600260036001881981018916988990049182028318808302840302808302840302808302840302808302840302808302840302918202909203026000889003889004909101858311909403939093029303949094049190911702949350505050565b60008060008084860361014081121561030057600080fd5b8535945060e0601f198201121561031657600080fd5b5060405160e0810181811067ffffffffffffffff8211171561034857634e487b7160e01b600052604160045260246000fd5b80604052506020860135815260408601356020820152606086013560408201526080860135606082015260a0860135608082015260c086013560a082015260e086013560c0820152809350506101008501359150610120850135905092959194509250565b600080604083850312156103c057600080fd5b8235915060208301356001600160a01b03811681146103de57600080fd5b809150509250929050565b634e487b7160e01b600052601160045260246000fd5b600082821015610411576104116103e9565b500390565b600181815b80851115610451578160001904821115610437576104376103e9565b8085161561044457918102915b93841c939080029061041b565b509250929050565b600082610468575060016101cc565b81610475575060006101cc565b816001811461048b5760028114610495576104b1565b60019150506101cc565b60ff8411156104a6576104a66103e9565b50506001821b6101cc565b5060208310610133831016604e8410600b84101617156104d4575081810a6101cc565b6104de8383610416565b80600019048211156104f2576104f26103e9565b029392505050565b600061020560ff841683610459565b634e487b7160e01b600052601260045260246000fd5b60008261053c57634e487b7160e01b600052601260045260246000fd5b500490565b60006020828403121561055357600080fd5b815160ff8116811461020557600080fd5b60006102058383610459565b600081600019048311821515161561058a5761058a6103e9565b50029056fea26469706673582212204a5867f9b345ed4e931d33e9d840fcc7cec53a43b999705a5c5fa2205fd6499f64736f6c634300080e0033",
  "linkReferences": {},
  "deployedLinkReferences": {}
}