{
  "_format": "hh-sol-artifact-1",
  "contractName": "UniswapConversionsTest",
  "sourceName": "contracts/utils/UniswapConversionsTest.sol",
  "abi": [
    {
      "inputs": [
        {
          "internalType": "uint256",
          "name": "x",
          "type": "uint256"
        }
      ],
      "name": "PRBMathUD60x18__SqrtOverflow",
      "type": "error"
    },
    {
      "inputs": [
        {
          "internalType": "uint256",
          "name": "prod1",
          "type": "uint256"
        }
      ],
      "name": "PRBMath__MulDivFixedPointOverflow",
      "type": "error"
    },
    {
      "inputs": [
        {
          "internalType": "uint256",
          "name": "prod1",
          "type": "uint256"
        },
        {
          "internalType": "uint256",
          "name": "denominator",
          "type": "uint256"
        }
      ],
      "name": "PRBMath__MulDivOverflow",
      "type": "error"
    },
    {
      "inputs": [],
      "name": "T",
      "type": "error"
    },
    {
      "inputs": [
        {
          "internalType": "uint256",
          "name": "weiPrice",
          "type": "uint256"
        },
        {
          "internalType": "bool",
          "name": "inversed",
          "type": "bool"
        },
        {
          "internalType": "uint8",
          "name": "token0Decimals",
          "type": "uint8"
        }
      ],
      "name": "priceToSqrt",
      "outputs": [
        {
          "internalType": "uint160",
          "name": "sqrtPriceX96",
          "type": "uint160"
        }
      ],
      "stateMutability": "pure",
      "type": "function"
    },
    {
      "inputs": [
        {
          "internalType": "uint256",
          "name": "token0Token1",
          "type": "uint256"
        },
        {
          "internalType": "uint8",
          "name": "token0Decimals",
          "type": "uint8"
        }
      ],
      "name": "priceToSqrtX96",
      "outputs": [
        {
          "internalType": "uint160",
          "name": "sqrtPriceX96",
          "type": "uint160"
        }
      ],
      "stateMutability": "pure",
      "type": "function"
    },
    {
      "inputs": [
        {
          "internalType": "uint160",
          "name": "sqrtPriceX96",
          "type": "uint160"
        },
        {
          "internalType": "uint8",
          "name": "token0Decimals",
          "type": "uint8"
        }
      ],
      "name": "sqrtToPrice",
      "outputs": [
        {
          "internalType": "uint256",
          "name": "",
          "type": "uint256"
        }
      ],
      "stateMutability": "pure",
      "type": "function"
    },
    {
      "inputs": [
        {
          "internalType": "uint256",
          "name": "price0",
          "type": "uint256"
        },
        {
          "internalType": "uint256",
          "name": "price1",
          "type": "uint256"
        },
        {
          "internalType": "bool",
          "name": "inversed",
          "type": "bool"
        },
        {
          "internalType": "enum RangeOrderDirection",
          "name": "direction",
          "type": "uint8"
        }
      ],
      "name": "testPriceToUse",
      "outputs": [
        {
          "internalType": "uint256",
          "name": "",
          "type": "uint256"
        }
      ],
      "stateMutability": "pure",
      "type": "function"
    },
    {
      "inputs": [
        {
          "internalType": "int24",
          "name": "tick",
          "type": "int24"
        },
        {
          "internalType": "uint8",
          "name": "token0Decimals",
          "type": "uint8"
        },
        {
          "internalType": "bool",
          "name": "inversed",
          "type": "bool"
        }
      ],
      "name": "testTickToTokenPrice",
      "outputs": [
        {
          "internalType": "uint256",
          "name": "",
          "type": "uint256"
        }
      ],
      "stateMutability": "pure",
      "type": "function"
    }
  ],
  "bytecode": "0x608060405234801561001057600080fd5b50610cb3806100206000396000f3fe608060405234801561001057600080fd5b50600436106100575760003560e01c806343d8f3301461005c5780636e0f719714610082578063be352eb114610095578063ddfa548a146100a8578063f32005a4146100d3575b600080fd5b61006f61006a3660046109e7565b6100e6565b6040519081526020015b60405180910390f35b61006f610090366004610a44565b6100ff565b61006f6100a3366004610a8f565b610116565b6100bb6100b6366004610ad0565b61012b565b6040516001600160a01b039091168152602001610079565b6100bb6100e1366004610af3565b610137565b60006100f485858585610170565b90505b949350505050565b600061010c8484846101e7565b90505b9392505050565b6000610122838361022f565b90505b92915050565b600061012283836102ba565b60008083610145578461015b565b8461015184600a610c20565b61015b9190610c45565b905061016781846102ba565b95945050505050565b600082156101b457600082600181111561018c5761018c610c67565b036101a75783851061019e57836101a0565b845b90506100f7565b83851161019e57836101a0565b60008260018111156101c8576101c8610c67565b036101da5783851161019e57836101a0565b83851061019e57836101a0565b6000806101ff6101f98660020b6102fa565b8561022f565b90508261020d57905061010f565b600061021a85600a610c20565b90506102268183610613565b9250505061010f565b60006001600160a01b038316600160601b8111156102825760006102628261025886600a610c20565b600160601b610628565b9050610279818061027487600a610c20565b610628565b92505050610125565b600061029082836001610628565b9050600061029f85600a610c20565b90506102b08282600160c01b610628565b9350505050610125565b6000806102c883600a610c20565b905060006102de6102d98684610613565b6106d6565b905060006102f082600160601b61072d565b9695505050505050565b60008060008360020b12610311578260020b610319565b8260020b6000035b9050620d89e881111561033f576040516315e4079d60e11b815260040160405180910390fd5b60008160011660000361035657600160801b610368565b6ffffcb933bd6fad37aa2d162d1a5940015b6001600160881b031690506002821615610392576ffff97272373d413259a46990580e213a0260801c5b60048216156103b1576ffff2e50f5f656932ef12357cf3c7fdcc0260801c5b60088216156103d0576fffe5caca7e10e4e61c3624eaa0941cd00260801c5b60108216156103ef576fffcb9843d60f6159c9db58835c9266440260801c5b602082161561040e576fff973b41fa98c081472e6896dfb254c00260801c5b604082161561042d576fff2ea16466c96a3843ec78b326b528610260801c5b608082161561044c576ffe5dee046a99a2a811c461f1969c30530260801c5b61010082161561046c576ffcbe86c7900a88aedcffc83b479aa3a40260801c5b61020082161561048c576ff987a7253ac413176f2b074cf7815e540260801c5b6104008216156104ac576ff3392b0822b70005940c7a398e4b70f30260801c5b6108008216156104cc576fe7159475a2c29b7443b29c7fa6e889d90260801c5b6110008216156104ec576fd097f3bdfd2022b8845ad8f792aa58250260801c5b61200082161561050c576fa9f746462d870fdf8a65dc1f90e061e50260801c5b61400082161561052c576f70d869a156d2a1b890bb3df62baf32f70260801c5b61800082161561054c576f31be135f97d08fd981231505542fcfa60260801c5b6201000082161561056d576f09aa508b5b7a84e1c677de54f3e99bc90260801c5b6202000082161561058d576e5d6af8dedb81196699c329225ee6040260801c5b620400008216156105ac576d2216e584f5fa1ea926041bedfe980260801c5b620800008216156105c9576b048a170391f7dc42444e8fa20260801c5b60008460020b13156105ea5780600019816105e6576105e6610c2f565b0490505b6401000000008106156105fe576001610601565b60005b60ff16602082901c0192505050919050565b600061012283670de0b6b3a764000084610739565b6000808060001985870985870292508281108382030391505080600003610661576000841161065657600080fd5b50829004905061010f565b80841161066d57600080fd5b60008486880960026001871981018816978890046003810283188082028403028082028403028082028403028082028403028082028403029081029092039091026000889003889004909101858311909403939093029303949094049190911702949350505050565b60007812725dd1d243aba0e75fe645cc4873f9e65afe688c928e1f2182111561071a57604051636155b67d60e01b8152600481018390526024015b60405180910390fd5b610125670de0b6b3a7640000830261079d565b6000610122838361090c565b60008080600019858709858702925082811083820303915050806000036107735783828161076957610769610c2f565b049250505061010f565b83811061066d57604051631dcf306360e21b81526004810182905260248101859052604401610711565b6000816000036107af57506000919050565b50600181600160801b81106107c95760409190911b9060801c5b600160401b81106107df5760209190911b9060401c5b64010000000081106107f65760109190911b9060201c5b62010000811061080b5760089190911b9060101c5b610100811061081f5760049190911b9060081c5b601081106108325760029190911b9060041c5b6008811061084257600182901b91505b600182848161085357610853610c2f565b048301901c9150600182848161086b5761086b610c2f565b048301901c9150600182848161088357610883610c2f565b048301901c9150600182848161089b5761089b610c2f565b048301901c915060018284816108b3576108b3610c2f565b048301901c915060018284816108cb576108cb610c2f565b048301901c915060018284816108e3576108e3610c2f565b048301901c915060008284816108fb576108fb610c2f565b0490508083101561010f57826100f7565b60008080600019848609848602925082811083820303915050670de0b6b3a764000081106109505760405163698d9a0160e11b815260048101829052602401610711565b600080670de0b6b3a764000086880991506706f05b59d3b1ffff821190508260000361098e5780670de0b6b3a7640000850401945050505050610125565b620400008285030493909111909103600160ee1b02919091177faccb18165bd6fe31ae1cf318dc5b51eee0e1ba569b88cd74c1773b91fac106690201905092915050565b803580151581146109e257600080fd5b919050565b600080600080608085870312156109fd57600080fd5b8435935060208501359250610a14604086016109d2565b9150606085013560028110610a2857600080fd5b939692955090935050565b803560ff811681146109e257600080fd5b600080600060608486031215610a5957600080fd5b83358060020b8114610a6a57600080fd5b9250610a7860208501610a33565b9150610a86604085016109d2565b90509250925092565b60008060408385031215610aa257600080fd5b82356001600160a01b0381168114610ab957600080fd5b9150610ac760208401610a33565b90509250929050565b60008060408385031215610ae357600080fd5b82359150610ac760208401610a33565b600080600060608486031215610b0857600080fd5b83359250610b18602085016109d2565b9150610a8660408501610a33565b634e487b7160e01b600052601160045260246000fd5b600181815b80851115610b77578160001904821115610b5d57610b5d610b26565b80851615610b6a57918102915b93841c9390800290610b41565b509250929050565b600082610b8e57506001610125565b81610b9b57506000610125565b8160018114610bb15760028114610bbb57610bd7565b6001915050610125565b60ff841115610bcc57610bcc610b26565b50506001821b610125565b5060208310610133831016604e8410600b8410161715610bfa575081810a610125565b610c048383610b3c565b8060001904821115610c1857610c18610b26565b029392505050565b600061012260ff841683610b7f565b634e487b7160e01b600052601260045260246000fd5b600082610c6257634e487b7160e01b600052601260045260246000fd5b500490565b634e487b7160e01b600052602160045260246000fdfea264697066735822122018d6e49cbd8c4d4aaf191a35a764bdbe153711ab2a8ac4f78612d02d9996668f64736f6c634300080e0033",
  "linkReferences": {},
  "deployedLinkReferences": {}
}