{
  "_format": "hh-sol-artifact-1",
  "contractName": "OptionExchange",
  "sourceName": "contracts/OptionExchange.sol",
  "abi": [
    {
      "inputs": [
        {
          "internalType": "address",
          "name": "_authority",
          "type": "address"
        },
        {
          "internalType": "address",
          "name": "_protocol",
          "type": "address"
        },
        {
          "internalType": "address",
          "name": "_liquidityPool",
          "type": "address"
        },
        {
          "internalType": "address",
          "name": "_pricer",
          "type": "address"
        },
        {
          "internalType": "address",
          "name": "_addressbook",
          "type": "address"
        },
        {
          "internalType": "address",
          "name": "_swapRouter",
          "type": "address"
        },
        {
          "internalType": "address",
          "name": "_feeRecipient",
          "type": "address"
        },
        {
          "internalType": "address",
          "name": "_catalogue",
          "type": "address"
        }
      ],
      "stateMutability": "nonpayable",
      "type": "constructor"
    },
    {
      "inputs": [],
      "name": "CloseSizeTooLarge",
      "type": "error"
    },
    {
      "inputs": [],
      "name": "CollateralAssetInvalid",
      "type": "error"
    },
    {
      "inputs": [],
      "name": "ForbiddenAction",
      "type": "error"
    },
    {
      "inputs": [],
      "name": "InvalidInput",
      "type": "error"
    },
    {
      "inputs": [],
      "name": "NonExistentOtoken",
      "type": "error"
    },
    {
      "inputs": [],
      "name": "NonWhitelistedOtoken",
      "type": "error"
    },
    {
      "inputs": [],
      "name": "NothingToClose",
      "type": "error"
    },
    {
      "inputs": [],
      "name": "OperatorNotApproved",
      "type": "error"
    },
    {
      "inputs": [],
      "name": "OptionExpiryInvalid",
      "type": "error"
    },
    {
      "inputs": [],
      "name": "PRBMathSD59x18__DivInputTooSmall",
      "type": "error"
    },
    {
      "inputs": [
        {
          "internalType": "uint256",
          "name": "rAbs",
          "type": "uint256"
        }
      ],
      "name": "PRBMathSD59x18__DivOverflow",
      "type": "error"
    },
    {
      "inputs": [],
      "name": "PRBMathSD59x18__MulInputTooSmall",
      "type": "error"
    },
    {
      "inputs": [
        {
          "internalType": "uint256",
          "name": "rAbs",
          "type": "uint256"
        }
      ],
      "name": "PRBMathSD59x18__MulOverflow",
      "type": "error"
    },
    {
      "inputs": [
        {
          "internalType": "uint256",
          "name": "prod1",
          "type": "uint256"
        }
      ],
      "name": "PRBMath__MulDivFixedPointOverflow",
      "type": "error"
    },
    {
      "inputs": [
        {
          "internalType": "uint256",
          "name": "prod1",
          "type": "uint256"
        },
        {
          "internalType": "uint256",
          "name": "denominator",
          "type": "uint256"
        }
      ],
      "name": "PRBMath__MulDivOverflow",
      "type": "error"
    },
    {
      "inputs": [],
      "name": "PoolFeeNotSet",
      "type": "error"
    },
    {
      "inputs": [],
      "name": "PremiumTooSmall",
      "type": "error"
    },
    {
      "inputs": [],
      "name": "SeriesNotBuyable",
      "type": "error"
    },
    {
      "inputs": [],
      "name": "SeriesNotSellable",
      "type": "error"
    },
    {
      "inputs": [],
      "name": "StrikeAssetInvalid",
      "type": "error"
    },
    {
      "inputs": [],
      "name": "TokenImbalance",
      "type": "error"
    },
    {
      "inputs": [],
      "name": "TooMuchSlippage",
      "type": "error"
    },
    {
      "inputs": [],
      "name": "TradeTooLarge",
      "type": "error"
    },
    {
      "inputs": [],
      "name": "TradeTooSmall",
      "type": "error"
    },
    {
      "inputs": [],
      "name": "UNAUTHORIZED",
      "type": "error"
    },
    {
      "inputs": [],
      "name": "UnapprovedSeries",
      "type": "error"
    },
    {
      "inputs": [],
      "name": "UnauthorisedSender",
      "type": "error"
    },
    {
      "inputs": [],
      "name": "UnderlyingAssetInvalid",
      "type": "error"
    },
    {
      "inputs": [],
      "name": "WithdrawExceedsLiquidity",
      "type": "error"
    },
    {
      "anonymous": false,
      "inputs": [
        {
          "indexed": false,
          "internalType": "contract IAuthority",
          "name": "authority",
          "type": "address"
        }
      ],
      "name": "AuthorityUpdated",
      "type": "event"
    },
    {
      "anonymous": false,
      "inputs": [
        {
          "indexed": true,
          "internalType": "address",
          "name": "series",
          "type": "address"
        },
        {
          "indexed": true,
          "internalType": "address",
          "name": "buyer",
          "type": "address"
        },
        {
          "indexed": false,
          "internalType": "uint256",
          "name": "optionAmount",
          "type": "uint256"
        },
        {
          "indexed": false,
          "internalType": "uint256",
          "name": "premium",
          "type": "uint256"
        },
        {
          "indexed": false,
          "internalType": "uint256",
          "name": "fee",
          "type": "uint256"
        }
      ],
      "name": "OptionsBought",
      "type": "event"
    },
    {
      "anonymous": false,
      "inputs": [
        {
          "indexed": true,
          "internalType": "address",
          "name": "series",
          "type": "address"
        }
      ],
      "name": "OptionsIssued",
      "type": "event"
    },
    {
      "anonymous": false,
      "inputs": [
        {
          "indexed": true,
          "internalType": "address",
          "name": "series",
          "type": "address"
        },
        {
          "indexed": false,
          "internalType": "uint256",
          "name": "optionAmount",
          "type": "uint256"
        },
        {
          "indexed": false,
          "internalType": "uint256",
          "name": "redeemAmount",
          "type": "uint256"
        },
        {
          "indexed": false,
          "internalType": "address",
          "name": "redeemAsset",
          "type": "address"
        }
      ],
      "name": "OptionsRedeemed",
      "type": "event"
    },
    {
      "anonymous": false,
      "inputs": [
        {
          "indexed": true,
          "internalType": "address",
          "name": "series",
          "type": "address"
        },
        {
          "indexed": true,
          "internalType": "address",
          "name": "seller",
          "type": "address"
        },
        {
          "indexed": false,
          "internalType": "uint256",
          "name": "optionAmount",
          "type": "uint256"
        },
        {
          "indexed": false,
          "internalType": "uint256",
          "name": "premium",
          "type": "uint256"
        },
        {
          "indexed": false,
          "internalType": "uint256",
          "name": "fee",
          "type": "uint256"
        }
      ],
      "name": "OptionsSold",
      "type": "event"
    },
    {
      "anonymous": false,
      "inputs": [
        {
          "indexed": false,
          "internalType": "address",
          "name": "newOptionExchange",
          "type": "address"
        },
        {
          "indexed": false,
          "internalType": "address",
          "name": "otoken",
          "type": "address"
        },
        {
          "indexed": false,
          "internalType": "uint256",
          "name": "amount",
          "type": "uint256"
        }
      ],
      "name": "OtokenMigrated",
      "type": "event"
    },
    {
      "anonymous": false,
      "inputs": [
        {
          "indexed": false,
          "internalType": "address",
          "name": "account",
          "type": "address"
        }
      ],
      "name": "Paused",
      "type": "event"
    },
    {
      "anonymous": false,
      "inputs": [
        {
          "indexed": false,
          "internalType": "uint256",
          "name": "redeemAmount",
          "type": "uint256"
        },
        {
          "indexed": false,
          "internalType": "address",
          "name": "redeemAsset",
          "type": "address"
        },
        {
          "indexed": false,
          "internalType": "address",
          "name": "recipient",
          "type": "address"
        }
      ],
      "name": "RedemptionSent",
      "type": "event"
    },
    {
      "anonymous": false,
      "inputs": [
        {
          "indexed": false,
          "internalType": "address",
          "name": "account",
          "type": "address"
        }
      ],
      "name": "Unpaused",
      "type": "event"
    },
    {
      "inputs": [],
      "name": "addressbook",
      "outputs": [
        {
          "internalType": "contract AddressBookInterface",
          "name": "",
          "type": "address"
        }
      ],
      "stateMutability": "view",
      "type": "function"
    },
    {
      "inputs": [
        {
          "internalType": "address",
          "name": "",
          "type": "address"
        },
        {
          "internalType": "bool",
          "name": "",
          "type": "bool"
        }
      ],
      "name": "approvedCollateral",
      "outputs": [
        {
          "internalType": "bool",
          "name": "",
          "type": "bool"
        }
      ],
      "stateMutability": "view",
      "type": "function"
    },
    {
      "inputs": [],
      "name": "authority",
      "outputs": [
        {
          "internalType": "contract IAuthority",
          "name": "",
          "type": "address"
        }
      ],
      "stateMutability": "view",
      "type": "function"
    },
    {
      "inputs": [],
      "name": "catalogue",
      "outputs": [
        {
          "internalType": "contract OptionCatalogue",
          "name": "",
          "type": "address"
        }
      ],
      "stateMutability": "view",
      "type": "function"
    },
    {
      "inputs": [
        {
          "internalType": "address",
          "name": "collateral",
          "type": "address"
        },
        {
          "internalType": "bool",
          "name": "isPut",
          "type": "bool"
        },
        {
          "internalType": "bool",
          "name": "isApproved",
          "type": "bool"
        }
      ],
      "name": "changeApprovedCollateral",
      "outputs": [],
      "stateMutability": "nonpayable",
      "type": "function"
    },
    {
      "inputs": [
        {
          "components": [
            {
              "internalType": "uint64",
              "name": "expiration",
              "type": "uint64"
            },
            {
              "internalType": "uint128",
              "name": "strike",
              "type": "uint128"
            },
            {
              "internalType": "bool",
              "name": "isPut",
              "type": "bool"
            },
            {
              "internalType": "address",
              "name": "underlying",
              "type": "address"
            },
            {
              "internalType": "address",
              "name": "strikeAsset",
              "type": "address"
            },
            {
              "internalType": "address",
              "name": "collateral",
              "type": "address"
            }
          ],
          "internalType": "struct Types.OptionSeries",
          "name": "optionSeries",
          "type": "tuple"
        },
        {
          "internalType": "uint128",
          "name": "strikeDecimalConverted",
          "type": "uint128"
        },
        {
          "internalType": "bool",
          "name": "isSell",
          "type": "bool"
        }
      ],
      "name": "checkHash",
      "outputs": [
        {
          "internalType": "bytes32",
          "name": "oHash",
          "type": "bytes32"
        }
      ],
      "stateMutability": "view",
      "type": "function"
    },
    {
      "inputs": [],
      "name": "collateralAsset",
      "outputs": [
        {
          "internalType": "address",
          "name": "",
          "type": "address"
        }
      ],
      "stateMutability": "view",
      "type": "function"
    },
    {
      "inputs": [
        {
          "components": [
            {
              "internalType": "uint64",
              "name": "expiration",
              "type": "uint64"
            },
            {
              "internalType": "uint128",
              "name": "strike",
              "type": "uint128"
            },
            {
              "internalType": "bool",
              "name": "isPut",
              "type": "bool"
            },
            {
              "internalType": "address",
              "name": "underlying",
              "type": "address"
            },
            {
              "internalType": "address",
              "name": "strikeAsset",
              "type": "address"
            },
            {
              "internalType": "address",
              "name": "collateral",
              "type": "address"
            }
          ],
          "internalType": "struct Types.OptionSeries",
          "name": "optionSeries",
          "type": "tuple"
        }
      ],
      "name": "createOtoken",
      "outputs": [
        {
          "internalType": "address",
          "name": "series",
          "type": "address"
        }
      ],
      "stateMutability": "nonpayable",
      "type": "function"
    },
    {
      "inputs": [],
      "name": "feeRecipient",
      "outputs": [
        {
          "internalType": "address",
          "name": "",
          "type": "address"
        }
      ],
      "stateMutability": "view",
      "type": "function"
    },
    {
      "inputs": [],
      "name": "getDelta",
      "outputs": [
        {
          "internalType": "int256",
          "name": "delta",
          "type": "int256"
        }
      ],
      "stateMutability": "view",
      "type": "function"
    },
    {
      "inputs": [
        {
          "internalType": "address",
          "name": "seriesAddress",
          "type": "address"
        },
        {
          "components": [
            {
              "internalType": "uint64",
              "name": "expiration",
              "type": "uint64"
            },
            {
              "internalType": "uint128",
              "name": "strike",
              "type": "uint128"
            },
            {
              "internalType": "bool",
              "name": "isPut",
              "type": "bool"
            },
            {
              "internalType": "address",
              "name": "underlying",
              "type": "address"
            },
            {
              "internalType": "address",
              "name": "strikeAsset",
              "type": "address"
            },
            {
              "internalType": "address",
              "name": "collateral",
              "type": "address"
            }
          ],
          "internalType": "struct Types.OptionSeries",
          "name": "optionSeries",
          "type": "tuple"
        }
      ],
      "name": "getOptionDetails",
      "outputs": [
        {
          "internalType": "address",
          "name": "",
          "type": "address"
        },
        {
          "components": [
            {
              "internalType": "uint64",
              "name": "expiration",
              "type": "uint64"
            },
            {
              "internalType": "uint128",
              "name": "strike",
              "type": "uint128"
            },
            {
              "internalType": "bool",
              "name": "isPut",
              "type": "bool"
            },
            {
              "internalType": "address",
              "name": "underlying",
              "type": "address"
            },
            {
              "internalType": "address",
              "name": "strikeAsset",
              "type": "address"
            },
            {
              "internalType": "address",
              "name": "collateral",
              "type": "address"
            }
          ],
          "internalType": "struct Types.OptionSeries",
          "name": "",
          "type": "tuple"
        },
        {
          "internalType": "uint128",
          "name": "",
          "type": "uint128"
        }
      ],
      "stateMutability": "view",
      "type": "function"
    },
    {
      "inputs": [],
      "name": "getPoolDenominatedValue",
      "outputs": [
        {
          "internalType": "uint256",
          "name": "",
          "type": "uint256"
        }
      ],
      "stateMutability": "view",
      "type": "function"
    },
    {
      "inputs": [
        {
          "internalType": "int256",
          "name": "_delta",
          "type": "int256"
        }
      ],
      "name": "hedgeDelta",
      "outputs": [
        {
          "internalType": "int256",
          "name": "",
          "type": "int256"
        }
      ],
      "stateMutability": "nonpayable",
      "type": "function"
    },
    {
      "inputs": [
        {
          "internalType": "address",
          "name": "",
          "type": "address"
        },
        {
          "internalType": "address",
          "name": "",
          "type": "address"
        }
      ],
      "name": "heldTokens",
      "outputs": [
        {
          "internalType": "uint256",
          "name": "",
          "type": "uint256"
        }
      ],
      "stateMutability": "view",
      "type": "function"
    },
    {
      "inputs": [],
      "name": "liquidityPool",
      "outputs": [
        {
          "internalType": "contract ILiquidityPool",
          "name": "",
          "type": "address"
        }
      ],
      "stateMutability": "view",
      "type": "function"
    },
    {
      "inputs": [],
      "name": "maxTradeSize",
      "outputs": [
        {
          "internalType": "uint256",
          "name": "",
          "type": "uint256"
        }
      ],
      "stateMutability": "view",
      "type": "function"
    },
    {
      "inputs": [
        {
          "internalType": "address",
          "name": "newOptionExchange",
          "type": "address"
        },
        {
          "internalType": "address[]",
          "name": "otokens",
          "type": "address[]"
        }
      ],
      "name": "migrateOtokens",
      "outputs": [],
      "stateMutability": "nonpayable",
      "type": "function"
    },
    {
      "inputs": [],
      "name": "minTradeSize",
      "outputs": [
        {
          "internalType": "uint256",
          "name": "",
          "type": "uint256"
        }
      ],
      "stateMutability": "view",
      "type": "function"
    },
    {
      "inputs": [
        {
          "components": [
            {
              "internalType": "enum CombinedActions.OperationType",
              "name": "operation",
              "type": "uint8"
            },
            {
              "components": [
                {
                  "internalType": "uint256",
                  "name": "actionType",
                  "type": "uint256"
                },
                {
                  "internalType": "address",
                  "name": "owner",
                  "type": "address"
                },
                {
                  "internalType": "address",
                  "name": "secondAddress",
                  "type": "address"
                },
                {
                  "internalType": "address",
                  "name": "asset",
                  "type": "address"
                },
                {
                  "internalType": "uint256",
                  "name": "vaultId",
                  "type": "uint256"
                },
                {
                  "internalType": "uint256",
                  "name": "amount",
                  "type": "uint256"
                },
                {
                  "components": [
                    {
                      "internalType": "uint64",
                      "name": "expiration",
                      "type": "uint64"
                    },
                    {
                      "internalType": "uint128",
                      "name": "strike",
                      "type": "uint128"
                    },
                    {
                      "internalType": "bool",
                      "name": "isPut",
                      "type": "bool"
                    },
                    {
                      "internalType": "address",
                      "name": "underlying",
                      "type": "address"
                    },
                    {
                      "internalType": "address",
                      "name": "strikeAsset",
                      "type": "address"
                    },
                    {
                      "internalType": "address",
                      "name": "collateral",
                      "type": "address"
                    }
                  ],
                  "internalType": "struct Types.OptionSeries",
                  "name": "optionSeries",
                  "type": "tuple"
                },
                {
                  "internalType": "uint256",
                  "name": "indexOrAcceptablePremium",
                  "type": "uint256"
                },
                {
                  "internalType": "bytes",
                  "name": "data",
                  "type": "bytes"
                }
              ],
              "internalType": "struct CombinedActions.ActionArgs[]",
              "name": "operationQueue",
              "type": "tuple[]"
            }
          ],
          "internalType": "struct CombinedActions.OperationProcedures[]",
          "name": "_operationProcedures",
          "type": "tuple[]"
        }
      ],
      "name": "operate",
      "outputs": [],
      "stateMutability": "nonpayable",
      "type": "function"
    },
    {
      "inputs": [],
      "name": "pause",
      "outputs": [],
      "stateMutability": "nonpayable",
      "type": "function"
    },
    {
      "inputs": [],
      "name": "paused",
      "outputs": [
        {
          "internalType": "bool",
          "name": "",
          "type": "bool"
        }
      ],
      "stateMutability": "view",
      "type": "function"
    },
    {
      "inputs": [
        {
          "internalType": "address",
          "name": "",
          "type": "address"
        }
      ],
      "name": "poolFees",
      "outputs": [
        {
          "internalType": "uint24",
          "name": "",
          "type": "uint24"
        }
      ],
      "stateMutability": "view",
      "type": "function"
    },
    {
      "inputs": [],
      "name": "pricer",
      "outputs": [
        {
          "internalType": "contract BeyondPricer",
          "name": "",
          "type": "address"
        }
      ],
      "stateMutability": "view",
      "type": "function"
    },
    {
      "inputs": [],
      "name": "protocol",
      "outputs": [
        {
          "internalType": "contract Protocol",
          "name": "",
          "type": "address"
        }
      ],
      "stateMutability": "view",
      "type": "function"
    },
    {
      "inputs": [
        {
          "internalType": "address[]",
          "name": "_series",
          "type": "address[]"
        },
        {
          "internalType": "uint256[]",
          "name": "amountOutMinimums",
          "type": "uint256[]"
        }
      ],
      "name": "redeem",
      "outputs": [],
      "stateMutability": "nonpayable",
      "type": "function"
    },
    {
      "inputs": [
        {
          "internalType": "contract IAuthority",
          "name": "_newAuthority",
          "type": "address"
        }
      ],
      "name": "setAuthority",
      "outputs": [],
      "stateMutability": "nonpayable",
      "type": "function"
    },
    {
      "inputs": [
        {
          "internalType": "address",
          "name": "_feeRecipient",
          "type": "address"
        }
      ],
      "name": "setFeeRecipient",
      "outputs": [],
      "stateMutability": "nonpayable",
      "type": "function"
    },
    {
      "inputs": [
        {
          "internalType": "address",
          "name": "_catalogue",
          "type": "address"
        }
      ],
      "name": "setOptionCatalogue",
      "outputs": [],
      "stateMutability": "nonpayable",
      "type": "function"
    },
    {
      "inputs": [
        {
          "internalType": "address",
          "name": "asset",
          "type": "address"
        },
        {
          "internalType": "uint24",
          "name": "fee",
          "type": "uint24"
        }
      ],
      "name": "setPoolFee",
      "outputs": [],
      "stateMutability": "nonpayable",
      "type": "function"
    },
    {
      "inputs": [
        {
          "internalType": "address",
          "name": "_pricer",
          "type": "address"
        }
      ],
      "name": "setPricer",
      "outputs": [],
      "stateMutability": "nonpayable",
      "type": "function"
    },
    {
      "inputs": [
        {
          "internalType": "uint256",
          "name": "_minTradeSize",
          "type": "uint256"
        },
        {
          "internalType": "uint256",
          "name": "_maxTradeSize",
          "type": "uint256"
        }
      ],
      "name": "setTradeSizeLimits",
      "outputs": [],
      "stateMutability": "nonpayable",
      "type": "function"
    },
    {
      "inputs": [],
      "name": "strikeAsset",
      "outputs": [
        {
          "internalType": "address",
          "name": "",
          "type": "address"
        }
      ],
      "stateMutability": "view",
      "type": "function"
    },
    {
      "inputs": [],
      "name": "swapRouter",
      "outputs": [
        {
          "internalType": "contract ISwapRouter",
          "name": "",
          "type": "address"
        }
      ],
      "stateMutability": "view",
      "type": "function"
    },
    {
      "inputs": [],
      "name": "underlyingAsset",
      "outputs": [
        {
          "internalType": "address",
          "name": "",
          "type": "address"
        }
      ],
      "stateMutability": "view",
      "type": "function"
    },
    {
      "inputs": [],
      "name": "unpause",
      "outputs": [],
      "stateMutability": "nonpayable",
      "type": "function"
    },
    {
      "inputs": [],
      "name": "update",
      "outputs": [
        {
          "internalType": "uint256",
          "name": "",
          "type": "uint256"
        }
      ],
      "stateMutability": "pure",
      "type": "function"
    },
    {
      "inputs": [
        {
          "internalType": "uint256",
          "name": "_amount",
          "type": "uint256"
        }
      ],
      "name": "withdraw",
      "outputs": [
        {
          "internalType": "uint256",
          "name": "",
          "type": "uint256"
        }
      ],
      "stateMutability": "nonpayable",
      "type": "function"
    }
  ],
  "bytecode": "0x610160604052683635c9adc5dea00000600655662386f26fc100006007553480156200002a57600080fd5b5060405162006569380380620065698339810160408190526200004d91620002cc565b600080546001600160a81b0319166101006001600160a01b038b169081029190911790915560405190815288907f2f658b440c35314f52658ea8a740e05b284cdc84dc9ae01e891f21b8933e7cad9060200160405180910390a150600180556001600160a01b0380881660a052861660808190526040805163555d766b60e11b8152905163aabaecd691600480820192602092909190829003018186803b158015620000f857600080fd5b505afa1580156200010d573d6000803e3d6000fd5b505050506040513d601f19601f8201168201806040525081019062000133919062000374565b6001600160a01b0316610100816001600160a01b0316815250506080516001600160a01b0316637158da7c6040518163ffffffff1660e01b815260040160206040518083038186803b1580156200018957600080fd5b505afa1580156200019e573d6000803e3d6000fd5b505050506040513d601f19601f82011682018060405250810190620001c4919062000374565b6001600160a01b031660e0816001600160a01b0316815250506080516001600160a01b03166317d69bc86040518163ffffffff1660e01b815260040160206040518083038186803b1580156200021957600080fd5b505afa1580156200022e573d6000803e3d6000fd5b505050506040513d601f19601f8201168201806040525081019062000254919062000374565b6001600160a01b0390811660c0529384166101205291831661014052600280546001600160a01b0319908116958516959095179055600580548516928416929092179091556004805490931691161790555062000399915050565b80516001600160a01b0381168114620002c757600080fd5b919050565b600080600080600080600080610100898b031215620002ea57600080fd5b620002f589620002af565b97506200030560208a01620002af565b96506200031560408a01620002af565b95506200032560608a01620002af565b94506200033560808a01620002af565b93506200034560a08a01620002af565b92506200035560c08a01620002af565b91506200036560e08a01620002af565b90509295985092959890939650565b6000602082840312156200038757600080fd5b6200039282620002af565b9392505050565b60805160a05160c05160e051610100516101205161014051615ff462000575600039600081816104cb0152818161137c0152611c8501526000818161033a015281816108a00152818161093101528181610e250152818161246d015281816125a901526128e7015260008181610438015281816106b401528181610b6301528181610ba001528181610c0a01528181610c9301528181610cfd0152818161123f01528181611588015281816115de01528181611bd701528181611f7d01528181613002015281816137d001528181614040015281816140dc01528181614153015281816141a1015281816141ea0152818161422701528181614553015281816145a7015281816145ff01528181614665015281816146b901526146ed015260008181610361015281816110090152818161439e01526144d0015260008181610245015281816143f401526144f80152600081816103e401528181611dc801526142e00152600081816103130152818161067b01528181610bc101528181610c2b01528181610cb401528181610d1e015281816131d1015281816136d00152818161389201528181613efb01528181614013015281816140fd0152818161470e01528181614995015281816149e60152614a8c0152615ff46000f3fe608060405234801561001057600080fd5b50600436106101f75760003560e01c80637a9e5e4b11610120578063bf7e214f116100b8578063e74b981b1161007c578063e74b981b14610518578063eb2d78551461052b578063f0b20dcd1461053e578063f2476f3d14610551578063fbaac1151461057357600080fd5b8063bf7e214f1461049b578063c12c5629146104b3578063c31c9c07146104c6578063c549176e14610419578063e17b25d7146104ed57600080fd5b80637a9e5e4b146103c45780638456cb59146103d75780638ce74426146103df5780638d75301714610406578063a2e6204514610419578063a6138ed914610420578063aabaecd614610433578063b7aa436d1461045a578063be6e91611461046257600080fd5b8063469048401161019357806346904840146102c857806353d190cf146102db5780635c975abb146102ee5780636155be5914610305578063665a11ca1461030e57806370dc320c146103355780637158da7c1461035c5780637781476f1461038357806378af7bd31461039657600080fd5b806310fa79e2146101fc57806314b6c4c61461021857806314d34d541461022d57806317d69bc8146102405780632179a43f1461027457806324e4013a14610287578063293903701461029a5780632e1a7d4d146102ad5780633f4ba83a146102c0575b600080fd5b61020560065481565b6040519081526020015b60405180910390f35b61022b6102263660046152b2565b610586565b005b61020561023b366004615509565b610603565b6102677f000000000000000000000000000000000000000000000000000000000000000081565b60405161020f9190615554565b61022b610282366004615568565b61061a565b600554610267906001600160a01b031681565b61022b6102a8366004615568565b610644565b6102056102bb366004615585565b61066e565b61022b610783565b600454610267906001600160a01b031681565b61022b6102e936600461560d565b610795565b60005460ff165b604051901515815260200161020f565b61020560075481565b6102677f000000000000000000000000000000000000000000000000000000000000000081565b6102677f000000000000000000000000000000000000000000000000000000000000000081565b6102677f000000000000000000000000000000000000000000000000000000000000000081565b6102676103913660046156c7565b610d73565b6102f56103a43660046156e3565b600860209081526000928352604080842090915290825290205460ff1681565b61022b6103d2366004615568565b610f7f565b61022b610fe2565b6102677f000000000000000000000000000000000000000000000000000000000000000081565b61022b61041436600461571c565b610ff2565b6000610205565b600254610267906001600160a01b031681565b6102677f000000000000000000000000000000000000000000000000000000000000000081565b610205611225565b610487610470366004615568565b60036020526000908152604090205462ffffff1681565b60405162ffffff909116815260200161020f565b6000546102679061010090046001600160a01b031681565b61022b6104c136600461576b565b6112c9565b6102677f000000000000000000000000000000000000000000000000000000000000000081565b6102056104fb3660046157ab565b600a60209081526000928352604080842090915290825290205481565b61022b610526366004615568565b611308565b61022b6105393660046157d9565b611332565b61022b61054c3660046157fb565b611345565b61056461055f366004615831565b6113a7565b60405161020f939291906158c3565b610205610581366004615585565b6113d2565b600260015414156105de5760405162461bcd60e51b815260206004820152601f60248201527f5265656e7472616e637947756172643a207265656e7472616e742063616c6c0060448201526064015b60405180910390fd5b60026001556105eb6113d9565b6105f48161141f565b6105fc6114b7565b5060018055565b600061061084848461169f565b90505b9392505050565b6106226117cf565b600580546001600160a01b0319166001600160a01b0392909216919091179055565b61064c6117cf565b600280546001600160a01b0319166001600160a01b0392909216919091179055565b6000336001600160a01b037f000000000000000000000000000000000000000000000000000000000000000016146106a557600080fd5b6040516370a0823160e01b81527f0000000000000000000000000000000000000000000000000000000000000000906000906001600160a01b038316906370a08231906106f6903090600401615554565b60206040518083038186803b15801561070e57600080fd5b505afa158015610722573d6000803e3d6000fd5b505050506040513d601f19601f8201168201806040525081019061074691906158fa565b905080610757575060009392505050565b80841161077157610769823386611886565b509192915050565b610613823383611886565b5050919050565b61078b6118ff565b610793611a45565b565b61079d611a91565b8151815181146107c05760405163b4fa3fb360e01b815260040160405180910390fd5b60005b81811015610d6d5760008482815181106107df576107df615913565b60200260200101516001600160a01b03166370a08231306040518263ffffffff1660e01b81526004016108129190615554565b60206040518083038186803b15801561082a57600080fd5b505afa15801561083e573d6000803e3d6000fd5b505050506040513d601f19601f8201168201806040525081019061086291906158fa565b9050600085838151811061087857610878615913565b60200260200101519050600073__$a949af228b7bd2e36efc48dbaaf0130ade$__6316babddd7f00000000000000000000000000000000000000000000000000000000000000006001600160a01b0316633018205f6040518163ffffffff1660e01b815260040160206040518083038186803b1580156108f757600080fd5b505afa15801561090b573d6000803e3d6000fd5b505050506040513d601f19601f8201168201806040525081019061092f9190615929565b7f00000000000000000000000000000000000000000000000000000000000000006001600160a01b031663754863426040518163ffffffff1660e01b815260040160206040518083038186803b15801561098857600080fd5b505afa15801561099c573d6000803e3d6000fd5b505050506040513d601f19601f820116820180604052508101906109c09190615929565b8a88815181106109d2576109d2615913565b60209081029190910101516040516001600160e01b031960e086901b1681526001600160a01b03938416600482015291831660248301529190911660448201526064810186905230608482015260a40160206040518083038186803b158015610a3a57600080fd5b505af4158015610a4e573d6000803e3d6000fd5b505050506040513d601f19601f82011682018060405250810190610a7291906158fa565b90506000826001600160a01b031663aabaecd66040518163ffffffff1660e01b815260040160206040518083038186803b158015610aaf57600080fd5b505afa158015610ac3573d6000803e3d6000fd5b505050506040513d601f19601f82011682018060405250810190610ae79190615929565b9050878581518110610afb57610afb615913565b60200260200101516001600160a01b03167fcfbc7c1cffc3612dc4d74c24b018635a861919eb25d4ea23efc0c2404d2ede37858484604051610b599392919092835260208301919091526001600160a01b0316604082015260600190565b60405180910390a27f00000000000000000000000000000000000000000000000000000000000000006001600160a01b0316816001600160a01b03161415610c6657610be67f00000000000000000000000000000000000000000000000000000000000000007f000000000000000000000000000000000000000000000000000000000000000084611886565b7f744fbf6132bf95d831170c703fad48b37e840b0d8ee05263e424504a0f319677827f00000000000000000000000000000000000000000000000000000000000000007f0000000000000000000000000000000000000000000000000000000000000000604051610c5993929190615946565b60405180910390a1610d56565b6000610c8c83898881518110610c7e57610c7e615913565b602002602001015184611b81565b9050610cd97f00000000000000000000000000000000000000000000000000000000000000007f000000000000000000000000000000000000000000000000000000000000000083611886565b7f744fbf6132bf95d831170c703fad48b37e840b0d8ee05263e424504a0f319677817f00000000000000000000000000000000000000000000000000000000000000007f0000000000000000000000000000000000000000000000000000000000000000604051610d4c93929190615946565b60405180910390a1505b505050508080610d659061597b565b9150506107c3565b50505050565b60008073__$9200b285a0f372c982db0cf335fd1ba5de$__63a3895ce684602001518560a001516040518363ffffffff1660e01b8152600401610db7929190615996565b60206040518083038186803b158015610dcf57600080fd5b505af4158015610de3573d6000803e3d6000fd5b505050506040513d601f19601f82011682018060405250810190610e0791906158fa565b905073__$a949af228b7bd2e36efc48dbaaf0130ade$__630e4e99e37f00000000000000000000000000000000000000000000000000000000000000006001600160a01b0316631ffaf0db6040518163ffffffff1660e01b815260040160206040518083038186803b158015610e7c57600080fd5b505afa158015610e90573d6000803e3d6000fd5b505050506040513d601f19601f82011682018060405250810190610eb49190615929565b60a08601516060870151608088015188516040808b015190516001600160e01b031960e089901b1681526001600160a01b03968716600482015294861660248601529285166044850152931660648301526001600160801b03861660848301526001600160401b0390921660a482015290151560c482015260e40160206040518083038186803b158015610f4757600080fd5b505af4158015610f5b573d6000803e3d6000fd5b505050506040513d601f19601f820116820180604052508101906106139190615929565b610f876117cf565b60008054610100600160a81b0319166101006001600160a01b038416021790556040517f2f658b440c35314f52658ea8a740e05b284cdc84dc9ae01e891f21b8933e7cad90610fd7908390615554565b60405180910390a150565b610fea6118ff565b610793611d0f565b610ffa6117cf565b805160005b81811015610d6d577f00000000000000000000000000000000000000000000000000000000000000006001600160a01b031683828151811061104357611043615913565b60200260200101516001600160a01b0316637158da7c6040518163ffffffff1660e01b815260040160206040518083038186803b15801561108357600080fd5b505afa158015611097573d6000803e3d6000fd5b505050506040513d601f19601f820116820180604052508101906110bb9190615929565b6001600160a01b0316146110e25760405163e85ee80360e01b815260040160405180910390fd5b60008382815181106110f6576110f6615913565b60200260200101516001600160a01b03166370a08231306040518263ffffffff1660e01b81526004016111299190615554565b60206040518083038186803b15801561114157600080fd5b505afa158015611155573d6000803e3d6000fd5b505050506040513d601f19601f8201168201806040525081019061117991906158fa565b905061119f84838151811061119057611190615913565b60200260200101518683611886565b7fbea4ca70ed28e5030e8d16ad1cfb46719d7af013c7235d0e27db0bd2e8ea1318858584815181106111d3576111d3615913565b60200260200101518360405161120a939291906001600160a01b039384168152919092166020820152604081019190915260600190565b60405180910390a1508061121d8161597b565b915050610fff565b6040516370a0823160e01b81526000906001600160a01b037f000000000000000000000000000000000000000000000000000000000000000016906370a0823190611274903090600401615554565b60206040518083038186803b15801561128c57600080fd5b505afa1580156112a0573d6000803e3d6000fd5b505050506040513d601f19601f820116820180604052508101906112c491906158fa565b905090565b6112d16117cf565b6001600160a01b03929092166000908152600860209081526040808320931515835292905220805460ff1916911515919091179055565b6113106117cf565b600480546001600160a01b0319166001600160a01b0392909216919091179055565b61133a6117cf565b600791909155600655565b61134d6117cf565b6001600160a01b0382166000908152600360205260409020805462ffffff191662ffffff83161790556113a3827f0000000000000000000000000000000000000000000000000000000000000000600019611d4c565b5050565b60006113b1614e0c565b60006113c585856113c0611dc4565b611e57565b9250925092509250925092565b6000806000fd5b60005460ff16156107935760405162461bcd60e51b815260206004820152601060248201526f14185d5cd8589b194e881c185d5cd95960821b60448201526064016105d5565b60005b81518110156113a357600082828151811061143f5761143f615913565b602090810291909101015180519091506000816001811115611463576114636159b8565b141561147b5761147682602001516125a5565b6114a2565b600181600181111561148f5761148f6159b8565b14156114a2576114a28260200151612b49565b505080806114af9061597b565b915050611422565b3360009081526009602090815260408083208054825181850281018501909352808352919290919083018282801561151857602002820191906000526020600020905b81546001600160a01b031681526001909101906020018083116114fa575b505083519394506000925050505b8181101561168657336000908152600a602052604081208451829086908590811061155357611553615913565b60200260200101516001600160a01b03166001600160a01b0316815260200190815260200160002054905080600014611673577f00000000000000000000000000000000000000000000000000000000000000006001600160a01b03168483815181106115c2576115c2615913565b60200260200101516001600160a01b0316141561165a576116047f00000000000000000000000000000000000000000000000000000000000000003383611886565b336000908152600a602052604081208551829087908690811061162957611629615913565b60200260200101516001600160a01b03166001600160a01b0316815260200190815260200160002081905550611673565b6040516329513c0360e11b815260040160405180910390fd5b508061167e8161597b565b915050611526565b503360009081526009602052604081206113a391614e41565b600083600001518385604001516040516020016116be939291906159ce565b60408051808303601f1901815290829052805160209091012060055463948d6e3760e01b8352600483018290529092506000916001600160a01b039091169063948d6e379060240160606040518083038186803b15801561171e57600080fd5b505afa158015611732573d6000803e3d6000fd5b505050506040513d601f19601f820116820180604052508101906117569190615a05565b805190915061177857604051633c7b394760e21b815260040160405180910390fd5b82156117a55780604001516117a057604051634698cf4f60e01b815260040160405180910390fd5b6117c7565b80602001516117c7576040516343a1bda960e01b815260040160405180910390fd5b509392505050565b600060019054906101000a90046001600160a01b03166001600160a01b0316630c340a246040518163ffffffff1660e01b815260040160206040518083038186803b15801561181d57600080fd5b505afa158015611831573d6000803e3d6000fd5b505050506040513d601f19601f820116820180604052508101906118559190615929565b6001600160a01b0316336001600160a01b0316146107935760405163075fd2b160e01b815260040160405180910390fd5b600060405163a9059cbb60e01b81526001600160a01b03841660048201528260248201526000806044836000895af19150506118c181612c4e565b610d6d5760405162461bcd60e51b815260206004820152600f60248201526e1514905394d1915497d19052531151608a1b60448201526064016105d5565b60005460405163794f111b60e11b81526101009091046001600160a01b03169063f29e223690611933903390600401615554565b60206040518083038186803b15801561194b57600080fd5b505afa15801561195f573d6000803e3d6000fd5b505050506040513d601f19601f820116820180604052508101906119839190615a76565b158015611a275750600060019054906101000a90046001600160a01b03166001600160a01b0316630c340a246040518163ffffffff1660e01b815260040160206040518083038186803b1580156119d957600080fd5b505afa1580156119ed573d6000803e3d6000fd5b505050506040513d601f19601f82011682018060405250810190611a119190615929565b6001600160a01b0316336001600160a01b031614155b156107935760405163075fd2b160e01b815260040160405180910390fd5b611a4d612c93565b6000805460ff191690557f5db9ee0a495bf2e6ff9c91a7834c1ba4fdd244a5e8aa4e537bd38aeae4b073aa335b604051611a879190615554565b60405180910390a1565b600060019054906101000a90046001600160a01b03166001600160a01b031663481c6a756040518163ffffffff1660e01b815260040160206040518083038186803b158015611adf57600080fd5b505afa158015611af3573d6000803e3d6000fd5b505050506040513d601f19601f82011682018060405250810190611b179190615929565b6001600160a01b0316336001600160a01b031614158015611a275750600060019054906101000a90046001600160a01b03166001600160a01b0316630c340a246040518163ffffffff1660e01b815260040160206040518083038186803b1580156119d957600080fd5b6001600160a01b03811660009081526003602052604081205462ffffff1680611bbd57604051630db08e3d60e01b815260040160405180910390fd5b60408051610100810182526001600160a01b0385811682527f000000000000000000000000000000000000000000000000000000000000000081166020830190815262ffffff8581168486019081523060608601908152426080870190815260a087018d815260c088018d8152600060e08a018181529a5163414bf38960e01b81528a518a166004820152975189166024890152945190951660448701529151861660648601525160848501525160a4840152905160c48301529351821660e48201529192917f00000000000000000000000000000000000000000000000000000000000000009091169063414bf3899061010401602060405180830381600087803b158015611ccc57600080fd5b505af1158015611ce0573d6000803e3d6000fd5b505050506040513d601f19601f82011682018060405250810190611d0491906158fa565b979650505050505050565b611d176113d9565b6000805460ff191660011790557f62e78cea01bee320cd4e420270b5ea74000d11b0c9f74754ebdbfc544b05a258611a7a3390565b600060405163095ea7b360e01b81526001600160a01b03841660048201528260248201526000806044836000895af1915050611d8781612c4e565b610d6d5760405162461bcd60e51b815260206004820152600e60248201526d1054141493d59157d1905253115160921b60448201526064016105d5565b60007f00000000000000000000000000000000000000000000000000000000000000006001600160a01b0316633b4567b06040518163ffffffff1660e01b815260040160206040518083038186803b158015611e1f57600080fd5b505afa158015611e33573d6000803e3d6000fd5b505050506040513d601f19601f820116820180604052508101906112c49190615929565b6000611e61614e0c565b60006001600160a01b0386166120615760608501516080860151865160408089015160208a015160a08b01519251631087e2b560e11b81526001600160a01b03968716600482015294861660248601526001600160401b039093166044850152151560648401526001600160801b039091166084830152821660a48201529085169063210fc56a9060c40160206040518083038186803b158015611f0457600080fd5b505afa158015611f18573d6000803e3d6000fd5b505050506040513d601f19601f82011682018060405250810190611f3c9190615929565b95506040518060c0016040528086600001516001600160401b0316815260200173__$9200b285a0f372c982db0cf335fd1ba5de$__63a3895ce688602001517f00000000000000000000000000000000000000000000000000000000000000006040518363ffffffff1660e01b8152600401611fb9929190615996565b60206040518083038186803b158015611fd157600080fd5b505af4158015611fe5573d6000803e3d6000fd5b505050506040513d601f19601f8201168201806040525081019061200991906158fa565b6001600160801b0316815260200186604001511515815260200186606001516001600160a01b0316815260200186608001516001600160a01b031681526020018660a001516001600160a01b031681525094506123f3565b60405163dac9675b60e01b81526001600160a01b0385169063dac9675b9061208d908990600401615554565b60c06040518083038186803b1580156120a557600080fd5b505afa1580156120b9573d6000803e3d6000fd5b505050506040513d601f19601f820116820180604052508101906120dd9190615b16565b80519095506001600160401b03166123f35760008690506040518060c00160405280826001600160a01b031663ade6e2aa6040518163ffffffff1660e01b815260040160206040518083038186803b15801561213857600080fd5b505afa15801561214c573d6000803e3d6000fd5b505050506040513d601f19601f8201168201806040525081019061217091906158fa565b6001600160401b03168152602001826001600160a01b031663c52987cf6040518163ffffffff1660e01b815260040160206040518083038186803b1580156121b757600080fd5b505afa1580156121cb573d6000803e3d6000fd5b505050506040513d601f19601f820116820180604052508101906121ef91906158fa565b6001600160801b03168152602001826001600160a01b031663f3c274a66040518163ffffffff1660e01b815260040160206040518083038186803b15801561223657600080fd5b505afa15801561224a573d6000803e3d6000fd5b505050506040513d601f19601f8201168201806040525081019061226e9190615a76565b15158152602001826001600160a01b0316637158da7c6040518163ffffffff1660e01b815260040160206040518083038186803b1580156122ae57600080fd5b505afa1580156122c2573d6000803e3d6000fd5b505050506040513d601f19601f820116820180604052508101906122e69190615929565b6001600160a01b03168152602001826001600160a01b03166317d69bc86040518163ffffffff1660e01b815260040160206040518083038186803b15801561232d57600080fd5b505afa158015612341573d6000803e3d6000fd5b505050506040513d601f19601f820116820180604052508101906123659190615929565b6001600160a01b03168152602001826001600160a01b031663aabaecd66040518163ffffffff1660e01b815260040160206040518083038186803b1580156123ac57600080fd5b505afa1580156123c0573d6000803e3d6000fd5b505050506040513d601f19601f820116820180604052508101906123e49190615929565b6001600160a01b031690529550505b6001600160a01b03861661241a57604051634f13847960e11b815260040160405180910390fd5b84516001600160401b031661244257604051634f13847960e11b815260040160405180910390fd5b600061244f600a80615c16565b86602001516001600160801b03166124679190615c25565b905060007f00000000000000000000000000000000000000000000000000000000000000006001600160a01b031663d01f63f56040518163ffffffff1660e01b815260040160206040518083038186803b1580156124c457600080fd5b505afa1580156124d8573d6000803e3d6000fd5b505050506040513d601f19601f820116820180604052508101906124fc9190615929565b6040516302328d7360e31b81529091506001600160a01b038216906311946b989061252b908b90600401615554565b60206040518083038186803b15801561254357600080fd5b505afa158015612557573d6000803e3d6000fd5b505050506040513d601f19601f8201168201806040525081019061257b9190615a76565b6125985760405163e85ee80360e01b815260040160405180910390fd5b5095969495949350505050565b60007f00000000000000000000000000000000000000000000000000000000000000006001600160a01b0316633018205f6040518163ffffffff1660e01b815260040160206040518083038186803b15801561260057600080fd5b505afa158015612614573d6000803e3d6000fd5b505050506040513d601f19601f820116820180604052508101906126389190615929565b82519091506000816001600160401b0381111561265757612657615082565b60405190808252806020026020018201604052801561269057816020015b61267d614e62565b8152602001906001900390816126755790505b50604051635b1b1e7960e11b81523360048201523060248201529091506001600160a01b0384169063b6363cf29060440160206040518083038186803b1580156126d957600080fd5b505afa1580156126ed573d6000803e3d6000fd5b505050506040513d601f19601f820116820180604052508101906127119190615a76565b61272e5760405163e312900160e01b815260040160405180910390fd5b60005b82811015612ae457600061275d86838151811061275057612750615913565b6020026020010151612cdc565b80516020820151919250906001600160a01b03163314612790576040516307649f8160e51b815260040160405180910390fd5b600381600a8111156127a4576127a46159b8565b14156127dc5760408201516001600160a01b031633146127d7576040516307649f8160e51b815260040160405180910390fd5b612ab1565b600081600a8111156127f0576127f06159b8565b14156127fb57612ab1565b600481600a81111561280f5761280f6159b8565b14156128525760408201516001600160a01b03163014156127d75760608201516127d79061283e600a80615c16565b8460a0015161284d9190615c25565b612d83565b600581600a811115612866576128666159b8565b14156129805760408201516001600160a01b03163314801590612896575060408201516001600160a01b03163014155b156128b4576040516307649f8160e51b815260040160405180910390fd5b60408201516001600160a01b03163014156127d7576128dd826060015133308560a00151612e20565b6127d782606001517f00000000000000000000000000000000000000000000000000000000000000006001600160a01b031663754863426040518163ffffffff1660e01b815260040160206040518083038186803b15801561293e57600080fd5b505afa158015612952573d6000803e3d6000fd5b505050506040513d601f19601f820116820180604052508101906129769190615929565b8460a00151611d4c565b600181600a811115612994576129946159b8565b14156129c35760408201516001600160a01b03163014156127d75760608201516127d79061283e600a80615c16565b600281600a8111156129d7576129d76159b8565b1415612a0a5760408201516001600160a01b031633146127d7576040516307649f8160e51b815260040160405180910390fd5b600681600a811115612a1e57612a1e6159b8565b1415612a515760408201516001600160a01b031633146127d7576040516307649f8160e51b815260040160405180910390fd5b600781600a811115612a6557612a656159b8565b1415612a985760408201516001600160a01b031633146127d7576040516307649f8160e51b815260040160405180910390fd5b604051632893247960e01b815260040160405180910390fd5b81848481518110612ac457612ac4615913565b602002602001018190525050508080612adc9061597b565b915050612731565b50604051635b0bf86360e11b81526001600160a01b0384169063b617f0c690612b11908490600401615c91565b600060405180830381600087803b158015612b2b57600080fd5b505af1158015612b3f573d6000803e3d6000fd5b5050505050505050565b60005b81518110156113a3576000612b79838381518110612b6c57612b6c615913565b6020026020010151612eba565b80519091506000816003811115612b9257612b926159b8565b1415612baf57612ba9612ba483612f58565b612fbe565b50612c39565b6001816003811115612bc357612bc36159b8565b1415612bdf57612bda612bd583613296565b613339565b612c39565b6002816003811115612bf357612bf36159b8565b1415612c0c57612bda612c0583613989565b6000613a53565b6003816003811115612c2057612c206159b8565b1415612c3957612c39612c3283613989565b6001613a53565b50508080612c469061597b565b915050612b4c565b60003d82612c6057806000803e806000fd5b8060208114612c78578015612c89576000925061077c565b816000803e6000511515925061077c565b5060019392505050565b60005460ff166107935760405162461bcd60e51b815260206004820152601460248201527314185d5cd8589b194e881b9bdd081c185d5cd95960621b60448201526064016105d5565b612ce4614e62565b6040518061010001604052808360000151600a811115612d0657612d066159b8565b600a811115612d1757612d176159b8565b815260200183602001516001600160a01b0316815260200183604001516001600160a01b0316815260200183606001516001600160a01b03168152602001836080015181526020018360a0015181526020018360e0015181526020018361010001518152509050919050565b336000908152600a602090815260408083206001600160a01b0386168452909152902054612de4573360009081526009602090815260408220805460018101825590835291200180546001600160a01b0319166001600160a01b0384161790555b336000908152600a602090815260408083206001600160a01b038616845290915281208054839290612e17908490615d72565b90915550505050565b600084905060006040516323b872dd60e01b81526001600160a01b03861660048201526001600160a01b03851660248201528360448201526000806064836000875af1915050612e6f81612c4e565b612eb25760405162461bcd60e51b81526020600482015260146024820152731514905394d1915497d19493d357d1905253115160621b60448201526064016105d5565b505050505050565b612ec2614ec3565b60405180610100016040528083600001516003811115612ee457612ee46159b8565b6003811115612ef557612ef56159b8565b815260200183604001516001600160a01b0316815260200183606001516001600160a01b03168152602001836080015181526020018360a0015181526020018360c0015181526020018360e0015181526020018361010001518152509050919050565b612f60614f0f565b600082516003811115612f7557612f756159b8565b14612fa75760405162461bcd60e51b8152602060048201526002602482015261209960f11b60448201526064016105d5565b50604080516020810190915260a090910151815290565b600080612fcc600a80615c16565b8351602001516040516351c4ae7360e11b815273__$9200b285a0f372c982db0cf335fd1ba5de$__9163a3895ce69161302a91907f000000000000000000000000000000000000000000000000000000000000000090600401615996565b60206040518083038186803b15801561304257600080fd5b505af4158015613056573d6000803e3d6000fd5b505050506040513d601f19601f8201168201806040525081019061307a91906158fa565b6130849190615c25565b8351805160409182015191519293506000926130a49285916020016159ce565b60408051808303601f1901815290829052805160209091012060055463948d6e3760e01b8352600483018290529092506000916001600160a01b039091169063948d6e379060240160606040518083038186803b15801561310457600080fd5b505afa158015613118573d6000803e3d6000fd5b505050506040513d601f19601f8201168201806040525081019061313c9190615a05565b805190915061315e57604051633c7b394760e21b815260040160405180910390fd5b8060200151613180576040516343a1bda960e01b815260040160405180910390fd5b845160a08101516080909101516001600160a01b039081169116146131b857604051639d3b9e0160e01b815260040160405180910390fd5b845160405163380c1f0560e11b81526001600160a01b037f000000000000000000000000000000000000000000000000000000000000000016916370183e0a916132059190600401615d8a565b602060405180830381600087803b15801561321f57600080fd5b505af1158015613233573d6000803e3d6000fd5b505050506040513d601f19601f820116820180604052508101906132579190615929565b6040519094506001600160a01b038516907f4d4aad5411a432a9681270e88760ad5db0c5a9bee58c814504fa60f939a1b66690600090a2505050919050565b61329e614f27565b6001825160038111156132b3576132b36159b8565b146132e55760405162461bcd60e51b8152602060048201526002602482015261413360f01b60448201526064016105d5565b6040518060a001604052808360a00151815260200183604001516001600160a01b031681526020018360800151815260200183602001516001600160a01b031681526020018360c001518152509050919050565b60075481604001511015613360576040516376ef72d960e11b815260040160405180910390fd5b60065481604001511115613386576040516284260f60e31b815260040160405180910390fd5b6000613390611dc4565b9050600061339c6142dc565b90506133a6614f5c565b60006133bd85602001518660000151866000614337565b604086810192909252602086018390526001600160a01b03938416865260608901516002548a8401519351630878137560e21b815260048101849052929650909490811693634d85b51d9390929091600091908a16906321e04dd49060240160206040518083038186803b15801561343457600080fd5b505afa158015613448573d6000803e3d6000fd5b505050506040513d601f19601f8201168201806040525081019061346c91906158fa565b6040518563ffffffff1660e01b815260040161348b9493929190615d98565b60606040518083038186803b1580156134a357600080fd5b505afa1580156134b7573d6000803e3d6000fd5b505050506040513d601f19601f820116820180604052508101906134db9190615dc3565b60c086015260a08501526080808501829052870151101561350f5760405163fa6ad35560e01b815260040160405180910390fd5b61352183608001518460c0015161453f565b600061352e600a80615c16565b84516040516370a0823160e01b81526001600160a01b03909116906370a082319061355d903090600401615554565b60206040518083038186803b15801561357557600080fd5b505afa158015613589573d6000803e3d6000fd5b505050506040513d601f19601f820116820180604052508101906135ad91906158fa565b6135b79190615c25565b6040888101518651608088015160c08901518451848152602081019290925281850152925193945090926001600160a01b03868116939216917f484b240ef11454059ca96b3d0f11ee6e09c2d63ed81a40e300fcee0ac97f3cb0919081900360600190a381156137ce5760008183116136305782613632565b815b86519091506136569085613647600a80615c16565b6136519085615e07565b611886565b866001600160a01b031663dce66fb8876020015160008461367690615e29565b8a516040516001600160e01b031960e087901b16815261369c9493929190600401615e46565b600060405180830381600087803b1580156136b657600080fd5b505af11580156136ca573d6000803e3d6000fd5b505050507f00000000000000000000000000000000000000000000000000000000000000006001600160a01b031663f18e471860006137248c6040015161371e868c6080015161473390919063ffffffff16565b9061473f565b6137498d60400151613743878d60a0015161475490919063ffffffff16565b90614819565b6040516001600160e01b031960e086901b16815260048101939093526024830191909152604482015260016064820152608401600060405180830381600087803b15801561379657600080fd5b505af11580156137aa573d6000803e3d6000fd5b5050505080826137ba9190615e7a565b9150816137cc57505050505050505050565b505b7f00000000000000000000000000000000000000000000000000000000000000006001600160a01b0316856040015160a001516001600160a01b03161461382857604051639d3b9e0160e01b815260040160405180910390fd5b60208501518551604051631b9ccdf760e31b81526001600160a01b0389169263dce66fb89261385e928691600091600401615e46565b600060405180830381600087803b15801561387857600080fd5b505af115801561388c573d6000803e3d6000fd5b505050507f00000000000000000000000000000000000000000000000000000000000000006001600160a01b031663bdb4246186604001518760000151848b6138ea8e6040015161371e898e6080015161473390919063ffffffff16565b6139098f604001516137438a8f60a0015161475490919063ffffffff16565b8a6040518863ffffffff1660e01b815260040161392c9796959493929190615e91565b602060405180830381600087803b15801561394657600080fd5b505af115801561395a573d6000803e3d6000fd5b505050506040513d601f19601f8201168201806040525081019061397e91906158fa565b505050505050505050565b613991614fb7565b6002825160038111156139a6576139a66159b8565b14806139c457506003825160038111156139c2576139c26159b8565b145b6139f55760405162461bcd60e51b8152602060048201526002602482015261104d60f21b60448201526064016105d5565b6040518060c001604052808360a00151815260200183604001516001600160a01b03168152602001836060015181526020018360800151815260200183602001516001600160a01b031681526020018360c001518152509050919050565b60075482606001511015613a7a576040516376ef72d960e11b815260040160405180910390fd5b60065482606001511115613aa0576040516284260f60e31b815260040160405180910390fd5b6000613aaa611dc4565b90506000613ab66142dc565b9050613ac0615005565b6000613ad786602001518760000151866001614337565b604086810192909252602086018390526001600160a01b03938416865260025460608b01519251630878137560e21b815260048101839052919550841693634d85b51d9392916001918916906321e04dd49060240160206040518083038186803b158015613b4457600080fd5b505afa158015613b58573d6000803e3d6000fd5b505050506040513d601f19601f82011682018060405250810190613b7c91906158fa565b6040518563ffffffff1660e01b8152600401613b9b9493929190615d98565b60606040518083038186803b158015613bb357600080fd5b505afa158015613bc7573d6000803e3d6000fd5b505050506040513d601f19601f82011682018060405250810190613beb9190615dc3565b60a0808601919091526080850191909152606084018290528701511115613c255760405163fa6ad35560e01b815260040160405180910390fd5b60608601805160c0840152336000908152600a6020908152604080832086516001600160a01b031684529091529020549051613c6191906148df565b60e08301819052336000908152600a6020908152604080832086516001600160a01b0316845290915281208054909190613c9c908490615e7a565b9091555050815160405163c238f68d60e01b81526000916001600160a01b0386169163c238f68d91613cd091600401615554565b6101006040518083038186803b158015613ce957600080fd5b505afa158015613cfd573d6000803e3d6000fd5b505050506040513d601f19601f82011682018060405250810190613d219190615ee2565b6020015190506000811315613d7857858015613d48575080613d468460c001516148f7565b135b15613d6657604051632d8579d360e01b815260040160405180910390fd5b613d71838287614965565b9250613d97565b8515613d9757604051631c0e890960e11b815260040160405180910390fd5b85158015613db0575060a0830151606084015160031c11155b15613dce5760405163074d2b6160e51b815260040160405180910390fd5b60c083015115613fd6578260e001518360c001511115613e8b57613e8b83600001513330613e868760e001518860c00151613e099190615e7a565b88600001516001600160a01b031663313ce5676040518163ffffffff1660e01b815260040160206040518083038186803b158015613e4657600080fd5b505afa158015613e5a573d6000803e3d6000fd5b505050506040513d601f19601f82011682018060405250810190613e7e9190615f41565b60ff16614c40565b612e20565b602083015160c08401518451604051631b9ccdf760e31b81526001600160a01b0388169363dce66fb893613ec793919260009290600401615e46565b600060405180830381600087803b158015613ee157600080fd5b505af1158015613ef5573d6000803e3d6000fd5b505050507f00000000000000000000000000000000000000000000000000000000000000006001600160a01b031663f18e47186000613f4d8a6060015161371e8860c00151896060015161473390919063ffffffff16565b613f708b606001516137438960c001518a6080015161475490919063ffffffff16565b6040516001600160e01b031960e086901b16815260048101939093526024830191909152604482015260006064820152608401600060405180830381600087803b158015613fbd57600080fd5b505af1158015613fd1573d6000803e3d6000fd5b505050505b82610120015183606001511115614132578261012001518360600151613ffc9190615e7a565b60405163f8b2cb4f60e01b81526001600160a01b037f0000000000000000000000000000000000000000000000000000000000000000169063f8b2cb4f90614068907f000000000000000000000000000000000000000000000000000000000000000090600401615554565b60206040518083038186803b15801561408057600080fd5b505afa158015614094573d6000803e3d6000fd5b505050506040513d601f19601f820116820180604052508101906140b891906158fa565b10156140d75760405163b84beb5d60e01b815260040160405180910390fd5b6141327f00000000000000000000000000000000000000000000000000000000000000007f0000000000000000000000000000000000000000000000000000000000000000308661012001518760600151613e869190615e7a565b60a0830151606084015160031c11156141895760045460a0840151614184917f0000000000000000000000000000000000000000000000000000000000000000916001600160a01b0390911690611886565b6141d0565b606083015160031c60a084018190526004546141d0917f0000000000000000000000000000000000000000000000000000000000000000916001600160a01b031690611886565b60808701516001600160a01b03163014156142225761421d7f00000000000000000000000000000000000000000000000000000000000000008460a00151856060015161284d9190615e7a565b61425f565b61425f7f000000000000000000000000000000000000000000000000000000000000000088608001518560a0015186606001516136519190615e7a565b86608001516001600160a01b031683600001516001600160a01b03167f1201e68ebf2c011f8f9dc2335621b736cee0c94274d0e4c7bc7e64bd9f00a2fd896060015186606001518760a001516040516142cb939291909283526020830191909152604082015260600190565b60405180910390a350505050505050565b60007f00000000000000000000000000000000000000000000000000000000000000006001600160a01b0316635fb480c96040518163ffffffff1660e01b815260040160206040518083038186803b158015611e1f57600080fd5b6000614341614e0c565b614349614e0c565b60008060008061435a8b8b8b611e57565b925092509250600061436d83838b61169f565b90504283600001516001600160401b03161161439c576040516366bfac3d60e01b815260040160405180910390fd5b7f00000000000000000000000000000000000000000000000000000000000000006001600160a01b031683606001516001600160a01b0316146143f25760405163bff9e44560e01b815260040160405180910390fd5b7f00000000000000000000000000000000000000000000000000000000000000006001600160a01b031683608001516001600160a01b0316146144485760405163b3e8cda760e01b815260040160405180910390fd5b60a08301516001600160a01b03166000908152600860209081526040808320818701511515845290915290205460ff1661449557604051639d3b9e0160e01b815260040160405180910390fd5b6040805160c08101825284516001600160401b031681526001600160801b039093166020840152838101511515908301526001600160a01b037f0000000000000000000000000000000000000000000000000000000000000000811660608401527f00000000000000000000000000000000000000000000000000000000000000008116608084015260a08085015190911690830152929650945092509050945094509450949050565b336000908152600a602090815260408083207f00000000000000000000000000000000000000000000000000000000000000006001600160a01b0316845290915290205461458d8284615d72565b111561464757336000908152600a602090815260408083207f00000000000000000000000000000000000000000000000000000000000000006001600160a01b031684529091528120546145e18385615d72565b6145eb9190615e7a565b336000818152600a602090815260408083207f00000000000000000000000000000000000000000000000000000000000000006001600160a01b0381168552925282209190915591925061464191903084612e20565b506146aa565b6146518183615d72565b336000908152600a602090815260408083207f00000000000000000000000000000000000000000000000000000000000000006001600160a01b03168452909152812080549091906146a4908490615e7a565b90915550505b80156146e8576004546146e8907f0000000000000000000000000000000000000000000000000000000000000000906001600160a01b031683611886565b6113a37f00000000000000000000000000000000000000000000000000000000000000007f000000000000000000000000000000000000000000000000000000000000000084611886565b60006106138383614c7c565b600061061383670de0b6b3a764000084614d3e565b6000600160ff1b83148061476b5750600160ff1b82145b1561478957604051630d01a11b60e21b815260040160405180910390fd5b6000806000851261479a578461479f565b846000035b9150600084126147af57836147b4565b836000035b905060006147c28383614c7c565b90506001600160ff1b038111156147ef5760405163bf79e8d960e01b8152600481018290526024016105d5565b600019808713908613808218600114614808578261480d565b826000035b98975050505050505050565b6000600160ff1b8314806148305750600160ff1b82145b1561484e5760405163b3c754a360e01b815260040160405180910390fd5b6000806000851261485f5784614864565b846000035b9150600084126148745783614879565b836000035b9050600061489083670de0b6b3a764000084614d3e565b90506001600160ff1b038111156148bd57604051637cb4bef560e01b8152600481018290526024016105d5565b6000198087139086138082186001146148d6578261480d565b61480d83615e29565b60008183116148ee5782610613565b50805b92915050565b60006001600160ff1b038211156149615760405162461bcd60e51b815260206004820152602860248201527f53616665436173743a2076616c756520646f65736e27742066697420696e2061604482015267371034b73a191a9b60c11b60648201526084016105d5565b5090565b61496d615005565b61497b838560c001516148df565b61010085015260e0840151156149ca576149ca84600001517f0000000000000000000000000000000000000000000000000000000000000000613651613e098860e001518961010001516148df565b8360e001518461010001511115614a5a57614a5a8460000151337f0000000000000000000000000000000000000000000000000000000000000000613e868860e00151896101000151614a1d9190615e7a565b89600001516001600160a01b031663313ce5676040518163ffffffff1660e01b815260040160206040518083038186803b158015613e4657600080fd5b614a7e8460c0015161371e866101000151876060015161473390919063ffffffff16565b8461012001818152505060007f00000000000000000000000000000000000000000000000000000000000000006001600160a01b0316635733af2a86604001518761010001518689600001518a6101200151614b04614ae08d60c001516148f7565b613743614af18f61010001516148f7565b8f6080015161475490919063ffffffff16565b306040518863ffffffff1660e01b8152600401614b279796959493929190615f64565b602060405180830381600087803b158015614b4157600080fd5b505af1158015614b55573d6000803e3d6000fd5b505050506040513d601f19601f82011682018060405250810190614b7991906158fa565b9050614b836142dc565b6001600160a01b031663dce66fb8866020015183614ba090615e29565b88516040516001600160e01b031960e086901b168152614bc7939291600091600401615e46565b600060405180830381600087803b158015614be157600080fd5b505af1158015614bf5573d6000803e3d6000fd5b50505050808560c001818151614c0b9190615e7a565b90525060e0850151610100860151614c2391906148df565b8560e001818151614c349190615e7a565b90525093949350505050565b60006012821115614c5057600080fd5b6000614c5d836012615e7a565b9050614c6a81600a615fb2565b614c749085615e07565b949350505050565b60008080600019848609848602925082811083820303915050670de0b6b3a76400008110614cc05760405163698d9a0160e11b8152600481018290526024016105d5565b600080670de0b6b3a76400008688099150506706f05b59d3b1ffff811182614cfa5780670de0b6b3a76400008504019450505050506148f1565b620400008285030493909111909103600160ee1b02919091177faccb18165bd6fe31ae1cf318dc5b51eee0e1ba569b88cd74c1773b91fac106690201905092915050565b600080806000198587098587029250828110838203039150508060001415614d7957838281614d6f57614d6f615df1565b0492505050610613565b838110614da357604051631dcf306360e21b815260048101829052602481018590526044016105d5565b60008486880960026001871981018816978890046003810283188082028403028082028403028082028403028082028403028082028403029081029092039091026000889003889004909101858311909403939093029303949094049190911702949350505050565b6040805160c081018252600080825260208201819052918101829052606081018290526080810182905260a081019190915290565b5080546000825590600052602060002090810190614e5f919061506d565b50565b604080516101008101909152806000815260200160006001600160a01b0316815260200160006001600160a01b0316815260200160006001600160a01b03168152602001600081526020016000815260200160008152602001606081525090565b60408051610100810190915280600081526000602082018190526040820181905260608201819052608082015260a001614efb614e0c565b815260200160008152602001606081525090565b6040518060200160405280614f22614e0c565b905290565b6040518060a00160405280614f3a614e0c565b8152600060208201819052604082018190526060820181905260809091015290565b6040518060e0016040528060006001600160a01b03168152602001614f7f614e0c565b8152602001614f8c614e0c565b815260200160006001600160801b031681526020016000815260200160008152602001600081525090565b6040518060c00160405280614fca614e0c565b815260200160006001600160a01b03168152602001600081526020016000815260200160006001600160a01b03168152602001600081525090565b60405180610140016040528060006001600160a01b03168152602001615029614e0c565b8152602001615036614e0c565b8152602001600081526020016000815260200160008152602001600081526020016000815260200160008152602001600081525090565b5b80821115614961576000815560010161506e565b634e487b7160e01b600052604160045260246000fd5b60405160c081016001600160401b03811182821017156150ba576150ba615082565b60405290565b604080519081016001600160401b03811182821017156150ba576150ba615082565b60405161012081016001600160401b03811182821017156150ba576150ba615082565b604051601f8201601f191681016001600160401b038111828210171561512d5761512d615082565b604052919050565b60006001600160401b0382111561514e5761514e615082565b5060051b60200190565b6001600160a01b0381168114614e5f57600080fd5b803561517881615158565b919050565b6001600160401b0381168114614e5f57600080fd5b6001600160801b0381168114614e5f57600080fd5b8015158114614e5f57600080fd5b600060c082840312156151c757600080fd5b6151cf615098565b905081356151dc8161517d565b815260208201356151ec81615192565b602082015260408201356151ff816151a7565b6040820152606082013561521281615158565b6060820152608082013561522581615158565b608082015260a082013561523881615158565b60a082015292915050565b600082601f83011261525457600080fd5b81356001600160401b0381111561526d5761526d615082565b615280601f8201601f1916602001615105565b81815284602083860101111561529557600080fd5b816020850160208301376000918101602001919091529392505050565b6000602082840312156152c457600080fd5b6001600160401b03823511156152d957600080fd5b8135820183601f8201126152ec57600080fd5b6152fe6152f98235615135565b615105565b81358082526020808301929160051b84010186101561531c57600080fd5b602083015b6020843560051b8501018110156154ff576001600160401b038135111561534757600080fd5b6040813585018803601f1901121561535e57600080fd5b6153666150c0565b600260208335870101351061537a57600080fd5b81358501602081013582526001600160401b03604090910135111561539e57600080fd5b81358501604081013501603f810189136153b757600080fd5b6153c76152f96020830135615135565b602082810135808352908201919060051b83016040018b10156153e957600080fd5b604083015b6040602085013560051b8501018110156154e6576001600160401b038135111561541757600080fd5b803584016101c0818e03603f1901121561543057600080fd5b6154386150e2565b6040820135815261544b6060830161516d565b602082015261545c6080830161516d565b604082015261546d60a0830161516d565b606082015260c0820135608082015260e082013560a08201526154948e61010084016151b5565b60c08201526101c082013560e08201526001600160401b036101e083013511156154bd57600080fd5b6154d18e60406101e0850135850101615243565b610100820152845250602092830192016153ee565b5060208481019190915292865250509283019201615321565b5095945050505050565b6000806000610100848603121561551f57600080fd5b61552985856151b5565b925060c084013561553981615192565b915060e0840135615549816151a7565b809150509250925092565b6001600160a01b0391909116815260200190565b60006020828403121561557a57600080fd5b813561061381615158565b60006020828403121561559757600080fd5b5035919050565b600082601f8301126155af57600080fd5b813560206155bf6152f983615135565b82815260059290921b840181019181810190868411156155de57600080fd5b8286015b848110156156025780356155f581615158565b83529183019183016155e2565b509695505050505050565b6000806040838503121561562057600080fd5b82356001600160401b038082111561563757600080fd5b6156438683870161559e565b935060209150818501358181111561565a57600080fd5b85019050601f8101861361566d57600080fd5b803561567b6152f982615135565b81815260059190911b8201830190838101908883111561569a57600080fd5b928401925b828410156156b85783358252928401929084019061569f565b80955050505050509250929050565b600060c082840312156156d957600080fd5b61061383836151b5565b600080604083850312156156f657600080fd5b823561570181615158565b91506020830135615711816151a7565b809150509250929050565b6000806040838503121561572f57600080fd5b823561573a81615158565b915060208301356001600160401b0381111561575557600080fd5b6157618582860161559e565b9150509250929050565b60008060006060848603121561578057600080fd5b833561578b81615158565b9250602084013561579b816151a7565b91506040840135615549816151a7565b600080604083850312156157be57600080fd5b82356157c981615158565b9150602083013561571181615158565b600080604083850312156157ec57600080fd5b50508035926020909101359150565b6000806040838503121561580e57600080fd5b823561581981615158565b9150602083013562ffffff8116811461571157600080fd5b60008060e0838503121561584457600080fd5b823561584f81615158565b915061585e84602085016151b5565b90509250929050565b80516001600160401b031682526020808201516001600160801b0316908301526040808201511515908301526060808201516001600160a01b039081169184019190915260808083015182169084015260a09182015116910152565b6001600160a01b038416815261010081016158e16020830185615867565b6001600160801b039290921660e0919091015292915050565b60006020828403121561590c57600080fd5b5051919050565b634e487b7160e01b600052603260045260246000fd5b60006020828403121561593b57600080fd5b815161061381615158565b9283526001600160a01b03918216602084015216604082015260600190565b634e487b7160e01b600052601160045260246000fd5b600060001982141561598f5761598f615965565b5060010190565b6001600160801b039290921682526001600160a01b0316602082015260400190565b634e487b7160e01b600052602160045260246000fd5b60c09390931b6001600160c01b031916835260809190911b6001600160801b0319166008830152151560f81b601882015260190190565b600060608284031215615a1757600080fd5b604051606081018181106001600160401b0382111715615a3957615a39615082565b6040528251615a47816151a7565b81526020830151615a57816151a7565b60208201526040830151615a6a816151a7565b60408201529392505050565b600060208284031215615a8857600080fd5b8151610613816151a7565b600060c08284031215615aa557600080fd5b615aad615098565b90508151615aba8161517d565b81526020820151615aca81615192565b60208201526040820151615add816151a7565b60408201526060820151615af081615158565b60608201526080820151615b0381615158565b608082015260a082015161523881615158565b600060c08284031215615b2857600080fd5b6106138383615a93565b600181815b80851115615b6d578160001904821115615b5357615b53615965565b80851615615b6057918102915b93841c9390800290615b37565b509250929050565b600082615b84575060016148f1565b81615b91575060006148f1565b8160018114615ba75760028114615bb157615bcd565b60019150506148f1565b60ff841115615bc257615bc2615965565b50506001821b6148f1565b5060208310610133831016604e8410600b8410161715615bf0575081810a6148f1565b615bfa8383615b32565b8060001904821115615c0e57615c0e615965565b029392505050565b600061061360ff841683615b75565b6000816000190483118215151615615c3f57615c3f615965565b500290565b6000815180845260005b81811015615c6a57602081850181015186830182015201615c4e565b81811115615c7c576000602083870101525b50601f01601f19169290920160200192915050565b60006020808301818452808551808352604092508286019150828160051b8701018488016000805b84811015615d6357603f198a850301865282516101008151600b8110615ced57634e487b7160e01b85526021600452602485fd5b8652818a01516001600160a01b039081168b8801528983015181168a880152606080840151909116908701526080808301519087015260a0808301519087015260c0808301519087015260e091820151918601819052615d4f81870183615c44565b978a01979550505091870191600101615cb9565b50919998505050505050505050565b60008219821115615d8557615d85615965565b500190565b60c081016148f18284615867565b6101208101615da78287615867565b60c082019490945291151560e083015261010090910152919050565b600080600060608486031215615dd857600080fd5b8351925060208401519150604084015190509250925092565b634e487b7160e01b600052601260045260246000fd5b600082615e2457634e487b7160e01b600052601260045260246000fd5b500490565b6000600160ff1b821415615e3f57615e3f615965565b5060000390565b6101208101615e558287615867565b60c082019490945260e08101929092526001600160a01b031661010090910152919050565b600082821015615e8c57615e8c615965565b500390565b6101808101615ea0828a615867565b6001600160a01b0397881660c083015260e082019690965293861661010085015261012084019290925261014083015290921661016090920191909152919050565b60006101008284031215615ef557600080fd5b604051606081018181106001600160401b0382111715615f1757615f17615082565b604052615f248484615a93565b815260c0830151602082015260e090920151604083015250919050565b600060208284031215615f5357600080fd5b815160ff8116811461061357600080fd5b6101808101615f73828a615867565b60c08201979097526001600160a01b0395861660e082015293851661010085015261012084019290925261014083015290911661016090910152919050565b60006106138383615b7556fea26469706673582212204a6f63a108f42f76927f9630b60a5c8430dc3b9c77ebd5dbbc7c290c6974962864736f6c63430008090033",
  "linkReferences": {
    "contracts/libraries/OptionsCompute.sol": {
      "OptionsCompute": [
        {
          "length": 20,
          "start": 4845
        },
        {
          "length": 20,
          "start": 9427
        },
        {
          "length": 20,
          "start": 13654
        }
      ]
    },
    "contracts/libraries/OpynInteractions.sol": {
      "OpynInteractions": [
        {
          "length": 20,
          "start": 3579
        },
        {
          "length": 20,
          "start": 4992
        }
      ]
    }
  },
  "deployedLinkReferences": {
    "contracts/libraries/OptionsCompute.sol": {
      "OptionsCompute": [
        {
          "length": 20,
          "start": 3448
        },
        {
          "length": 20,
          "start": 8030
        },
        {
          "length": 20,
          "start": 12257
        }
      ]
    },
    "contracts/libraries/OpynInteractions.sol": {
      "OpynInteractions": [
        {
          "length": 20,
          "start": 2182
        },
        {
          "length": 20,
          "start": 3595
        }
      ]
    }
  }
}