{
  "_format": "hh-sol-artifact-1",
  "contractName": "Protocol",
  "sourceName": "contracts/Protocol.sol",
  "abi": [
    {
      "inputs": [
        {
          "internalType": "address",
          "name": "_optionRegistry",
          "type": "address"
        },
        {
          "internalType": "address",
          "name": "_priceFeed",
          "type": "address"
        },
        {
          "internalType": "address",
          "name": "_volatilityFeed",
          "type": "address"
        },
        {
          "internalType": "address",
          "name": "_portfolioValuesFeed",
          "type": "address"
        },
        {
          "internalType": "address",
          "name": "_authority",
          "type": "address"
        }
      ],
      "stateMutability": "nonpayable",
      "type": "constructor"
    },
    {
      "inputs": [],
      "name": "UNAUTHORIZED",
      "type": "error"
    },
    {
      "anonymous": false,
      "inputs": [
        {
          "indexed": false,
          "internalType": "contract IAuthority",
          "name": "authority",
          "type": "address"
        }
      ],
      "name": "AuthorityUpdated",
      "type": "event"
    },
    {
      "inputs": [],
      "name": "accounting",
      "outputs": [
        {
          "internalType": "address",
          "name": "",
          "type": "address"
        }
      ],
      "stateMutability": "view",
      "type": "function"
    },
    {
      "inputs": [],
      "name": "authority",
      "outputs": [
        {
          "internalType": "contract IAuthority",
          "name": "",
          "type": "address"
        }
      ],
      "stateMutability": "view",
      "type": "function"
    },
    {
      "inputs": [
        {
          "internalType": "address",
          "name": "_accounting",
          "type": "address"
        }
      ],
      "name": "changeAccounting",
      "outputs": [],
      "stateMutability": "nonpayable",
      "type": "function"
    },
    {
      "inputs": [
        {
          "internalType": "address",
          "name": "_optionRegistry",
          "type": "address"
        }
      ],
      "name": "changeOptionRegistry",
      "outputs": [],
      "stateMutability": "nonpayable",
      "type": "function"
    },
    {
      "inputs": [
        {
          "internalType": "address",
          "name": "_portfolioValuesFeed",
          "type": "address"
        }
      ],
      "name": "changePortfolioValuesFeed",
      "outputs": [],
      "stateMutability": "nonpayable",
      "type": "function"
    },
    {
      "inputs": [
        {
          "internalType": "address",
          "name": "_priceFeed",
          "type": "address"
        }
      ],
      "name": "changePriceFeed",
      "outputs": [],
      "stateMutability": "nonpayable",
      "type": "function"
    },
    {
      "inputs": [
        {
          "internalType": "address",
          "name": "_volFeed",
          "type": "address"
        }
      ],
      "name": "changeVolatilityFeed",
      "outputs": [],
      "stateMutability": "nonpayable",
      "type": "function"
    },
    {
      "inputs": [],
      "name": "optionRegistry",
      "outputs": [
        {
          "internalType": "address",
          "name": "",
          "type": "address"
        }
      ],
      "stateMutability": "view",
      "type": "function"
    },
    {
      "inputs": [],
      "name": "portfolioValuesFeed",
      "outputs": [
        {
          "internalType": "address",
          "name": "",
          "type": "address"
        }
      ],
      "stateMutability": "view",
      "type": "function"
    },
    {
      "inputs": [],
      "name": "priceFeed",
      "outputs": [
        {
          "internalType": "address",
          "name": "",
          "type": "address"
        }
      ],
      "stateMutability": "view",
      "type": "function"
    },
    {
      "inputs": [
        {
          "internalType": "contract IAuthority",
          "name": "_newAuthority",
          "type": "address"
        }
      ],
      "name": "setAuthority",
      "outputs": [],
      "stateMutability": "nonpayable",
      "type": "function"
    },
    {
      "inputs": [],
      "name": "volatilityFeed",
      "outputs": [
        {
          "internalType": "address",
          "name": "",
          "type": "address"
        }
      ],
      "stateMutability": "view",
      "type": "function"
    }
  ],
  "bytecode": "0x608060405234801561001057600080fd5b5060405161058738038061058783398101604081905261002f916100f3565b600080546001600160a01b0319166001600160a01b03831690811790915560405190815281907f2f658b440c35314f52658ea8a740e05b284cdc84dc9ae01e891f21b8933e7cad9060200160405180910390a15050600180546001600160a01b039586166001600160a01b0319918216179091556005805494861694821694909417909355600280549285169284169290921790915560038054919093169116179055610158565b80516001600160a01b03811681146100ee57600080fd5b919050565b600080600080600060a0868803121561010b57600080fd5b610114866100d7565b9450610122602087016100d7565b9350610130604087016100d7565b925061013e606087016100d7565b915061014c608087016100d7565b90509295509295909350565b610420806101676000396000f3fe608060405234801561001057600080fd5b50600436106100b45760003560e01c80637a9e5e4b116100715780637a9e5e4b1461014957806390c21c2d1461015c5780639624e83e1461016f578063b04969be14610182578063bf7e214f14610195578063cbd3df38146101a857600080fd5b8063128e414b146100b95780633b4567b0146100e8578063405a2008146100fb57806349180360146101105780635fb480c914610123578063741bef1a14610136575b600080fd5b6002546100cc906001600160a01b031681565b6040516001600160a01b03909116815260200160405180910390f35b6001546100cc906001600160a01b031681565b61010e6101093660046103a9565b6101bb565b005b61010e61011e3660046103a9565b6101e5565b6003546100cc906001600160a01b031681565b6005546100cc906001600160a01b031681565b61010e6101573660046103a9565b61020f565b61010e61016a3660046103a9565b61026b565b6004546100cc906001600160a01b031681565b61010e6101903660046103a9565b610295565b6000546100cc906001600160a01b031681565b61010e6101b63660046103a9565b6102bf565b6101c36102e9565b600380546001600160a01b0319166001600160a01b0392909216919091179055565b6101ed6102e9565b600280546001600160a01b0319166001600160a01b0392909216919091179055565b6102176102e9565b600080546001600160a01b0319166001600160a01b0383169081179091556040519081527f2f658b440c35314f52658ea8a740e05b284cdc84dc9ae01e891f21b8933e7cad9060200160405180910390a150565b6102736102e9565b600180546001600160a01b0319166001600160a01b0392909216919091179055565b61029d6102e9565b600480546001600160a01b0319166001600160a01b0392909216919091179055565b6102c76102e9565b600580546001600160a01b0319166001600160a01b0392909216919091179055565b60008054906101000a90046001600160a01b03166001600160a01b0316630c340a246040518163ffffffff1660e01b8152600401602060405180830381865afa15801561033a573d6000803e3d6000fd5b505050506040513d601f19601f8201168201806040525081019061035e91906103cd565b6001600160a01b0316336001600160a01b03161461038f5760405163075fd2b160e01b815260040160405180910390fd5b565b6001600160a01b03811681146103a657600080fd5b50565b6000602082840312156103bb57600080fd5b81356103c681610391565b9392505050565b6000602082840312156103df57600080fd5b81516103c68161039156fea2646970667358221220fdedf19dbf75893894d69dd2be08f263e8c739cd88cf7cab9d2461b4b191bc0a64736f6c634300080e0033",
  "linkReferences": {},
  "deployedLinkReferences": {}
}